{
  "_format": "hh-sol-artifact-1",
  "contractName": "MultiBeneficiaryVesting",
  "sourceName": "contracts/LockupContract.sol",
  "abi": [
    {
      "inputs": [],
      "stateMutability": "nonpayable",
      "type": "constructor"
    },
    {
      "anonymous": false,
      "inputs": [
        {
          "indexed": true,
          "internalType": "address",
          "name": "beneficiary",
          "type": "address"
        },
        {
          "indexed": false,
          "internalType": "uint256",
          "name": "scheduleId",
          "type": "uint256"
        },
        {
          "indexed": false,
          "internalType": "uint256",
          "name": "blockNumber",
          "type": "uint256"
        },
        {
          "indexed": false,
          "internalType": "uint256",
          "name": "startBlock",
          "type": "uint256"
        },
        {
          "indexed": false,
          "internalType": "uint256",
          "name": "elapsedBlocks",
          "type": "uint256"
        },
        {
          "indexed": false,
          "internalType": "uint256",
          "name": "cliffDuration",
          "type": "uint256"
        },
        {
          "indexed": false,
          "internalType": "uint256",
          "name": "cliffBlocks",
          "type": "uint256"
        },
        {
          "indexed": false,
          "internalType": "uint256",
          "name": "vestingPeriod",
          "type": "uint256"
        },
        {
          "indexed": false,
          "internalType": "uint256",
          "name": "result",
          "type": "uint256"
        }
      ],
      "name": "DebugVestedAmount",
      "type": "event"
    },
    {
      "anonymous": false,
      "inputs": [
        {
          "indexed": true,
          "internalType": "address",
          "name": "recipient",
          "type": "address"
        },
        {
          "indexed": false,
          "internalType": "uint256",
          "name": "amount",
          "type": "uint256"
        }
      ],
      "name": "OwnerWithdrawal",
      "type": "event"
    },
    {
      "anonymous": false,
      "inputs": [
        {
          "indexed": true,
          "internalType": "address",
          "name": "previousOwner",
          "type": "address"
        },
        {
          "indexed": true,
          "internalType": "address",
          "name": "newOwner",
          "type": "address"
        }
      ],
      "name": "OwnershipTransferred",
      "type": "event"
    },
    {
      "anonymous": false,
      "inputs": [
        {
          "indexed": true,
          "internalType": "address",
          "name": "beneficiary",
          "type": "address"
        },
        {
          "indexed": false,
          "internalType": "uint256",
          "name": "amount",
          "type": "uint256"
        },
        {
          "indexed": false,
          "internalType": "uint256",
          "name": "scheduleId",
          "type": "uint256"
        }
      ],
      "name": "TokensReleased",
      "type": "event"
    },
    {
      "anonymous": false,
      "inputs": [
        {
          "indexed": true,
          "internalType": "address",
          "name": "beneficiary",
          "type": "address"
        },
        {
          "indexed": false,
          "internalType": "uint256",
          "name": "scheduleId",
          "type": "uint256"
        },
        {
          "indexed": false,
          "internalType": "uint256",
          "name": "totalAmount",
          "type": "uint256"
        },
        {
          "indexed": false,
          "internalType": "uint64",
          "name": "startBlock",
          "type": "uint64"
        },
        {
          "indexed": false,
          "internalType": "uint64",
          "name": "duration",
          "type": "uint64"
        },
        {
          "indexed": false,
          "internalType": "uint64",
          "name": "cliffDuration",
          "type": "uint64"
        }
      ],
      "name": "VestingScheduleAdded",
      "type": "event"
    },
    {
      "inputs": [],
      "name": "acceptOwnership",
      "outputs": [],
      "stateMutability": "nonpayable",
      "type": "function"
    },
    {
      "inputs": [
        {
          "components": [
            {
              "internalType": "address",
              "name": "beneficiary",
              "type": "address"
            },
            {
              "internalType": "uint256",
              "name": "totalAmount",
              "type": "uint256"
            },
            {
              "internalType": "uint64",
              "name": "startBlock",
              "type": "uint64"
            },
            {
              "internalType": "uint64",
              "name": "duration",
              "type": "uint64"
            },
            {
              "internalType": "uint64",
              "name": "cliffDuration",
              "type": "uint64"
            },
            {
              "internalType": "enum MultiBeneficiaryVesting.VestingPeriod",
              "name": "vestingPeriod",
              "type": "uint8"
            }
          ],
          "internalType": "struct MultiBeneficiaryVesting.VestingScheduleInput[]",
          "name": "schedules",
          "type": "tuple[]"
        }
      ],
      "name": "addBeneficiaries",
      "outputs": [],
      "stateMutability": "nonpayable",
      "type": "function"
    },
    {
      "inputs": [
        {
          "internalType": "address",
          "name": "",
          "type": "address"
        },
        {
          "internalType": "uint256",
          "name": "",
          "type": "uint256"
        }
      ],
      "name": "beneficiaries",
      "outputs": [
        {
          "internalType": "uint256",
          "name": "totalAmount",
          "type": "uint256"
        },
        {
          "internalType": "uint256",
          "name": "releasedAmount",
          "type": "uint256"
        },
        {
          "internalType": "uint64",
          "name": "startBlock",
          "type": "uint64"
        },
        {
          "internalType": "uint64",
          "name": "duration",
          "type": "uint64"
        },
        {
          "internalType": "uint64",
          "name": "cliffDuration",
          "type": "uint64"
        },
        {
          "internalType": "bool",
          "name": "isActive",
          "type": "bool"
        },
        {
          "internalType": "enum MultiBeneficiaryVesting.VestingPeriod",
          "name": "vestingPeriod",
          "type": "uint8"
        }
      ],
      "stateMutability": "view",
      "type": "function"
    },
    {
      "inputs": [
        {
          "internalType": "address",
          "name": "beneficiary",
          "type": "address"
        },
        {
          "internalType": "uint256",
          "name": "scheduleId",
          "type": "uint256"
        }
      ],
      "name": "debugVestedAmount",
      "outputs": [],
      "stateMutability": "nonpayable",
      "type": "function"
    },
    {
      "inputs": [],
      "name": "getBalance",
      "outputs": [
        {
          "internalType": "uint256",
          "name": "",
          "type": "uint256"
        }
      ],
      "stateMutability": "view",
      "type": "function"
    },
    {
      "inputs": [
        {
          "internalType": "address",
          "name": "beneficiary",
          "type": "address"
        },
        {
          "internalType": "uint256",
          "name": "scheduleId",
          "type": "uint256"
        }
      ],
      "name": "getClaimableAmount",
      "outputs": [
        {
          "internalType": "uint256",
          "name": "",
          "type": "uint256"
        }
      ],
      "stateMutability": "view",
      "type": "function"
    },
    {
      "inputs": [
        {
          "internalType": "address",
          "name": "beneficiary",
          "type": "address"
        },
        {
          "internalType": "uint256",
          "name": "scheduleId",
          "type": "uint256"
        }
      ],
      "name": "getSchedule",
      "outputs": [
        {
          "internalType": "uint256",
          "name": "totalAmount",
          "type": "uint256"
        },
        {
          "internalType": "uint256",
          "name": "releasedAmount",
          "type": "uint256"
        },
        {
          "internalType": "uint64",
          "name": "startBlock",
          "type": "uint64"
        },
        {
          "internalType": "uint64",
          "name": "duration",
          "type": "uint64"
        },
        {
          "internalType": "uint64",
          "name": "cliffDuration",
          "type": "uint64"
        },
        {
          "internalType": "bool",
          "name": "isActive",
          "type": "bool"
        },
        {
          "internalType": "enum MultiBeneficiaryVesting.VestingPeriod",
          "name": "vestingPeriod",
          "type": "uint8"
        }
      ],
      "stateMutability": "view",
      "type": "function"
    },
    {
      "inputs": [
        {
          "internalType": "address",
          "name": "beneficiary",
          "type": "address"
        }
      ],
      "name": "getScheduleCount",
      "outputs": [
        {
          "internalType": "uint256",
          "name": "",
          "type": "uint256"
        }
      ],
      "stateMutability": "view",
      "type": "function"
    },
    {
      "inputs": [
        {
          "internalType": "address",
          "name": "beneficiary",
          "type": "address"
        }
      ],
      "name": "getTotalClaimableAmount",
      "outputs": [
        {
          "internalType": "uint256",
          "name": "",
          "type": "uint256"
        }
      ],
      "stateMutability": "view",
      "type": "function"
    },
    {
      "inputs": [
        {
          "internalType": "address",
          "name": "",
          "type": "address"
        }
      ],
      "name": "nextScheduleId",
      "outputs": [
        {
          "internalType": "uint256",
          "name": "",
          "type": "uint256"
        }
      ],
      "stateMutability": "view",
      "type": "function"
    },
    {
      "inputs": [],
      "name": "owner",
      "outputs": [
        {
          "internalType": "address",
          "name": "",
          "type": "address"
        }
      ],
      "stateMutability": "view",
      "type": "function"
    },
    {
      "inputs": [],
      "name": "pendingOwner",
      "outputs": [
        {
          "internalType": "address",
          "name": "",
          "type": "address"
        }
      ],
      "stateMutability": "view",
      "type": "function"
    },
    {
      "inputs": [
        {
          "internalType": "uint256",
          "name": "scheduleId",
          "type": "uint256"
        }
      ],
      "name": "release",
      "outputs": [],
      "stateMutability": "nonpayable",
      "type": "function"
    },
    {
      "inputs": [],
      "name": "releaseAll",
      "outputs": [],
      "stateMutability": "nonpayable",
      "type": "function"
    },
    {
      "inputs": [],
      "name": "renounceOwnership",
      "outputs": [],
      "stateMutability": "nonpayable",
      "type": "function"
    },
    {
      "inputs": [
        {
          "internalType": "address",
          "name": "newOwner",
          "type": "address"
        }
      ],
      "name": "transferOwnership",
      "outputs": [],
      "stateMutability": "nonpayable",
      "type": "function"
    },
    {
      "inputs": [],
      "name": "withdrawFunds",
      "outputs": [],
      "stateMutability": "nonpayable",
      "type": "function"
    },
    {
      "stateMutability": "payable",
      "type": "receive"
    }
  ],
  "bytecode": "0x6080806040523461005c57600080546001600160a01b0319163390811782556001805460ff60a01b19169055907f8be0079c531659141344cd1fd0a4f28419497f9722a3daafe3b4186f6b6457e08180a361181190816100628239f35b600080fdfe608080604052600436101561001d575b50361561001b57600080fd5b005b60003560e01c90816301983a3414610f775750806312065fe014610f5b578063240894aa14610f2157806324600fc314610e3657806337bdc99b14610c6b5780634e40170214610c0c578063529849e914610bc65780635be7fde814610a2c5780635d94632b1461049e578063605d52eb146103ca578063715018a61461035f5780637264c4da146102c057806379ba5097146102065780638da5cb5b146101df578063b3743f60146101b0578063e30c3978146101895763f2fde38b146100e5573861000f565b34610184576020366003190112610184576100fe610fad565b6001600160a01b03906101168260005416331461103f565b1680156101405773ffffffffffffffffffffffffffffffffffffffff196001541617600155600080f35b606460405162461bcd60e51b815260206004820152601d60248201527f4e6577206f776e657220697320746865207a65726f20616464726573730000006044820152fd5b600080fd5b346101845760003660031901126101845760206001600160a01b0360015416604051908152f35b346101845760403660031901126101845760206101d76101ce610fad565b60243590611438565b604051908152f35b346101845760003660031901126101845760206001600160a01b0360005416604051908152f35b34610184576000366003190112610184576001546001600160a01b039081811680330361027c57806000549384167f8be0079c531659141344cd1fd0a4f28419497f9722a3daafe3b4186f6b6457e0600080a373ffffffffffffffffffffffffffffffffffffffff199283161760005516600155005b606460405162461bcd60e51b815260206004820152601f60248201527f43616c6c6572206973206e6f74207468652070656e64696e67206f776e6572006044820152fd5b34610184576040366003190112610184576103146102dc610fad565b6001600160a01b036024359116806000526002602052610302604060002054831061111f565b60005260026020526040600020610fc3565b50805461035b600260018401549301549160405193849367ffffffffffffffff9060ff8160c81c169360ff8260c01c1693838360801c1693808460401c1693169188610ff5565b0390f35b346101845760003660031901126101845773ffffffffffffffffffffffffffffffffffffffff1960005460006001600160a01b0382166103a081331461103f565b7f8be0079c531659141344cd1fd0a4f28419497f9722a3daafe3b4186f6b6457e08280a316600055005b34610184576020366003190112610184576001600160a01b036103eb610fad565b1660009081526002602081905260408220805491835b83811061041357602085604051908152f35b60ff826104208386610fc3565b50015460c01c16156104955761043f6104398285610fc3565b50611298565b6104498285610fc3565b506001809101548211610467575b50506104629061108a565b610401565b9561048761048d92849861047e6104629689610fc3565b500154906111b5565b90611258565b949086610457565b6104629061108a565b346101845760203660031901126101845760043567ffffffffffffffff811161018457366023820112156101845767ffffffffffffffff8160040135116101845736602460c083600401350283010111610184576105086001600160a01b0360005416331461103f565b60005b8160040135811061051857005b61052a818360040135602485016110af565b35906001600160a01b0382168203610184576001600160a01b038216156109e857602061055f828560040135602487016110af565b0135156109a45767ffffffffffffffff61058c6060610586848760040135602489016110af565b016110bf565b161561093a576105a96080610586838660040135602488016110af565b67ffffffffffffffff806105ca606061058686896004013560248b016110af565b169116116108f6576001600160a01b038216600052600360205260406000205460026020526040600020926020610609848760040135602489016110af565b013593610623604061058686896004013560248b016110af565b61063a6060610586878a6004013560248c016110af565b956106526080610586888b6004013560248d016110af565b60a0610666888b6004013560248d016110af565b013592600784101561018457604051988960e081011067ffffffffffffffff60e08c0111176108e05767ffffffffffffffff809492819360e08d016040528c52600060208d01521660408b0152166060890152166080870152600160a087015260c08601528054680100000000000000008110156108e0576106ed91600182018155610fc3565b6108ca57845181556020850151600182015567ffffffffffffffff6040860151166002820154926fffffffffffffffff0000000000000000606088015160401b169277ffffffffffffffff00000000000000000000000000000000608089015160801b169460c078ff00000000000000000000000000000000000000000000000060a08b01511515821b169901519060078210156108b4576108af997ff19f60c7a7fc34817ff68db2ad94b00d552ac0dcbff11255c5a156c9b1c2e55d9760a0976001600160a01b03977fffffffffffff000000000000000000000000000000000000000000000000000079ff0000000000000000000000000000000000000000000000000060029760c81b16951617171717179101558181166000526003602052604060002061081e815461108a565b905567ffffffffffffffff602061083d888b6004013560248d016110af565b0135818a818a6108896080610586610862604061058686896004013560248b016110af565b9361087a6060610586838a6004013560248c016110af565b966024816004013591016110af565b946040519b8c5260208c01521660408a01521660608801521660808601521692a261108a565b61050b565b634e487b7160e01b600052602160045260246000fd5b634e487b7160e01b600052600060045260246000fd5b634e487b7160e01b600052604160045260246000fd5b606460405162461bcd60e51b815260206004820152601c60248201527f436c6966662063616e6e6f7420657863656564206475726174696f6e000000006044820152fd5b608460405162461bcd60e51b815260206004820152602260248201527f4475726174696f6e206d7573742062652067726561746572207468616e207a6560448201527f726f0000000000000000000000000000000000000000000000000000000000006064820152fd5b606460405162461bcd60e51b815260206004820152602060248201527f416d6f756e74206d7573742062652067726561746572207468616e207a65726f6044820152fd5b606460405162461bcd60e51b815260206004820152600f60248201527f496e76616c6964206164647265737300000000000000000000000000000000006044820152fd5b34610184576000366003190112610184576001805460ff610a52818360a01c16156110d4565b600160a01b60ff60a01b1980931617835533600052600290602090828252604060002090815415610b825790859291600094846000905b610abc575b8588610ab560008080808d610aa481151561116a565b335af1610aaf6111c2565b5061120d565b8154169055005b8354811015610b7d57808383610ad5610b099488610fc3565b50015460c01c1615610b7857610aee6104398287610fc3565b87610af98388610fc3565b5001548111610b0f575b5061108a565b85610a89565b610b4090610b2a89610b21858a610fc3565b500154826111b5565b998a918a610b38868b610fc3565b500155611258565b9760405190815281878201527fc5c52c2a9175470464d5ea4429889e7df2ea88630a3d32f4d0d3d2d44865621060403392a28a610b03565b61108a565b610a8e565b6064836040519062461bcd60e51b82526004820152601f60248201527f4e6f2076657374696e67207363686564756c657320666f722073656e646572006044820152fd5b3461018457604036600319011261018457610bdf610fad565b6001600160a01b036024359116600052600260205260406000209081548110156101845761031491610fc3565b346101845760403660031901126101845761001b610c28610fad565b602435906001600160a01b038116806000526002602052610c4f604060002054841061111f565b6000526002602052610c65826040600020610fc3565b506114bb565b3461018457602080600319360112610184576004359060015491610c9560ff8460a01c16156110d4565b600160a01b60ff60a01b19809416176001553360005260028252610cbf604060002054821061111f565b3360005260028252610cd5816040600020610fc3565b509160ff600284015460c01c1615610df25782548015610dae576001610cfa85611298565b94019380610d148654610d0e81841161116a565b826111b5565b955511610d6a57610d2f600080808087335af1610aaf6111c2565b6040519283528201527fc5c52c2a9175470464d5ea4429889e7df2ea88630a3d32f4d0d3d2d44865621060403392a260015416600155600080f35b6064906040519062461bcd60e51b82526004820152601660248201527f52656c6561736564206578636565647320746f74616c000000000000000000006044820152fd5b6064826040519062461bcd60e51b82526004820152601e60248201527f4e6f2076657374696e67207363686564756c6520666f722073656e64657200006044820152fd5b6064906040519062461bcd60e51b82526004820152601660248201527f5363686564756c65206973206e6f7420616374697665000000000000000000006044820152fd5b34610184576000366003190112610184576001600160a01b038060005416610e5f81331461103f565b60015491610e7360ff8460a01c16156110d4565b600160a01b60ff60a01b198094161760015547918215610edd577fa919fadcfa556a012bab31b15f596ea7ccd397adbf10e15f176db9055ab361c491610ec56000808080886020975af1610aaf6111c2565b6000541692604051908152a260015416600155600080f35b606460405162461bcd60e51b815260206004820152601760248201527f436f6e747261637420686173206e6f2062616c616e63650000000000000000006044820152fd5b34610184576020366003190112610184576001600160a01b03610f42610fad565b1660005260026020526020604060002054604051908152f35b3461018457600036600319011261018457602047604051908152f35b34610184576020366003190112610184576020906001600160a01b03610f9b610fad565b16600052600382526040600020548152f35b600435906001600160a01b038216820361018457565b8054821015610fdf576000526003602060002091020190600090565b634e487b7160e01b600052603260045260246000fd5b94919796959392909760e08601988652602086015267ffffffffffffffff92838092166040870152166060850152166080830152151560a082015260078210156108b45760c00152565b1561104657565b606460405162461bcd60e51b815260206004820152601760248201527f43616c6c6572206973206e6f7420746865206f776e65720000000000000000006044820152fd5b60001981146110995760010190565b634e487b7160e01b600052601160045260246000fd5b9190811015610fdf5760c0020190565b3567ffffffffffffffff811681036101845790565b156110db57565b606460405162461bcd60e51b815260206004820152601f60248201527f5265656e7472616e637947756172643a207265656e7472616e742063616c6c006044820152fd5b1561112657565b606460405162461bcd60e51b815260206004820152601360248201527f496e76616c6964207363686564756c65204944000000000000000000000000006044820152fd5b1561117157565b606460405162461bcd60e51b815260206004820152601f60248201527f4e6f20746f6b656e7320617661696c61626c6520666f722072656c65617365006044820152fd5b9190820391821161109957565b3d156112085767ffffffffffffffff903d8281116108e05760405192601f8201601f19908116603f01168401908111848210176108e05760405282523d6000602084013e565b606090565b1561121457565b606460405162461bcd60e51b815260206004820152600f60248201527f5472616e73666572206661696c656400000000000000000000000000000000006044820152fd5b9190820180921161109957565b811561126f570490565b634e487b7160e01b600052601260045260246000fd5b8181029291811591840414171561109957565b600281015467ffffffffffffffff9081811680431061138d576112bb90436111b5565b6112e060ff8360c81c16846112d68280978760801c166113fe565b9460401c166113fe565b928282106113835760078110156108b4578061133157508281101561132a579161131b826113156113229461132797966111b5565b926111b5565b9254611285565b611265565b90565b5050505490565b916113158161134461134a949695611396565b956111b5565b918282101561132a576113608161136693611265565b92611265565b908181101561137d57611322906113279354611285565b50505490565b5050505050600090565b50505050600090565b60078110156108b457600181146113f857600281146113f157600381146113ea57600481146113e257600581146113da576006146113d357600190565b62603d8090565b506207e90090565b506201d88090565b5061438090565b506102d090565b50600c90565b60078210156108b45781156114295767ffffffffffffffff61142261132793611396565b9116611285565b67ffffffffffffffff91501690565b6001600160a01b0361147091169160009280845260026020526114606040852054831061111f565b8352600260205260408320610fc3565b5060ff600282015460c01c161580156114b2575b6114ae57600161149382611298565b91015490818111156114a95761132792506111b5565b505090565b5090565b50805415611484565b60028101549167ffffffffffffffff918284169384431061175e576114e085436111b5565b93808260801c169060ff8360c81c169161150a836114fe81846113fe565b93604096871c166113fe565b968281106116ef5760078410156108b4577fb21cfefc494cc9be6ffd20eec3596e84c148eefa28ae786f7667aa908bcf343e986001600160a01b03988561160657808310156115b8576115b39761132261156c9261131b8861131581896111b5565b95519a8b524360208c015267ffffffffffffffff90811660408c015260608b019190915216608089015260a088015260c087015260e0860152911692908190610100820190565b0390a2565b5095549451998a524360208b015267ffffffffffffffff95861660408b015260608a0152909316608088015260a087019290925260c086019190915260e085015216918061010081016115b3565b61160f86611396565b6116238661161d81876111b5565b936111b5565b91828110156116a457906113608161163a93611265565b9081811015611655579061132261156c926115b39a54611285565b505095549451998a524360208b015267ffffffffffffffff95861660408b015260608a0152909316608088015260a087019290925260c086019190915260e085015216918061010081016115b3565b5050965495519a8b524360208c015267ffffffffffffffff90811660408c015260608b019190915216608089015260a088015260c087015260e08601525016918061010081016115b3565b97965090919294935060078310156108b4577fb21cfefc494cc9be6ffd20eec3596e84c148eefa28ae786f7667aa908bcf343e9661010096866001600160a01b0397519a8b524360208c01528a01526060890152608088015260a087015260c0860152600060e08601521692a2565b929391905060ff8360c81c1660078110156108b4577fb21cfefc494cc9be6ffd20eec3596e84c148eefa28ae786f7667aa908bcf343e94610100946001600160a01b03946040519889524360208a015260408901526000606089015260801c166080870152600060a087015260c0860152600060e08601521692a256fea2646970667358221220c5f3349dcf16f4936f811c2d78f94074f949740a252ee72eaba8d967b3639b3e64736f6c63430008140033",
  "linkReferences": {},
  "deployedLinkReferences": {}
}