{
  "_format": "hh-sol-artifact-1",
  "contractName": "MultiBeneficiaryVesting",
  "sourceName": "contracts/LockupContract.sol",
  "abi": [
    {
      "inputs": [],
      "stateMutability": "nonpayable",
      "type": "constructor"
    },
    {
      "anonymous": false,
      "inputs": [
        {
          "indexed": true,
          "internalType": "address",
          "name": "recipient",
          "type": "address"
        },
        {
          "indexed": false,
          "internalType": "uint256",
          "name": "amount",
          "type": "uint256"
        }
      ],
      "name": "OwnerWithdrawal",
      "type": "event"
    },
    {
      "anonymous": false,
      "inputs": [
        {
          "indexed": true,
          "internalType": "address",
          "name": "previousOwner",
          "type": "address"
        },
        {
          "indexed": true,
          "internalType": "address",
          "name": "newOwner",
          "type": "address"
        }
      ],
      "name": "OwnershipTransferred",
      "type": "event"
    },
    {
      "anonymous": false,
      "inputs": [
        {
          "indexed": true,
          "internalType": "address",
          "name": "beneficiary",
          "type": "address"
        },
        {
          "indexed": false,
          "internalType": "uint256",
          "name": "amount",
          "type": "uint256"
        }
      ],
      "name": "TokensReleased",
      "type": "event"
    },
    {
      "anonymous": false,
      "inputs": [
        {
          "indexed": true,
          "internalType": "address",
          "name": "beneficiary",
          "type": "address"
        },
        {
          "indexed": false,
          "internalType": "uint256",
          "name": "totalAmount",
          "type": "uint256"
        },
        {
          "indexed": false,
          "internalType": "uint64",
          "name": "startBlock",
          "type": "uint64"
        },
        {
          "indexed": false,
          "internalType": "uint64",
          "name": "durationInBlocks",
          "type": "uint64"
        }
      ],
      "name": "VestingScheduleAdded",
      "type": "event"
    },
    {
      "inputs": [],
      "name": "acceptOwnership",
      "outputs": [],
      "stateMutability": "nonpayable",
      "type": "function"
    },
    {
      "inputs": [
        {
          "components": [
            {
              "internalType": "address",
              "name": "beneficiary",
              "type": "address"
            },
            {
              "internalType": "uint256",
              "name": "totalAmount",
              "type": "uint256"
            },
            {
              "internalType": "uint64",
              "name": "startBlock",
              "type": "uint64"
            },
            {
              "internalType": "uint64",
              "name": "durationInBlocks",
              "type": "uint64"
            }
          ],
          "internalType": "struct MultiBeneficiaryVesting.VestingScheduleInput[]",
          "name": "schedules",
          "type": "tuple[]"
        }
      ],
      "name": "addBeneficiaries",
      "outputs": [],
      "stateMutability": "nonpayable",
      "type": "function"
    },
    {
      "inputs": [
        {
          "internalType": "address",
          "name": "",
          "type": "address"
        }
      ],
      "name": "beneficiaries",
      "outputs": [
        {
          "internalType": "uint256",
          "name": "totalAmount",
          "type": "uint256"
        },
        {
          "internalType": "uint256",
          "name": "releasedAmount",
          "type": "uint256"
        },
        {
          "internalType": "uint64",
          "name": "startBlock",
          "type": "uint64"
        },
        {
          "internalType": "uint64",
          "name": "durationInBlocks",
          "type": "uint64"
        }
      ],
      "stateMutability": "view",
      "type": "function"
    },
    {
      "inputs": [],
      "name": "getBalance",
      "outputs": [
        {
          "internalType": "uint256",
          "name": "",
          "type": "uint256"
        }
      ],
      "stateMutability": "view",
      "type": "function"
    },
    {
      "inputs": [
        {
          "internalType": "address",
          "name": "beneficiary",
          "type": "address"
        }
      ],
      "name": "getClaimableAmount",
      "outputs": [
        {
          "internalType": "uint256",
          "name": "",
          "type": "uint256"
        }
      ],
      "stateMutability": "view",
      "type": "function"
    },
    {
      "inputs": [],
      "name": "owner",
      "outputs": [
        {
          "internalType": "address",
          "name": "",
          "type": "address"
        }
      ],
      "stateMutability": "view",
      "type": "function"
    },
    {
      "inputs": [],
      "name": "pendingOwner",
      "outputs": [
        {
          "internalType": "address",
          "name": "",
          "type": "address"
        }
      ],
      "stateMutability": "view",
      "type": "function"
    },
    {
      "inputs": [],
      "name": "release",
      "outputs": [],
      "stateMutability": "nonpayable",
      "type": "function"
    },
    {
      "inputs": [],
      "name": "renounceOwnership",
      "outputs": [],
      "stateMutability": "nonpayable",
      "type": "function"
    },
    {
      "inputs": [
        {
          "internalType": "address",
          "name": "newOwner",
          "type": "address"
        }
      ],
      "name": "transferOwnership",
      "outputs": [],
      "stateMutability": "nonpayable",
      "type": "function"
    },
    {
      "inputs": [],
      "name": "withdrawFunds",
      "outputs": [],
      "stateMutability": "nonpayable",
      "type": "function"
    },
    {
      "stateMutability": "payable",
      "type": "receive"
    }
  ],
  "bytecode": "0x608060405234801561001057600080fd5b50600080546001600160a01b0319163390811782556001805460ff60a01b191690556040519091907f8be0079c531659141344cd1fd0a4f28419497f9722a3daafe3b4186f6b6457e0908290a361101e8061006c6000396000f3fe6080604052600436106100c05760003560e01c806379ba509711610074578063e12f3a611161004e578063e12f3a6114610221578063e30c397814610241578063f2fde38b1461026157600080fd5b806379ba5097146101bf57806386d1a69f146101d45780638da5cb5b146101e957600080fd5b806324600fc3116100a557806324600fc314610173578063715018a61461018a5780637691276a1461019f57600080fd5b806301567739146100cc57806312065fe01461015657600080fd5b366100c757005b600080fd5b3480156100d857600080fd5b506101216100e7366004610e60565b600260208190526000918252604090912080546001820154919092015467ffffffffffffffff808216916801000000000000000090041684565b60408051948552602085019390935267ffffffffffffffff918216928401929092521660608201526080015b60405180910390f35b34801561016257600080fd5b50475b60405190815260200161014d565b34801561017f57600080fd5b50610188610281565b005b34801561019657600080fd5b50610188610491565b3480156101ab57600080fd5b506101886101ba366004610e90565b610542565b3480156101cb57600080fd5b5061018861098d565b3480156101e057600080fd5b50610188610a58565b3480156101f557600080fd5b50600054610209906001600160a01b031681565b6040516001600160a01b03909116815260200161014d565b34801561022d57600080fd5b5061016561023c366004610e60565b610c7e565b34801561024d57600080fd5b50600154610209906001600160a01b031681565b34801561026d57600080fd5b5061018861027c366004610e60565b610ce0565b6000546001600160a01b031633146102e05760405162461bcd60e51b815260206004820152601760248201527f43616c6c6572206973206e6f7420746865206f776e657200000000000000000060448201526064015b60405180910390fd5b600154600160a01b900460ff161561033a5760405162461bcd60e51b815260206004820152601f60248201527f5265656e7472616e637947756172643a207265656e7472616e742063616c6c0060448201526064016102d7565b6001805460ff60a01b1916600160a01b179055478061039b5760405162461bcd60e51b815260206004820152601760248201527f436f6e747261637420686173206e6f2062616c616e636500000000000000000060448201526064016102d7565b600080546040516001600160a01b039091169083908381818185875af1925050503d80600081146103e8576040519150601f19603f3d011682016040523d82523d6000602084013e6103ed565b606091505b505090508061043e5760405162461bcd60e51b815260206004820152600f60248201527f5472616e73666572206661696c6564000000000000000000000000000000000060448201526064016102d7565b6000546040518381526001600160a01b03909116907fa919fadcfa556a012bab31b15f596ea7ccd397adbf10e15f176db9055ab361c49060200160405180910390a250506001805460ff60a01b19169055565b6000546001600160a01b031633146104eb5760405162461bcd60e51b815260206004820152601760248201527f43616c6c6572206973206e6f7420746865206f776e657200000000000000000060448201526064016102d7565b600080546040516001600160a01b03909116907f8be0079c531659141344cd1fd0a4f28419497f9722a3daafe3b4186f6b6457e0908390a36000805473ffffffffffffffffffffffffffffffffffffffff19169055565b6000546001600160a01b0316331461059c5760405162461bcd60e51b815260206004820152601760248201527f43616c6c6572206973206e6f7420746865206f776e657200000000000000000060448201526064016102d7565b60005b818110156109885760008383838181106105bb576105bb610f05565b6105d19260206080909202019081019150610e60565b90506001600160a01b0381166106295760405162461bcd60e51b815260206004820152600f60248201527f496e76616c69642061646472657373000000000000000000000000000000000060448201526064016102d7565b6001600160a01b0381166000908152600260205260409020541561068f5760405162461bcd60e51b815260206004820152601a60248201527f42656e656669636961727920616c72656164792065786973747300000000000060448201526064016102d7565b60008484848181106106a3576106a3610f05565b90506080020160200135116106fa5760405162461bcd60e51b815260206004820181905260248201527f416d6f756e74206d7573742062652067726561746572207468616e207a65726f60448201526064016102d7565b600084848481811061070e5761070e610f05565b90506080020160600160208101906107269190610f1b565b67ffffffffffffffff16116107a35760405162461bcd60e51b815260206004820152602260248201527f4475726174696f6e206d7573742062652067726561746572207468616e207a6560448201527f726f00000000000000000000000000000000000000000000000000000000000060648201526084016102d7565b60405180608001604052808585858181106107c0576107c0610f05565b905060800201602001358152602001600081526020018585858181106107e8576107e8610f05565b90506080020160400160208101906108009190610f1b565b67ffffffffffffffff16815260200185858581811061082157610821610f05565b90506080020160600160208101906108399190610f1b565b67ffffffffffffffff9081169091526001600160a01b038316600081815260026020818152604092839020865181559086015160018201559185015191018054606090950151841668010000000000000000027fffffffffffffffffffffffffffffffff0000000000000000000000000000000090951691909316179290921790557f253bf6e5fad789e5dbc1a5974ef5ebd0123023ba920c98ed7ca75dbc94eda9c38585858181106108ee576108ee610f05565b9050608002016020013586868681811061090a5761090a610f05565b90506080020160400160208101906109229190610f1b565b87878781811061093457610934610f05565b905060800201606001602081019061094c9190610f1b565b6040805193845267ffffffffffffffff928316602085015291169082015260600160405180910390a2508061098081610f5b565b91505061059f565b505050565b6001546001600160a01b031633146109e75760405162461bcd60e51b815260206004820152601f60248201527f43616c6c6572206973206e6f74207468652070656e64696e67206f776e65720060448201526064016102d7565b600154600080546040516001600160a01b0393841693909116917f8be0079c531659141344cd1fd0a4f28419497f9722a3daafe3b4186f6b6457e091a3600180546000805473ffffffffffffffffffffffffffffffffffffffff199081166001600160a01b03841617909155169055565b600154600160a01b900460ff1615610ab25760405162461bcd60e51b815260206004820152601f60248201527f5265656e7472616e637947756172643a207265656e7472616e742063616c6c0060448201526064016102d7565b6001805460ff60a01b1916600160a01b1790553360009081526002602052604090208054610b225760405162461bcd60e51b815260206004820152601e60248201527f4e6f2076657374696e67207363686564756c6520666f722073656e646572000060448201526064016102d7565b6000610b2d82610dbf565b905081600101548111610b825760405162461bcd60e51b815260206004820152601f60248201527f4e6f20746f6b656e7320617661696c61626c6520666f722072656c656173650060448201526064016102d7565b6000826001015482610b949190610f74565b60018401839055604051909150600090339083908381818185875af1925050503d8060008114610be0576040519150601f19603f3d011682016040523d82523d6000602084013e610be5565b606091505b5050905080610c365760405162461bcd60e51b815260206004820152600f60248201527f5472616e73666572206661696c6564000000000000000000000000000000000060448201526064016102d7565b60405182815233907fc7798891864187665ac6dd119286e44ec13f014527aeeb2b8eb3fd413df931799060200160405180910390a250506001805460ff60a01b191690555050565b6001600160a01b038116600090815260026020526040812080548203610ca75750600092915050565b6000610cb282610dbf565b905081600101548111610cc9575060009392505050565b6001820154610cd89082610f74565b949350505050565b6000546001600160a01b03163314610d3a5760405162461bcd60e51b815260206004820152601760248201527f43616c6c6572206973206e6f7420746865206f776e657200000000000000000060448201526064016102d7565b6001600160a01b038116610d905760405162461bcd60e51b815260206004820152601d60248201527f4e6577206f776e657220697320746865207a65726f206164647265737300000060448201526064016102d7565b6001805473ffffffffffffffffffffffffffffffffffffffff19166001600160a01b0392909216919091179055565b600281015460009067ffffffffffffffff16431015610de057506000919050565b6002820154610e079067ffffffffffffffff68010000000000000000820481169116610f87565b67ffffffffffffffff164310610e1c57505490565b600282015467ffffffffffffffff680100000000000000008204811691610e44911643610f74565b8354610e509190610faf565b610e5a9190610fc6565b92915050565b600060208284031215610e7257600080fd5b81356001600160a01b0381168114610e8957600080fd5b9392505050565b60008060208385031215610ea357600080fd5b823567ffffffffffffffff80821115610ebb57600080fd5b818501915085601f830112610ecf57600080fd5b813581811115610ede57600080fd5b8660208260071b8501011115610ef357600080fd5b60209290920196919550909350505050565b634e487b7160e01b600052603260045260246000fd5b600060208284031215610f2d57600080fd5b813567ffffffffffffffff81168114610e8957600080fd5b634e487b7160e01b600052601160045260246000fd5b600060018201610f6d57610f6d610f45565b5060010190565b81810381811115610e5a57610e5a610f45565b67ffffffffffffffff818116838216019080821115610fa857610fa8610f45565b5092915050565b8082028115828204841417610e5a57610e5a610f45565b600082610fe357634e487b7160e01b600052601260045260246000fd5b50049056fea26469706673582212202481c822d194b5188c22c4f4829b27ea964bc8cf160856ad824b471b4baceb1964736f6c63430008140033",
  "linkReferences": {},
  "deployedLinkReferences": {}
}