{
  "_format": "hh-sol-artifact-1",
  "contractName": "MultiBeneficiaryVesting",
  "sourceName": "contracts/LockupContract.sol",
  "abi": [
    {
      "inputs": [],
      "stateMutability": "nonpayable",
      "type": "constructor"
    },
    {
      "anonymous": false,
      "inputs": [
        {
          "indexed": true,
          "internalType": "address",
          "name": "beneficiary",
          "type": "address"
        },
        {
          "indexed": false,
          "internalType": "uint256",
          "name": "scheduleId",
          "type": "uint256"
        },
        {
          "indexed": false,
          "internalType": "uint256",
          "name": "blockNumber",
          "type": "uint256"
        },
        {
          "indexed": false,
          "internalType": "uint256",
          "name": "startBlock",
          "type": "uint256"
        },
        {
          "indexed": false,
          "internalType": "uint256",
          "name": "elapsedBlocks",
          "type": "uint256"
        },
        {
          "indexed": false,
          "internalType": "uint256",
          "name": "cliffDuration",
          "type": "uint256"
        },
        {
          "indexed": false,
          "internalType": "uint256",
          "name": "cliffBlocks",
          "type": "uint256"
        },
        {
          "indexed": false,
          "internalType": "uint256",
          "name": "vestingPeriod",
          "type": "uint256"
        },
        {
          "indexed": false,
          "internalType": "uint256",
          "name": "result",
          "type": "uint256"
        }
      ],
      "name": "DebugVestedAmount",
      "type": "event"
    },
    {
      "anonymous": false,
      "inputs": [
        {
          "indexed": true,
          "internalType": "address",
          "name": "recipient",
          "type": "address"
        },
        {
          "indexed": false,
          "internalType": "uint256",
          "name": "amount",
          "type": "uint256"
        }
      ],
      "name": "OwnerWithdrawal",
      "type": "event"
    },
    {
      "anonymous": false,
      "inputs": [
        {
          "indexed": true,
          "internalType": "address",
          "name": "previousOwner",
          "type": "address"
        },
        {
          "indexed": true,
          "internalType": "address",
          "name": "newOwner",
          "type": "address"
        }
      ],
      "name": "OwnershipTransferred",
      "type": "event"
    },
    {
      "anonymous": false,
      "inputs": [
        {
          "indexed": true,
          "internalType": "address",
          "name": "beneficiary",
          "type": "address"
        },
        {
          "indexed": false,
          "internalType": "uint256",
          "name": "amount",
          "type": "uint256"
        },
        {
          "indexed": false,
          "internalType": "uint256",
          "name": "scheduleId",
          "type": "uint256"
        }
      ],
      "name": "TokensReleased",
      "type": "event"
    },
    {
      "anonymous": false,
      "inputs": [
        {
          "indexed": true,
          "internalType": "address",
          "name": "beneficiary",
          "type": "address"
        },
        {
          "indexed": false,
          "internalType": "uint256",
          "name": "scheduleId",
          "type": "uint256"
        },
        {
          "indexed": false,
          "internalType": "uint256",
          "name": "totalAmount",
          "type": "uint256"
        },
        {
          "indexed": false,
          "internalType": "uint64",
          "name": "startBlock",
          "type": "uint64"
        },
        {
          "indexed": false,
          "internalType": "uint64",
          "name": "duration",
          "type": "uint64"
        },
        {
          "indexed": false,
          "internalType": "uint64",
          "name": "cliffDuration",
          "type": "uint64"
        }
      ],
      "name": "VestingScheduleAdded",
      "type": "event"
    },
    {
      "inputs": [],
      "name": "acceptOwnership",
      "outputs": [],
      "stateMutability": "nonpayable",
      "type": "function"
    },
    {
      "inputs": [
        {
          "components": [
            {
              "internalType": "address",
              "name": "beneficiary",
              "type": "address"
            },
            {
              "internalType": "uint256",
              "name": "totalAmount",
              "type": "uint256"
            },
            {
              "internalType": "uint64",
              "name": "startBlock",
              "type": "uint64"
            },
            {
              "internalType": "uint64",
              "name": "duration",
              "type": "uint64"
            },
            {
              "internalType": "uint64",
              "name": "cliffDuration",
              "type": "uint64"
            },
            {
              "internalType": "enum MultiBeneficiaryVesting.VestingPeriod",
              "name": "vestingPeriod",
              "type": "uint8"
            }
          ],
          "internalType": "struct MultiBeneficiaryVesting.VestingScheduleInput[]",
          "name": "schedules",
          "type": "tuple[]"
        }
      ],
      "name": "addBeneficiaries",
      "outputs": [],
      "stateMutability": "nonpayable",
      "type": "function"
    },
    {
      "inputs": [
        {
          "internalType": "address",
          "name": "",
          "type": "address"
        },
        {
          "internalType": "uint256",
          "name": "",
          "type": "uint256"
        }
      ],
      "name": "beneficiaries",
      "outputs": [
        {
          "internalType": "uint256",
          "name": "totalAmount",
          "type": "uint256"
        },
        {
          "internalType": "uint256",
          "name": "releasedAmount",
          "type": "uint256"
        },
        {
          "internalType": "uint64",
          "name": "startBlock",
          "type": "uint64"
        },
        {
          "internalType": "uint64",
          "name": "duration",
          "type": "uint64"
        },
        {
          "internalType": "uint64",
          "name": "cliffDuration",
          "type": "uint64"
        },
        {
          "internalType": "bool",
          "name": "isActive",
          "type": "bool"
        },
        {
          "internalType": "enum MultiBeneficiaryVesting.VestingPeriod",
          "name": "vestingPeriod",
          "type": "uint8"
        }
      ],
      "stateMutability": "view",
      "type": "function"
    },
    {
      "inputs": [],
      "name": "getBalance",
      "outputs": [
        {
          "internalType": "uint256",
          "name": "",
          "type": "uint256"
        }
      ],
      "stateMutability": "view",
      "type": "function"
    },
    {
      "inputs": [
        {
          "internalType": "address",
          "name": "beneficiary",
          "type": "address"
        },
        {
          "internalType": "uint256",
          "name": "scheduleId",
          "type": "uint256"
        }
      ],
      "name": "getClaimableAmount",
      "outputs": [
        {
          "internalType": "uint256",
          "name": "",
          "type": "uint256"
        }
      ],
      "stateMutability": "view",
      "type": "function"
    },
    {
      "inputs": [
        {
          "internalType": "address",
          "name": "beneficiary",
          "type": "address"
        },
        {
          "internalType": "uint256",
          "name": "scheduleId",
          "type": "uint256"
        }
      ],
      "name": "getSchedule",
      "outputs": [
        {
          "internalType": "uint256",
          "name": "totalAmount",
          "type": "uint256"
        },
        {
          "internalType": "uint256",
          "name": "releasedAmount",
          "type": "uint256"
        },
        {
          "internalType": "uint64",
          "name": "startBlock",
          "type": "uint64"
        },
        {
          "internalType": "uint64",
          "name": "duration",
          "type": "uint64"
        },
        {
          "internalType": "uint64",
          "name": "cliffDuration",
          "type": "uint64"
        },
        {
          "internalType": "bool",
          "name": "isActive",
          "type": "bool"
        },
        {
          "internalType": "enum MultiBeneficiaryVesting.VestingPeriod",
          "name": "vestingPeriod",
          "type": "uint8"
        }
      ],
      "stateMutability": "view",
      "type": "function"
    },
    {
      "inputs": [
        {
          "internalType": "address",
          "name": "beneficiary",
          "type": "address"
        }
      ],
      "name": "getScheduleCount",
      "outputs": [
        {
          "internalType": "uint256",
          "name": "",
          "type": "uint256"
        }
      ],
      "stateMutability": "view",
      "type": "function"
    },
    {
      "inputs": [
        {
          "internalType": "address",
          "name": "beneficiary",
          "type": "address"
        }
      ],
      "name": "getTotalClaimableAmount",
      "outputs": [
        {
          "internalType": "uint256",
          "name": "",
          "type": "uint256"
        }
      ],
      "stateMutability": "view",
      "type": "function"
    },
    {
      "inputs": [
        {
          "internalType": "address",
          "name": "",
          "type": "address"
        }
      ],
      "name": "nextScheduleId",
      "outputs": [
        {
          "internalType": "uint256",
          "name": "",
          "type": "uint256"
        }
      ],
      "stateMutability": "view",
      "type": "function"
    },
    {
      "inputs": [],
      "name": "owner",
      "outputs": [
        {
          "internalType": "address",
          "name": "",
          "type": "address"
        }
      ],
      "stateMutability": "view",
      "type": "function"
    },
    {
      "inputs": [],
      "name": "pendingOwner",
      "outputs": [
        {
          "internalType": "address",
          "name": "",
          "type": "address"
        }
      ],
      "stateMutability": "view",
      "type": "function"
    },
    {
      "inputs": [
        {
          "internalType": "uint256",
          "name": "scheduleId",
          "type": "uint256"
        }
      ],
      "name": "release",
      "outputs": [],
      "stateMutability": "nonpayable",
      "type": "function"
    },
    {
      "inputs": [],
      "name": "releaseAll",
      "outputs": [],
      "stateMutability": "nonpayable",
      "type": "function"
    },
    {
      "inputs": [],
      "name": "renounceOwnership",
      "outputs": [],
      "stateMutability": "nonpayable",
      "type": "function"
    },
    {
      "inputs": [
        {
          "internalType": "address",
          "name": "newOwner",
          "type": "address"
        }
      ],
      "name": "transferOwnership",
      "outputs": [],
      "stateMutability": "nonpayable",
      "type": "function"
    },
    {
      "inputs": [],
      "name": "withdrawFunds",
      "outputs": [],
      "stateMutability": "nonpayable",
      "type": "function"
    },
    {
      "stateMutability": "payable",
      "type": "receive"
    }
  ],
  "bytecode": "0x6080806040523461005c57600080546001600160a01b0319163390811782556001805460ff60a01b19169055907f8be0079c531659141344cd1fd0a4f28419497f9722a3daafe3b4186f6b6457e08180a361148790816100628239f35b600080fdfe608080604052600436101561001d575b50361561001b57600080fd5b005b60003560e01c90816301983a3414610f0d5750806312065fe014610ef1578063240894aa14610eb757806324600fc314610dcc57806337bdc99b14610c01578063529849e914610bbb5780635be7fde814610a215780635d94632b14610493578063605d52eb146103bf578063715018a6146103545780637264c4da146102b557806379ba5097146101fb5780638da5cb5b146101d4578063b3743f60146101a5578063e30c39781461017e5763f2fde38b146100da573861000f565b34610179576020366003190112610179576100f3610f43565b6001600160a01b039061010b82600054163314610fd5565b1680156101355773ffffffffffffffffffffffffffffffffffffffff196001541617600155600080f35b606460405162461bcd60e51b815260206004820152601d60248201527f4e6577206f776e657220697320746865207a65726f20616464726573730000006044820152fd5b600080fd5b346101795760003660031901126101795760206001600160a01b0360015416604051908152f35b346101795760403660031901126101795760206101cc6101c3610f43565b602435906113ce565b604051908152f35b346101795760003660031901126101795760206001600160a01b0360005416604051908152f35b34610179576000366003190112610179576001546001600160a01b039081811680330361027157806000549384167f8be0079c531659141344cd1fd0a4f28419497f9722a3daafe3b4186f6b6457e0600080a373ffffffffffffffffffffffffffffffffffffffff199283161760005516600155005b606460405162461bcd60e51b815260206004820152601f60248201527f43616c6c6572206973206e6f74207468652070656e64696e67206f776e6572006044820152fd5b34610179576040366003190112610179576103096102d1610f43565b6001600160a01b0360243591168060005260026020526102f760406000205483106110b5565b60005260026020526040600020610f59565b508054610350600260018401549301549160405193849367ffffffffffffffff9060ff8160c81c169360ff8260c01c1693838360801c1693808460401c1693169188610f8b565b0390f35b346101795760003660031901126101795773ffffffffffffffffffffffffffffffffffffffff1960005460006001600160a01b038216610395813314610fd5565b7f8be0079c531659141344cd1fd0a4f28419497f9722a3daafe3b4186f6b6457e08280a316600055005b34610179576020366003190112610179576001600160a01b036103e0610f43565b1660009081526002602081905260408220805491835b83811061040857602085604051908152f35b60ff826104158386610f59565b50015460c01c161561048a5761043461042e8285610f59565b5061122e565b61043e8285610f59565b50600180910154821161045c575b505061045790611020565b6103f6565b9561047c6104829284986104736104579689610f59565b5001549061114b565b906111ee565b94908661044c565b61045790611020565b346101795760203660031901126101795760043567ffffffffffffffff811161017957366023820112156101795767ffffffffffffffff8160040135116101795736602460c083600401350283010111610179576104fd6001600160a01b03600054163314610fd5565b60005b8160040135811061050d57005b61051f81836004013560248501611045565b35906001600160a01b0382168203610179576001600160a01b038216156109dd57602061055482856004013560248701611045565b0135156109995767ffffffffffffffff610581606061057b84876004013560248901611045565b01611055565b161561092f5761059e608061057b83866004013560248801611045565b67ffffffffffffffff806105bf606061057b86896004013560248b01611045565b169116116108eb576001600160a01b0382166000526003602052604060002054600260205260406000209260206105fe84876004013560248901611045565b013593610618604061057b86896004013560248b01611045565b61062f606061057b878a6004013560248c01611045565b95610647608061057b888b6004013560248d01611045565b60a061065b888b6004013560248d01611045565b013592600784101561017957604051988960e081011067ffffffffffffffff60e08c0111176108d55767ffffffffffffffff809492819360e08d016040528c52600060208d01521660408b0152166060890152166080870152600160a087015260c08601528054680100000000000000008110156108d5576106e291600182018155610f59565b6108bf57845181556020850151600182015567ffffffffffffffff6040860151166002820154926fffffffffffffffff0000000000000000606088015160401b169277ffffffffffffffff00000000000000000000000000000000608089015160801b169460c078ff00000000000000000000000000000000000000000000000060a08b01511515821b169901519060078210156108a9576108a4997ff19f60c7a7fc34817ff68db2ad94b00d552ac0dcbff11255c5a156c9b1c2e55d9760a0976001600160a01b03977fffffffffffff000000000000000000000000000000000000000000000000000079ff0000000000000000000000000000000000000000000000000060029760c81b1695161717171717910155818116600052600360205260406000206108138154611020565b905567ffffffffffffffff6020610832888b6004013560248d01611045565b0135818a818a61087e608061057b610857604061057b86896004013560248b01611045565b9361086f606061057b838a6004013560248c01611045565b96602481600401359101611045565b946040519b8c5260208c01521660408a01521660608801521660808601521692a2611020565b610500565b634e487b7160e01b600052602160045260246000fd5b634e487b7160e01b600052600060045260246000fd5b634e487b7160e01b600052604160045260246000fd5b606460405162461bcd60e51b815260206004820152601c60248201527f436c6966662063616e6e6f7420657863656564206475726174696f6e000000006044820152fd5b608460405162461bcd60e51b815260206004820152602260248201527f4475726174696f6e206d7573742062652067726561746572207468616e207a6560448201527f726f0000000000000000000000000000000000000000000000000000000000006064820152fd5b606460405162461bcd60e51b815260206004820152602060248201527f416d6f756e74206d7573742062652067726561746572207468616e207a65726f6044820152fd5b606460405162461bcd60e51b815260206004820152600f60248201527f496e76616c6964206164647265737300000000000000000000000000000000006044820152fd5b34610179576000366003190112610179576001805460ff610a47818360a01c161561106a565b600160a01b60ff60a01b1980931617835533600052600290602090828252604060002090815415610b775790859291600094846000905b610ab1575b8588610aaa60008080808d610a99811515611100565b335af1610aa4611158565b506111a3565b8154169055005b8354811015610b7257808383610aca610afe9488610f59565b50015460c01c1615610b6d57610ae361042e8287610f59565b87610aee8388610f59565b5001548111610b04575b50611020565b85610a7e565b610b3590610b1f89610b16858a610f59565b5001548261114b565b998a918a610b2d868b610f59565b5001556111ee565b9760405190815281878201527fc5c52c2a9175470464d5ea4429889e7df2ea88630a3d32f4d0d3d2d44865621060403392a28a610af8565b611020565b610a83565b6064836040519062461bcd60e51b82526004820152601f60248201527f4e6f2076657374696e67207363686564756c657320666f722073656e646572006044820152fd5b3461017957604036600319011261017957610bd4610f43565b6001600160a01b036024359116600052600260205260406000209081548110156101795761030991610f59565b3461017957602080600319360112610179576004359060015491610c2b60ff8460a01c161561106a565b600160a01b60ff60a01b19809416176001553360005260028252610c5560406000205482106110b5565b3360005260028252610c6b816040600020610f59565b509160ff600284015460c01c1615610d885782548015610d44576001610c908561122e565b94019380610caa8654610ca4818411611100565b8261114b565b955511610d0057610cc5600080808087335af1610aa4611158565b6040519283528201527fc5c52c2a9175470464d5ea4429889e7df2ea88630a3d32f4d0d3d2d44865621060403392a260015416600155600080f35b6064906040519062461bcd60e51b82526004820152601660248201527f52656c6561736564206578636565647320746f74616c000000000000000000006044820152fd5b6064826040519062461bcd60e51b82526004820152601e60248201527f4e6f2076657374696e67207363686564756c6520666f722073656e64657200006044820152fd5b6064906040519062461bcd60e51b82526004820152601660248201527f5363686564756c65206973206e6f7420616374697665000000000000000000006044820152fd5b34610179576000366003190112610179576001600160a01b038060005416610df5813314610fd5565b60015491610e0960ff8460a01c161561106a565b600160a01b60ff60a01b198094161760015547918215610e73577fa919fadcfa556a012bab31b15f596ea7ccd397adbf10e15f176db9055ab361c491610e5b6000808080886020975af1610aa4611158565b6000541692604051908152a260015416600155600080f35b606460405162461bcd60e51b815260206004820152601760248201527f436f6e747261637420686173206e6f2062616c616e63650000000000000000006044820152fd5b34610179576020366003190112610179576001600160a01b03610ed8610f43565b1660005260026020526020604060002054604051908152f35b3461017957600036600319011261017957602047604051908152f35b34610179576020366003190112610179576020906001600160a01b03610f31610f43565b16600052600382526040600020548152f35b600435906001600160a01b038216820361017957565b8054821015610f75576000526003602060002091020190600090565b634e487b7160e01b600052603260045260246000fd5b94919796959392909760e08601988652602086015267ffffffffffffffff92838092166040870152166060850152166080830152151560a082015260078210156108a95760c00152565b15610fdc57565b606460405162461bcd60e51b815260206004820152601760248201527f43616c6c6572206973206e6f7420746865206f776e65720000000000000000006044820152fd5b600019811461102f5760010190565b634e487b7160e01b600052601160045260246000fd5b9190811015610f755760c0020190565b3567ffffffffffffffff811681036101795790565b1561107157565b606460405162461bcd60e51b815260206004820152601f60248201527f5265656e7472616e637947756172643a207265656e7472616e742063616c6c006044820152fd5b156110bc57565b606460405162461bcd60e51b815260206004820152601360248201527f496e76616c6964207363686564756c65204944000000000000000000000000006044820152fd5b1561110757565b606460405162461bcd60e51b815260206004820152601f60248201527f4e6f20746f6b656e7320617661696c61626c6520666f722072656c65617365006044820152fd5b9190820391821161102f57565b3d1561119e5767ffffffffffffffff903d8281116108d55760405192601f8201601f19908116603f01168401908111848210176108d55760405282523d6000602084013e565b606090565b156111aa57565b606460405162461bcd60e51b815260206004820152600f60248201527f5472616e73666572206661696c656400000000000000000000000000000000006044820152fd5b9190820180921161102f57565b8115611205570490565b634e487b7160e01b600052601260045260246000fd5b8181029291811591840414171561102f57565b600281015467ffffffffffffffff9081811680431061132357611251904361114b565b61127660ff8360c81c168461126c8280978760801c16611394565b9460401c16611394565b928282106113195760078110156108a957806112c75750828110156112c057916112b1826112ab6112b8946112bd979661114b565b9261114b565b925461121b565b6111fb565b90565b5050505490565b916112ab816112da6112e094969561132c565b9561114b565b91828210156112c0576112f6816112fc936111fb565b926111fb565b9081811015611313576112b8906112bd935461121b565b50505490565b5050505050600090565b50505050600090565b60078110156108a9576001811461138e57600281146113875760038114611380576004811461137857600581146113705760061461136957600190565b62603d8090565b506207e90090565b506201d88090565b5061438090565b506102d090565b50600c90565b60078210156108a95781156113bf5767ffffffffffffffff6113b86112bd9361132c565b911661121b565b67ffffffffffffffff91501690565b6001600160a01b0361140691169160009280845260026020526113f6604085205483106110b5565b8352600260205260408320610f59565b5060ff600282015460c01c16158015611448575b6114445760016114298261122e565b910154908181111561143f576112bd925061114b565b505090565b5090565b5080541561141a56fea2646970667358221220fe79862940e31c5cceb25380be16a0f7b991034a63731c6ef983708f2ee2956464736f6c63430008140033",
  "linkReferences": {},
  "deployedLinkReferences": {}
}