{
  "_format": "hh-sol-artifact-1",
  "contractName": "QuaiGANFTT",
  "sourceName": "contracts/QuaiGANFT.sol",
  "abi": [
    {
      "inputs": [
        {
          "internalType": "address",
          "name": "initialOwner",
          "type": "address"
        }
      ],
      "stateMutability": "nonpayable",
      "type": "constructor"
    },
    {
      "inputs": [
        {
          "internalType": "address",
          "name": "sender",
          "type": "address"
        },
        {
          "internalType": "uint256",
          "name": "tokenId",
          "type": "uint256"
        },
        {
          "internalType": "address",
          "name": "owner",
          "type": "address"
        }
      ],
      "name": "ERC721IncorrectOwner",
      "type": "error"
    },
    {
      "inputs": [
        {
          "internalType": "address",
          "name": "operator",
          "type": "address"
        },
        {
          "internalType": "uint256",
          "name": "tokenId",
          "type": "uint256"
        }
      ],
      "name": "ERC721InsufficientApproval",
      "type": "error"
    },
    {
      "inputs": [
        {
          "internalType": "address",
          "name": "approver",
          "type": "address"
        }
      ],
      "name": "ERC721InvalidApprover",
      "type": "error"
    },
    {
      "inputs": [
        {
          "internalType": "address",
          "name": "operator",
          "type": "address"
        }
      ],
      "name": "ERC721InvalidOperator",
      "type": "error"
    },
    {
      "inputs": [
        {
          "internalType": "address",
          "name": "owner",
          "type": "address"
        }
      ],
      "name": "ERC721InvalidOwner",
      "type": "error"
    },
    {
      "inputs": [
        {
          "internalType": "address",
          "name": "receiver",
          "type": "address"
        }
      ],
      "name": "ERC721InvalidReceiver",
      "type": "error"
    },
    {
      "inputs": [
        {
          "internalType": "address",
          "name": "sender",
          "type": "address"
        }
      ],
      "name": "ERC721InvalidSender",
      "type": "error"
    },
    {
      "inputs": [
        {
          "internalType": "uint256",
          "name": "tokenId",
          "type": "uint256"
        }
      ],
      "name": "ERC721NonexistentToken",
      "type": "error"
    },
    {
      "inputs": [
        {
          "internalType": "address",
          "name": "owner",
          "type": "address"
        }
      ],
      "name": "OwnableInvalidOwner",
      "type": "error"
    },
    {
      "inputs": [
        {
          "internalType": "address",
          "name": "account",
          "type": "address"
        }
      ],
      "name": "OwnableUnauthorizedAccount",
      "type": "error"
    },
    {
      "anonymous": false,
      "inputs": [
        {
          "indexed": true,
          "internalType": "address",
          "name": "owner",
          "type": "address"
        },
        {
          "indexed": true,
          "internalType": "address",
          "name": "approved",
          "type": "address"
        },
        {
          "indexed": true,
          "internalType": "uint256",
          "name": "tokenId",
          "type": "uint256"
        }
      ],
      "name": "Approval",
      "type": "event"
    },
    {
      "anonymous": false,
      "inputs": [
        {
          "indexed": true,
          "internalType": "address",
          "name": "owner",
          "type": "address"
        },
        {
          "indexed": true,
          "internalType": "address",
          "name": "operator",
          "type": "address"
        },
        {
          "indexed": false,
          "internalType": "bool",
          "name": "approved",
          "type": "bool"
        }
      ],
      "name": "ApprovalForAll",
      "type": "event"
    },
    {
      "anonymous": false,
      "inputs": [
        {
          "indexed": false,
          "internalType": "uint256",
          "name": "_fromTokenId",
          "type": "uint256"
        },
        {
          "indexed": false,
          "internalType": "uint256",
          "name": "_toTokenId",
          "type": "uint256"
        }
      ],
      "name": "BatchMetadataUpdate",
      "type": "event"
    },
    {
      "anonymous": false,
      "inputs": [
        {
          "indexed": false,
          "internalType": "uint256",
          "name": "_tokenId",
          "type": "uint256"
        }
      ],
      "name": "MetadataUpdate",
      "type": "event"
    },
    {
      "anonymous": false,
      "inputs": [
        {
          "indexed": true,
          "internalType": "address",
          "name": "previousOwner",
          "type": "address"
        },
        {
          "indexed": true,
          "internalType": "address",
          "name": "newOwner",
          "type": "address"
        }
      ],
      "name": "OwnershipTransferred",
      "type": "event"
    },
    {
      "anonymous": false,
      "inputs": [
        {
          "indexed": true,
          "internalType": "address",
          "name": "from",
          "type": "address"
        },
        {
          "indexed": true,
          "internalType": "address",
          "name": "to",
          "type": "address"
        },
        {
          "indexed": true,
          "internalType": "uint256",
          "name": "tokenId",
          "type": "uint256"
        }
      ],
      "name": "Transfer",
      "type": "event"
    },
    {
      "inputs": [
        {
          "internalType": "address",
          "name": "to",
          "type": "address"
        },
        {
          "internalType": "uint256",
          "name": "tokenId",
          "type": "uint256"
        }
      ],
      "name": "approve",
      "outputs": [],
      "stateMutability": "nonpayable",
      "type": "function"
    },
    {
      "inputs": [
        {
          "internalType": "address",
          "name": "owner",
          "type": "address"
        }
      ],
      "name": "balanceOf",
      "outputs": [
        {
          "internalType": "uint256",
          "name": "",
          "type": "uint256"
        }
      ],
      "stateMutability": "view",
      "type": "function"
    },
    {
      "inputs": [],
      "name": "baseURI",
      "outputs": [
        {
          "internalType": "string",
          "name": "",
          "type": "string"
        }
      ],
      "stateMutability": "view",
      "type": "function"
    },
    {
      "inputs": [
        {
          "internalType": "uint256",
          "name": "tokenId",
          "type": "uint256"
        }
      ],
      "name": "getApproved",
      "outputs": [
        {
          "internalType": "address",
          "name": "",
          "type": "address"
        }
      ],
      "stateMutability": "view",
      "type": "function"
    },
    {
      "inputs": [
        {
          "internalType": "address",
          "name": "owner",
          "type": "address"
        },
        {
          "internalType": "address",
          "name": "operator",
          "type": "address"
        }
      ],
      "name": "isApprovedForAll",
      "outputs": [
        {
          "internalType": "bool",
          "name": "",
          "type": "bool"
        }
      ],
      "stateMutability": "view",
      "type": "function"
    },
    {
      "inputs": [
        {
          "internalType": "address",
          "name": "_recipient",
          "type": "address"
        }
      ],
      "name": "mint",
      "outputs": [
        {
          "internalType": "uint256",
          "name": "",
          "type": "uint256"
        }
      ],
      "stateMutability": "payable",
      "type": "function"
    },
    {
      "inputs": [],
      "name": "mintPrice",
      "outputs": [
        {
          "internalType": "uint256",
          "name": "",
          "type": "uint256"
        }
      ],
      "stateMutability": "view",
      "type": "function"
    },
    {
      "inputs": [],
      "name": "name",
      "outputs": [
        {
          "internalType": "string",
          "name": "",
          "type": "string"
        }
      ],
      "stateMutability": "view",
      "type": "function"
    },
    {
      "inputs": [],
      "name": "owner",
      "outputs": [
        {
          "internalType": "address",
          "name": "",
          "type": "address"
        }
      ],
      "stateMutability": "view",
      "type": "function"
    },
    {
      "inputs": [
        {
          "internalType": "uint256",
          "name": "tokenId",
          "type": "uint256"
        }
      ],
      "name": "ownerOf",
      "outputs": [
        {
          "internalType": "address",
          "name": "",
          "type": "address"
        }
      ],
      "stateMutability": "view",
      "type": "function"
    },
    {
      "inputs": [],
      "name": "renounceOwnership",
      "outputs": [],
      "stateMutability": "nonpayable",
      "type": "function"
    },
    {
      "inputs": [
        {
          "internalType": "address",
          "name": "from",
          "type": "address"
        },
        {
          "internalType": "address",
          "name": "to",
          "type": "address"
        },
        {
          "internalType": "uint256",
          "name": "tokenId",
          "type": "uint256"
        }
      ],
      "name": "safeTransferFrom",
      "outputs": [],
      "stateMutability": "nonpayable",
      "type": "function"
    },
    {
      "inputs": [
        {
          "internalType": "address",
          "name": "from",
          "type": "address"
        },
        {
          "internalType": "address",
          "name": "to",
          "type": "address"
        },
        {
          "internalType": "uint256",
          "name": "tokenId",
          "type": "uint256"
        },
        {
          "internalType": "bytes",
          "name": "data",
          "type": "bytes"
        }
      ],
      "name": "safeTransferFrom",
      "outputs": [],
      "stateMutability": "nonpayable",
      "type": "function"
    },
    {
      "inputs": [
        {
          "internalType": "address",
          "name": "operator",
          "type": "address"
        },
        {
          "internalType": "bool",
          "name": "approved",
          "type": "bool"
        }
      ],
      "name": "setApprovalForAll",
      "outputs": [],
      "stateMutability": "nonpayable",
      "type": "function"
    },
    {
      "inputs": [],
      "name": "supply",
      "outputs": [
        {
          "internalType": "uint256",
          "name": "",
          "type": "uint256"
        }
      ],
      "stateMutability": "view",
      "type": "function"
    },
    {
      "inputs": [
        {
          "internalType": "bytes4",
          "name": "interfaceId",
          "type": "bytes4"
        }
      ],
      "name": "supportsInterface",
      "outputs": [
        {
          "internalType": "bool",
          "name": "",
          "type": "bool"
        }
      ],
      "stateMutability": "view",
      "type": "function"
    },
    {
      "inputs": [],
      "name": "symbol",
      "outputs": [
        {
          "internalType": "string",
          "name": "",
          "type": "string"
        }
      ],
      "stateMutability": "view",
      "type": "function"
    },
    {
      "inputs": [],
      "name": "tokenIndex",
      "outputs": [
        {
          "internalType": "uint256",
          "name": "",
          "type": "uint256"
        }
      ],
      "stateMutability": "view",
      "type": "function"
    },
    {
      "inputs": [
        {
          "internalType": "uint256",
          "name": "tokenId",
          "type": "uint256"
        }
      ],
      "name": "tokenURI",
      "outputs": [
        {
          "internalType": "string",
          "name": "",
          "type": "string"
        }
      ],
      "stateMutability": "view",
      "type": "function"
    },
    {
      "inputs": [
        {
          "internalType": "address",
          "name": "from",
          "type": "address"
        },
        {
          "internalType": "address",
          "name": "to",
          "type": "address"
        },
        {
          "internalType": "uint256",
          "name": "tokenId",
          "type": "uint256"
        }
      ],
      "name": "transferFrom",
      "outputs": [],
      "stateMutability": "nonpayable",
      "type": "function"
    },
    {
      "inputs": [
        {
          "internalType": "address",
          "name": "newOwner",
          "type": "address"
        }
      ],
      "name": "transferOwnership",
      "outputs": [],
      "stateMutability": "nonpayable",
      "type": "function"
    },
    {
      "inputs": [
        {
          "internalType": "uint256",
          "name": "_price",
          "type": "uint256"
        }
      ],
      "name": "updateMintPrice",
      "outputs": [
        {
          "internalType": "uint256",
          "name": "",
          "type": "uint256"
        }
      ],
      "stateMutability": "nonpayable",
      "type": "function"
    },
    {
      "inputs": [
        {
          "internalType": "uint256",
          "name": "_supply",
          "type": "uint256"
        }
      ],
      "name": "updateTokenSupply",
      "outputs": [
        {
          "internalType": "uint256",
          "name": "",
          "type": "uint256"
        }
      ],
      "stateMutability": "nonpayable",
      "type": "function"
    }
  ],
  "bytecode": "0x600060085561ea5f600955678ac7230489e80000600a5560e0604052602160808181529062001a0c60a039600b906200003990826200021a565b503480156200004757600080fd5b5060405162001a2d38038062001a2d8339810160408190526200006a91620002e6565b806040518060400160405280601e81526020017f51756169204e6574776f726b20436f6d6d656d6f726174697665204e465400008152506040518060400160405280600481526020016351434f4d60e01b8152508160009081620000cf91906200021a565b506001620000de82826200021a565b5050506001600160a01b0381166200011057604051631e4fbdf760e01b81526000600482015260240160405180910390fd5b6200011b8162000123565b505062000318565b600780546001600160a01b038381166001600160a01b0319831681179093556040519116919082907f8be0079c531659141344cd1fd0a4f28419497f9722a3daafe3b4186f6b6457e090600090a35050565b634e487b7160e01b600052604160045260246000fd5b600181811c90821680620001a057607f821691505b602082108103620001c157634e487b7160e01b600052602260045260246000fd5b50919050565b601f8211156200021557600081815260208120601f850160051c81016020861015620001f05750805b601f850160051c820191505b818110156200021157828155600101620001fc565b5050505b505050565b81516001600160401b0381111562000236576200023662000175565b6200024e816200024784546200018b565b84620001c7565b602080601f8311600181146200028657600084156200026d5750858301515b600019600386901b1c1916600185901b17855562000211565b600085815260208120601f198616915b82811015620002b75788860151825594840194600190910190840162000296565b5085821015620002d65787850151600019600388901b60f8161c191681555b5050505050600190811b01905550565b600060208284031215620002f957600080fd5b81516001600160a01b03811681146200031157600080fd5b9392505050565b6116e480620003286000396000f3fe60806040526004361061017f5760003560e01c80636a627842116100d6578063a22cb4651161007f578063d55f927311610059578063d55f9273146103fa578063e985e9c514610410578063f2fde38b1461045957600080fd5b8063a22cb4651461039f578063b88d4fde146103bf578063c87b56dd146103da57600080fd5b8063715018a6116100b0578063715018a6146103575780638da5cb5b1461036c57806395d89b411461038a57600080fd5b80636a6278421461030f5780636c0360eb1461032257806370a082311461033757600080fd5b8063095ea7b31161013857806342842e0e1161011257806342842e0e146102b95780636352211e146102d95780636817c76c146102f957600080fd5b8063095ea7b31461025757806323b872dd14610279578063254357041461029957600080fd5b8063047fc9aa11610169578063047fc9aa146101e757806306fdde03146101fd578063081812fc1461021f57600080fd5b8062728e461461018457806301ffc9a7146101b7575b600080fd5b34801561019057600080fd5b506101a461019f36600461124f565b610479565b6040519081526020015b60405180910390f35b3480156101c357600080fd5b506101d76101d236600461127e565b610490565b60405190151581526020016101ae565b3480156101f357600080fd5b506101a460095481565b34801561020957600080fd5b506102126104d4565b6040516101ae91906112e8565b34801561022b57600080fd5b5061023f61023a36600461124f565b610566565b6040516001600160a01b0390911681526020016101ae565b34801561026357600080fd5b50610277610272366004611312565b61058f565b005b34801561028557600080fd5b5061027761029436600461133c565b61059e565b3480156102a557600080fd5b506101a46102b436600461124f565b610611565b3480156102c557600080fd5b506102776102d436600461133c565b61069b565b3480156102e557600080fd5b5061023f6102f436600461124f565b6106bb565b34801561030557600080fd5b506101a4600a5481565b6101a461031d366004611378565b6106c6565b34801561032e57600080fd5b50610212610880565b34801561034357600080fd5b506101a4610352366004611378565b61090e565b34801561036357600080fd5b5061027761096f565b34801561037857600080fd5b506007546001600160a01b031661023f565b34801561039657600080fd5b50610212610983565b3480156103ab57600080fd5b506102776103ba366004611393565b610992565b3480156103cb57600080fd5b506102776102943660046113e5565b3480156103e657600080fd5b506102126103f536600461124f565b61099d565b34801561040657600080fd5b506101a460085481565b34801561041c57600080fd5b506101d761042b3660046114c1565b6001600160a01b03918216600090815260056020908152604080832093909416825291909152205460ff1690565b34801561046557600080fd5b50610277610474366004611378565b610a3b565b6000610483610a92565b50600a819055805b919050565b60006001600160e01b031982167f490649060000000000000000000000000000000000000000000000000000000014806104ce57506104ce82610ad8565b92915050565b6060600080546104e3906114f4565b80601f016020809104026020016040519081016040528092919081815260200182805461050f906114f4565b801561055c5780601f106105315761010080835404028352916020019161055c565b820191906000526020600020905b81548152906001019060200180831161053f57829003601f168201915b5050505050905090565b600061057182610b73565b506000828152600460205260409020546001600160a01b03166104ce565b61059a828233610bac565b5050565b60405162461bcd60e51b815260206004820152603360248201527f54686973206973206120536f756c626f756e64204e46542c207472616e73666560448201527f727320617265206e6f7420616c6c6f7765642e0000000000000000000000000060648201526084015b60405180910390fd5b600061061b610a92565b60085482116106925760405162461bcd60e51b815260206004820152603660248201527f4e657720737570706c79206d7573742062652067726561746572207468616e2060448201527f63757272656e74206d696e74656420737570706c792e000000000000000000006064820152608401610608565b50600981905590565b6106b68383836040518060200160405280600081525061059e565b505050565b60006104ce82610b73565b60006106d18261090e565b1561071e5760405162461bcd60e51b815260206004820152601d60248201527f4164647265737320616c7265616479206d696e7465642031204e46542e0000006044820152606401610608565b600a54341461076f5760405162461bcd60e51b815260206004820152601f60248201527f496e73756666696369656e742066756e647320746f206d696e74204e46542e006044820152606401610608565b60085460095481106107c35760405162461bcd60e51b815260206004820152600d60248201527f4e6f206d6f7265204e4654732e000000000000000000000000000000000000006044820152606401610608565b6107cd8382610bb9565b61086181600b80546107de906114f4565b80601f016020809104026020016040519081016040528092919081815260200182805461080a906114f4565b80156108575780601f1061082c57610100808354040283529160200191610857565b820191906000526020600020905b81548152906001019060200180831161083a57829003601f168201915b5050505050610bd3565b600160086000828254610874919061152e565b90915550909392505050565b600b805461088d906114f4565b80601f01602080910402602001604051908101604052809291908181526020018280546108b9906114f4565b80156109065780601f106108db57610100808354040283529160200191610906565b820191906000526020600020905b8154815290600101906020018083116108e957829003601f168201915b505050505081565b60006001600160a01b038216610953576040517f89c62b6400000000000000000000000000000000000000000000000000000000815260006004820152602401610608565b506001600160a01b031660009081526003602052604090205490565b610977610a92565b6109816000610c23565b565b6060600180546104e3906114f4565b61059a338383610c82565b60606109a882610b73565b50600b80546109b6906114f4565b80601f01602080910402602001604051908101604052809291908181526020018280546109e2906114f4565b8015610a2f5780601f10610a0457610100808354040283529160200191610a2f565b820191906000526020600020905b815481529060010190602001808311610a1257829003601f168201915b50505050509050919050565b610a43610a92565b6001600160a01b038116610a86576040517f1e4fbdf700000000000000000000000000000000000000000000000000000000815260006004820152602401610608565b610a8f81610c23565b50565b6007546001600160a01b03163314610981576040517f118cdaa7000000000000000000000000000000000000000000000000000000008152336004820152602401610608565b60006001600160e01b031982167f80ac58cd000000000000000000000000000000000000000000000000000000001480610b3b57506001600160e01b031982167f5b5e139f00000000000000000000000000000000000000000000000000000000145b806104ce57507f01ffc9a7000000000000000000000000000000000000000000000000000000006001600160e01b03198316146104ce565b6000818152600260205260408120546001600160a01b0316806104ce57604051637e27328960e01b815260048101849052602401610608565b6106b68383836001610d3a565b61059a828260405180602001604052806000815250610e85565b6000828152600660205260409020610beb8282611595565b506040518281527ff8e1a15aba9398e019f0b49df1a4fde98ee17ae345cb5f6b5e2c27f5033e8ce79060200160405180910390a15050565b600780546001600160a01b0383811673ffffffffffffffffffffffffffffffffffffffff19831681179093556040519116919082907f8be0079c531659141344cd1fd0a4f28419497f9722a3daafe3b4186f6b6457e090600090a35050565b6001600160a01b038216610ccd576040517f5b08ba180000000000000000000000000000000000000000000000000000000081526001600160a01b0383166004820152602401610608565b6001600160a01b03838116600081815260056020908152604080832094871680845294825291829020805460ff191686151590811790915591519182527f17307eab39ab6107e8899845ad3d59bd9653f200f220920489ca2b5937696c31910160405180910390a3505050565b8080610d4e57506001600160a01b03821615155b15610e48576000610d5e84610b73565b90506001600160a01b03831615801590610d8a5750826001600160a01b0316816001600160a01b031614155b8015610dbc57506001600160a01b0380821660009081526005602090815260408083209387168352929052205460ff16155b15610dfe576040517fa9fbf51f0000000000000000000000000000000000000000000000000000000081526001600160a01b0384166004820152602401610608565b8115610e465783856001600160a01b0316826001600160a01b03167f8c5be1e5ebec7d5bd14f71427d1e84f3dd0314c0f7b2291e5b200ac8c7c3b92560405160405180910390a45b505b50506000908152600460205260409020805473ffffffffffffffffffffffffffffffffffffffff19166001600160a01b0392909216919091179055565b610e8f8383610e9d565b6106b6336000858585610f1b565b6001600160a01b038216610ec757604051633250574960e11b815260006004820152602401610608565b6000610ed583836000611046565b90506001600160a01b038116156106b6576040517f73c6ac6e00000000000000000000000000000000000000000000000000000000815260006004820152602401610608565b6001600160a01b0383163b1561103f57604051630a85bd0160e11b81526001600160a01b0384169063150b7a0290610f5d908890889087908790600401611655565b6020604051808303816000875af1925050508015610f98575060408051601f3d908101601f19168201909252610f9591810190611691565b60015b611001573d808015610fc6576040519150601f19603f3d011682016040523d82523d6000602084013e610fcb565b606091505b508051600003610ff957604051633250574960e11b81526001600160a01b0385166004820152602401610608565b805181602001fd5b6001600160e01b03198116630a85bd0160e11b1461103d57604051633250574960e11b81526001600160a01b0385166004820152602401610608565b505b5050505050565b6000828152600260205260408120546001600160a01b03908116908316156110735761107381848661114c565b6001600160a01b038116156110b157611090600085600080610d3a565b6001600160a01b038116600090815260036020526040902080546000190190555b6001600160a01b038516156110e0576001600160a01b0385166000908152600360205260409020805460010190555b600084815260026020526040808220805473ffffffffffffffffffffffffffffffffffffffff19166001600160a01b0389811691821790925591518793918516917fddf252ad1be2c89b69c2b068fc378daa952ba7f163c4a11628f55a4df523b3ef91a4949350505050565b6111578383836111c9565b6106b6576001600160a01b03831661118557604051637e27328960e01b815260048101829052602401610608565b6040517f177e802f0000000000000000000000000000000000000000000000000000000081526001600160a01b038316600482015260248101829052604401610608565b60006001600160a01b038316158015906112475750826001600160a01b0316846001600160a01b0316148061122357506001600160a01b0380851660009081526005602090815260408083209387168352929052205460ff165b8061124757506000828152600460205260409020546001600160a01b038481169116145b949350505050565b60006020828403121561126157600080fd5b5035919050565b6001600160e01b031981168114610a8f57600080fd5b60006020828403121561129057600080fd5b813561129b81611268565b9392505050565b6000815180845260005b818110156112c8576020818501810151868301820152016112ac565b506000602082860101526020601f19601f83011685010191505092915050565b60208152600061129b60208301846112a2565b80356001600160a01b038116811461048b57600080fd5b6000806040838503121561132557600080fd5b61132e836112fb565b946020939093013593505050565b60008060006060848603121561135157600080fd5b61135a846112fb565b9250611368602085016112fb565b9150604084013590509250925092565b60006020828403121561138a57600080fd5b61129b826112fb565b600080604083850312156113a657600080fd5b6113af836112fb565b9150602083013580151581146113c457600080fd5b809150509250929050565b634e487b7160e01b600052604160045260246000fd5b600080600080608085870312156113fb57600080fd5b611404856112fb565b9350611412602086016112fb565b925060408501359150606085013567ffffffffffffffff8082111561143657600080fd5b818701915087601f83011261144a57600080fd5b81358181111561145c5761145c6113cf565b604051601f8201601f19908116603f01168101908382118183101715611484576114846113cf565b816040528281528a602084870101111561149d57600080fd5b82602086016020830137600060208483010152809550505050505092959194509250565b600080604083850312156114d457600080fd5b6114dd836112fb565b91506114eb602084016112fb565b90509250929050565b600181811c9082168061150857607f821691505b60208210810361152857634e487b7160e01b600052602260045260246000fd5b50919050565b808201808211156104ce57634e487b7160e01b600052601160045260246000fd5b601f8211156106b657600081815260208120601f850160051c810160208610156115765750805b601f850160051c820191505b8181101561103d57828155600101611582565b815167ffffffffffffffff8111156115af576115af6113cf565b6115c3816115bd84546114f4565b8461154f565b602080601f8311600181146115f857600084156115e05750858301515b600019600386901b1c1916600185901b17855561103d565b600085815260208120601f198616915b8281101561162757888601518255948401946001909101908401611608565b50858210156116455787850151600019600388901b60f8161c191681555b5050505050600190811b01905550565b60006001600160a01b0380871683528086166020840152508360408301526080606083015261168760808301846112a2565b9695505050505050565b6000602082840312156116a357600080fd5b815161129b8161126856fea26469706673582212206c63634ada93adc25f2d8306fdae6ae47f5e7d2138d25120e366eae9802c5abe64736f6c6343000814003368747470733a2f2f6e66742e71752e61692f746f6b656e2f51434f4d2e6a736f6e",
  "linkReferences": {},
  "deployedLinkReferences": {}
}