{
  "_format": "hh-sol-artifact-1",
  "contractName": "SmartChefLP",
  "sourceName": "contracts/SmartChefLP.sol",
  "abi": [
    {
      "inputs": [
        {
          "internalType": "contract IERC20",
          "name": "_lpToken",
          "type": "address"
        },
        {
          "internalType": "uint256",
          "name": "_rewardPerBlock",
          "type": "uint256"
        },
        {
          "internalType": "uint256",
          "name": "_startBlock",
          "type": "uint256"
        },
        {
          "internalType": "uint256",
          "name": "_poolLimitPerUser",
          "type": "uint256"
        },
        {
          "internalType": "uint256",
          "name": "_rewardDelayPeriod",
          "type": "uint256"
        },
        {
          "internalType": "uint256",
          "name": "_exitPeriod",
          "type": "uint256"
        }
      ],
      "stateMutability": "nonpayable",
      "type": "constructor"
    },
    {
      "inputs": [
        {
          "internalType": "address",
          "name": "owner",
          "type": "address"
        }
      ],
      "name": "OwnableInvalidOwner",
      "type": "error"
    },
    {
      "inputs": [
        {
          "internalType": "address",
          "name": "account",
          "type": "address"
        }
      ],
      "name": "OwnableUnauthorizedAccount",
      "type": "error"
    },
    {
      "inputs": [],
      "name": "ReentrancyGuardReentrantCall",
      "type": "error"
    },
    {
      "inputs": [
        {
          "internalType": "address",
          "name": "token",
          "type": "address"
        }
      ],
      "name": "SafeERC20FailedOperation",
      "type": "error"
    },
    {
      "anonymous": false,
      "inputs": [
        {
          "indexed": false,
          "internalType": "address",
          "name": "tokenRecovered",
          "type": "address"
        },
        {
          "indexed": false,
          "internalType": "uint256",
          "name": "amount",
          "type": "uint256"
        }
      ],
      "name": "AdminTokenRecovery",
      "type": "event"
    },
    {
      "anonymous": false,
      "inputs": [
        {
          "indexed": false,
          "internalType": "uint256",
          "name": "oldBlockTime",
          "type": "uint256"
        },
        {
          "indexed": false,
          "internalType": "uint256",
          "name": "newBlockTime",
          "type": "uint256"
        }
      ],
      "name": "BlockTimeUpdated",
      "type": "event"
    },
    {
      "anonymous": false,
      "inputs": [
        {
          "indexed": true,
          "internalType": "address",
          "name": "user",
          "type": "address"
        },
        {
          "indexed": false,
          "internalType": "uint256",
          "name": "amount",
          "type": "uint256"
        },
        {
          "indexed": false,
          "internalType": "uint256",
          "name": "duration",
          "type": "uint256"
        }
      ],
      "name": "Deposit",
      "type": "event"
    },
    {
      "anonymous": false,
      "inputs": [
        {
          "indexed": false,
          "internalType": "uint256",
          "name": "poolLimitPerUser",
          "type": "uint256"
        }
      ],
      "name": "NewPoolLimit",
      "type": "event"
    },
    {
      "anonymous": false,
      "inputs": [
        {
          "indexed": false,
          "internalType": "uint256",
          "name": "rewardPerBlock",
          "type": "uint256"
        }
      ],
      "name": "NewRewardPerBlock",
      "type": "event"
    },
    {
      "anonymous": false,
      "inputs": [
        {
          "indexed": true,
          "internalType": "address",
          "name": "previousOwner",
          "type": "address"
        },
        {
          "indexed": true,
          "internalType": "address",
          "name": "newOwner",
          "type": "address"
        }
      ],
      "name": "OwnershipTransferred",
      "type": "event"
    },
    {
      "anonymous": false,
      "inputs": [
        {
          "indexed": true,
          "internalType": "bytes32",
          "name": "paramHash",
          "type": "bytes32"
        }
      ],
      "name": "ParameterChangeCancelled",
      "type": "event"
    },
    {
      "anonymous": false,
      "inputs": [
        {
          "indexed": true,
          "internalType": "bytes32",
          "name": "paramHash",
          "type": "bytes32"
        },
        {
          "indexed": false,
          "internalType": "uint256",
          "name": "value",
          "type": "uint256"
        }
      ],
      "name": "ParameterChangeExecuted",
      "type": "event"
    },
    {
      "anonymous": false,
      "inputs": [
        {
          "indexed": true,
          "internalType": "bytes32",
          "name": "paramHash",
          "type": "bytes32"
        },
        {
          "indexed": false,
          "internalType": "uint256",
          "name": "value",
          "type": "uint256"
        },
        {
          "indexed": false,
          "internalType": "uint256",
          "name": "executeAfter",
          "type": "uint256"
        }
      ],
      "name": "ParameterChangeScheduled",
      "type": "event"
    },
    {
      "anonymous": false,
      "inputs": [
        {
          "indexed": false,
          "internalType": "uint256",
          "name": "rewardDelayPeriod",
          "type": "uint256"
        },
        {
          "indexed": false,
          "internalType": "uint256",
          "name": "exitPeriod",
          "type": "uint256"
        }
      ],
      "name": "PeriodsUpdated",
      "type": "event"
    },
    {
      "anonymous": false,
      "inputs": [
        {
          "indexed": true,
          "internalType": "address",
          "name": "user",
          "type": "address"
        },
        {
          "indexed": false,
          "internalType": "uint256",
          "name": "amount",
          "type": "uint256"
        }
      ],
      "name": "RewardClaimed",
      "type": "event"
    },
    {
      "anonymous": false,
      "inputs": [
        {
          "indexed": false,
          "internalType": "uint256",
          "name": "amount",
          "type": "uint256"
        }
      ],
      "name": "RewardsFunded",
      "type": "event"
    },
    {
      "anonymous": false,
      "inputs": [
        {
          "indexed": true,
          "internalType": "address",
          "name": "user",
          "type": "address"
        },
        {
          "indexed": false,
          "internalType": "uint256",
          "name": "amount",
          "type": "uint256"
        }
      ],
      "name": "WithdrawExecuted",
      "type": "event"
    },
    {
      "anonymous": false,
      "inputs": [
        {
          "indexed": true,
          "internalType": "address",
          "name": "user",
          "type": "address"
        },
        {
          "indexed": false,
          "internalType": "uint256",
          "name": "amount",
          "type": "uint256"
        },
        {
          "indexed": false,
          "internalType": "uint256",
          "name": "availableTime",
          "type": "uint256"
        }
      ],
      "name": "WithdrawRequested",
      "type": "event"
    },
    {
      "stateMutability": "payable",
      "type": "fallback"
    },
    {
      "inputs": [],
      "name": "EXIT_PERIOD",
      "outputs": [
        {
          "internalType": "uint256",
          "name": "",
          "type": "uint256"
        }
      ],
      "stateMutability": "view",
      "type": "function"
    },
    {
      "inputs": [],
      "name": "PARAM_CHANGE_DELAY",
      "outputs": [
        {
          "internalType": "uint256",
          "name": "",
          "type": "uint256"
        }
      ],
      "stateMutability": "view",
      "type": "function"
    },
    {
      "inputs": [],
      "name": "PRECISION_FACTOR",
      "outputs": [
        {
          "internalType": "uint256",
          "name": "",
          "type": "uint256"
        }
      ],
      "stateMutability": "view",
      "type": "function"
    },
    {
      "inputs": [],
      "name": "REWARD_DELAY_PERIOD",
      "outputs": [
        {
          "internalType": "uint256",
          "name": "",
          "type": "uint256"
        }
      ],
      "stateMutability": "view",
      "type": "function"
    },
    {
      "inputs": [],
      "name": "accTokenPerShare",
      "outputs": [
        {
          "internalType": "uint256",
          "name": "",
          "type": "uint256"
        }
      ],
      "stateMutability": "view",
      "type": "function"
    },
    {
      "inputs": [],
      "name": "blockTime",
      "outputs": [
        {
          "internalType": "uint256",
          "name": "",
          "type": "uint256"
        }
      ],
      "stateMutability": "view",
      "type": "function"
    },
    {
      "inputs": [],
      "name": "cancelRewardPerBlockChange",
      "outputs": [],
      "stateMutability": "nonpayable",
      "type": "function"
    },
    {
      "inputs": [],
      "name": "cancelWithdraw",
      "outputs": [],
      "stateMutability": "nonpayable",
      "type": "function"
    },
    {
      "inputs": [],
      "name": "checkpointInterval",
      "outputs": [
        {
          "internalType": "uint64",
          "name": "",
          "type": "uint64"
        }
      ],
      "stateMutability": "view",
      "type": "function"
    },
    {
      "inputs": [],
      "name": "claimRewards",
      "outputs": [],
      "stateMutability": "nonpayable",
      "type": "function"
    },
    {
      "inputs": [
        {
          "internalType": "uint256",
          "name": "minReward",
          "type": "uint256"
        }
      ],
      "name": "claimRewardsWithSlippage",
      "outputs": [],
      "stateMutability": "nonpayable",
      "type": "function"
    },
    {
      "inputs": [
        {
          "internalType": "address",
          "name": "_user",
          "type": "address"
        }
      ],
      "name": "claimableView",
      "outputs": [
        {
          "internalType": "uint256",
          "name": "",
          "type": "uint256"
        }
      ],
      "stateMutability": "view",
      "type": "function"
    },
    {
      "inputs": [
        {
          "internalType": "uint256",
          "name": "_amount",
          "type": "uint256"
        },
        {
          "internalType": "uint256",
          "name": "_duration",
          "type": "uint256"
        }
      ],
      "name": "deposit",
      "outputs": [],
      "stateMutability": "nonpayable",
      "type": "function"
    },
    {
      "inputs": [
        {
          "internalType": "uint256",
          "name": "_amount",
          "type": "uint256"
        }
      ],
      "name": "emergencyRewardWithdraw",
      "outputs": [],
      "stateMutability": "nonpayable",
      "type": "function"
    },
    {
      "inputs": [],
      "name": "executeRewardPerBlockChange",
      "outputs": [],
      "stateMutability": "nonpayable",
      "type": "function"
    },
    {
      "inputs": [],
      "name": "executeWithdraw",
      "outputs": [],
      "stateMutability": "nonpayable",
      "type": "function"
    },
    {
      "inputs": [],
      "name": "fundRewards",
      "outputs": [],
      "stateMutability": "payable",
      "type": "function"
    },
    {
      "inputs": [
        {
          "internalType": "address",
          "name": "_user",
          "type": "address"
        }
      ],
      "name": "getUserInfo",
      "outputs": [
        {
          "internalType": "uint256",
          "name": "stakedAmount",
          "type": "uint256"
        },
        {
          "internalType": "uint256",
          "name": "effectiveAmount",
          "type": "uint256"
        },
        {
          "internalType": "uint256",
          "name": "lockStartTime",
          "type": "uint256"
        },
        {
          "internalType": "uint256",
          "name": "lockDuration",
          "type": "uint256"
        },
        {
          "internalType": "uint256",
          "name": "withdrawRequestTime",
          "type": "uint256"
        },
        {
          "internalType": "uint256",
          "name": "withdrawalAmount",
          "type": "uint256"
        },
        {
          "internalType": "uint256",
          "name": "withdrawalAvailableTime",
          "type": "uint256"
        },
        {
          "internalType": "bool",
          "name": "inExitPeriod",
          "type": "bool"
        },
        {
          "internalType": "bool",
          "name": "canRequestWithdraw",
          "type": "bool"
        },
        {
          "internalType": "bool",
          "name": "canExecuteWithdraw",
          "type": "bool"
        }
      ],
      "stateMutability": "view",
      "type": "function"
    },
    {
      "inputs": [],
      "name": "hasUserLimit",
      "outputs": [
        {
          "internalType": "bool",
          "name": "",
          "type": "bool"
        }
      ],
      "stateMutability": "view",
      "type": "function"
    },
    {
      "inputs": [
        {
          "internalType": "address",
          "name": "_user",
          "type": "address"
        }
      ],
      "name": "isInExitPeriod",
      "outputs": [
        {
          "internalType": "bool",
          "name": "",
          "type": "bool"
        }
      ],
      "stateMutability": "view",
      "type": "function"
    },
    {
      "inputs": [],
      "name": "lastRewardBlock",
      "outputs": [
        {
          "internalType": "uint256",
          "name": "",
          "type": "uint256"
        }
      ],
      "stateMutability": "view",
      "type": "function"
    },
    {
      "inputs": [
        {
          "internalType": "address",
          "name": "_user",
          "type": "address"
        }
      ],
      "name": "lockedView",
      "outputs": [
        {
          "internalType": "uint256",
          "name": "",
          "type": "uint256"
        }
      ],
      "stateMutability": "view",
      "type": "function"
    },
    {
      "inputs": [],
      "name": "lpToken",
      "outputs": [
        {
          "internalType": "contract IERC20",
          "name": "",
          "type": "address"
        }
      ],
      "stateMutability": "view",
      "type": "function"
    },
    {
      "inputs": [],
      "name": "owner",
      "outputs": [
        {
          "internalType": "address",
          "name": "",
          "type": "address"
        }
      ],
      "stateMutability": "view",
      "type": "function"
    },
    {
      "inputs": [
        {
          "internalType": "bytes32",
          "name": "",
          "type": "bytes32"
        }
      ],
      "name": "pendingChanges",
      "outputs": [
        {
          "internalType": "uint256",
          "name": "value",
          "type": "uint256"
        },
        {
          "internalType": "uint256",
          "name": "executeAfter",
          "type": "uint256"
        }
      ],
      "stateMutability": "view",
      "type": "function"
    },
    {
      "inputs": [
        {
          "internalType": "address",
          "name": "_user",
          "type": "address"
        }
      ],
      "name": "pendingReward",
      "outputs": [
        {
          "internalType": "uint256",
          "name": "",
          "type": "uint256"
        }
      ],
      "stateMutability": "view",
      "type": "function"
    },
    {
      "inputs": [],
      "name": "poolLimitPerUser",
      "outputs": [
        {
          "internalType": "uint256",
          "name": "",
          "type": "uint256"
        }
      ],
      "stateMutability": "view",
      "type": "function"
    },
    {
      "inputs": [
        {
          "internalType": "address",
          "name": "_tokenAddress",
          "type": "address"
        },
        {
          "internalType": "uint256",
          "name": "_tokenAmount",
          "type": "uint256"
        }
      ],
      "name": "recoverWrongTokens",
      "outputs": [],
      "stateMutability": "nonpayable",
      "type": "function"
    },
    {
      "inputs": [],
      "name": "renounceOwnership",
      "outputs": [],
      "stateMutability": "nonpayable",
      "type": "function"
    },
    {
      "inputs": [
        {
          "internalType": "uint256",
          "name": "_amount",
          "type": "uint256"
        }
      ],
      "name": "requestWithdraw",
      "outputs": [],
      "stateMutability": "nonpayable",
      "type": "function"
    },
    {
      "inputs": [],
      "name": "rewardPerBlock",
      "outputs": [
        {
          "internalType": "uint256",
          "name": "",
          "type": "uint256"
        }
      ],
      "stateMutability": "view",
      "type": "function"
    },
    {
      "inputs": [
        {
          "internalType": "uint256",
          "name": "_newRate",
          "type": "uint256"
        }
      ],
      "name": "scheduleRewardPerBlockChange",
      "outputs": [],
      "stateMutability": "nonpayable",
      "type": "function"
    },
    {
      "inputs": [
        {
          "internalType": "uint256",
          "name": "_rewardPerBlock",
          "type": "uint256"
        }
      ],
      "name": "setRewardPerBlock",
      "outputs": [],
      "stateMutability": "nonpayable",
      "type": "function"
    },
    {
      "inputs": [],
      "name": "startBlock",
      "outputs": [
        {
          "internalType": "uint256",
          "name": "",
          "type": "uint256"
        }
      ],
      "stateMutability": "view",
      "type": "function"
    },
    {
      "inputs": [
        {
          "internalType": "address",
          "name": "_user",
          "type": "address"
        }
      ],
      "name": "timeUntilUnlock",
      "outputs": [
        {
          "internalType": "uint256",
          "name": "",
          "type": "uint256"
        }
      ],
      "stateMutability": "view",
      "type": "function"
    },
    {
      "inputs": [
        {
          "internalType": "address",
          "name": "_user",
          "type": "address"
        }
      ],
      "name": "timeUntilWithdrawalAvailable",
      "outputs": [
        {
          "internalType": "uint256",
          "name": "",
          "type": "uint256"
        }
      ],
      "stateMutability": "view",
      "type": "function"
    },
    {
      "inputs": [],
      "name": "totalAccruedRewards",
      "outputs": [
        {
          "internalType": "uint256",
          "name": "",
          "type": "uint256"
        }
      ],
      "stateMutability": "view",
      "type": "function"
    },
    {
      "inputs": [],
      "name": "totalActiveEffective",
      "outputs": [
        {
          "internalType": "uint256",
          "name": "",
          "type": "uint256"
        }
      ],
      "stateMutability": "view",
      "type": "function"
    },
    {
      "inputs": [],
      "name": "totalClaimedRewards",
      "outputs": [
        {
          "internalType": "uint256",
          "name": "",
          "type": "uint256"
        }
      ],
      "stateMutability": "view",
      "type": "function"
    },
    {
      "inputs": [],
      "name": "totalInExitPeriod",
      "outputs": [
        {
          "internalType": "uint256",
          "name": "",
          "type": "uint256"
        }
      ],
      "stateMutability": "view",
      "type": "function"
    },
    {
      "inputs": [],
      "name": "totalStaked",
      "outputs": [
        {
          "internalType": "uint256",
          "name": "",
          "type": "uint256"
        }
      ],
      "stateMutability": "view",
      "type": "function"
    },
    {
      "inputs": [
        {
          "internalType": "address",
          "name": "newOwner",
          "type": "address"
        }
      ],
      "name": "transferOwnership",
      "outputs": [],
      "stateMutability": "nonpayable",
      "type": "function"
    },
    {
      "inputs": [
        {
          "internalType": "uint256",
          "name": "_newBlockTime",
          "type": "uint256"
        }
      ],
      "name": "updateBlockTime",
      "outputs": [],
      "stateMutability": "nonpayable",
      "type": "function"
    },
    {
      "inputs": [
        {
          "internalType": "uint64",
          "name": "_newInterval",
          "type": "uint64"
        }
      ],
      "name": "updateCheckpointInterval",
      "outputs": [],
      "stateMutability": "nonpayable",
      "type": "function"
    },
    {
      "inputs": [
        {
          "internalType": "uint256",
          "name": "_rewardDelayPeriod",
          "type": "uint256"
        },
        {
          "internalType": "uint256",
          "name": "_exitPeriod",
          "type": "uint256"
        }
      ],
      "name": "updatePeriods",
      "outputs": [],
      "stateMutability": "nonpayable",
      "type": "function"
    },
    {
      "inputs": [],
      "name": "updatePool",
      "outputs": [],
      "stateMutability": "nonpayable",
      "type": "function"
    },
    {
      "inputs": [
        {
          "internalType": "bool",
          "name": "_hasUserLimit",
          "type": "bool"
        },
        {
          "internalType": "uint256",
          "name": "_poolLimitPerUser",
          "type": "uint256"
        }
      ],
      "name": "updatePoolLimitPerUser",
      "outputs": [],
      "stateMutability": "nonpayable",
      "type": "function"
    },
    {
      "inputs": [
        {
          "internalType": "uint256",
          "name": "_newAPYBasisPoints",
          "type": "uint256"
        }
      ],
      "name": "updateRewardPerBlock",
      "outputs": [],
      "stateMutability": "nonpayable",
      "type": "function"
    },
    {
      "inputs": [
        {
          "internalType": "address",
          "name": "",
          "type": "address"
        }
      ],
      "name": "userInfo",
      "outputs": [
        {
          "internalType": "uint256",
          "name": "amount",
          "type": "uint256"
        },
        {
          "internalType": "uint256",
          "name": "effectiveAmount",
          "type": "uint256"
        },
        {
          "internalType": "uint256",
          "name": "rewardDebt",
          "type": "uint256"
        },
        {
          "internalType": "uint256",
          "name": "debtClaimablePS",
          "type": "uint256"
        },
        {
          "internalType": "uint256",
          "name": "lockStartTime",
          "type": "uint256"
        },
        {
          "internalType": "uint256",
          "name": "lockDuration",
          "type": "uint256"
        },
        {
          "internalType": "uint256",
          "name": "withdrawRequestTime",
          "type": "uint256"
        },
        {
          "internalType": "uint256",
          "name": "withdrawalAmount",
          "type": "uint256"
        },
        {
          "internalType": "uint256",
          "name": "delayedReward",
          "type": "uint256"
        },
        {
          "internalType": "uint256",
          "name": "delayedUnlockBlock",
          "type": "uint256"
        }
      ],
      "stateMutability": "view",
      "type": "function"
    },
    {
      "stateMutability": "payable",
      "type": "receive"
    }
  ],
  "bytecode": "0x608060405262278d00600281905560035564e8d4a51000600a55600560115560158054600160201b600160601b031916643c00000000179055348015610043575f80fd5b5060405161336f38038061336f8339810160408190526100629161026b565b338061008757604051631e4fbdf760e01b81525f600482015260240160405180910390fd5b6100908161013a565b5060018055600480546001600160a01b0319166001600160a01b03881617905560058590554384116100c257436100c4565b835b600681905560075582156100e5576008805460ff1916600117905560098390555b60028290556003819055601580546001600160401b03439081166c0100000000000000000000000002600160601b600160a01b03199092169190911790915561012f905f80610189565b50505050505061031b565b5f80546001600160a01b038381166001600160a01b0319831681178455604051919092169283917f8be0079c531659141344cd1fd0a4f28419497f9722a3daafe3b4186f6b6457e09190a35050565b6015545f9061019d9061ffff1660016102d9565b905061010061ffff8216106101af57505f5b604080516060810182526001600160401b038681168252602080830187815283850187815261ffff8781165f818152601490955296909320945185546001600160401b031916941693909317845551600184015590516002909201919091556015805461ffff19169092179182905561010062010000909204161015610265576015805462010000900461ffff16906002610249836102fb565b91906101000a81548161ffff021916908361ffff160217905550505b50505050565b5f805f805f8060c08789031215610280575f80fd5b86516001600160a01b0381168114610296575f80fd5b6020880151604089015160608a015160808b015160a0909b0151939c929b509099909850965090945092505050565b634e487b7160e01b5f52601160045260245ffd5b61ffff8181168382160190808211156102f4576102f46102c5565b5092915050565b5f61ffff808316818103610311576103116102c5565b6001019392505050565b613047806103285f395ff3fe6080604052600436106102f1575f3560e01c8063817b1cd21161018c578063bb872b4a116100df578063e2bbb1581161008e578063f2fde38b1161006b578063f2fde38b14610911578063f40f0f5214610930578063f8fd97951461094f578063ff18bf0b1461096357005b8063e2bbb158146108c9578063e3161ddd146108e8578063f1fa0e5a146108fc57005b8063ccd34cd5116100bc578063ccd34cd514610880578063d0228e8f14610895578063d578ceab146108b457005b8063bb872b4a1461082d578063c04b5f651461084c578063ca23bba81461086157005b806390682b891161013b578063a0b4090511610118578063a0b40905146107da578063a9f8d181146107f9578063aa78e4b11461080e57005b806390682b891461076457806392e8990e14610778578063977d58fe146107a157005b80638ae39cac116101695780638ae39cac1461071e5780638da5cb5b146107335780638f6629151461074f57005b8063817b1cd2146106d657806384b76824146106eb57806386f36e82146106ff57005b806348cd4cb1116102445780636386c1c7116101f3578063715018a6116101d0578063715018a614610684578063745400c91461069857806378d76037146106b757005b80636386c1c7146105eb57806366fe9f8a1461065a578063682266011461066f57005b80635664b199116102215780635664b199146105765780635fcbd28514610595578063605fba67146105cc57005b806348cd4cb1146105055780634ac4b6e01461051a5780634dda55181461052f57005b80633a18d8c0116102a0578063423975f31161027d578063423975f3146104bc5780634623635e146104d157806348b15166146104f057005b80633a18d8c01461043d5780633a58afd41461047e5780633f138d4b1461049d57005b80632498e780116102ce5780632498e780146103f65780633279beab1461040a578063372500ab1461042957005b806301f8a976146102fa578063096abd33146103195780631959a0021461034257005b366102f857005b005b348015610305575f80fd5b506102f8610314366004612df8565b61096b565b348015610324575f80fd5b5061032f6201518081565b6040519081526020015b60405180910390f35b34801561034d575f80fd5b506103ac61035c366004612e2a565b6013602052805f5260405f205f91509050805f015490806001015490806002015490806003015490806004015490806005015490806006015490806007015490806008015490806009015490508a565b604080519a8b5260208b0199909952978901969096526060880194909452608087019290925260a086015260c085015260e084015261010083015261012082015261014001610339565b348015610401575f80fd5b506102f8610ac8565b348015610415575f80fd5b506102f8610424366004612df8565b610c88565b348015610434575f80fd5b506102f8610ced565b348015610448575f80fd5b5060155461046590640100000000900467ffffffffffffffff1681565b60405167ffffffffffffffff9091168152602001610339565b348015610489575f80fd5b5061032f610498366004612e2a565b610d0a565b3480156104a8575f80fd5b506102f86104b7366004612e4a565b610d6b565b3480156104c7575f80fd5b5061032f600d5481565b3480156104dc575f80fd5b506102f86104eb366004612e72565b610e2c565b3480156104fb575f80fd5b5061032f60115481565b348015610510575f80fd5b5061032f60065481565b348015610525575f80fd5b5061032f600f5481565b34801561053a575f80fd5b50610561610549366004612df8565b60126020525f90815260409020805460019091015482565b60408051928352602083019190915201610339565b348015610581575f80fd5b506102f8610590366004612df8565b610ed6565b3480156105a0575f80fd5b506004546105b4906001600160a01b031681565b6040516001600160a01b039091168152602001610339565b3480156105d7575f80fd5b5061032f6105e6366004612e2a565b610f78565b3480156105f6575f80fd5b5061060a610605366004612e2a565b611056565b604080519a8b5260208b0199909952978901969096526060880194909452608087019290925260a086015260c0850152151560e08401521515610100830152151561012082015261014001610339565b348015610665575f80fd5b5061032f60095481565b34801561067a575f80fd5b5061032f600e5481565b34801561068f575f80fd5b506102f86110ef565b3480156106a3575f80fd5b506102f86106b2366004612df8565b611100565b3480156106c2575f80fd5b506102f86106d1366004612df8565b611454565b3480156106e1575f80fd5b5061032f600c5481565b3480156106f6575f80fd5b506102f8611500565b34801561070a575f80fd5b506102f8610719366004612e92565b611643565b348015610729575f80fd5b5061032f60055481565b34801561073e575f80fd5b505f546001600160a01b03166105b4565b34801561075a575f80fd5b5061032f600b5481565b34801561076f575f80fd5b506102f86116ee565b348015610783575f80fd5b506008546107919060ff1681565b6040519015158152602001610339565b3480156107ac575f80fd5b506107916107bb366004612e2a565b6001600160a01b03165f90815260136020526040902060060154151590565b3480156107e5575f80fd5b506102f86107f4366004612eb9565b611793565b348015610804575f80fd5b5061032f60075481565b348015610819575f80fd5b506102f8610828366004612df8565b611859565b348015610838575f80fd5b506102f8610847366004612df8565b611874565b348015610857575f80fd5b5061032f60035481565b34801561086c575f80fd5b5061032f61087b366004612e2a565b6118bf565b34801561088b575f80fd5b5061032f600a5481565b3480156108a0575f80fd5b5061032f6108af366004612e2a565b611973565b3480156108bf575f80fd5b5061032f60105481565b3480156108d4575f80fd5b506102f86108e3366004612e72565b6119b2565b3480156108f3575f80fd5b506102f8611c71565b348015610907575f80fd5b5061032f60025481565b34801561091c575f80fd5b506102f861092b366004612e2a565b611c79565b34801561093b575f80fd5b5061032f61094a366004612e2a565b611ccc565b34801561095a575f80fd5b506102f8611dc6565b6102f8611fdd565b610973612069565b620f42408111156109cb5760405162461bcd60e51b815260206004820152600c60248201527f41505920746f6f2068696768000000000000000000000000000000000000000060448201526064015b60405180910390fd5b6109d36120ae565b5f6011546301e133806109e69190612f01565b600d549091508015610a1a576109fe82612710612f14565b610a088483612f14565b610a129190612f01565b600555610a88565b60405162461bcd60e51b815260206004820152603360248201527f4e6f2061637469766520656666656374697665202d207573652073657452657760448201527f617264506572426c6f636b20696e73746561640000000000000000000000000060648201526084016109c2565b7f0c4d677eef92893ac7ec52faf8140fc6c851ab4736302b4f3a89dfb20696a0df600554604051610abb91815260200190565b60405180910390a1505050565b610ad0612069565b7f26c3053a9ab1625d44b90708e16d52b35ab3cfb0d872f84b29e76c8f0cee851b5f81905260126020908152604080518082019091527fc9b097b6f10fa366bdc1ddcaa6b48b819843a7fb89f3be0583756f3ab42503be5481527fc9b097b6f10fa366bdc1ddcaa6b48b819843a7fb89f3be0583756f3ab42503bf5491810182905290610b9f5760405162461bcd60e51b815260206004820152601160248201527f4e6f2070656e64696e67206368616e676500000000000000000000000000000060448201526064016109c2565b8060200151421015610bf35760405162461bcd60e51b815260206004820152601460248201527f54696d656c6f636b206e6f74206578706972656400000000000000000000000060448201526064016109c2565b610bfb6120ae565b80516005555f82815260126020908152604080832083815560010192909255825191519182527f0c4d677eef92893ac7ec52faf8140fc6c851ab4736302b4f3a89dfb20696a0df910160405180910390a1805160405190815282907f31564d9c3e497cbcaea3bfc6814d1c86ebf66b3fe325b5f5b327434f5885436e906020015b60405180910390a25050565b610c90612069565b80471015610ce05760405162461bcd60e51b815260206004820152601b60248201527f496e73756666696369656e74207265776172642062616c616e6365000000000060448201526064016109c2565b610cea3382612218565b50565b610cf56122bc565b610cff335f6122ff565b610d0860018055565b565b6001600160a01b0381165f90815260136020526040812060068101548203610d3457505f92915050565b5f6003548260060154610d479190612f31565b9050804210610d5957505f9392505050565b610d634282612f44565b949350505050565b610d73612069565b6004546001600160a01b0390811690831603610dd15760405162461bcd60e51b815260206004820152601160248201527f43616e6e6f74207265636f766572204c5000000000000000000000000000000060448201526064016109c2565b610de56001600160a01b0383163383612537565b604080516001600160a01b0384168152602081018390527f74545154aac348a3eac92596bd1971957ca94795f4e954ec5f613b55fab7812991015b60405180910390a15050565b610e34612069565b5f82118015610e4257505f81115b610e8e5760405162461bcd60e51b815260206004820152600f60248201527f496e76616c696420706572696f6473000000000000000000000000000000000060448201526064016109c2565b610e966120ae565b6002829055600381905560408051838152602081018390527f8e7237c327b2c040e122ee8871f17435fda2eae7d8e36798de13714b60f2b6ee9101610e20565b610ede612069565b5f81118015610eef5750610e108111155b610f3b5760405162461bcd60e51b815260206004820152601160248201527f496e76616c696420626c6f636b54696d6500000000000000000000000000000060448201526064016109c2565b601180549082905560408051828152602081018490527e24be6dc070e4a35f5e69c2c31342ac959334f49c5b4b62cc1033d86e8351979101610e20565b6001600160a01b0381165f9081526013602052604081206009810154829015801590610fa8575081600901544310155b15610fbf576008820154610fbc9082612f31565b90505b60018201545f819003610fd457509392505050565b5f601154600254610fe59190612f01565b90505f814311610ff5575f610fff565b610fff8243612f44565b90505f61100b826125ab565b60038701549091508082111561104957600a546110288284612f44565b6110329087612f14565b61103c9190612f01565b6110469087612f31565b95505b5093979650505050505050565b6001600160a01b0381165f908152601360205260408120805460018201546004830154600584015460068501546007860154949693959294919390928190819081908189158015906110b157506110ad898b612f31565b4210155b90508080156110be575087155b935087156110e057600354600195506110d79089612f31565b95508542101592505b50509193959799509193959799565b6110f7612069565b610d085f6127bd565b6111086122bc565b335f9081526013602052604090208115801590611126575080548211155b6111725760405162461bcd60e51b815260206004820152600a60248201527f42616420616d6f756e740000000000000000000000000000000000000000000060448201526064016109c2565b5f8160040154116111c55760405162461bcd60e51b815260206004820152600f60248201527f4e6f20616374697665207374616b65000000000000000000000000000000000060448201526064016109c2565b6006810154156112175760405162461bcd60e51b815260206004820152601160248201527f416c72656164792072657175657374656400000000000000000000000000000060448201526064016109c2565b8060050154816004015461122b9190612f31565b42101561127a5760405162461bcd60e51b815260206004820152600c60248201527f5374616b65206c6f636b6564000000000000000000000000000000000000000060448201526064016109c2565b6112826120ae565b61128c335f6122ff565b5f60115460025461129d9190612f01565b90505f8143116112ad575f6112b7565b6112b78243612f44565b90505f6112c3826125ab565b90505f81600b546112d49190612f44565b90508015611350575f670de0b6b3a76400006112f38760050154612824565b6112fd9089612f14565b6113079190612f01565b90505f600a5483836113199190612f14565b6113239190612f01565b905080876008015f8282546113389190612f31565b9091555061134890508643612f31565b600988015550505b5f670de0b6b3a76400006113678760050154612824565b6113719089612f14565b61137b9190612f01565b905080866001015f8282546113909190612f44565b9250508190555080600d5f8282546113a89190612f44565b909155505042600687015560078601879055600e80548891905f906113ce908490612f31565b9091555050600a54600b5460018801546113e89190612f14565b6113f29190612f01565b60028701556003545f906114069042612f31565b604080518a81526020810183905291925033917fd72eb5d043f24a0168ae744d5c44f9596fd673a26bf74d9646bff4b844882d14910160405180910390a250505050505050610cea60018055565b61145c612069565b604080518082019091528181527f26c3053a9ab1625d44b90708e16d52b35ab3cfb0d872f84b29e76c8f0cee851b906020810161149c6201518042612f31565b90525f82815260126020908152604090912082518155910151600190910155807f4107c16102ca593afea4ac800deb7d36407d3f25e61cccd6628094793f668ffe836114eb6201518042612f31565b60408051928352602083019190915201610c7c565b6115086122bc565b335f90815260136020526040902060068101546115675760405162461bcd60e51b815260206004820152601760248201527f4e6f207769746864726177616c2072657175657374656400000000000000000060448201526064016109c2565b61156f6120ae565b611579335f6122ff565b5f670de0b6b3a76400006115908360050154612824565b836007015461159f9190612f14565b6115a99190612f01565b905080826001015f8282546115be9190612f31565b9250508190555080600d5f8282546115d69190612f31565b90915550506007820154600e80545f906115f1908490612f44565b90915550505f6006830181905560078301819055600883018190556009830155600a54600b5460018401546116269190612f14565b6116309190612f01565b82600201819055505050610d0860018055565b61164b612069565b60068167ffffffffffffffff161015801561167257506103e88167ffffffffffffffff1611155b6116be5760405162461bcd60e51b815260206004820152601060248201527f496e76616c696420696e74657276616c0000000000000000000000000000000060448201526064016109c2565b6015805467ffffffffffffffff909216640100000000026bffffffffffffffff0000000019909216919091179055565b6116f6612069565b7f26c3053a9ab1625d44b90708e16d52b35ab3cfb0d872f84b29e76c8f0cee851b5f81815260126020527fc9b097b6f10fa366bdc1ddcaa6b48b819843a7fb89f3be0583756f3ab42503be8190557fc9b097b6f10fa366bdc1ddcaa6b48b819843a7fb89f3be0583756f3ab42503bf81905560405182917ffbe037eef108662db90b0a679b0dde447f266ad1254d34073a5ad826453dbe7c91a250565b61179b612069565b81156118175760085460ff1615806117b4575060095481115b6118005760405162461bcd60e51b815260206004820152600d60248201527f4d75737420696e6372656173650000000000000000000000000000000000000060448201526064016109c2565b6008805460ff191660011790556009819055611826565b6008805460ff191690555f6009555b7f241f67ee5f41b7a5cabf911367329be7215900f602ebfc47f89dce2a6bcd847c600954604051610e2091815260200190565b6118616122bc565b61186b33826122ff565b610cea60018055565b61187c612069565b6118846120ae565b60058190556040518181527f0c4d677eef92893ac7ec52faf8140fc6c851ab4736302b4f3a89dfb20696a0df9060200160405180910390a150565b6001600160a01b0381165f90815260136020526040812060098101548290158015906118ee5750816009015443105b156119055760088201546119029082612f31565b90505b60018201545f81900361191a57509392505050565b5f61192361289d565b90505f6011546002546119369190612f01565b90505f814311611946575f611950565b6119508243612f44565b90505f61195c826125ab565b90508084111561104957600a546110288286612f44565b6001600160a01b0381165f9081526013602052604081206004810154820361199d57505f92915050565b5f81600501548260040154610d479190612f31565b6119ba6122bc565b335f90815260136020526040902082611a155760405162461bcd60e51b815260206004820152600c60248201527f5a65726f206465706f736974000000000000000000000000000000000000000060448201526064016109c2565b600681015415611a675760405162461bcd60e51b815260206004820152600e60248201527f496e206578697420706572696f6400000000000000000000000000000000000060448201526064016109c2565b5f611a7183612824565b825490915015611ace5781600501548314611ace5760405162461bcd60e51b815260206004820152601160248201527f4475726174696f6e206d69736d6174636800000000000000000000000000000060448201526064016109c2565b60085460ff1615611b36576009548254611ae89086612f31565b1115611b365760405162461bcd60e51b815260206004820152600b60248201527f41626f7665206c696d697400000000000000000000000000000000000000000060448201526064016109c2565b611b3e6120ae565b815415611b5457611b4f335f6122ff565b611b64565b600b546003830155600582018390555b83825f015f828254611b769190612f31565b9250508190555083600c5f828254611b8e9190612f31565b909155505f9050670de0b6b3a7640000611ba88387612f14565b611bb29190612f01565b905080836001015f828254611bc79190612f31565b9250508190555080600d5f828254611bdf9190612f31565b9091555050426004840155600a54600b546001850154611bff9190612f14565b611c099190612f01565b6002840155600454611c26906001600160a01b0316333088612975565b604080518681526020810186905233917f90890809c654f11d6e72a28fa60149770a0d11ec6c92319d6ceb2bb0a4ea1a15910160405180910390a2505050611c6d60018055565b5050565b610d086120ae565b611c81612069565b6001600160a01b038116611cc3576040517f1e4fbdf70000000000000000000000000000000000000000000000000000000081525f60048201526024016109c2565b610cea816127bd565b6001600160a01b0381165f908152601360205260408120600d54808303611cf657505f9392505050565b600b54600754431115611d91575f60075443611d129190612f44565b90505f60055482611d239190612f14565b90505f601054600f54611d369190612f44565b9050475f828211611d47575f611d51565b611d518383612f44565b905080841115611d5f578093505b8315611d8b5786600a5485611d749190612f14565b611d7e9190612f01565b611d889087612f31565b95505b50505050505b8260020154600a54828560010154611da99190612f14565b611db39190612f01565b611dbd9190612f44565b95945050505050565b611dce6122bc565b611dd8335f6122ff565b335f9081526013602052604090206006810154611e375760405162461bcd60e51b815260206004820152601760248201527f4e6f207769746864726177616c2072657175657374656400000000000000000060448201526064016109c2565b6003548160060154611e499190612f31565b421015611e985760405162461bcd60e51b815260206004820152601160248201527f45786974206e6f742066696e697368656400000000000000000000000000000060448201526064016109c2565b600781015480611eea5760405162461bcd60e51b815260206004820152600960248201527f4e6f20616d6f756e74000000000000000000000000000000000000000000000060448201526064016109c2565b80600e5f828254611efb9190612f44565b9250508190555080600c5f828254611f139190612f44565b90915550505f6006830181905560078301558154819003611f4a575f80835560048301819055600583018190556003830155611f62565b80825f015f828254611f5c9190612f44565b90915550505b600a54600b548360010154611f779190612f14565b611f819190612f01565b6002830155600454611f9d906001600160a01b03163383612537565b60405181815233907f7b2a72f0889ae9bb89e8ee7ec3e7c465552d1b76d51df9b0426d0e4e7f39528f9060200160405180910390a25050610d0860018055565b611fe5612069565b5f34116120345760405162461bcd60e51b815260206004820152601060248201527f4d7573742073656e6420746f6b656e730000000000000000000000000000000060448201526064016109c2565b6040513481527fe42dde25409a3e8c7c119c1c722610d9e9bd96e73e3cead774863c9ffdd870d69060200160405180910390a1565b5f546001600160a01b03163314610d08576040517f118cdaa70000000000000000000000000000000000000000000000000000000081523360048201526024016109c2565b60075443116120b957565b600d545f8190036120cb575043600755565b5f600754436120da9190612f44565b90505f600554826120eb9190612f14565b90505f601054600f546120fe9190612f44565b9050475f82821161210f575f612119565b6121198383612f44565b905080841115612127578093505b83156121745785600a548561213c9190612f14565b6121469190612f01565b600b5f8282546121569190612f31565b9250508190555083600f5f82825461216e9190612f31565b90915550505b43600781905560155467ffffffffffffffff64010000000082048116926121ae926c01000000000000000000000000900490911690612f57565b67ffffffffffffffff1610612210576121cc43600b54600d546129b4565b601580547fffffffffffffffffffffffff0000000000000000ffffffffffffffffffffffff166c010000000000000000000000004367ffffffffffffffff16021790555b505050505050565b5f826001600160a01b0316826040515f6040518083038185875af1925050503d805f8114612261576040519150601f19603f3d011682016040523d82523d5f602084013e612266565b606091505b50509050806122b75760405162461bcd60e51b815260206004820152601660248201527f4e6174697665207472616e73666572206661696c65640000000000000000000060448201526064016109c2565b505050565b6002600154036122f8576040517f3ee5aeb500000000000000000000000000000000000000000000000000000000815260040160405180910390fd5b6002600155565b6001600160a01b0382165f9081526013602052604081206011546002549192916123299190612f01565b90505f814311612339575f612343565b6123438243612f44565b90505f61234f826125ab565b60038501549091505f818311801561236a57505f8660010154115b1561239857600a5461237c8385612f44565b876001015461238b9190612f14565b6123959190612f01565b90505b6123a06120ae565b60098601548190158015906123b9575086600901544310155b156123dd5760088701546123cd9082612f31565b5f60088901819055600989015590505b475f818311156123ed57816123ef565b825b9050898110156124415760405162461bcd60e51b815260206004820152601860248201527f536c6970706167653a2072657761726420746f6f206c6f77000000000000000060448201526064016109c2565b80156124a6576124518b82612218565b8060105f8282546124629190612f31565b90915550506040518181526001600160a01b038c16907f106f923f993c2149d49b4255ff723acafa1f2d94393f561d3eda32ae348f72419060200160405180910390a25b82156124fb578281106124bf5760038901869055612503565b5f6124ca8688612f44565b90505f846124d88385612f14565b6124e29190612f01565b90506124ee8188612f31565b60038c0155506125039050565b600389018690555b600a54600b548a600101546125189190612f14565b6125229190612f01565b89600201819055505050505050505050505050565b6040516001600160a01b038381166024830152604482018390526122b791859182169063a9059cbb906064015b604051602081830303815290604052915060e01b6020820180517bffffffffffffffffffffffffffffffffffffffffffffffffffffffff8381831617835250505050612a97565b6015545f9062010000900461ffff1681036125c757505f919050565b5f806125d284612b1c565b915091505f806125e4835f0151612c54565b91509150836125f857505f95945050505050565b82604001515f03612610575050602001519392505050565b8115806126345750805f015167ffffffffffffffff168667ffffffffffffffff1610155b1561271a57825f015167ffffffffffffffff168667ffffffffffffffff16111561270d575f61266161289d565b90505f8460200151826126749190612f44565b85519091505f9061268f9067ffffffffffffffff1643612f44565b9050805f036126aa5750505060209092015195945050505050565b5f865f015167ffffffffffffffff168a67ffffffffffffffff166126ce9190612f44565b9050818111156126db5750805b816126e68285612f14565b6126f09190612f01565b87602001516126ff9190612f31565b9a9950505050505050505050565b5050602001519392505050565b8251815167ffffffffffffffff91821691160361273e575050602001519392505050565b825181515f9161274d91612f57565b67ffffffffffffffff1690505f845f0151886127699190612f57565b67ffffffffffffffff1690505f8560200151846020015161278a9190612f44565b9050826127978383612f14565b6127a19190612f01565b86602001516127b09190612f31565b9998505050505050505050565b5f80546001600160a01b038381167fffffffffffffffffffffffff0000000000000000000000000000000000000000831681178455604051919092169283917f8be0079c531659141344cd1fd0a4f28419497f9722a3daafe3b4186f6b6457e09190a35050565b5f816102580361283d5750670de0b6b3a7640000919050565b816104b00361285557506714d1120d7b160000919050565b60405162461bcd60e51b815260206004820152601060248201527f496e76616c6964206475726174696f6e0000000000000000000000000000000060448201526064016109c2565b600d545f908082036128b1575050600b5490565b60075443116128c2575050600b5490565b5f600754436128d19190612f44565b9050805f036128e457600b549250505090565b5f600554826128f39190612f14565b90505f601054600f546129069190612f44565b9050475f828211612917575f612921565b6129218383612f44565b90508084111561292f578093505b835f0361294457600b54965050505050505090565b85600a54856129539190612f14565b61295d9190612f01565b600b5461296a9190612f31565b965050505050505090565b6040516001600160a01b0384811660248301528381166044830152606482018390526129ae9186918216906323b872dd90608401612564565b50505050565b6015545f906129c89061ffff166001612f7f565b905061010061ffff8216106129da57505f5b6040805160608101825267ffffffffffffffff8681168252602080830187815283850187815261ffff8781165f8181526014909552969093209451855467ffffffffffffffff1916941693909317845551600184015590516002909201919091556015805461ffff191690921791829055610100620100009092041610156129ae576015805462010000900461ffff16906002612a7683612f9a565b91906101000a81548161ffff021916908361ffff1602179055505050505050565b5f8060205f8451602086015f885af180612ab6576040513d5f823e3d81fd5b50505f513d91508115612acd578060011415612ada565b6001600160a01b0384163b155b156129ae576040517f5274afe70000000000000000000000000000000000000000000000000000000081526001600160a01b03851660048201526024016109c2565b604080516060810182525f80825260208201819052918101829052601554604080516060810182525f8082526020820181905291810182905261ffff909216915f5b60155461ffff6201000090910481169084161015612c495761ffff84165f908152601460209081526040918290208251606081018452815467ffffffffffffffff168082526001830154938201939093526002909101549281019290925215801590612bd85750805167ffffffffffffffff808a16911611155b8015612bfc5750811580612bfc57508251815167ffffffffffffffff918216911610155b15612c0957809250600191505b8461ffff165f03612c2857612c216001610100612fba565b9450612c36565b84612c3281612fd5565b9550505b83612c4081612f9a565b94505050612b5e565b969095509350505050565b604080516060810182525f808252602082018190529181018290526015545f908190612c859061ffff166001612f7f565b60155461ffff9182166201000090910490911610612ce2576015546101009061ffff620100008204811691612cbc91849116612f7f565b612cc7906001612f7f565b612cd19190612fba565b612cdb9190612ff1565b9050612d0a565b60155461ffff620100008204811691612cfd91166001612f7f565b612d079190612fba565b90505b805b60155461ffff6201000090910481169084161015612dc65761ffff81165f908152601460209081526040918290208251606081018452815467ffffffffffffffff9081168083526001840154948301949094526002909201549381019390935288161015612d8257600197909650945050505050565b60155461ffff90811690831603612d995750612dc6565b610100612da7836001612f7f565b612db19190612ff1565b915083612dbd81612f9a565b94505050612d0c565b5f60405180606001604052805f67ffffffffffffffff1681526020015f81526020015f81525094509450505050915091565b5f60208284031215612e08575f80fd5b5035919050565b80356001600160a01b0381168114612e25575f80fd5b919050565b5f60208284031215612e3a575f80fd5b612e4382612e0f565b9392505050565b5f8060408385031215612e5b575f80fd5b612e6483612e0f565b946020939093013593505050565b5f8060408385031215612e83575f80fd5b50508035926020909101359150565b5f60208284031215612ea2575f80fd5b813567ffffffffffffffff81168114612e43575f80fd5b5f8060408385031215612eca575f80fd5b82358015158114612e64575f80fd5b634e487b7160e01b5f52601260045260245ffd5b634e487b7160e01b5f52601160045260245ffd5b5f82612f0f57612f0f612ed9565b500490565b8082028115828204841417612f2b57612f2b612eed565b92915050565b80820180821115612f2b57612f2b612eed565b81810381811115612f2b57612f2b612eed565b67ffffffffffffffff828116828216039080821115612f7857612f78612eed565b5092915050565b61ffff818116838216019080821115612f7857612f78612eed565b5f61ffff808316818103612fb057612fb0612eed565b6001019392505050565b61ffff828116828216039080821115612f7857612f78612eed565b5f61ffff821680612fe857612fe8612eed565b5f190192915050565b5f61ffff8084168061300557613005612ed9565b9216919091069291505056fea2646970667358221220eeda2f94d66aa50aa814688e01f196d9b118ca6bc19b2a69e472fad5d6d6fdec64736f6c63430008190033",
  "linkReferences": {},
  "deployedLinkReferences": {}
}