{
  "_format": "hh-sol-artifact-1",
  "contractName": "SmartChefLP",
  "sourceName": "contracts/SmartChefLP.sol",
  "abi": [
    {
      "inputs": [
        {
          "internalType": "contract IERC20",
          "name": "_lpToken",
          "type": "address"
        },
        {
          "internalType": "uint256",
          "name": "_rewardPerBlock",
          "type": "uint256"
        },
        {
          "internalType": "uint256",
          "name": "_startBlock",
          "type": "uint256"
        },
        {
          "internalType": "uint256",
          "name": "_poolLimitPerUser",
          "type": "uint256"
        },
        {
          "internalType": "uint256",
          "name": "_rewardDelayPeriod",
          "type": "uint256"
        },
        {
          "internalType": "uint256",
          "name": "_exitPeriod",
          "type": "uint256"
        }
      ],
      "stateMutability": "nonpayable",
      "type": "constructor"
    },
    {
      "inputs": [
        {
          "internalType": "address",
          "name": "owner",
          "type": "address"
        }
      ],
      "name": "OwnableInvalidOwner",
      "type": "error"
    },
    {
      "inputs": [
        {
          "internalType": "address",
          "name": "account",
          "type": "address"
        }
      ],
      "name": "OwnableUnauthorizedAccount",
      "type": "error"
    },
    {
      "inputs": [],
      "name": "ReentrancyGuardReentrantCall",
      "type": "error"
    },
    {
      "inputs": [
        {
          "internalType": "address",
          "name": "token",
          "type": "address"
        }
      ],
      "name": "SafeERC20FailedOperation",
      "type": "error"
    },
    {
      "anonymous": false,
      "inputs": [
        {
          "indexed": false,
          "internalType": "address",
          "name": "tokenRecovered",
          "type": "address"
        },
        {
          "indexed": false,
          "internalType": "uint256",
          "name": "amount",
          "type": "uint256"
        }
      ],
      "name": "AdminTokenRecovery",
      "type": "event"
    },
    {
      "anonymous": false,
      "inputs": [
        {
          "indexed": false,
          "internalType": "uint256",
          "name": "oldBlockTime",
          "type": "uint256"
        },
        {
          "indexed": false,
          "internalType": "uint256",
          "name": "newBlockTime",
          "type": "uint256"
        }
      ],
      "name": "BlockTimeUpdated",
      "type": "event"
    },
    {
      "anonymous": false,
      "inputs": [
        {
          "indexed": true,
          "internalType": "address",
          "name": "user",
          "type": "address"
        },
        {
          "indexed": false,
          "internalType": "uint256",
          "name": "amount",
          "type": "uint256"
        },
        {
          "indexed": false,
          "internalType": "uint256",
          "name": "duration",
          "type": "uint256"
        }
      ],
      "name": "Deposit",
      "type": "event"
    },
    {
      "anonymous": false,
      "inputs": [
        {
          "indexed": false,
          "internalType": "uint256",
          "name": "poolLimitPerUser",
          "type": "uint256"
        }
      ],
      "name": "NewPoolLimit",
      "type": "event"
    },
    {
      "anonymous": false,
      "inputs": [
        {
          "indexed": false,
          "internalType": "uint256",
          "name": "rewardPerBlock",
          "type": "uint256"
        }
      ],
      "name": "NewRewardPerBlock",
      "type": "event"
    },
    {
      "anonymous": false,
      "inputs": [
        {
          "indexed": true,
          "internalType": "address",
          "name": "previousOwner",
          "type": "address"
        },
        {
          "indexed": true,
          "internalType": "address",
          "name": "newOwner",
          "type": "address"
        }
      ],
      "name": "OwnershipTransferred",
      "type": "event"
    },
    {
      "anonymous": false,
      "inputs": [
        {
          "indexed": true,
          "internalType": "bytes32",
          "name": "paramHash",
          "type": "bytes32"
        }
      ],
      "name": "ParameterChangeCancelled",
      "type": "event"
    },
    {
      "anonymous": false,
      "inputs": [
        {
          "indexed": true,
          "internalType": "bytes32",
          "name": "paramHash",
          "type": "bytes32"
        },
        {
          "indexed": false,
          "internalType": "uint256",
          "name": "value",
          "type": "uint256"
        }
      ],
      "name": "ParameterChangeExecuted",
      "type": "event"
    },
    {
      "anonymous": false,
      "inputs": [
        {
          "indexed": true,
          "internalType": "bytes32",
          "name": "paramHash",
          "type": "bytes32"
        },
        {
          "indexed": false,
          "internalType": "uint256",
          "name": "value",
          "type": "uint256"
        },
        {
          "indexed": false,
          "internalType": "uint256",
          "name": "executeAfter",
          "type": "uint256"
        }
      ],
      "name": "ParameterChangeScheduled",
      "type": "event"
    },
    {
      "anonymous": false,
      "inputs": [
        {
          "indexed": false,
          "internalType": "uint256",
          "name": "rewardDelayPeriod",
          "type": "uint256"
        },
        {
          "indexed": false,
          "internalType": "uint256",
          "name": "exitPeriod",
          "type": "uint256"
        }
      ],
      "name": "PeriodsUpdated",
      "type": "event"
    },
    {
      "anonymous": false,
      "inputs": [
        {
          "indexed": true,
          "internalType": "address",
          "name": "user",
          "type": "address"
        },
        {
          "indexed": false,
          "internalType": "uint256",
          "name": "amount",
          "type": "uint256"
        }
      ],
      "name": "RewardClaimed",
      "type": "event"
    },
    {
      "anonymous": false,
      "inputs": [
        {
          "indexed": false,
          "internalType": "uint256",
          "name": "amount",
          "type": "uint256"
        }
      ],
      "name": "RewardsFunded",
      "type": "event"
    },
    {
      "anonymous": false,
      "inputs": [
        {
          "indexed": true,
          "internalType": "address",
          "name": "user",
          "type": "address"
        },
        {
          "indexed": false,
          "internalType": "uint256",
          "name": "amount",
          "type": "uint256"
        }
      ],
      "name": "WithdrawExecuted",
      "type": "event"
    },
    {
      "anonymous": false,
      "inputs": [
        {
          "indexed": true,
          "internalType": "address",
          "name": "user",
          "type": "address"
        },
        {
          "indexed": false,
          "internalType": "uint256",
          "name": "amount",
          "type": "uint256"
        },
        {
          "indexed": false,
          "internalType": "uint256",
          "name": "availableTime",
          "type": "uint256"
        }
      ],
      "name": "WithdrawRequested",
      "type": "event"
    },
    {
      "stateMutability": "payable",
      "type": "fallback"
    },
    {
      "inputs": [],
      "name": "EXIT_PERIOD",
      "outputs": [
        {
          "internalType": "uint256",
          "name": "",
          "type": "uint256"
        }
      ],
      "stateMutability": "view",
      "type": "function"
    },
    {
      "inputs": [],
      "name": "PARAM_CHANGE_DELAY",
      "outputs": [
        {
          "internalType": "uint256",
          "name": "",
          "type": "uint256"
        }
      ],
      "stateMutability": "view",
      "type": "function"
    },
    {
      "inputs": [],
      "name": "PRECISION_FACTOR",
      "outputs": [
        {
          "internalType": "uint256",
          "name": "",
          "type": "uint256"
        }
      ],
      "stateMutability": "view",
      "type": "function"
    },
    {
      "inputs": [],
      "name": "REWARD_DELAY_PERIOD",
      "outputs": [
        {
          "internalType": "uint256",
          "name": "",
          "type": "uint256"
        }
      ],
      "stateMutability": "view",
      "type": "function"
    },
    {
      "inputs": [],
      "name": "accTokenPerShare",
      "outputs": [
        {
          "internalType": "uint256",
          "name": "",
          "type": "uint256"
        }
      ],
      "stateMutability": "view",
      "type": "function"
    },
    {
      "inputs": [],
      "name": "blockTime",
      "outputs": [
        {
          "internalType": "uint256",
          "name": "",
          "type": "uint256"
        }
      ],
      "stateMutability": "view",
      "type": "function"
    },
    {
      "inputs": [],
      "name": "cancelRewardPerBlockChange",
      "outputs": [],
      "stateMutability": "nonpayable",
      "type": "function"
    },
    {
      "inputs": [],
      "name": "cancelWithdraw",
      "outputs": [],
      "stateMutability": "nonpayable",
      "type": "function"
    },
    {
      "inputs": [],
      "name": "checkpointInterval",
      "outputs": [
        {
          "internalType": "uint64",
          "name": "",
          "type": "uint64"
        }
      ],
      "stateMutability": "view",
      "type": "function"
    },
    {
      "inputs": [],
      "name": "claimRewards",
      "outputs": [],
      "stateMutability": "nonpayable",
      "type": "function"
    },
    {
      "inputs": [
        {
          "internalType": "uint256",
          "name": "minReward",
          "type": "uint256"
        }
      ],
      "name": "claimRewardsWithSlippage",
      "outputs": [],
      "stateMutability": "nonpayable",
      "type": "function"
    },
    {
      "inputs": [
        {
          "internalType": "address",
          "name": "_user",
          "type": "address"
        }
      ],
      "name": "claimableView",
      "outputs": [
        {
          "internalType": "uint256",
          "name": "",
          "type": "uint256"
        }
      ],
      "stateMutability": "view",
      "type": "function"
    },
    {
      "inputs": [
        {
          "internalType": "uint256",
          "name": "_amount",
          "type": "uint256"
        },
        {
          "internalType": "uint256",
          "name": "_duration",
          "type": "uint256"
        }
      ],
      "name": "deposit",
      "outputs": [],
      "stateMutability": "nonpayable",
      "type": "function"
    },
    {
      "inputs": [
        {
          "internalType": "uint256",
          "name": "_amount",
          "type": "uint256"
        }
      ],
      "name": "emergencyRewardWithdraw",
      "outputs": [],
      "stateMutability": "nonpayable",
      "type": "function"
    },
    {
      "inputs": [],
      "name": "executeRewardPerBlockChange",
      "outputs": [],
      "stateMutability": "nonpayable",
      "type": "function"
    },
    {
      "inputs": [],
      "name": "executeWithdraw",
      "outputs": [],
      "stateMutability": "nonpayable",
      "type": "function"
    },
    {
      "inputs": [],
      "name": "fundRewards",
      "outputs": [],
      "stateMutability": "payable",
      "type": "function"
    },
    {
      "inputs": [
        {
          "internalType": "address",
          "name": "_user",
          "type": "address"
        }
      ],
      "name": "getUserInfo",
      "outputs": [
        {
          "internalType": "uint256",
          "name": "stakedAmount",
          "type": "uint256"
        },
        {
          "internalType": "uint256",
          "name": "effectiveAmount",
          "type": "uint256"
        },
        {
          "internalType": "uint256",
          "name": "lockStartTime",
          "type": "uint256"
        },
        {
          "internalType": "uint256",
          "name": "lockDuration",
          "type": "uint256"
        },
        {
          "internalType": "uint256",
          "name": "withdrawRequestTime",
          "type": "uint256"
        },
        {
          "internalType": "uint256",
          "name": "withdrawalAmount",
          "type": "uint256"
        },
        {
          "internalType": "uint256",
          "name": "withdrawalAvailableTime",
          "type": "uint256"
        },
        {
          "internalType": "bool",
          "name": "inExitPeriod",
          "type": "bool"
        },
        {
          "internalType": "bool",
          "name": "canRequestWithdraw",
          "type": "bool"
        },
        {
          "internalType": "bool",
          "name": "canExecuteWithdraw",
          "type": "bool"
        }
      ],
      "stateMutability": "view",
      "type": "function"
    },
    {
      "inputs": [],
      "name": "hasUserLimit",
      "outputs": [
        {
          "internalType": "bool",
          "name": "",
          "type": "bool"
        }
      ],
      "stateMutability": "view",
      "type": "function"
    },
    {
      "inputs": [
        {
          "internalType": "address",
          "name": "_user",
          "type": "address"
        }
      ],
      "name": "isInExitPeriod",
      "outputs": [
        {
          "internalType": "bool",
          "name": "",
          "type": "bool"
        }
      ],
      "stateMutability": "view",
      "type": "function"
    },
    {
      "inputs": [],
      "name": "lastRewardBlock",
      "outputs": [
        {
          "internalType": "uint256",
          "name": "",
          "type": "uint256"
        }
      ],
      "stateMutability": "view",
      "type": "function"
    },
    {
      "inputs": [
        {
          "internalType": "address",
          "name": "_user",
          "type": "address"
        }
      ],
      "name": "lockedView",
      "outputs": [
        {
          "internalType": "uint256",
          "name": "",
          "type": "uint256"
        }
      ],
      "stateMutability": "view",
      "type": "function"
    },
    {
      "inputs": [],
      "name": "lpToken",
      "outputs": [
        {
          "internalType": "contract IERC20",
          "name": "",
          "type": "address"
        }
      ],
      "stateMutability": "view",
      "type": "function"
    },
    {
      "inputs": [],
      "name": "owner",
      "outputs": [
        {
          "internalType": "address",
          "name": "",
          "type": "address"
        }
      ],
      "stateMutability": "view",
      "type": "function"
    },
    {
      "inputs": [
        {
          "internalType": "bytes32",
          "name": "",
          "type": "bytes32"
        }
      ],
      "name": "pendingChanges",
      "outputs": [
        {
          "internalType": "uint256",
          "name": "value",
          "type": "uint256"
        },
        {
          "internalType": "uint256",
          "name": "executeAfter",
          "type": "uint256"
        }
      ],
      "stateMutability": "view",
      "type": "function"
    },
    {
      "inputs": [
        {
          "internalType": "address",
          "name": "_user",
          "type": "address"
        }
      ],
      "name": "pendingReward",
      "outputs": [
        {
          "internalType": "uint256",
          "name": "",
          "type": "uint256"
        }
      ],
      "stateMutability": "view",
      "type": "function"
    },
    {
      "inputs": [],
      "name": "poolLimitPerUser",
      "outputs": [
        {
          "internalType": "uint256",
          "name": "",
          "type": "uint256"
        }
      ],
      "stateMutability": "view",
      "type": "function"
    },
    {
      "inputs": [
        {
          "internalType": "address",
          "name": "_tokenAddress",
          "type": "address"
        },
        {
          "internalType": "uint256",
          "name": "_tokenAmount",
          "type": "uint256"
        }
      ],
      "name": "recoverWrongTokens",
      "outputs": [],
      "stateMutability": "nonpayable",
      "type": "function"
    },
    {
      "inputs": [],
      "name": "renounceOwnership",
      "outputs": [],
      "stateMutability": "nonpayable",
      "type": "function"
    },
    {
      "inputs": [
        {
          "internalType": "uint256",
          "name": "_amount",
          "type": "uint256"
        }
      ],
      "name": "requestWithdraw",
      "outputs": [],
      "stateMutability": "nonpayable",
      "type": "function"
    },
    {
      "inputs": [],
      "name": "rewardPerBlock",
      "outputs": [
        {
          "internalType": "uint256",
          "name": "",
          "type": "uint256"
        }
      ],
      "stateMutability": "view",
      "type": "function"
    },
    {
      "inputs": [
        {
          "internalType": "uint256",
          "name": "_newRate",
          "type": "uint256"
        }
      ],
      "name": "scheduleRewardPerBlockChange",
      "outputs": [],
      "stateMutability": "nonpayable",
      "type": "function"
    },
    {
      "inputs": [
        {
          "internalType": "uint256",
          "name": "_rewardPerBlock",
          "type": "uint256"
        }
      ],
      "name": "setRewardPerBlock",
      "outputs": [],
      "stateMutability": "nonpayable",
      "type": "function"
    },
    {
      "inputs": [],
      "name": "startBlock",
      "outputs": [
        {
          "internalType": "uint256",
          "name": "",
          "type": "uint256"
        }
      ],
      "stateMutability": "view",
      "type": "function"
    },
    {
      "inputs": [
        {
          "internalType": "address",
          "name": "_user",
          "type": "address"
        }
      ],
      "name": "timeUntilUnlock",
      "outputs": [
        {
          "internalType": "uint256",
          "name": "",
          "type": "uint256"
        }
      ],
      "stateMutability": "view",
      "type": "function"
    },
    {
      "inputs": [
        {
          "internalType": "address",
          "name": "_user",
          "type": "address"
        }
      ],
      "name": "timeUntilWithdrawalAvailable",
      "outputs": [
        {
          "internalType": "uint256",
          "name": "",
          "type": "uint256"
        }
      ],
      "stateMutability": "view",
      "type": "function"
    },
    {
      "inputs": [],
      "name": "totalAccruedRewards",
      "outputs": [
        {
          "internalType": "uint256",
          "name": "",
          "type": "uint256"
        }
      ],
      "stateMutability": "view",
      "type": "function"
    },
    {
      "inputs": [],
      "name": "totalActiveEffective",
      "outputs": [
        {
          "internalType": "uint256",
          "name": "",
          "type": "uint256"
        }
      ],
      "stateMutability": "view",
      "type": "function"
    },
    {
      "inputs": [],
      "name": "totalClaimedRewards",
      "outputs": [
        {
          "internalType": "uint256",
          "name": "",
          "type": "uint256"
        }
      ],
      "stateMutability": "view",
      "type": "function"
    },
    {
      "inputs": [],
      "name": "totalInExitPeriod",
      "outputs": [
        {
          "internalType": "uint256",
          "name": "",
          "type": "uint256"
        }
      ],
      "stateMutability": "view",
      "type": "function"
    },
    {
      "inputs": [],
      "name": "totalStaked",
      "outputs": [
        {
          "internalType": "uint256",
          "name": "",
          "type": "uint256"
        }
      ],
      "stateMutability": "view",
      "type": "function"
    },
    {
      "inputs": [
        {
          "internalType": "address",
          "name": "newOwner",
          "type": "address"
        }
      ],
      "name": "transferOwnership",
      "outputs": [],
      "stateMutability": "nonpayable",
      "type": "function"
    },
    {
      "inputs": [
        {
          "internalType": "uint256",
          "name": "_newBlockTime",
          "type": "uint256"
        }
      ],
      "name": "updateBlockTime",
      "outputs": [],
      "stateMutability": "nonpayable",
      "type": "function"
    },
    {
      "inputs": [
        {
          "internalType": "uint64",
          "name": "_newInterval",
          "type": "uint64"
        }
      ],
      "name": "updateCheckpointInterval",
      "outputs": [],
      "stateMutability": "nonpayable",
      "type": "function"
    },
    {
      "inputs": [
        {
          "internalType": "uint256",
          "name": "_rewardDelayPeriod",
          "type": "uint256"
        },
        {
          "internalType": "uint256",
          "name": "_exitPeriod",
          "type": "uint256"
        }
      ],
      "name": "updatePeriods",
      "outputs": [],
      "stateMutability": "nonpayable",
      "type": "function"
    },
    {
      "inputs": [],
      "name": "updatePool",
      "outputs": [],
      "stateMutability": "nonpayable",
      "type": "function"
    },
    {
      "inputs": [
        {
          "internalType": "bool",
          "name": "_hasUserLimit",
          "type": "bool"
        },
        {
          "internalType": "uint256",
          "name": "_poolLimitPerUser",
          "type": "uint256"
        }
      ],
      "name": "updatePoolLimitPerUser",
      "outputs": [],
      "stateMutability": "nonpayable",
      "type": "function"
    },
    {
      "inputs": [
        {
          "internalType": "uint256",
          "name": "_newAPYBasisPoints",
          "type": "uint256"
        }
      ],
      "name": "updateRewardPerBlock",
      "outputs": [],
      "stateMutability": "nonpayable",
      "type": "function"
    },
    {
      "inputs": [
        {
          "internalType": "address",
          "name": "",
          "type": "address"
        }
      ],
      "name": "userInfo",
      "outputs": [
        {
          "internalType": "uint256",
          "name": "amount",
          "type": "uint256"
        },
        {
          "internalType": "uint256",
          "name": "effectiveAmount",
          "type": "uint256"
        },
        {
          "internalType": "uint256",
          "name": "rewardDebt",
          "type": "uint256"
        },
        {
          "internalType": "uint256",
          "name": "debtClaimablePS",
          "type": "uint256"
        },
        {
          "internalType": "uint256",
          "name": "lockStartTime",
          "type": "uint256"
        },
        {
          "internalType": "uint256",
          "name": "lockDuration",
          "type": "uint256"
        },
        {
          "internalType": "uint256",
          "name": "withdrawRequestTime",
          "type": "uint256"
        },
        {
          "internalType": "uint256",
          "name": "withdrawalAmount",
          "type": "uint256"
        },
        {
          "internalType": "uint256",
          "name": "delayedReward",
          "type": "uint256"
        },
        {
          "internalType": "uint256",
          "name": "delayedUnlockBlock",
          "type": "uint256"
        }
      ],
      "stateMutability": "view",
      "type": "function"
    },
    {
      "stateMutability": "payable",
      "type": "receive"
    }
  ],
  "bytecode": "0x6080604052610258600281905560035564e8d4a51000600a55600560115560158054600160201b600160601b031916643c00000000179055348015610042575f80fd5b5060405161348b38038061348b8339810160408190526100619161026a565b338061008657604051631e4fbdf760e01b81525f600482015260240160405180910390fd5b61008f81610139565b5060018055600480546001600160a01b0319166001600160a01b03881617905560058590554384116100c157436100c3565b835b600681905560075582156100e4576008805460ff1916600117905560098390555b60028290556003819055601580546001600160401b03439081166c0100000000000000000000000002600160601b600160a01b03199092169190911790915561012e905f80610188565b50505050505061031a565b5f80546001600160a01b038381166001600160a01b0319831681178455604051919092169283917f8be0079c531659141344cd1fd0a4f28419497f9722a3daafe3b4186f6b6457e09190a35050565b6015545f9061019c9061ffff1660016102d8565b905061010061ffff8216106101ae57505f5b604080516060810182526001600160401b038681168252602080830187815283850187815261ffff8781165f818152601490955296909320945185546001600160401b031916941693909317845551600184015590516002909201919091556015805461ffff19169092179182905561010062010000909204161015610264576015805462010000900461ffff16906002610248836102fa565b91906101000a81548161ffff021916908361ffff160217905550505b50505050565b5f805f805f8060c0878903121561027f575f80fd5b86516001600160a01b0381168114610295575f80fd5b6020880151604089015160608a015160808b015160a0909b0151939c929b509099909850965090945092505050565b634e487b7160e01b5f52601160045260245ffd5b61ffff8181168382160190808211156102f3576102f36102c4565b5092915050565b5f61ffff808316818103610310576103106102c4565b6001019392505050565b613164806103275f395ff3fe6080604052600436106102f1575f3560e01c8063817b1cd21161018c578063bb872b4a116100df578063e2bbb1581161008e578063f2fde38b1161006b578063f2fde38b14610911578063f40f0f5214610930578063f8fd97951461094f578063ff18bf0b1461096357005b8063e2bbb158146108c9578063e3161ddd146108e8578063f1fa0e5a146108fc57005b8063ccd34cd5116100bc578063ccd34cd514610880578063d0228e8f14610895578063d578ceab146108b457005b8063bb872b4a1461082d578063c04b5f651461084c578063ca23bba81461086157005b806390682b891161013b578063a0b4090511610118578063a0b40905146107da578063a9f8d181146107f9578063aa78e4b11461080e57005b806390682b891461076457806392e8990e14610778578063977d58fe146107a157005b80638ae39cac116101695780638ae39cac1461071e5780638da5cb5b146107335780638f6629151461074f57005b8063817b1cd2146106d657806384b76824146106eb57806386f36e82146106ff57005b806348cd4cb1116102445780636386c1c7116101f3578063715018a6116101d0578063715018a614610684578063745400c91461069857806378d76037146106b757005b80636386c1c7146105eb57806366fe9f8a1461065a578063682266011461066f57005b80635664b199116102215780635664b199146105765780635fcbd28514610595578063605fba67146105cc57005b806348cd4cb1146105055780634ac4b6e01461051a5780634dda55181461052f57005b80633a18d8c0116102a0578063423975f31161027d578063423975f3146104bc5780634623635e146104d157806348b15166146104f057005b80633a18d8c01461043d5780633a58afd41461047e5780633f138d4b1461049d57005b80632498e780116102ce5780632498e780146103f65780633279beab1461040a578063372500ab1461042957005b806301f8a976146102fa578063096abd33146103195780631959a0021461034257005b366102f857005b005b348015610305575f80fd5b506102f8610314366004612f1c565b61096b565b348015610324575f80fd5b5061032f6201518081565b6040519081526020015b60405180910390f35b34801561034d575f80fd5b506103ac61035c366004612f4e565b6013602052805f5260405f205f91509050805f015490806001015490806002015490806003015490806004015490806005015490806006015490806007015490806008015490806009015490508a565b604080519a8b5260208b0199909952978901969096526060880194909452608087019290925260a086015260c085015260e084015261010083015261012082015261014001610339565b348015610401575f80fd5b506102f8610abe565b348015610415575f80fd5b506102f8610424366004612f1c565b610c7e565b348015610434575f80fd5b506102f8610ce3565b348015610448575f80fd5b5060155461046590640100000000900467ffffffffffffffff1681565b60405167ffffffffffffffff9091168152602001610339565b348015610489575f80fd5b5061032f610498366004612f4e565b610d00565b3480156104a8575f80fd5b506102f86104b7366004612f67565b610d61565b3480156104c7575f80fd5b5061032f600d5481565b3480156104dc575f80fd5b506102f86104eb366004612f8f565b610e22565b3480156104fb575f80fd5b5061032f60115481565b348015610510575f80fd5b5061032f60065481565b348015610525575f80fd5b5061032f600f5481565b34801561053a575f80fd5b50610561610549366004612f1c565b60126020525f90815260409020805460019091015482565b60408051928352602083019190915201610339565b348015610581575f80fd5b506102f8610590366004612f1c565b610ecc565b3480156105a0575f80fd5b506004546105b4906001600160a01b031681565b6040516001600160a01b039091168152602001610339565b3480156105d7575f80fd5b5061032f6105e6366004612f4e565b610f6e565b3480156105f6575f80fd5b5061060a610605366004612f4e565b611041565b604080519a8b5260208b0199909952978901969096526060880194909452608087019290925260a086015260c0850152151560e08401521515610100830152151561012082015261014001610339565b348015610665575f80fd5b5061032f60095481565b34801561067a575f80fd5b5061032f600e5481565b34801561068f575f80fd5b506102f86110da565b3480156106a3575f80fd5b506102f86106b2366004612f1c565b6110eb565b3480156106c2575f80fd5b506102f86106d1366004612f1c565b611405565b3480156106e1575f80fd5b5061032f600c5481565b3480156106f6575f80fd5b506102f86114b1565b34801561070a575f80fd5b506102f8610719366004612faf565b6115d1565b348015610729575f80fd5b5061032f60055481565b34801561073e575f80fd5b505f546001600160a01b03166105b4565b34801561075a575f80fd5b5061032f600b5481565b34801561076f575f80fd5b506102f861167c565b348015610783575f80fd5b506008546107919060ff1681565b6040519015158152602001610339565b3480156107ac575f80fd5b506107916107bb366004612f4e565b6001600160a01b03165f90815260136020526040902060060154151590565b3480156107e5575f80fd5b506102f86107f4366004612fd6565b611721565b348015610804575f80fd5b5061032f60075481565b348015610819575f80fd5b506102f8610828366004612f1c565b6117e7565b348015610838575f80fd5b506102f8610847366004612f1c565b611802565b348015610857575f80fd5b5061032f60035481565b34801561086c575f80fd5b5061032f61087b366004612f4e565b61184d565b34801561088b575f80fd5b5061032f600a5481565b3480156108a0575f80fd5b5061032f6108af366004612f4e565b611902565b3480156108bf575f80fd5b5061032f60105481565b3480156108d4575f80fd5b506102f86108e3366004612f8f565b611941565b3480156108f3575f80fd5b506102f8611bed565b348015610907575f80fd5b5061032f60025481565b34801561091c575f80fd5b506102f861092b366004612f4e565b611bf5565b34801561093b575f80fd5b5061032f61094a366004612f4e565b611c48565b34801561095a575f80fd5b506102f8611d8b565b6102f8611f96565b610973612022565b620f42408111156109cb5760405162461bcd60e51b815260206004820152600c60248201527f41505920746f6f2068696768000000000000000000000000000000000000000060448201526064015b60405180910390fd5b6109d3612067565b5f6011546301e133806109e6919061301e565b600d549091508015610a1057610a088184610a0385612710613031565b612261565b600555610a7e565b60405162461bcd60e51b815260206004820152603360248201527f4e6f2061637469766520656666656374697665202d207573652073657452657760448201527f617264506572426c6f636b20696e73746561640000000000000000000000000060648201526084016109c2565b7f0c4d677eef92893ac7ec52faf8140fc6c851ab4736302b4f3a89dfb20696a0df600554604051610ab191815260200190565b60405180910390a1505050565b610ac6612022565b7f26c3053a9ab1625d44b90708e16d52b35ab3cfb0d872f84b29e76c8f0cee851b5f81905260126020908152604080518082019091527fc9b097b6f10fa366bdc1ddcaa6b48b819843a7fb89f3be0583756f3ab42503be5481527fc9b097b6f10fa366bdc1ddcaa6b48b819843a7fb89f3be0583756f3ab42503bf5491810182905290610b955760405162461bcd60e51b815260206004820152601160248201527f4e6f2070656e64696e67206368616e676500000000000000000000000000000060448201526064016109c2565b8060200151421015610be95760405162461bcd60e51b815260206004820152601460248201527f54696d656c6f636b206e6f74206578706972656400000000000000000000000060448201526064016109c2565b610bf1612067565b80516005555f82815260126020908152604080832083815560010192909255825191519182527f0c4d677eef92893ac7ec52faf8140fc6c851ab4736302b4f3a89dfb20696a0df910160405180910390a1805160405190815282907f31564d9c3e497cbcaea3bfc6814d1c86ebf66b3fe325b5f5b327434f5885436e906020015b60405180910390a25050565b610c86612022565b80471015610cd65760405162461bcd60e51b815260206004820152601b60248201527f496e73756666696369656e74207265776172642062616c616e6365000000000060448201526064016109c2565b610ce03382612312565b50565b610ceb6123b6565b610cf5335f6123f9565b610cfe60018055565b565b6001600160a01b0381165f90815260136020526040812060068101548203610d2a57505f92915050565b5f6003548260060154610d3d919061304e565b9050804210610d4f57505f9392505050565b610d594282613061565b949350505050565b610d69612022565b6004546001600160a01b0390811690831603610dc75760405162461bcd60e51b815260206004820152601160248201527f43616e6e6f74207265636f766572204c5000000000000000000000000000000060448201526064016109c2565b610ddb6001600160a01b0383163383612608565b604080516001600160a01b0384168152602081018390527f74545154aac348a3eac92596bd1971957ca94795f4e954ec5f613b55fab7812991015b60405180910390a15050565b610e2a612022565b5f82118015610e3857505f81115b610e845760405162461bcd60e51b815260206004820152600f60248201527f496e76616c696420706572696f6473000000000000000000000000000000000060448201526064016109c2565b610e8c612067565b6002829055600381905560408051838152602081018390527f8e7237c327b2c040e122ee8871f17435fda2eae7d8e36798de13714b60f2b6ee9101610e16565b610ed4612022565b5f81118015610ee55750610e108111155b610f315760405162461bcd60e51b815260206004820152601160248201527f496e76616c696420626c6f636b54696d6500000000000000000000000000000060448201526064016109c2565b601180549082905560408051828152602081018490527e24be6dc070e4a35f5e69c2c31342ac959334f49c5b4b62cc1033d86e8351979101610e16565b6001600160a01b0381165f9081526013602052604081206009810154829015801590610f9e575081600901544310155b15610fb5576008820154610fb2908261304e565b90505b60018201545f819003610fca57509392505050565b5f601154600254610fdb919061301e565b90505f814311610feb575f610ff5565b610ff58243613061565b90505f6110018261267c565b600387015490915080821115611034576110278561101f8385613061565b600a54612261565b611031908761304e565b95505b5093979650505050505050565b6001600160a01b0381165f9081526013602052604081208054600182015460048301546005840154600685015460078601549496939592949193909281908190819081891580159061109c5750611098898b61304e565b4210155b90508080156110a9575087155b935087156110cb57600354600195506110c2908961304e565b95508542101592505b50509193959799509193959799565b6110e2612022565b610cfe5f61287a565b6110f36123b6565b335f9081526013602052604090208115801590611111575080548211155b61115d5760405162461bcd60e51b815260206004820152600a60248201527f42616420616d6f756e740000000000000000000000000000000000000000000060448201526064016109c2565b5f8160040154116111b05760405162461bcd60e51b815260206004820152600f60248201527f4e6f20616374697665207374616b65000000000000000000000000000000000060448201526064016109c2565b6006810154156112025760405162461bcd60e51b815260206004820152601160248201527f416c72656164792072657175657374656400000000000000000000000000000060448201526064016109c2565b80600501548160040154611216919061304e565b4210156112655760405162461bcd60e51b815260206004820152600c60248201527f5374616b65206c6f636b6564000000000000000000000000000000000000000060448201526064016109c2565b61126d612067565b611277335f6123f9565b5f601154600254611288919061301e565b90505f814311611298575f6112a2565b6112a28243613061565b90505f6112ae8261267c565b90505f81600b546112bf9190613061565b90508015611324575f6112e7876112d988600501546128e1565b670de0b6b3a7640000612261565b90505f6112f78284600a54612261565b905080876008015f82825461130c919061304e565b9091555061131c9050864361304e565b600988015550505b5f611336876112d988600501546128e1565b905080866001015f82825461134b9190613061565b9250508190555080600d5f8282546113639190613061565b909155505042600687015560078601879055600e80548891905f9061138990849061304e565b925050819055506113a38660010154600b54600a54612261565b60028701556003545f906113b7904261304e565b604080518a81526020810183905291925033917fd72eb5d043f24a0168ae744d5c44f9596fd673a26bf74d9646bff4b844882d14910160405180910390a250505050505050610ce060018055565b61140d612022565b604080518082019091528181527f26c3053a9ab1625d44b90708e16d52b35ab3cfb0d872f84b29e76c8f0cee851b906020810161144d620151804261304e565b90525f82815260126020908152604090912082518155910151600190910155807f4107c16102ca593afea4ac800deb7d36407d3f25e61cccd6628094793f668ffe8361149c620151804261304e565b60408051928352602083019190915201610c72565b6114b96123b6565b335f90815260136020526040902060068101546115185760405162461bcd60e51b815260206004820152601760248201527f4e6f207769746864726177616c2072657175657374656400000000000000000060448201526064016109c2565b611520612067565b61152a335f6123f9565b5f61154082600701546112d984600501546128e1565b905080826001015f828254611555919061304e565b9250508190555080600d5f82825461156d919061304e565b90915550506007820154600e80545f90611588908490613061565b90915550505f60068301819055600783018190556008830181905560098301556001820154600b54600a546115be929190612261565b82600201819055505050610cfe60018055565b6115d9612022565b60068167ffffffffffffffff161015801561160057506103e88167ffffffffffffffff1611155b61164c5760405162461bcd60e51b815260206004820152601060248201527f496e76616c696420696e74657276616c0000000000000000000000000000000060448201526064016109c2565b6015805467ffffffffffffffff909216640100000000026bffffffffffffffff0000000019909216919091179055565b611684612022565b7f26c3053a9ab1625d44b90708e16d52b35ab3cfb0d872f84b29e76c8f0cee851b5f81815260126020527fc9b097b6f10fa366bdc1ddcaa6b48b819843a7fb89f3be0583756f3ab42503be8190557fc9b097b6f10fa366bdc1ddcaa6b48b819843a7fb89f3be0583756f3ab42503bf81905560405182917ffbe037eef108662db90b0a679b0dde447f266ad1254d34073a5ad826453dbe7c91a250565b611729612022565b81156117a55760085460ff161580611742575060095481115b61178e5760405162461bcd60e51b815260206004820152600d60248201527f4d75737420696e6372656173650000000000000000000000000000000000000060448201526064016109c2565b6008805460ff1916600117905560098190556117b4565b6008805460ff191690555f6009555b7f241f67ee5f41b7a5cabf911367329be7215900f602ebfc47f89dce2a6bcd847c600954604051610e1691815260200190565b6117ef6123b6565b6117f933826123f9565b610ce060018055565b61180a612022565b611812612067565b60058190556040518181527f0c4d677eef92893ac7ec52faf8140fc6c851ab4736302b4f3a89dfb20696a0df9060200160405180910390a150565b6001600160a01b0381165f908152601360205260408120600981015482901580159061187c5750816009015443105b15611893576008820154611890908261304e565b90505b60018201545f8190036118a857509392505050565b5f6118b161295a565b90505f6011546002546118c4919061301e565b90505f8143116118d4575f6118de565b6118de8243613061565b90505f6118ea8261267c565b905080841115611034576110278561101f8387613061565b6001600160a01b0381165f9081526013602052604081206004810154820361192c57505f92915050565b5f81600501548260040154610d3d919061304e565b6119496123b6565b335f908152601360205260409020826119a45760405162461bcd60e51b815260206004820152600c60248201527f5a65726f206465706f736974000000000000000000000000000000000000000060448201526064016109c2565b6006810154156119f65760405162461bcd60e51b815260206004820152600e60248201527f496e206578697420706572696f6400000000000000000000000000000000000060448201526064016109c2565b5f611a00836128e1565b825490915015611a5d5781600501548314611a5d5760405162461bcd60e51b815260206004820152601160248201527f4475726174696f6e206d69736d6174636800000000000000000000000000000060448201526064016109c2565b60085460ff1615611ac5576009548254611a77908661304e565b1115611ac55760405162461bcd60e51b815260206004820152600b60248201527f41626f7665206c696d697400000000000000000000000000000000000000000060448201526064016109c2565b611acd612067565b815415611ae357611ade335f6123f9565b611af3565b600b546003830155600582018390555b83825f015f828254611b05919061304e565b9250508190555083600c5f828254611b1d919061304e565b909155505f9050611b378583670de0b6b3a7640000612261565b905080836001015f828254611b4c919061304e565b9250508190555080600d5f828254611b64919061304e565b90915550504260048401556001830154600b54600a54611b85929190612261565b6002840155600454611ba2906001600160a01b0316333088612a6c565b604080518681526020810186905233917f90890809c654f11d6e72a28fa60149770a0d11ec6c92319d6ceb2bb0a4ea1a15910160405180910390a2505050611be960018055565b5050565b610cfe612067565b611bfd612022565b6001600160a01b038116611c3f576040517f1e4fbdf70000000000000000000000000000000000000000000000000000000081525f60048201526024016109c2565b610ce08161287a565b6001600160a01b0381165f908152601360205260408120600d54808303611c7257505f9392505050565b600b54600754431115611d48575f60075443611c8e9190613061565b90505b5f600554118015611cae5750600554611cab905f1961301e565b81115b15611cd7575f6005545f19611cc3919061301e565b9050611ccf8183613061565b915050611c91565b5f60055482611ce69190613031565b90505f601054600f54611cf99190613061565b9050475f828211611d0a575f611d14565b611d148383613061565b905080841115611d22578093505b8315611d4257611d3584600a5489612261565b611d3f908761304e565b95505b50505050505b5f611d5a846001015483600a54612261565b905083600201548110611d80576002840154611d769082613061565b9695505050505050565b505f95945050505050565b611d936123b6565b611d9d335f6123f9565b335f9081526013602052604090206006810154611dfc5760405162461bcd60e51b815260206004820152601760248201527f4e6f207769746864726177616c2072657175657374656400000000000000000060448201526064016109c2565b6003548160060154611e0e919061304e565b421015611e5d5760405162461bcd60e51b815260206004820152601160248201527f45786974206e6f742066696e697368656400000000000000000000000000000060448201526064016109c2565b600781015480611eaf5760405162461bcd60e51b815260206004820152600960248201527f4e6f20616d6f756e74000000000000000000000000000000000000000000000060448201526064016109c2565b80600e5f828254611ec09190613061565b9250508190555080600c5f828254611ed89190613061565b90915550505f6006830181905560078301558154819003611f0f575f80835560048301819055600583018190556003830155611f27565b80825f015f828254611f219190613061565b90915550505b611f3a8260010154600b54600a54612261565b6002830155600454611f56906001600160a01b03163383612608565b60405181815233907f7b2a72f0889ae9bb89e8ee7ec3e7c465552d1b76d51df9b0426d0e4e7f39528f9060200160405180910390a25050610cfe60018055565b611f9e612022565b5f3411611fed5760405162461bcd60e51b815260206004820152601060248201527f4d7573742073656e6420746f6b656e730000000000000000000000000000000060448201526064016109c2565b6040513481527fe42dde25409a3e8c7c119c1c722610d9e9bd96e73e3cead774863c9ffdd870d69060200160405180910390a1565b5f546001600160a01b03163314610cfe576040517f118cdaa70000000000000000000000000000000000000000000000000000000081523360048201526024016109c2565b600754431161207257565b600d545f819003612084575043600755565b5f600754436120939190613061565b90505b5f6005541180156120b357506005546120b0905f1961301e565b81115b156120f3575f6005545f196120c8919061301e565b90508060075f8282546120db919061304e565b909155506120eb90508183613061565b915050612096565b5f600554826121029190613031565b600a549091505b5f8211801561211757505f81115b801561212c5750612129815f1961301e565b82115b156121435761213c600a8261301e565b9050612109565b5f601054600f546121549190613061565b9050475f828211612165575f61216f565b61216f8383613061565b90508085111561217d578094505b84156121bc5761218e858589612261565b600b5f82825461219e919061304e565b9250508190555084600f5f8282546121b6919061304e565b90915550505b43600781905560155467ffffffffffffffff64010000000082048116926121f6926c01000000000000000000000000900490911690613074565b67ffffffffffffffff16106122585761221443600b54600d54612aab565b601580547fffffffffffffffffffffffff0000000000000000ffffffffffffffffffffffff166c010000000000000000000000004367ffffffffffffffff16021790555b50505050505050565b5f805f61226e8686612b8e565b91509150815f036122925783818161228857612288612ff6565b049250505061230b565b8184116122a9576122a96003851502601118612baa565b5f848688095f868103871696879004966002600389028118808a02820302808a02820302808a02820302808a02820302808a02820302808a02909103029181900381900460010185841190960395909502919093039390930492909217029150505b9392505050565b5f826001600160a01b0316826040515f6040518083038185875af1925050503d805f811461235b576040519150601f19603f3d011682016040523d82523d5f602084013e612360565b606091505b50509050806123b15760405162461bcd60e51b815260206004820152601660248201527f4e6174697665207472616e73666572206661696c65640000000000000000000060448201526064016109c2565b505050565b6002600154036123f2576040517f3ee5aeb500000000000000000000000000000000000000000000000000000000815260040160405180910390fd5b6002600155565b6001600160a01b0382165f908152601360205260408120601154600254919291612423919061301e565b90505f814311612433575f61243d565b61243d8243613061565b90505f6124498261267c565b60038501549091505f818311801561246457505f8660010154115b1561247f57600186015461247c9061101f8486613061565b90505b612487612067565b60098601548190158015906124a0575086600901544310155b156124c45760088701546124b4908261304e565b5f60088901819055600989015590505b475f818311156124d457816124d6565b825b9050898110156125285760405162461bcd60e51b815260206004820152601860248201527f536c6970706167653a2072657761726420746f6f206c6f77000000000000000060448201526064016109c2565b801561258d576125388b82612312565b8060105f828254612549919061304e565b90915550506040518181526001600160a01b038c16907f106f923f993c2149d49b4255ff723acafa1f2d94393f561d3eda32ae348f72419060200160405180910390a25b82156125d8578281106125a657600389018690556125e0565b5f6125b18688613061565b90505f6125bf838387612261565b90506125cb818861304e565b60038c0155506125e09050565b600389018690555b6125f38960010154600b54600a54612261565b89600201819055505050505050505050505050565b6040516001600160a01b038381166024830152604482018390526123b191859182169063a9059cbb906064015b604051602081830303815290604052915060e01b6020820180517bffffffffffffffffffffffffffffffffffffffffffffffffffffffff8381831617835250505050612bbb565b6015545f9062010000900461ffff16810361269857505f919050565b5f806126a384612c40565b915091505f806126b5835f0151612d78565b91509150836126c957505f95945050505050565b82604001515f036126e1575050602001519392505050565b8115806127055750805f015167ffffffffffffffff168667ffffffffffffffff1610155b156127e157825f015167ffffffffffffffff168667ffffffffffffffff1611156127d4575f61273261295a565b90505f8460200151826127459190613061565b85519091505f906127609067ffffffffffffffff1643613061565b9050805f0361277b5750505060209092015195945050505050565b5f865f015167ffffffffffffffff168a67ffffffffffffffff1661279f9190613061565b9050818111156127ac5750805b6127b7838284612261565b87602001516127c6919061304e565b9a9950505050505050505050565b5050602001519392505050565b8251815167ffffffffffffffff918216911603612805575050602001519392505050565b825181515f9161281491613074565b67ffffffffffffffff1690505f845f0151886128309190613074565b67ffffffffffffffff1690505f856020015184602001516128519190613061565b905061285e818385612261565b866020015161286d919061304e565b9998505050505050505050565b5f80546001600160a01b038381167fffffffffffffffffffffffff0000000000000000000000000000000000000000831681178455604051919092169283917f8be0079c531659141344cd1fd0a4f28419497f9722a3daafe3b4186f6b6457e09190a35050565b5f81610258036128fa5750670de0b6b3a7640000919050565b816104b00361291257506714d1120d7b160000919050565b60405162461bcd60e51b815260206004820152601060248201527f496e76616c6964206475726174696f6e0000000000000000000000000000000060448201526064016109c2565b600d545f9080820361296e575050600b5490565b600754431161297f575050600b5490565b5f6007544361298e9190613061565b9050805f036129a157600b549250505090565b5f6005541180156129be57506005546129bb905f1961301e565b81115b156129e7575f6005545f196129d3919061301e565b90506129df8183613061565b9150506129a1565b5f600554826129f69190613031565b90505f601054600f54612a099190613061565b9050475f828211612a1a575f612a24565b612a248383613061565b905080841115612a32578093505b835f03612a4757600b54965050505050505090565b612a5484600a5488612261565b600b54612a61919061304e565b965050505050505090565b6040516001600160a01b038481166024830152838116604483015260648201839052612aa59186918216906323b872dd90608401612635565b50505050565b6015545f90612abf9061ffff16600161309c565b905061010061ffff821610612ad157505f5b6040805160608101825267ffffffffffffffff8681168252602080830187815283850187815261ffff8781165f8181526014909552969093209451855467ffffffffffffffff1916941693909317845551600184015590516002909201919091556015805461ffff19169092179182905561010062010000909204161015612aa5576015805462010000900461ffff16906002612b6d836130b7565b91906101000a81548161ffff021916908361ffff1602179055505050505050565b5f805f1983850993909202808410938190039390930393915050565b634e487b715f52806020526024601cfd5b5f8060205f8451602086015f885af180612bda576040513d5f823e3d81fd5b50505f513d91508115612bf1578060011415612bfe565b6001600160a01b0384163b155b15612aa5576040517f5274afe70000000000000000000000000000000000000000000000000000000081526001600160a01b03851660048201526024016109c2565b604080516060810182525f80825260208201819052918101829052601554604080516060810182525f8082526020820181905291810182905261ffff909216915f5b60155461ffff6201000090910481169084161015612d6d5761ffff84165f908152601460209081526040918290208251606081018452815467ffffffffffffffff168082526001830154938201939093526002909101549281019290925215801590612cfc5750805167ffffffffffffffff808a16911611155b8015612d205750811580612d2057508251815167ffffffffffffffff918216911610155b15612d2d57809250600191505b8461ffff165f03612d4c57612d4560016101006130d7565b9450612d5a565b84612d56816130f2565b9550505b83612d64816130b7565b94505050612c82565b969095509350505050565b604080516060810182525f808252602082018190529181018290526015545f908190612da99061ffff16600161309c565b60155461ffff9182166201000090910490911610612e06576015546101009061ffff620100008204811691612de09184911661309c565b612deb90600161309c565b612df591906130d7565b612dff919061310e565b9050612e2e565b60155461ffff620100008204811691612e219116600161309c565b612e2b91906130d7565b90505b805b60155461ffff6201000090910481169084161015612eea5761ffff81165f908152601460209081526040918290208251606081018452815467ffffffffffffffff9081168083526001840154948301949094526002909201549381019390935288161015612ea657600197909650945050505050565b60155461ffff90811690831603612ebd5750612eea565b610100612ecb83600161309c565b612ed5919061310e565b915083612ee1816130b7565b94505050612e30565b5f60405180606001604052805f67ffffffffffffffff1681526020015f81526020015f81525094509450505050915091565b5f60208284031215612f2c575f80fd5b5035919050565b80356001600160a01b0381168114612f49575f80fd5b919050565b5f60208284031215612f5e575f80fd5b61230b82612f33565b5f8060408385031215612f78575f80fd5b612f8183612f33565b946020939093013593505050565b5f8060408385031215612fa0575f80fd5b50508035926020909101359150565b5f60208284031215612fbf575f80fd5b813567ffffffffffffffff8116811461230b575f80fd5b5f8060408385031215612fe7575f80fd5b82358015158114612f81575f80fd5b634e487b7160e01b5f52601260045260245ffd5b634e487b7160e01b5f52601160045260245ffd5b5f8261302c5761302c612ff6565b500490565b80820281158282048414176130485761304861300a565b92915050565b808201808211156130485761304861300a565b818103818111156130485761304861300a565b67ffffffffffffffff8281168282160390808211156130955761309561300a565b5092915050565b61ffff8181168382160190808211156130955761309561300a565b5f61ffff8083168181036130cd576130cd61300a565b6001019392505050565b61ffff8281168282160390808211156130955761309561300a565b5f61ffff8216806131055761310561300a565b5f190192915050565b5f61ffff8084168061312257613122612ff6565b9216919091069291505056fea2646970667358221220b786dfdc6f6a4c95bd55724884cf3deef6a617204b519524d563f44f015869b264736f6c63430008190033",
  "linkReferences": {},
  "deployedLinkReferences": {}
}