{
  "_format": "hh-sol-artifact-1",
  "contractName": "SmartChefNative",
  "sourceName": "contracts/SmartChefNative.sol",
  "abi": [
    {
      "inputs": [
        {
          "internalType": "uint256",
          "name": "_poolLimitPerUser",
          "type": "uint256"
        },
        {
          "internalType": "uint256",
          "name": "_rewardDelayPeriod",
          "type": "uint256"
        },
        {
          "internalType": "uint256",
          "name": "_exitPeriod",
          "type": "uint256"
        },
        {
          "internalType": "uint256",
          "name": "_rewardPerBlock",
          "type": "uint256"
        },
        {
          "internalType": "uint256",
          "name": "_startBlock",
          "type": "uint256"
        }
      ],
      "stateMutability": "nonpayable",
      "type": "constructor"
    },
    {
      "inputs": [],
      "name": "EnforcedPause",
      "type": "error"
    },
    {
      "inputs": [],
      "name": "ExpectedPause",
      "type": "error"
    },
    {
      "inputs": [
        {
          "internalType": "address",
          "name": "owner",
          "type": "address"
        }
      ],
      "name": "OwnableInvalidOwner",
      "type": "error"
    },
    {
      "inputs": [
        {
          "internalType": "address",
          "name": "account",
          "type": "address"
        }
      ],
      "name": "OwnableUnauthorizedAccount",
      "type": "error"
    },
    {
      "inputs": [],
      "name": "ReentrancyGuardReentrantCall",
      "type": "error"
    },
    {
      "anonymous": false,
      "inputs": [
        {
          "indexed": false,
          "internalType": "address",
          "name": "tokenRecovered",
          "type": "address"
        },
        {
          "indexed": false,
          "internalType": "uint256",
          "name": "amount",
          "type": "uint256"
        }
      ],
      "name": "AdminTokenRecovery",
      "type": "event"
    },
    {
      "anonymous": false,
      "inputs": [
        {
          "indexed": false,
          "internalType": "uint256",
          "name": "oldBlockTime",
          "type": "uint256"
        },
        {
          "indexed": false,
          "internalType": "uint256",
          "name": "newBlockTime",
          "type": "uint256"
        }
      ],
      "name": "BlockTimeUpdated",
      "type": "event"
    },
    {
      "anonymous": false,
      "inputs": [
        {
          "indexed": true,
          "internalType": "address",
          "name": "user",
          "type": "address"
        },
        {
          "indexed": false,
          "internalType": "uint256",
          "name": "amount",
          "type": "uint256"
        },
        {
          "indexed": false,
          "internalType": "uint256",
          "name": "duration",
          "type": "uint256"
        }
      ],
      "name": "Deposit",
      "type": "event"
    },
    {
      "anonymous": false,
      "inputs": [],
      "name": "FrozenPermanently",
      "type": "event"
    },
    {
      "anonymous": false,
      "inputs": [
        {
          "indexed": false,
          "internalType": "uint256",
          "name": "poolLimitPerUser",
          "type": "uint256"
        }
      ],
      "name": "NewPoolLimit",
      "type": "event"
    },
    {
      "anonymous": false,
      "inputs": [
        {
          "indexed": false,
          "internalType": "uint256",
          "name": "newRate",
          "type": "uint256"
        }
      ],
      "name": "NewRewardPerBlock",
      "type": "event"
    },
    {
      "anonymous": false,
      "inputs": [
        {
          "indexed": true,
          "internalType": "address",
          "name": "previousOwner",
          "type": "address"
        },
        {
          "indexed": true,
          "internalType": "address",
          "name": "newOwner",
          "type": "address"
        }
      ],
      "name": "OwnershipTransferred",
      "type": "event"
    },
    {
      "anonymous": false,
      "inputs": [
        {
          "indexed": true,
          "internalType": "bytes32",
          "name": "paramHash",
          "type": "bytes32"
        }
      ],
      "name": "ParameterChangeCancelled",
      "type": "event"
    },
    {
      "anonymous": false,
      "inputs": [
        {
          "indexed": true,
          "internalType": "bytes32",
          "name": "paramHash",
          "type": "bytes32"
        },
        {
          "indexed": false,
          "internalType": "uint256",
          "name": "value",
          "type": "uint256"
        }
      ],
      "name": "ParameterChangeExecuted",
      "type": "event"
    },
    {
      "anonymous": false,
      "inputs": [
        {
          "indexed": true,
          "internalType": "bytes32",
          "name": "paramHash",
          "type": "bytes32"
        },
        {
          "indexed": false,
          "internalType": "uint256",
          "name": "value",
          "type": "uint256"
        },
        {
          "indexed": false,
          "internalType": "uint256",
          "name": "executeAfter",
          "type": "uint256"
        }
      ],
      "name": "ParameterChangeScheduled",
      "type": "event"
    },
    {
      "anonymous": false,
      "inputs": [
        {
          "indexed": false,
          "internalType": "address",
          "name": "account",
          "type": "address"
        }
      ],
      "name": "Paused",
      "type": "event"
    },
    {
      "anonymous": false,
      "inputs": [
        {
          "indexed": false,
          "internalType": "uint256",
          "name": "rewardDelayPeriod",
          "type": "uint256"
        },
        {
          "indexed": false,
          "internalType": "uint256",
          "name": "exitPeriod",
          "type": "uint256"
        }
      ],
      "name": "PeriodsUpdated",
      "type": "event"
    },
    {
      "anonymous": false,
      "inputs": [
        {
          "indexed": true,
          "internalType": "address",
          "name": "user",
          "type": "address"
        },
        {
          "indexed": false,
          "internalType": "uint256",
          "name": "amount",
          "type": "uint256"
        }
      ],
      "name": "RewardClaimed",
      "type": "event"
    },
    {
      "anonymous": false,
      "inputs": [
        {
          "indexed": false,
          "internalType": "uint256",
          "name": "amount",
          "type": "uint256"
        }
      ],
      "name": "RewardsFunded",
      "type": "event"
    },
    {
      "anonymous": false,
      "inputs": [
        {
          "indexed": false,
          "internalType": "address",
          "name": "account",
          "type": "address"
        }
      ],
      "name": "Unpaused",
      "type": "event"
    },
    {
      "anonymous": false,
      "inputs": [
        {
          "indexed": true,
          "internalType": "address",
          "name": "user",
          "type": "address"
        },
        {
          "indexed": false,
          "internalType": "uint256",
          "name": "amount",
          "type": "uint256"
        }
      ],
      "name": "WithdrawExecuted",
      "type": "event"
    },
    {
      "anonymous": false,
      "inputs": [
        {
          "indexed": true,
          "internalType": "address",
          "name": "user",
          "type": "address"
        },
        {
          "indexed": false,
          "internalType": "uint256",
          "name": "amount",
          "type": "uint256"
        },
        {
          "indexed": false,
          "internalType": "uint256",
          "name": "availableTime",
          "type": "uint256"
        }
      ],
      "name": "WithdrawRequested",
      "type": "event"
    },
    {
      "stateMutability": "payable",
      "type": "fallback"
    },
    {
      "inputs": [],
      "name": "EXIT_PERIOD",
      "outputs": [
        {
          "internalType": "uint256",
          "name": "",
          "type": "uint256"
        }
      ],
      "stateMutability": "view",
      "type": "function"
    },
    {
      "inputs": [],
      "name": "PARAM_CHANGE_DELAY",
      "outputs": [
        {
          "internalType": "uint256",
          "name": "",
          "type": "uint256"
        }
      ],
      "stateMutability": "view",
      "type": "function"
    },
    {
      "inputs": [],
      "name": "PRECISION_FACTOR",
      "outputs": [
        {
          "internalType": "uint256",
          "name": "",
          "type": "uint256"
        }
      ],
      "stateMutability": "view",
      "type": "function"
    },
    {
      "inputs": [],
      "name": "REWARD_DELAY_PERIOD",
      "outputs": [
        {
          "internalType": "uint256",
          "name": "",
          "type": "uint256"
        }
      ],
      "stateMutability": "view",
      "type": "function"
    },
    {
      "inputs": [],
      "name": "accTokenPerShare",
      "outputs": [
        {
          "internalType": "uint256",
          "name": "",
          "type": "uint256"
        }
      ],
      "stateMutability": "view",
      "type": "function"
    },
    {
      "inputs": [],
      "name": "blockTime",
      "outputs": [
        {
          "internalType": "uint256",
          "name": "",
          "type": "uint256"
        }
      ],
      "stateMutability": "view",
      "type": "function"
    },
    {
      "inputs": [],
      "name": "cancelRewardPerBlockChange",
      "outputs": [],
      "stateMutability": "nonpayable",
      "type": "function"
    },
    {
      "inputs": [],
      "name": "cancelWithdraw",
      "outputs": [],
      "stateMutability": "nonpayable",
      "type": "function"
    },
    {
      "inputs": [],
      "name": "checkpointInterval",
      "outputs": [
        {
          "internalType": "uint64",
          "name": "",
          "type": "uint64"
        }
      ],
      "stateMutability": "view",
      "type": "function"
    },
    {
      "inputs": [],
      "name": "claimRewards",
      "outputs": [],
      "stateMutability": "nonpayable",
      "type": "function"
    },
    {
      "inputs": [
        {
          "internalType": "uint256",
          "name": "minReward",
          "type": "uint256"
        }
      ],
      "name": "claimRewardsWithSlippage",
      "outputs": [],
      "stateMutability": "nonpayable",
      "type": "function"
    },
    {
      "inputs": [
        {
          "internalType": "address",
          "name": "_user",
          "type": "address"
        }
      ],
      "name": "claimableView",
      "outputs": [
        {
          "internalType": "uint256",
          "name": "",
          "type": "uint256"
        }
      ],
      "stateMutability": "view",
      "type": "function"
    },
    {
      "inputs": [
        {
          "internalType": "uint256",
          "name": "_duration",
          "type": "uint256"
        }
      ],
      "name": "deposit",
      "outputs": [],
      "stateMutability": "payable",
      "type": "function"
    },
    {
      "inputs": [
        {
          "internalType": "uint256",
          "name": "_amount",
          "type": "uint256"
        }
      ],
      "name": "emergencyRewardWithdraw",
      "outputs": [],
      "stateMutability": "nonpayable",
      "type": "function"
    },
    {
      "inputs": [],
      "name": "emergencyWithdraw",
      "outputs": [],
      "stateMutability": "nonpayable",
      "type": "function"
    },
    {
      "inputs": [],
      "name": "executeRewardPerBlockChange",
      "outputs": [],
      "stateMutability": "nonpayable",
      "type": "function"
    },
    {
      "inputs": [],
      "name": "executeWithdraw",
      "outputs": [],
      "stateMutability": "nonpayable",
      "type": "function"
    },
    {
      "inputs": [],
      "name": "freezePermanently",
      "outputs": [],
      "stateMutability": "nonpayable",
      "type": "function"
    },
    {
      "inputs": [],
      "name": "fundRewards",
      "outputs": [],
      "stateMutability": "payable",
      "type": "function"
    },
    {
      "inputs": [],
      "name": "getBaseAPY",
      "outputs": [
        {
          "internalType": "uint256",
          "name": "",
          "type": "uint256"
        }
      ],
      "stateMutability": "view",
      "type": "function"
    },
    {
      "inputs": [
        {
          "internalType": "uint256",
          "name": "_duration",
          "type": "uint256"
        }
      ],
      "name": "getEstimatedAPY",
      "outputs": [
        {
          "internalType": "uint256",
          "name": "",
          "type": "uint256"
        }
      ],
      "stateMutability": "view",
      "type": "function"
    },
    {
      "inputs": [],
      "name": "getRewardBalance",
      "outputs": [
        {
          "internalType": "uint256",
          "name": "",
          "type": "uint256"
        }
      ],
      "stateMutability": "view",
      "type": "function"
    },
    {
      "inputs": [
        {
          "internalType": "address",
          "name": "_user",
          "type": "address"
        }
      ],
      "name": "getUserInfo",
      "outputs": [
        {
          "internalType": "uint256",
          "name": "stakedAmount",
          "type": "uint256"
        },
        {
          "internalType": "uint256",
          "name": "lockStartTime",
          "type": "uint256"
        },
        {
          "internalType": "uint256",
          "name": "lockEndTime",
          "type": "uint256"
        },
        {
          "internalType": "uint256",
          "name": "lockDuration",
          "type": "uint256"
        },
        {
          "internalType": "uint256",
          "name": "withdrawRequestTime",
          "type": "uint256"
        },
        {
          "internalType": "uint256",
          "name": "withdrawalAmount",
          "type": "uint256"
        },
        {
          "internalType": "uint256",
          "name": "withdrawalAvailableTime",
          "type": "uint256"
        },
        {
          "internalType": "bool",
          "name": "isLocked_",
          "type": "bool"
        },
        {
          "internalType": "bool",
          "name": "inExitPeriod",
          "type": "bool"
        },
        {
          "internalType": "bool",
          "name": "canRequestWithdraw",
          "type": "bool"
        },
        {
          "internalType": "bool",
          "name": "canExecuteWithdraw",
          "type": "bool"
        }
      ],
      "stateMutability": "view",
      "type": "function"
    },
    {
      "inputs": [
        {
          "internalType": "address",
          "name": "_user",
          "type": "address"
        }
      ],
      "name": "getUserStatus",
      "outputs": [
        {
          "internalType": "string",
          "name": "",
          "type": "string"
        }
      ],
      "stateMutability": "view",
      "type": "function"
    },
    {
      "inputs": [],
      "name": "hasUserLimit",
      "outputs": [
        {
          "internalType": "bool",
          "name": "",
          "type": "bool"
        }
      ],
      "stateMutability": "view",
      "type": "function"
    },
    {
      "inputs": [
        {
          "internalType": "address",
          "name": "_user",
          "type": "address"
        }
      ],
      "name": "isInExitPeriod",
      "outputs": [
        {
          "internalType": "bool",
          "name": "",
          "type": "bool"
        }
      ],
      "stateMutability": "view",
      "type": "function"
    },
    {
      "inputs": [
        {
          "internalType": "address",
          "name": "_user",
          "type": "address"
        }
      ],
      "name": "isLocked",
      "outputs": [
        {
          "internalType": "bool",
          "name": "",
          "type": "bool"
        }
      ],
      "stateMutability": "view",
      "type": "function"
    },
    {
      "inputs": [],
      "name": "isPermanentlyFrozen",
      "outputs": [
        {
          "internalType": "bool",
          "name": "",
          "type": "bool"
        }
      ],
      "stateMutability": "view",
      "type": "function"
    },
    {
      "inputs": [],
      "name": "lastRewardBlock",
      "outputs": [
        {
          "internalType": "uint256",
          "name": "",
          "type": "uint256"
        }
      ],
      "stateMutability": "view",
      "type": "function"
    },
    {
      "inputs": [
        {
          "internalType": "address",
          "name": "_user",
          "type": "address"
        }
      ],
      "name": "lockedView",
      "outputs": [
        {
          "internalType": "uint256",
          "name": "",
          "type": "uint256"
        }
      ],
      "stateMutability": "view",
      "type": "function"
    },
    {
      "inputs": [],
      "name": "owner",
      "outputs": [
        {
          "internalType": "address",
          "name": "",
          "type": "address"
        }
      ],
      "stateMutability": "view",
      "type": "function"
    },
    {
      "inputs": [],
      "name": "paused",
      "outputs": [
        {
          "internalType": "bool",
          "name": "",
          "type": "bool"
        }
      ],
      "stateMutability": "view",
      "type": "function"
    },
    {
      "inputs": [
        {
          "internalType": "bytes32",
          "name": "",
          "type": "bytes32"
        }
      ],
      "name": "pendingChanges",
      "outputs": [
        {
          "internalType": "uint256",
          "name": "value",
          "type": "uint256"
        },
        {
          "internalType": "uint256",
          "name": "executeAfter",
          "type": "uint256"
        }
      ],
      "stateMutability": "view",
      "type": "function"
    },
    {
      "inputs": [
        {
          "internalType": "address",
          "name": "_user",
          "type": "address"
        }
      ],
      "name": "pendingReward",
      "outputs": [
        {
          "internalType": "uint256",
          "name": "",
          "type": "uint256"
        }
      ],
      "stateMutability": "view",
      "type": "function"
    },
    {
      "inputs": [],
      "name": "poolLimitPerUser",
      "outputs": [
        {
          "internalType": "uint256",
          "name": "",
          "type": "uint256"
        }
      ],
      "stateMutability": "view",
      "type": "function"
    },
    {
      "inputs": [
        {
          "internalType": "address",
          "name": "_tokenAddress",
          "type": "address"
        },
        {
          "internalType": "uint256",
          "name": "_tokenAmount",
          "type": "uint256"
        }
      ],
      "name": "recoverWrongTokens",
      "outputs": [],
      "stateMutability": "nonpayable",
      "type": "function"
    },
    {
      "inputs": [],
      "name": "renounceOwnership",
      "outputs": [],
      "stateMutability": "nonpayable",
      "type": "function"
    },
    {
      "inputs": [
        {
          "internalType": "uint256",
          "name": "_amount",
          "type": "uint256"
        }
      ],
      "name": "requestWithdraw",
      "outputs": [],
      "stateMutability": "nonpayable",
      "type": "function"
    },
    {
      "inputs": [],
      "name": "rewardPerBlock",
      "outputs": [
        {
          "internalType": "uint256",
          "name": "",
          "type": "uint256"
        }
      ],
      "stateMutability": "view",
      "type": "function"
    },
    {
      "inputs": [
        {
          "internalType": "uint256",
          "name": "_newRate",
          "type": "uint256"
        }
      ],
      "name": "scheduleRewardPerBlockChange",
      "outputs": [],
      "stateMutability": "nonpayable",
      "type": "function"
    },
    {
      "inputs": [
        {
          "internalType": "uint256",
          "name": "_apyBps",
          "type": "uint256"
        }
      ],
      "name": "setBaseAPY",
      "outputs": [],
      "stateMutability": "nonpayable",
      "type": "function"
    },
    {
      "inputs": [
        {
          "internalType": "uint256",
          "name": "_rewardPerBlock",
          "type": "uint256"
        }
      ],
      "name": "setRewardPerBlock",
      "outputs": [],
      "stateMutability": "nonpayable",
      "type": "function"
    },
    {
      "inputs": [],
      "name": "startBlock",
      "outputs": [
        {
          "internalType": "uint256",
          "name": "",
          "type": "uint256"
        }
      ],
      "stateMutability": "view",
      "type": "function"
    },
    {
      "inputs": [
        {
          "internalType": "address",
          "name": "_user",
          "type": "address"
        }
      ],
      "name": "timeUntilUnlock",
      "outputs": [
        {
          "internalType": "uint256",
          "name": "",
          "type": "uint256"
        }
      ],
      "stateMutability": "view",
      "type": "function"
    },
    {
      "inputs": [
        {
          "internalType": "address",
          "name": "_user",
          "type": "address"
        }
      ],
      "name": "timeUntilWithdrawalAvailable",
      "outputs": [
        {
          "internalType": "uint256",
          "name": "",
          "type": "uint256"
        }
      ],
      "stateMutability": "view",
      "type": "function"
    },
    {
      "inputs": [],
      "name": "totalAccruedRewards",
      "outputs": [
        {
          "internalType": "uint256",
          "name": "",
          "type": "uint256"
        }
      ],
      "stateMutability": "view",
      "type": "function"
    },
    {
      "inputs": [],
      "name": "totalActiveEffective",
      "outputs": [
        {
          "internalType": "uint256",
          "name": "",
          "type": "uint256"
        }
      ],
      "stateMutability": "view",
      "type": "function"
    },
    {
      "inputs": [],
      "name": "totalClaimedRewards",
      "outputs": [
        {
          "internalType": "uint256",
          "name": "",
          "type": "uint256"
        }
      ],
      "stateMutability": "view",
      "type": "function"
    },
    {
      "inputs": [],
      "name": "totalInExitPeriod",
      "outputs": [
        {
          "internalType": "uint256",
          "name": "",
          "type": "uint256"
        }
      ],
      "stateMutability": "view",
      "type": "function"
    },
    {
      "inputs": [],
      "name": "totalStaked",
      "outputs": [
        {
          "internalType": "uint256",
          "name": "",
          "type": "uint256"
        }
      ],
      "stateMutability": "view",
      "type": "function"
    },
    {
      "inputs": [
        {
          "internalType": "address",
          "name": "newOwner",
          "type": "address"
        }
      ],
      "name": "transferOwnership",
      "outputs": [],
      "stateMutability": "nonpayable",
      "type": "function"
    },
    {
      "inputs": [
        {
          "internalType": "uint256",
          "name": "_newBlockTime",
          "type": "uint256"
        }
      ],
      "name": "updateBlockTime",
      "outputs": [],
      "stateMutability": "nonpayable",
      "type": "function"
    },
    {
      "inputs": [
        {
          "internalType": "uint64",
          "name": "_newInterval",
          "type": "uint64"
        }
      ],
      "name": "updateCheckpointInterval",
      "outputs": [],
      "stateMutability": "nonpayable",
      "type": "function"
    },
    {
      "inputs": [
        {
          "internalType": "uint256",
          "name": "_rewardDelayPeriod",
          "type": "uint256"
        },
        {
          "internalType": "uint256",
          "name": "_exitPeriod",
          "type": "uint256"
        }
      ],
      "name": "updatePeriods",
      "outputs": [],
      "stateMutability": "nonpayable",
      "type": "function"
    },
    {
      "inputs": [],
      "name": "updatePool",
      "outputs": [],
      "stateMutability": "nonpayable",
      "type": "function"
    },
    {
      "inputs": [
        {
          "internalType": "bool",
          "name": "_hasUserLimit",
          "type": "bool"
        },
        {
          "internalType": "uint256",
          "name": "_poolLimitPerUser",
          "type": "uint256"
        }
      ],
      "name": "updatePoolLimitPerUser",
      "outputs": [],
      "stateMutability": "nonpayable",
      "type": "function"
    },
    {
      "inputs": [
        {
          "internalType": "address",
          "name": "",
          "type": "address"
        }
      ],
      "name": "userInfo",
      "outputs": [
        {
          "internalType": "uint256",
          "name": "amount",
          "type": "uint256"
        },
        {
          "internalType": "uint256",
          "name": "effectiveAmount",
          "type": "uint256"
        },
        {
          "internalType": "uint256",
          "name": "rewardDebt",
          "type": "uint256"
        },
        {
          "internalType": "uint256",
          "name": "debtClaimablePS",
          "type": "uint256"
        },
        {
          "internalType": "uint256",
          "name": "lockStartBlock",
          "type": "uint256"
        },
        {
          "internalType": "uint256",
          "name": "lockDuration",
          "type": "uint256"
        },
        {
          "internalType": "uint256",
          "name": "lockDurationBlocks",
          "type": "uint256"
        },
        {
          "internalType": "uint256",
          "name": "withdrawRequestBlock",
          "type": "uint256"
        },
        {
          "internalType": "uint256",
          "name": "withdrawalAmount",
          "type": "uint256"
        },
        {
          "internalType": "uint256",
          "name": "delayedReward",
          "type": "uint256"
        },
        {
          "internalType": "uint256",
          "name": "delayedUnlockBlock",
          "type": "uint256"
        }
      ],
      "stateMutability": "view",
      "type": "function"
    },
    {
      "stateMutability": "payable",
      "type": "receive"
    }
  ],
  "bytecode": "0x60806040526102586003819055600455600560085560158054600160201b600160601b031916643c00000000179055348015610039575f80fd5b50604051613e87380380613e878339810160408190526100589161024e565b338061007d57604051631e4fbdf760e01b81525f600482015260240160405180910390fd5b6100868161011d565b506001805584156100a4576009805460ff19166001179055600a8590555b6003849055600483905564e8d4a51000600b5560058290554381116100c957436100cb565b805b6006819055600755601580546001600160401b03439081166c0100000000000000000000000002600160601b600160a01b031990921691909117909155610113905f8061016c565b50505050506102e0565b5f80546001600160a01b038381166001600160a01b0319831681178455604051919092169283917f8be0079c531659141344cd1fd0a4f28419497f9722a3daafe3b4186f6b6457e09190a35050565b6015545f906101809061ffff16600161029e565b905061010061ffff82161061019257505f5b604080516060810182526001600160401b038681168252602080830187815283850187815261ffff8781165f818152601490955296909320945185546001600160401b031916941693909317845551600184015590516002909201919091556015805461ffff19169092179182905561010062010000909204161015610248576015805462010000900461ffff1690600261022c836102c0565b91906101000a81548161ffff021916908361ffff160217905550505b50505050565b5f805f805f60a08688031215610262575f80fd5b5050835160208501516040860151606087015160809097015192989197509594509092509050565b634e487b7160e01b5f52601160045260245ffd5b61ffff8181168382160190808211156102b9576102b961028a565b5092915050565b5f61ffff8083168181036102d6576102d661028a565b6001019392505050565b613b9a806102ed5f395ff3fe608060405260043610610379575f3560e01c806378d76037116101d0578063b6b55f2511610101578063db2e21bc1161009f578063f2fde38b1161006e578063f2fde38b14610ad8578063f40f0f5214610af7578063f8fd979514610b16578063ff18bf0b14610b2a576103bb565b8063db2e21bc14610a6f578063e3161ddd14610a83578063ea0d5dcd14610a97578063f1fa0e5a14610ac3576103bb565b8063ca23bba8116100db578063ca23bba814610a07578063ccd34cd514610a26578063d0228e8f14610a3b578063d578ceab14610a5a576103bb565b8063b6b55f25146109c0578063bb872b4a146109d3578063c04b5f65146109f2576103bb565b80638f6629151161016e578063977d58fe11610148578063977d58fe14610934578063a0b409051461096d578063a9f8d1811461098c578063aa78e4b1146109a1576103bb565b80638f662915146108f257806390682b891461090757806392e8990e1461091b576103bb565b806386f36e82116101aa57806386f36e8214610884578063894e22db146108a35780638ae39cac146108b75780638da5cb5b146108cc576103bb565b806378d760371461083c578063817b1cd21461085b57806384b7682414610870576103bb565b80634a4fbeec116102aa5780635f07332d1161024857806366fe9f8a1161022257806366fe9f8a146107df57806368226601146107f4578063715018a614610809578063745400c91461081d576103bb565b80635f07332d14610728578063605fba67146107465780636386c1c714610765576103bb565b80635664b199116102845780635664b199146106bf5780635c975abb146106de5780635e42b455146106f55780635ee6efd014610709576103bb565b80634a4fbeec146106345780634ac4b6e0146106635780634dda551814610678576103bb565b80633a18d8c011610317578063423975f3116102f1578063423975f3146105d65780634623635e146105eb57806348b151661461060a57806348cd4cb11461061f576103bb565b80633a18d8c0146105575780633a58afd4146105985780633f138d4b146105b7576103bb565b80632498e780116103535780632498e780146104fc57806326d160c7146105105780633279beab14610524578063372500ab14610543576103bb565b806302455346146103f1578063096abd33146104235780631959a00214610439576103bb565b366103bb5734156103b9576040513481527fe42dde25409a3e8c7c119c1c722610d9e9bd96e73e3cead774863c9ffdd870d6906020015b60405180910390a15b005b34156103b9576040513481527fe42dde25409a3e8c7c119c1c722610d9e9bd96e73e3cead774863c9ffdd870d6906020016103b0565b3480156103fc575f80fd5b5061041061040b366004613907565b610b32565b6040519081526020015b60405180910390f35b34801561042e575f80fd5b506104106201518081565b348015610444575f80fd5b506104a9610453366004613939565b6013602052805f5260405f205f91509050805f01549080600101549080600201549080600301549080600401549080600501549080600601549080600701549080600801549080600901549080600a015490508b565b604080519b8c5260208c019a909a52988a01979097526060890195909552608088019390935260a087019190915260c086015260e08501526101008401526101208301526101408201526101600161041a565b348015610507575f80fd5b506103b9610bcd565b34801561051b575f80fd5b50610410610d92565b34801561052f575f80fd5b506103b961053e366004613907565b610de7565b34801561054e575f80fd5b506103b9610e60565b348015610562575f80fd5b5060155461057f90640100000000900467ffffffffffffffff1681565b60405167ffffffffffffffff909116815260200161041a565b3480156105a3575f80fd5b506104106105b2366004613939565b610e85565b3480156105c2575f80fd5b506103b96105d1366004613952565b610f16565b3480156105e1575f80fd5b50610410600f5481565b3480156105f6575f80fd5b506103b961060536600461397a565b6110ce565b348015610615575f80fd5b5061041060085481565b34801561062a575f80fd5b5061041060065481565b34801561063f575f80fd5b5061065361064e366004613939565b611180565b604051901515815260200161041a565b34801561066e575f80fd5b5061041060115481565b348015610683575f80fd5b506106aa610692366004613907565b600c6020525f90815260409020805460019091015482565b6040805192835260208301919091520161041a565b3480156106ca575f80fd5b506103b96106d9366004613907565b6111c7565b3480156106e9575f80fd5b5060025460ff16610653565b348015610700575f80fd5b50610410611268565b348015610714575f80fd5b506103b9610723366004613907565b611276565b348015610733575f80fd5b50601554600160a01b900460ff16610653565b348015610751575f80fd5b50610410610760366004613939565b6113be565b348015610770575f80fd5b5061078461077f366004613939565b611491565b604080519b8c5260208c019a909a52988a01979097526060890195909552608088019390935260a087019190915260c0860152151560e08501521515610100840152151561012083015215156101408201526101600161041a565b3480156107ea575f80fd5b50610410600a5481565b3480156107ff575f80fd5b5061041060105481565b348015610814575f80fd5b506103b96115d2565b348015610828575f80fd5b506103b9610837366004613907565b6115e3565b348015610847575f80fd5b506103b9610856366004613907565b6118de565b348015610866575f80fd5b50610410600e5481565b34801561087b575f80fd5b506103b961198a565b34801561088f575f80fd5b506103b961089e36600461399a565b611a9f565b3480156108ae575f80fd5b506103b9611b4a565b3480156108c2575f80fd5b5061041060055481565b3480156108d7575f80fd5b505f546040516001600160a01b03909116815260200161041a565b3480156108fd575f80fd5b50610410600d5481565b348015610912575f80fd5b506103b9611bb2565b348015610926575f80fd5b506009546106539060ff1681565b34801561093f575f80fd5b5061065361094e366004613939565b6001600160a01b03165f90815260136020526040902060070154151590565b348015610978575f80fd5b506103b96109873660046139c1565b611c57565b348015610997575f80fd5b5061041060075481565b3480156109ac575f80fd5b506103b96109bb366004613907565b611d25565b6103b96109ce366004613907565b611d48565b3480156109de575f80fd5b506103b96109ed366004613907565b612049565b3480156109fd575f80fd5b5061041060045481565b348015610a12575f80fd5b50610410610a21366004613939565b612094565b348015610a31575f80fd5b50610410600b5481565b348015610a46575f80fd5b50610410610a55366004613939565b612149565b348015610a65575f80fd5b5061041060125481565b348015610a7a575f80fd5b506103b96121cd565b348015610a8e575f80fd5b506103b961231a565b348015610aa2575f80fd5b50610ab6610ab1366004613939565b612322565b60405161041a91906139e1565b348015610ace575f80fd5b5061041060035481565b348015610ae3575f80fd5b506103b9610af2366004613939565b6124a5565b348015610b02575f80fd5b50610410610b11366004613939565b6124f8565b348015610b21575f80fd5b506103b96126c5565b6103b96128df565b5f8161025814158015610b475750816104b014155b15610b5357505f919050565b5f610b5c61296c565b9050805f03610b6d57505f92915050565b5f610b778461297d565b90505f6008546301e13380610b8c9190613a3e565b90505f81600554610b9d9190613a51565b90505f610bad82612710876129f6565b9050610bc28185670de0b6b3a76400006129f6565b979650505050505050565b610bd5612aa7565b7f26c3053a9ab1625d44b90708e16d52b35ab3cfb0d872f84b29e76c8f0cee851b5f819052600c6020908152604080518082019091527f0a227c63b169e01359856bd9436eebed464645f8c4a3837ac052beb0bb12e44f5481527f0a227c63b169e01359856bd9436eebed464645f8c4a3837ac052beb0bb12e4505491810182905290610ca95760405162461bcd60e51b815260206004820152601160248201527f4e6f2070656e64696e67206368616e676500000000000000000000000000000060448201526064015b60405180910390fd5b8060200151421015610cfd5760405162461bcd60e51b815260206004820152601460248201527f54696d656c6f636b206e6f7420657870697265640000000000000000000000006044820152606401610ca0565b610d05612aec565b80516005555f828152600c6020908152604080832083815560010192909255825191519182527f0c4d677eef92893ac7ec52faf8140fc6c851ab4736302b4f3a89dfb20696a0df910160405180910390a1805160405190815282907f31564d9c3e497cbcaea3bfc6814d1c86ebf66b3fe325b5f5b327434f5885436e906020015b60405180910390a25050565b5f80610d9c61296c565b9050805f03610dac575f91505090565b5f6008546301e13380610dbf9190613a3e565b90505f81600554610dd09190613a51565b9050610ddf81612710856129f6565b935050505090565b610def612aa7565b610df7612aec565b5f610e00612d1f565b905080821115610e525760405162461bcd60e51b815260206004820152601960248201527f43616e6e6f74207769746864726177207072696e636970616c000000000000006044820152606401610ca0565b610e5c3383612d45565b5050565b610e68612dee565b610e70612e31565b610e7a335f612e6e565b610e8360018055565b565b6001600160a01b0381165f90815260136020526040812060078101548203610eaf57505f92915050565b5f600854600454610ec09190613a3e565b9050808260070154610ed29190613a6e565b4310610ee157505f9392505050565b5f43828460070154610ef39190613a6e565b610efd9190613a81565b905060085481610f0d9190613a51565b95945050505050565b610f1e612aa7565b6001600160a01b038216610f745760405162461bcd60e51b815260206004820152601660248201527f6e6174697665206e6f74207265636f76657261626c65000000000000000000006044820152606401610ca0565b604051336024820152604481018290525f906001600160a01b0384169060640160408051601f198184030181529181526020820180517bffffffffffffffffffffffffffffffffffffffffffffffffffffffff167fa9059cbb0000000000000000000000000000000000000000000000000000000017905251610ff79190613a94565b5f604051808303815f865af19150503d805f8114611030576040519150601f19603f3d011682016040523d82523d5f602084013e611035565b606091505b50509050806110865760405162461bcd60e51b815260206004820152601560248201527f546f6b656e207472616e73666572206661696c656400000000000000000000006044820152606401610ca0565b604080516001600160a01b0385168152602081018490527f74545154aac348a3eac92596bd1971957ca94795f4e954ec5f613b55fab7812991015b60405180910390a1505050565b6110d6612aa7565b6110de612aec565b5f821180156110ec57505f81115b6111385760405162461bcd60e51b815260206004820152600f60248201527f496e76616c696420706572696f647300000000000000000000000000000000006044820152606401610ca0565b6003829055600481905560408051838152602081018390527f8e7237c327b2c040e122ee8871f17435fda2eae7d8e36798de13714b60f2b6ee91015b60405180910390a15050565b6001600160a01b0381165f908152601360205260408120600481015482036111aa57505f92915050565b806006015481600401546111be9190613a6e565b43109392505050565b6111cf612aa7565b5f811180156111df5750603c8111155b61122b5760405162461bcd60e51b815260206004820152600d60248201527f42616420626c6f636b54696d65000000000000000000000000000000000000006044820152606401610ca0565b600880549082905560408051828152602081018490527e24be6dc070e4a35f5e69c2c31342ac959334f49c5b4b62cc1033d86e8351979101611174565b5f611271612d1f565b905090565b61127e612aa7565b611286612aec565b620f42408111156112d95760405162461bcd60e51b815260206004820152600c60248201527f41505920746f6f206869676800000000000000000000000000000000000000006044820152606401610ca0565b5f6112e261296c565b90505f6008546301e133806112f79190613a3e565b9050811561131d57611315828461131084612710613a51565b6129f6565b60055561138b565b60405162461bcd60e51b815260206004820152603360248201527f4e6f20616374697665207072696e636970616c202d207573652073657452657760448201527f617264506572426c6f636b20696e7374656164000000000000000000000000006064820152608401610ca0565b7f0c4d677eef92893ac7ec52faf8140fc6c851ab4736302b4f3a89dfb20696a0df6005546040516110c191815260200190565b6001600160a01b0381165f908152601360205260408120600a8101548290158015906113ee575081600a01544310155b156114055760098201546114029082613a6e565b90505b60018201545f81900361141a57509392505050565b5f60085460035461142b9190613a3e565b90505f81431161143b575f611445565b6114458243613a81565b90505f6114518261309a565b600387015490915080821115611484576114778561146f8385613a81565b600b546129f6565b6114819087613a6e565b95505b5093979650505050505050565b6001600160a01b0381165f9081526013602052604081208054600582015460088301546004840154929493849384929183918291829182918291156114fb5760085460048201546114e29043613a81565b6114ec9190613a51565b6114f69042613a81565b6114fd565b5f5b9a5080600701545f1461153557600854600782015461151c9043613a81565b6115269190613a51565b6115309042613a81565b611537565b5f5b60048201549098501561157a5761154e898c613a6e565b9950806006015481600401546115649190613a6e565b4310945084158561157757506007810154155b92505b6007810154156115c257600193505f6008546004546115999190613a3e565b9050600454896115a99190613a6e565b96508082600701546115bb9190613a6e565b4310159250505b5091939597999b90929496989a50565b6115da612aa7565b610e835f613298565b6115eb612dee565b6115f3612e31565b335f9081526013602052604090208115801590611611575080548211155b61165d5760405162461bcd60e51b815260206004820152600a60248201527f42616420616d6f756e74000000000000000000000000000000000000000000006044820152606401610ca0565b5f81600401541161169b5760405162461bcd60e51b81526020600482015260086024820152674e6f207374616b6560c01b6044820152606401610ca0565b6007810154156116ed5760405162461bcd60e51b815260206004820152601160248201527f416c7265616479207265717565737465640000000000000000000000000000006044820152606401610ca0565b806006015481600401546117019190613a6e565b4310156117505760405162461bcd60e51b815260206004820152600c60248201527f5374616b65206c6f636b656400000000000000000000000000000000000000006044820152606401610ca0565b611758612aec565b611762335f612e6e565b5f61178283611774846005015461297d565b670de0b6b3a76400006129f6565b90505f6008546003546117959190613a3e565b90505f8143116117a5575f6117af565b6117af8243613a81565b90505f6117bb8261309a565b90505f81600d546117cc9190613a81565b9050801561180e575f6117e28683600b546129f6565b905080876009015f8282546117f79190613a6e565b9091555061180790508543613a6e565b600a880155505b84866001015f8282546118219190613a81565b9250508190555084600f5f8282546118399190613a81565b909155505043600787015560088601879055601080548891905f9061185f908490613a6e565b925050819055506118798660010154600d54600b546129f6565b60028701556004545f9061188d9042613a6e565b604080518a81526020810183905291925033917fd72eb5d043f24a0168ae744d5c44f9596fd673a26bf74d9646bff4b844882d14910160405180910390a2505050505050506118db60018055565b50565b6118e6612aa7565b604080518082019091528181527f26c3053a9ab1625d44b90708e16d52b35ab3cfb0d872f84b29e76c8f0cee851b90602081016119266201518042613a6e565b90525f828152600c6020908152604090912082518155910151600190910155807f4107c16102ca593afea4ac800deb7d36407d3f25e61cccd6628094793f668ffe836119756201518042613a6e565b60408051928352602083019190915201610d86565b611992612dee565b61199a612e31565b335f90815260136020526040902060078101546119e65760405162461bcd60e51b815260206004820152600a602482015269139bc81c995c5d595cdd60b21b6044820152606401610ca0565b6119ee612aec565b6119f8335f612e6e565b5f611a0e8260080154611774846005015461297d565b905080826001015f828254611a239190613a6e565b9250508190555080600f5f828254611a3b9190613a6e565b90915550506008820154601080545f90611a56908490613a81565b90915550505f600783018190556008830181905560098301819055600a8301556001820154600d54600b54611a8c9291906129f6565b82600201819055505050610e8360018055565b611aa7612aa7565b60068167ffffffffffffffff1610158015611ace57506103e88167ffffffffffffffff1611155b611b1a5760405162461bcd60e51b815260206004820152601060248201527f496e76616c696420696e74657276616c000000000000000000000000000000006044820152606401610ca0565b6015805467ffffffffffffffff909216640100000000026bffffffffffffffff0000000019909216919091179055565b611b52612aa7565b611b5a6132ff565b601580547fffffffffffffffffffffff00ffffffffffffffffffffffffffffffffffffffff16600160a01b1790556040517f8590c6b2a21f1d879a2ff65d0c42e5309debe25afcf918d1e18439434827cd01905f90a1565b611bba612aa7565b7f26c3053a9ab1625d44b90708e16d52b35ab3cfb0d872f84b29e76c8f0cee851b5f818152600c6020527f0a227c63b169e01359856bd9436eebed464645f8c4a3837ac052beb0bb12e44f8190557f0a227c63b169e01359856bd9436eebed464645f8c4a3837ac052beb0bb12e45081905560405182917ffbe037eef108662db90b0a679b0dde447f266ad1254d34073a5ad826453dbe7c91a250565b611c5f612aa7565b611c67612aec565b8115611ce35760095460ff161580611c805750600a5481115b611ccc5760405162461bcd60e51b815260206004820152601360248201527f4c696d6974206d75737420696e637265617365000000000000000000000000006044820152606401610ca0565b6009805460ff19166001179055600a819055611cf2565b6009805460ff191690555f600a555b7f241f67ee5f41b7a5cabf911367329be7215900f602ebfc47f89dce2a6bcd847c600a5460405161117491815260200190565b611d2d612dee565b611d35612e31565b611d3f3382612e6e565b6118db60018055565b611d50612dee565b611d58612e31565b806102581480611d695750806104b0145b611db55760405162461bcd60e51b815260206004820152601060248201527f496e76616c6964206475726174696f6e000000000000000000000000000000006044820152606401610ca0565b335f9081526013602052604090203480611e115760405162461bcd60e51b815260206004820152600c60248201527f5a65726f206465706f73697400000000000000000000000000000000000000006044820152606401610ca0565b600782015415611e635760405162461bcd60e51b815260206004820152600e60248201527f496e206578697420706572696f640000000000000000000000000000000000006044820152606401610ca0565b60095460ff1615611ecb57600a548254611e7d9083613a6e565b1115611ecb5760405162461bcd60e51b815260206004820152600b60248201527f41626f7665206c696d69740000000000000000000000000000000000000000006044820152606401610ca0565b611ed3612aec565b815415611f3c57611ee4335f612e6e565b81600501548314611f375760405162461bcd60e51b815260206004820152601160248201527f4475726174696f6e206d69736d617463680000000000000000000000000000006044820152606401610ca0565b611f4c565b60058201839055600d5460038301555b5f611f568461297d565b90505f611f6c8383670de0b6b3a76400006129f6565b905080846001015f828254611f819190613a6e565b9250508190555080600f5f828254611f999190613a6e565b90915550508354839085905f90611fb1908490613a6e565b9250508190555082600e5f828254611fc99190613a6e565b9091555050436004850155600854611fe19086613a3e565b8460060181905550611ffc8460010154600d54600b546129f6565b6002850155604080518481526020810187905233917f90890809c654f11d6e72a28fa60149770a0d11ec6c92319d6ceb2bb0a4ea1a15910160405180910390a2505050506118db60018055565b612051612aa7565b612059612aec565b60058190556040518181527f0c4d677eef92893ac7ec52faf8140fc6c851ab4736302b4f3a89dfb20696a0df9060200160405180910390a150565b6001600160a01b0381165f908152601360205260408120600a8101548290158015906120c3575081600a015443105b156120da5760098201546120d79082613a6e565b90505b60018201545f8190036120ef57509392505050565b5f6120f8613354565b90505f60085460035461210b9190613a3e565b90505f81431161211b575f612125565b6121258243613a81565b90505f6121318261309a565b905080841115611484576114778561146f8387613a81565b6001600160a01b0381165f9081526013602052604081206004810154820361217357505f92915050565b806006015481600401546121879190613a6e565b431061219557505f92915050565b5f43826006015483600401546121ab9190613a6e565b6121b59190613a81565b9050600854816121c59190613a51565b949350505050565b6121d56134de565b335f908152601360205260408120600881015481549192916121f79190613a6e565b90505f81116122485760405162461bcd60e51b815260206004820152601460248201527f4e6f2066756e647320746f2077697468647261770000000000000000000000006044820152606401610ca0565b8154600e80545f9061225b908490613a81565b90915550506001820154600f80545f90612276908490613a81565b90915550506008820154601080545f90612291908490613a81565b90915550505f808355600183018190556002830181905560038301819055600483018190556005830181905560068301819055600783018190556008830181905560098301819055600a8301556122e83382612d45565b60405181815233907f7b2a72f0889ae9bb89e8ee7ec3e7c465552d1b76d51df9b0426d0e4e7f39528f90602001610d86565b610e83612aec565b6001600160a01b0381165f9081526013602052604081208054606092036123695750506040805180820190915260088152674e6f207374616b6560c01b6020820152919050565b600781015415612414575f6008546004546123849190613a3e565b90508082600701546123969190613a6e565b43106123d857505060408051808201909152601081527f5769746864726177616c20726561647900000000000000000000000000000000602082015292915050565b505060408051808201909152600e81527f496e206578697420706572696f64000000000000000000000000000000000000602082015292915050565b806006015481600401546124289190613a6e565b43101561246a57505060408051808201909152600681527f4c6f636b656400000000000000000000000000000000000000000000000000006020820152919050565b505060408051808201909152600881527f556e6c6f636b65640000000000000000000000000000000000000000000000006020820152919050565b6124ad612aa7565b6001600160a01b0381166124ef576040517f1e4fbdf70000000000000000000000000000000000000000000000000000000081525f6004820152602401610ca0565b6118db81613298565b6001600160a01b0381165f90815260136020526040812060078101541561252157505f92915050565b5f61252b600f5490565b9050805f0361253d57505f9392505050565b600d54600754431115612682575f600754436125599190613a81565b90505f5b5f8211801561256d57505f600554115b156125ca575f6005545f196125829190613a3e565b831161258e578261259c565b60055461259c905f19613a3e565b9050600554816125ac9190613a51565b6125b69083613a6e565b91506125c28184613a81565b92505061255d565b5f601254601154116125dc575f6125ec565b6012546011546125ec9190613a81565b90505f6125f7612d1f565b90505f828211612607575f612611565b6126118383613a81565b90508084111561261f578093505b831561267c57600b545b5f8511801561263757505f81115b801561264c5750612649815f19613a3e565b85115b156126635761265c600a82613a3e565b9050612629565b61266e85828a6129f6565b6126789088613a6e565b9650505b50505050505b5f612694846001015483600b546129f6565b9050836002015481106126ba5760028401546126b09082613a81565b9695505050505050565b505f95945050505050565b6126cd612dee565b6126d5612e31565b6126df335f612e6e565b335f908152601360205260409020600781015461272b5760405162461bcd60e51b815260206004820152600a602482015269139bc81c995c5d595cdd60b21b6044820152606401610ca0565b5f60085460045461273c9190613a3e565b905080826007015461274e9190613a6e565b43101561279d5760405162461bcd60e51b815260206004820152601160248201527f45786974206e6f742066696e69736865640000000000000000000000000000006044820152606401610ca0565b6008820154806127ef5760405162461bcd60e51b815260206004820152600960248201527f4e6f20616d6f756e7400000000000000000000000000000000000000000000006044820152606401610ca0565b80835f015f8282546128019190613a81565b9250508190555080600e5f8282546128199190613a81565b925050819055508060105f8282546128319190613a81565b90915550505f60078401819055600884018190558354900361287b575f60048401819055600684018190556005840181905560018401819055600284018190556003840155612894565b61288e8360010154600d54600b546129f6565b60028401555b61289e3382612d45565b60405181815233907f7b2a72f0889ae9bb89e8ee7ec3e7c465552d1b76d51df9b0426d0e4e7f39528f9060200160405180910390a2505050610e8360018055565b6128e7612aa7565b5f34116129365760405162461bcd60e51b815260206004820152600860248201527f4e6f2076616c75650000000000000000000000000000000000000000000000006044820152606401610ca0565b6040513481527fe42dde25409a3e8c7c119c1c722610d9e9bd96e73e3cead774863c9ffdd870d6906020015b60405180910390a1565b5f601054600e546112719190613a81565b5f81610258036129965750670de0b6b3a7640000919050565b816104b0036129ae57506714d1120d7b160000919050565b60405162461bcd60e51b815260206004820152601060248201527f496e76616c6964206475726174696f6e000000000000000000000000000000006044820152606401610ca0565b5f805f612a03868661351a565b91509150815f03612a2757838181612a1d57612a1d613a16565b0492505050612aa0565b818411612a3e57612a3e6003851502601118613536565b5f848688095f868103871696879004966002600389028118808a02820302808a02820302808a02820302808a02820302808a02820302808a02909103029181900381900460010185841190960395909502919093039390930492909217029150505b9392505050565b5f546001600160a01b03163314610e83576040517f118cdaa7000000000000000000000000000000000000000000000000000000008152336004820152602401610ca0565b6007544311612af757565b5f612b01600f5490565b9050805f03612b11575043600755565b5f60075443612b209190613a81565b90505f5b5f82118015612b3457505f600554115b15612ba8575f6005545f19612b499190613a3e565b8311612b555782612b63565b600554612b63905f19613a3e565b905060055481612b739190613a51565b612b7d9083613a6e565b9150612b898184613a81565b92508060075f828254612b9c9190613a6e565b90915550612b24915050565b5f60125460115411612bba575f612bca565b601254601154612bca9190613a81565b90505f612bd5612d1f565b90505f828211612be5575f612bef565b612bef8383613a81565b905080841115612bfd578093505b8315612c7b57600b545b5f85118015612c1557505f81115b8015612c2a5750612c27815f19613a3e565b85115b15612c4157612c3a600a82613a3e565b9050612c07565b612c4c8582896129f6565b600d5f828254612c5c9190613a6e565b925050819055508460115f828254612c749190613a6e565b9091555050505b43600781905560155467ffffffffffffffff6401000000008204811692612cb5926c01000000000000000000000000900490911690613aaa565b67ffffffffffffffff1610612d1757612cd343600d54600f54613547565b601580547fffffffffffffffffffffffff0000000000000000ffffffffffffffffffffffff166c010000000000000000000000004367ffffffffffffffff16021790555b505050505050565b600e545f9047908111612d32575f612d3f565b600e54612d3f9082613a81565b91505090565b5f826001600160a01b0316826108fc906040515f60405180830381858888f193505050503d805f8114612d93576040519150601f19603f3d011682016040523d82523d5f602084013e612d98565b606091505b5050905080612de95760405162461bcd60e51b815260206004820152601660248201527f4e6174697665207472616e73666572206661696c6564000000000000000000006044820152606401610ca0565b505050565b600260015403612e2a576040517f3ee5aeb500000000000000000000000000000000000000000000000000000000815260040160405180910390fd5b6002600155565b60025460ff1615610e83576040517fd93c066500000000000000000000000000000000000000000000000000000000815260040160405180910390fd5b6001600160a01b0382165f908152601360205260408120600854600354919291612e989190613a3e565b90505f814311612ea8575f612eb2565b612eb28243613a81565b90505f612ebe8261309a565b60038501549091505f8183118015612ed957505f8660010154115b15612ef4576001860154612ef19061146f8486613a81565b90505b612efc612aec565b600a860154819015801590612f15575086600a01544310155b15612f39576009870154612f299082613a6e565b5f60098901819055600a89015590505b5f612f42612d1f565b90505f81831115612f535781612f55565b825b905089811015612fa75760405162461bcd60e51b815260206004820152601860248201527f536c6970706167653a2072657761726420746f6f206c6f7700000000000000006044820152606401610ca0565b801561300c57612fb78b82612d45565b8060125f828254612fc89190613a6e565b90915550506040518181526001600160a01b038c16907f106f923f993c2149d49b4255ff723acafa1f2d94393f561d3eda32ae348f72419060200160405180910390a25b821561306a578281106130255760038901869055613072565b5f858711613033575f61303d565b61303d8688613a81565b90508015613064575f6130518383876129f6565b905061305d8188613a6e565b60038c0155505b50613072565b600389018690555b6130858960010154600d54600b546129f6565b89600201819055505050505050505050505050565b6015545f9062010000900461ffff1681036130b657505f919050565b5f806130c18461362b565b915091505f806130d3835f0151613763565b91509150836130e757505f95945050505050565b82604001515f036130ff575050602001519392505050565b8115806131235750805f015167ffffffffffffffff168667ffffffffffffffff1610155b156131ff57825f015167ffffffffffffffff168667ffffffffffffffff1611156131f2575f613150613354565b90505f8460200151826131639190613a81565b85519091505f9061317e9067ffffffffffffffff1643613a81565b9050805f036131995750505060209092015195945050505050565b5f865f015167ffffffffffffffff168a67ffffffffffffffff166131bd9190613a81565b9050818111156131ca5750805b6131d58382846129f6565b87602001516131e49190613a6e565b9a9950505050505050505050565b5050602001519392505050565b8251815167ffffffffffffffff918216911603613223575050602001519392505050565b825181515f9161323291613aaa565b67ffffffffffffffff1690505f845f01518861324e9190613aaa565b67ffffffffffffffff1690505f8560200151846020015161326f9190613a81565b905061327c8183856129f6565b866020015161328b9190613a6e565b9998505050505050505050565b5f80546001600160a01b038381167fffffffffffffffffffffffff0000000000000000000000000000000000000000831681178455604051919092169283917f8be0079c531659141344cd1fd0a4f28419497f9722a3daafe3b4186f6b6457e09190a35050565b613307612e31565b6002805460ff191660011790557f62e78cea01bee320cd4e420270b5ea74000d11b0c9f74754ebdbfc544b05a25861333c3390565b6040516001600160a01b039091168152602001612962565b5f8061335f600f5490565b9050805f03613370575050600d5490565b6007544311613381575050600d5490565b5f600754436133909190613a81565b9050805f036133a357600d549250505090565b5f5b5f821180156133b557505f600554115b15613412575f6005545f196133ca9190613a3e565b83116133d657826133e4565b6005546133e4905f19613a3e565b9050600554816133f49190613a51565b6133fe9083613a6e565b915061340a8184613a81565b9250506133a5565b5f60125460115411613424575f613434565b6012546011546134349190613a81565b90505f61343f612d1f565b90505f82821161344f575f613459565b6134598383613a81565b905080841115613467578093505b835f0361347c57600d54965050505050505090565b600b545b5f8511801561348e57505f81115b80156134a357506134a0815f19613a3e565b85115b156134ba576134b3600a82613a3e565b9050613480565b6134c58582896129f6565b600d546134d29190613a6e565b97505050505050505090565b60025460ff16610e83576040517f8dfc202b00000000000000000000000000000000000000000000000000000000815260040160405180910390fd5b5f805f1983850993909202808410938190039390930393915050565b634e487b715f52806020526024601cfd5b6015545f9061355b9061ffff166001613ad2565b905061010061ffff82161061356d57505f5b6040805160608101825267ffffffffffffffff8681168252602080830187815283850187815261ffff8781165f8181526014909552969093209451855467ffffffffffffffff1916941693909317845551600184015590516002909201919091556015805461ffff19169092179182905561010062010000909204161015613625576015805462010000900461ffff1690600261360983613aed565b91906101000a81548161ffff021916908361ffff160217905550505b50505050565b604080516060810182525f80825260208201819052918101829052601554604080516060810182525f8082526020820181905291810182905261ffff909216915f5b60155461ffff62010000909104811690841610156137585761ffff84165f908152601460209081526040918290208251606081018452815467ffffffffffffffff1680825260018301549382019390935260029091015492810192909252158015906136e75750805167ffffffffffffffff808a16911611155b801561370b575081158061370b57508251815167ffffffffffffffff918216911610155b1561371857809250600191505b8461ffff165f03613737576137306001610100613b0d565b9450613745565b8461374181613b28565b9550505b8361374f81613aed565b9450505061366d565b969095509350505050565b604080516060810182525f808252602082018190529181018290526015545f9081906137949061ffff166001613ad2565b60155461ffff91821662010000909104909116106137f1576015546101009061ffff6201000082048116916137cb91849116613ad2565b6137d6906001613ad2565b6137e09190613b0d565b6137ea9190613b44565b9050613819565b60155461ffff62010000820481169161380c91166001613ad2565b6138169190613b0d565b90505b805b60155461ffff62010000909104811690841610156138d55761ffff81165f908152601460209081526040918290208251606081018452815467ffffffffffffffff908116808352600184015494830194909452600290920154938101939093528816101561389157600197909650945050505050565b60155461ffff908116908316036138a857506138d5565b6101006138b6836001613ad2565b6138c09190613b44565b9150836138cc81613aed565b9450505061381b565b5f60405180606001604052805f67ffffffffffffffff1681526020015f81526020015f81525094509450505050915091565b5f60208284031215613917575f80fd5b5035919050565b80356001600160a01b0381168114613934575f80fd5b919050565b5f60208284031215613949575f80fd5b612aa08261391e565b5f8060408385031215613963575f80fd5b61396c8361391e565b946020939093013593505050565b5f806040838503121561398b575f80fd5b50508035926020909101359150565b5f602082840312156139aa575f80fd5b813567ffffffffffffffff81168114612aa0575f80fd5b5f80604083850312156139d2575f80fd5b8235801515811461396c575f80fd5b602081525f82518060208401528060208501604085015e5f604082850101526040601f19601f83011684010191505092915050565b634e487b7160e01b5f52601260045260245ffd5b634e487b7160e01b5f52601160045260245ffd5b5f82613a4c57613a4c613a16565b500490565b8082028115828204841417613a6857613a68613a2a565b92915050565b80820180821115613a6857613a68613a2a565b81810381811115613a6857613a68613a2a565b5f82518060208501845e5f920191825250919050565b67ffffffffffffffff828116828216039080821115613acb57613acb613a2a565b5092915050565b61ffff818116838216019080821115613acb57613acb613a2a565b5f61ffff808316818103613b0357613b03613a2a565b6001019392505050565b61ffff828116828216039080821115613acb57613acb613a2a565b5f61ffff821680613b3b57613b3b613a2a565b5f190192915050565b5f61ffff80841680613b5857613b58613a16565b9216919091069291505056fea26469706673582212200c0a07934e259c5aa5155b7ae49cfda84a5d762cf81c62de9bc14a608b17128464736f6c63430008190033",
  "linkReferences": {},
  "deployedLinkReferences": {}
}