{
  "_format": "hh-sol-artifact-1",
  "contractName": "SmartChefLP",
  "sourceName": "contracts/SmartChefLP.sol",
  "abi": [
    {
      "inputs": [
        {
          "internalType": "contract IERC20",
          "name": "_lpToken",
          "type": "address"
        },
        {
          "internalType": "uint256",
          "name": "_rewardPerBlock",
          "type": "uint256"
        },
        {
          "internalType": "uint256",
          "name": "_startBlock",
          "type": "uint256"
        },
        {
          "internalType": "uint256",
          "name": "_poolLimitPerUser",
          "type": "uint256"
        },
        {
          "internalType": "uint256",
          "name": "_rewardDelayPeriod",
          "type": "uint256"
        },
        {
          "internalType": "uint256",
          "name": "_exitPeriod",
          "type": "uint256"
        }
      ],
      "stateMutability": "nonpayable",
      "type": "constructor"
    },
    {
      "inputs": [],
      "name": "EnforcedPause",
      "type": "error"
    },
    {
      "inputs": [],
      "name": "ExpectedPause",
      "type": "error"
    },
    {
      "inputs": [
        {
          "internalType": "address",
          "name": "owner",
          "type": "address"
        }
      ],
      "name": "OwnableInvalidOwner",
      "type": "error"
    },
    {
      "inputs": [
        {
          "internalType": "address",
          "name": "account",
          "type": "address"
        }
      ],
      "name": "OwnableUnauthorizedAccount",
      "type": "error"
    },
    {
      "inputs": [],
      "name": "ReentrancyGuardReentrantCall",
      "type": "error"
    },
    {
      "inputs": [
        {
          "internalType": "address",
          "name": "token",
          "type": "address"
        }
      ],
      "name": "SafeERC20FailedOperation",
      "type": "error"
    },
    {
      "anonymous": false,
      "inputs": [
        {
          "indexed": false,
          "internalType": "address",
          "name": "tokenRecovered",
          "type": "address"
        },
        {
          "indexed": false,
          "internalType": "uint256",
          "name": "amount",
          "type": "uint256"
        }
      ],
      "name": "AdminTokenRecovery",
      "type": "event"
    },
    {
      "anonymous": false,
      "inputs": [
        {
          "indexed": false,
          "internalType": "uint256",
          "name": "oldBlockTime",
          "type": "uint256"
        },
        {
          "indexed": false,
          "internalType": "uint256",
          "name": "newBlockTime",
          "type": "uint256"
        }
      ],
      "name": "BlockTimeUpdated",
      "type": "event"
    },
    {
      "anonymous": false,
      "inputs": [
        {
          "indexed": true,
          "internalType": "address",
          "name": "user",
          "type": "address"
        },
        {
          "indexed": false,
          "internalType": "uint256",
          "name": "amount",
          "type": "uint256"
        },
        {
          "indexed": false,
          "internalType": "uint256",
          "name": "duration",
          "type": "uint256"
        }
      ],
      "name": "Deposit",
      "type": "event"
    },
    {
      "anonymous": false,
      "inputs": [],
      "name": "FrozenPermanently",
      "type": "event"
    },
    {
      "anonymous": false,
      "inputs": [
        {
          "indexed": false,
          "internalType": "uint256",
          "name": "poolLimitPerUser",
          "type": "uint256"
        }
      ],
      "name": "NewPoolLimit",
      "type": "event"
    },
    {
      "anonymous": false,
      "inputs": [
        {
          "indexed": false,
          "internalType": "uint256",
          "name": "rewardPerBlock",
          "type": "uint256"
        }
      ],
      "name": "NewRewardPerBlock",
      "type": "event"
    },
    {
      "anonymous": false,
      "inputs": [
        {
          "indexed": true,
          "internalType": "address",
          "name": "previousOwner",
          "type": "address"
        },
        {
          "indexed": true,
          "internalType": "address",
          "name": "newOwner",
          "type": "address"
        }
      ],
      "name": "OwnershipTransferred",
      "type": "event"
    },
    {
      "anonymous": false,
      "inputs": [
        {
          "indexed": true,
          "internalType": "bytes32",
          "name": "paramHash",
          "type": "bytes32"
        }
      ],
      "name": "ParameterChangeCancelled",
      "type": "event"
    },
    {
      "anonymous": false,
      "inputs": [
        {
          "indexed": true,
          "internalType": "bytes32",
          "name": "paramHash",
          "type": "bytes32"
        },
        {
          "indexed": false,
          "internalType": "uint256",
          "name": "value",
          "type": "uint256"
        }
      ],
      "name": "ParameterChangeExecuted",
      "type": "event"
    },
    {
      "anonymous": false,
      "inputs": [
        {
          "indexed": true,
          "internalType": "bytes32",
          "name": "paramHash",
          "type": "bytes32"
        },
        {
          "indexed": false,
          "internalType": "uint256",
          "name": "value",
          "type": "uint256"
        },
        {
          "indexed": false,
          "internalType": "uint256",
          "name": "executeAfter",
          "type": "uint256"
        }
      ],
      "name": "ParameterChangeScheduled",
      "type": "event"
    },
    {
      "anonymous": false,
      "inputs": [
        {
          "indexed": false,
          "internalType": "address",
          "name": "account",
          "type": "address"
        }
      ],
      "name": "Paused",
      "type": "event"
    },
    {
      "anonymous": false,
      "inputs": [
        {
          "indexed": false,
          "internalType": "uint256",
          "name": "rewardDelayPeriod",
          "type": "uint256"
        },
        {
          "indexed": false,
          "internalType": "uint256",
          "name": "exitPeriod",
          "type": "uint256"
        }
      ],
      "name": "PeriodsUpdated",
      "type": "event"
    },
    {
      "anonymous": false,
      "inputs": [
        {
          "indexed": true,
          "internalType": "address",
          "name": "user",
          "type": "address"
        },
        {
          "indexed": false,
          "internalType": "uint256",
          "name": "amount",
          "type": "uint256"
        }
      ],
      "name": "RewardClaimed",
      "type": "event"
    },
    {
      "anonymous": false,
      "inputs": [
        {
          "indexed": false,
          "internalType": "uint256",
          "name": "amount",
          "type": "uint256"
        }
      ],
      "name": "RewardsFunded",
      "type": "event"
    },
    {
      "anonymous": false,
      "inputs": [
        {
          "indexed": false,
          "internalType": "address",
          "name": "account",
          "type": "address"
        }
      ],
      "name": "Unpaused",
      "type": "event"
    },
    {
      "anonymous": false,
      "inputs": [
        {
          "indexed": true,
          "internalType": "address",
          "name": "user",
          "type": "address"
        },
        {
          "indexed": false,
          "internalType": "uint256",
          "name": "amount",
          "type": "uint256"
        }
      ],
      "name": "WithdrawExecuted",
      "type": "event"
    },
    {
      "anonymous": false,
      "inputs": [
        {
          "indexed": true,
          "internalType": "address",
          "name": "user",
          "type": "address"
        },
        {
          "indexed": false,
          "internalType": "uint256",
          "name": "amount",
          "type": "uint256"
        },
        {
          "indexed": false,
          "internalType": "uint256",
          "name": "availableTime",
          "type": "uint256"
        }
      ],
      "name": "WithdrawRequested",
      "type": "event"
    },
    {
      "stateMutability": "payable",
      "type": "fallback"
    },
    {
      "inputs": [],
      "name": "EXIT_PERIOD",
      "outputs": [
        {
          "internalType": "uint256",
          "name": "",
          "type": "uint256"
        }
      ],
      "stateMutability": "view",
      "type": "function"
    },
    {
      "inputs": [],
      "name": "PARAM_CHANGE_DELAY",
      "outputs": [
        {
          "internalType": "uint256",
          "name": "",
          "type": "uint256"
        }
      ],
      "stateMutability": "view",
      "type": "function"
    },
    {
      "inputs": [],
      "name": "PRECISION_FACTOR",
      "outputs": [
        {
          "internalType": "uint256",
          "name": "",
          "type": "uint256"
        }
      ],
      "stateMutability": "view",
      "type": "function"
    },
    {
      "inputs": [],
      "name": "REWARD_DELAY_PERIOD",
      "outputs": [
        {
          "internalType": "uint256",
          "name": "",
          "type": "uint256"
        }
      ],
      "stateMutability": "view",
      "type": "function"
    },
    {
      "inputs": [],
      "name": "accTokenPerShare",
      "outputs": [
        {
          "internalType": "uint256",
          "name": "",
          "type": "uint256"
        }
      ],
      "stateMutability": "view",
      "type": "function"
    },
    {
      "inputs": [],
      "name": "blockTime",
      "outputs": [
        {
          "internalType": "uint256",
          "name": "",
          "type": "uint256"
        }
      ],
      "stateMutability": "view",
      "type": "function"
    },
    {
      "inputs": [],
      "name": "cancelRewardPerBlockChange",
      "outputs": [],
      "stateMutability": "nonpayable",
      "type": "function"
    },
    {
      "inputs": [],
      "name": "cancelWithdraw",
      "outputs": [],
      "stateMutability": "nonpayable",
      "type": "function"
    },
    {
      "inputs": [],
      "name": "claimRewards",
      "outputs": [],
      "stateMutability": "nonpayable",
      "type": "function"
    },
    {
      "inputs": [
        {
          "internalType": "uint256",
          "name": "minReward",
          "type": "uint256"
        }
      ],
      "name": "claimRewardsWithSlippage",
      "outputs": [],
      "stateMutability": "nonpayable",
      "type": "function"
    },
    {
      "inputs": [
        {
          "internalType": "address",
          "name": "_user",
          "type": "address"
        }
      ],
      "name": "claimableView",
      "outputs": [
        {
          "internalType": "uint256",
          "name": "",
          "type": "uint256"
        }
      ],
      "stateMutability": "view",
      "type": "function"
    },
    {
      "inputs": [
        {
          "internalType": "uint256",
          "name": "_amount",
          "type": "uint256"
        },
        {
          "internalType": "uint256",
          "name": "_duration",
          "type": "uint256"
        }
      ],
      "name": "deposit",
      "outputs": [],
      "stateMutability": "nonpayable",
      "type": "function"
    },
    {
      "inputs": [
        {
          "internalType": "uint256",
          "name": "_amount",
          "type": "uint256"
        }
      ],
      "name": "emergencyRewardWithdraw",
      "outputs": [],
      "stateMutability": "nonpayable",
      "type": "function"
    },
    {
      "inputs": [],
      "name": "emergencyWithdraw",
      "outputs": [],
      "stateMutability": "nonpayable",
      "type": "function"
    },
    {
      "inputs": [],
      "name": "executeRewardPerBlockChange",
      "outputs": [],
      "stateMutability": "nonpayable",
      "type": "function"
    },
    {
      "inputs": [],
      "name": "executeWithdraw",
      "outputs": [],
      "stateMutability": "nonpayable",
      "type": "function"
    },
    {
      "inputs": [],
      "name": "freezePermanently",
      "outputs": [],
      "stateMutability": "nonpayable",
      "type": "function"
    },
    {
      "inputs": [],
      "name": "fundRewards",
      "outputs": [],
      "stateMutability": "payable",
      "type": "function"
    },
    {
      "inputs": [],
      "name": "hasUserLimit",
      "outputs": [
        {
          "internalType": "bool",
          "name": "",
          "type": "bool"
        }
      ],
      "stateMutability": "view",
      "type": "function"
    },
    {
      "inputs": [],
      "name": "isPermanentlyFrozen",
      "outputs": [
        {
          "internalType": "bool",
          "name": "",
          "type": "bool"
        }
      ],
      "stateMutability": "view",
      "type": "function"
    },
    {
      "inputs": [],
      "name": "lastRewardBlock",
      "outputs": [
        {
          "internalType": "uint256",
          "name": "",
          "type": "uint256"
        }
      ],
      "stateMutability": "view",
      "type": "function"
    },
    {
      "inputs": [
        {
          "internalType": "address",
          "name": "_user",
          "type": "address"
        }
      ],
      "name": "lockedView",
      "outputs": [
        {
          "internalType": "uint256",
          "name": "",
          "type": "uint256"
        }
      ],
      "stateMutability": "view",
      "type": "function"
    },
    {
      "inputs": [],
      "name": "lpToken",
      "outputs": [
        {
          "internalType": "contract IERC20",
          "name": "",
          "type": "address"
        }
      ],
      "stateMutability": "view",
      "type": "function"
    },
    {
      "inputs": [],
      "name": "owner",
      "outputs": [
        {
          "internalType": "address",
          "name": "",
          "type": "address"
        }
      ],
      "stateMutability": "view",
      "type": "function"
    },
    {
      "inputs": [],
      "name": "paused",
      "outputs": [
        {
          "internalType": "bool",
          "name": "",
          "type": "bool"
        }
      ],
      "stateMutability": "view",
      "type": "function"
    },
    {
      "inputs": [
        {
          "internalType": "bytes32",
          "name": "",
          "type": "bytes32"
        }
      ],
      "name": "pendingChanges",
      "outputs": [
        {
          "internalType": "uint256",
          "name": "value",
          "type": "uint256"
        },
        {
          "internalType": "uint256",
          "name": "executeAfter",
          "type": "uint256"
        }
      ],
      "stateMutability": "view",
      "type": "function"
    },
    {
      "inputs": [
        {
          "internalType": "address",
          "name": "_user",
          "type": "address"
        }
      ],
      "name": "pendingReward",
      "outputs": [
        {
          "internalType": "uint256",
          "name": "",
          "type": "uint256"
        }
      ],
      "stateMutability": "view",
      "type": "function"
    },
    {
      "inputs": [],
      "name": "poolLimitPerUser",
      "outputs": [
        {
          "internalType": "uint256",
          "name": "",
          "type": "uint256"
        }
      ],
      "stateMutability": "view",
      "type": "function"
    },
    {
      "inputs": [
        {
          "internalType": "address",
          "name": "_tokenAddress",
          "type": "address"
        },
        {
          "internalType": "uint256",
          "name": "_tokenAmount",
          "type": "uint256"
        }
      ],
      "name": "recoverWrongTokens",
      "outputs": [],
      "stateMutability": "nonpayable",
      "type": "function"
    },
    {
      "inputs": [],
      "name": "renounceOwnership",
      "outputs": [],
      "stateMutability": "nonpayable",
      "type": "function"
    },
    {
      "inputs": [
        {
          "internalType": "uint256",
          "name": "_amount",
          "type": "uint256"
        }
      ],
      "name": "requestWithdraw",
      "outputs": [],
      "stateMutability": "nonpayable",
      "type": "function"
    },
    {
      "inputs": [],
      "name": "rewardPerBlock",
      "outputs": [
        {
          "internalType": "uint256",
          "name": "",
          "type": "uint256"
        }
      ],
      "stateMutability": "view",
      "type": "function"
    },
    {
      "inputs": [
        {
          "internalType": "uint256",
          "name": "_newRate",
          "type": "uint256"
        }
      ],
      "name": "scheduleRewardPerBlockChange",
      "outputs": [],
      "stateMutability": "nonpayable",
      "type": "function"
    },
    {
      "inputs": [
        {
          "internalType": "uint256",
          "name": "_apyBps",
          "type": "uint256"
        }
      ],
      "name": "setBaseAPY",
      "outputs": [],
      "stateMutability": "nonpayable",
      "type": "function"
    },
    {
      "inputs": [
        {
          "internalType": "uint256",
          "name": "_rewardPerBlock",
          "type": "uint256"
        }
      ],
      "name": "setRewardPerBlock",
      "outputs": [],
      "stateMutability": "nonpayable",
      "type": "function"
    },
    {
      "inputs": [],
      "name": "startBlock",
      "outputs": [
        {
          "internalType": "uint256",
          "name": "",
          "type": "uint256"
        }
      ],
      "stateMutability": "view",
      "type": "function"
    },
    {
      "inputs": [],
      "name": "totalAccruedRewards",
      "outputs": [
        {
          "internalType": "uint256",
          "name": "",
          "type": "uint256"
        }
      ],
      "stateMutability": "view",
      "type": "function"
    },
    {
      "inputs": [],
      "name": "totalActiveEffective",
      "outputs": [
        {
          "internalType": "uint256",
          "name": "",
          "type": "uint256"
        }
      ],
      "stateMutability": "view",
      "type": "function"
    },
    {
      "inputs": [],
      "name": "totalClaimedRewards",
      "outputs": [
        {
          "internalType": "uint256",
          "name": "",
          "type": "uint256"
        }
      ],
      "stateMutability": "view",
      "type": "function"
    },
    {
      "inputs": [],
      "name": "totalInExitPeriod",
      "outputs": [
        {
          "internalType": "uint256",
          "name": "",
          "type": "uint256"
        }
      ],
      "stateMutability": "view",
      "type": "function"
    },
    {
      "inputs": [],
      "name": "totalStaked",
      "outputs": [
        {
          "internalType": "uint256",
          "name": "",
          "type": "uint256"
        }
      ],
      "stateMutability": "view",
      "type": "function"
    },
    {
      "inputs": [
        {
          "internalType": "address",
          "name": "newOwner",
          "type": "address"
        }
      ],
      "name": "transferOwnership",
      "outputs": [],
      "stateMutability": "nonpayable",
      "type": "function"
    },
    {
      "inputs": [
        {
          "internalType": "uint256",
          "name": "_newBlockTime",
          "type": "uint256"
        }
      ],
      "name": "updateBlockTime",
      "outputs": [],
      "stateMutability": "nonpayable",
      "type": "function"
    },
    {
      "inputs": [
        {
          "internalType": "uint256",
          "name": "_rewardDelayPeriod",
          "type": "uint256"
        },
        {
          "internalType": "uint256",
          "name": "_exitPeriod",
          "type": "uint256"
        }
      ],
      "name": "updatePeriods",
      "outputs": [],
      "stateMutability": "nonpayable",
      "type": "function"
    },
    {
      "inputs": [],
      "name": "updatePool",
      "outputs": [],
      "stateMutability": "nonpayable",
      "type": "function"
    },
    {
      "inputs": [
        {
          "internalType": "bool",
          "name": "_hasUserLimit",
          "type": "bool"
        },
        {
          "internalType": "uint256",
          "name": "_poolLimitPerUser",
          "type": "uint256"
        }
      ],
      "name": "updatePoolLimitPerUser",
      "outputs": [],
      "stateMutability": "nonpayable",
      "type": "function"
    },
    {
      "inputs": [
        {
          "internalType": "address",
          "name": "",
          "type": "address"
        }
      ],
      "name": "userInfo",
      "outputs": [
        {
          "internalType": "uint256",
          "name": "amount",
          "type": "uint256"
        },
        {
          "internalType": "uint256",
          "name": "effectiveAmount",
          "type": "uint256"
        },
        {
          "internalType": "uint256",
          "name": "rewardDebt",
          "type": "uint256"
        },
        {
          "internalType": "uint256",
          "name": "debtClaimablePS",
          "type": "uint256"
        },
        {
          "internalType": "uint256",
          "name": "lockStartTime",
          "type": "uint256"
        },
        {
          "internalType": "uint256",
          "name": "lockDuration",
          "type": "uint256"
        },
        {
          "internalType": "uint256",
          "name": "withdrawRequestTime",
          "type": "uint256"
        },
        {
          "internalType": "uint256",
          "name": "withdrawalAmount",
          "type": "uint256"
        },
        {
          "internalType": "uint256",
          "name": "delayedReward",
          "type": "uint256"
        },
        {
          "internalType": "uint256",
          "name": "delayedUnlockBlock",
          "type": "uint256"
        }
      ],
      "stateMutability": "view",
      "type": "function"
    },
    {
      "stateMutability": "payable",
      "type": "receive"
    }
  ],
  "bytecode": "0x60806040526102586005556102586006556005601255348015610020575f80fd5b5060405161347d38038061347d83398101604081905261003f9161021d565b338061006457604051631e4fbdf760e01b81525f600482015260240160405180910390fd5b61006d816100ec565b506001805560048054600160201b600160c01b0319166401000000006001600160a01b0389160217905560078590554384116100a957436100ab565b835b600881905560095582156100cc57600a805460ff19166001179055600b8390555b600582905560068190556100e1435f8061013b565b5050505050506102cd565b5f80546001600160a01b038381166001600160a01b0319831681178455604051919092169283917f8be0079c531659141344cd1fd0a4f28419497f9722a3daafe3b4186f6b6457e09190a35050565b6004545f9061014f9061ffff16600161028b565b905061010061ffff82161061016157505f5b604080516060810182526001600160401b038681168252602080830187815283850187815261ffff8781165f818152600390955296909320945185546001600160401b031916941693909317845551600184015590516002909201919091556004805461ffff19169092179182905561010062010000909204161015610217576004805462010000900461ffff169060026101fb836102ad565b91906101000a81548161ffff021916908361ffff160217905550505b50505050565b5f805f805f8060c08789031215610232575f80fd5b86516001600160a01b0381168114610248575f80fd5b6020880151604089015160608a015160808b015160a0909b0151939c929b509099909850965090945092505050565b634e487b7160e01b5f52601160045260245ffd5b61ffff8181168382160190808211156102a6576102a6610277565b5092915050565b5f61ffff8083168181036102c3576102c3610277565b6001019392505050565b6131a3806102da5f395ff3fe60806040526004361061030b575f3560e01c8063817b1cd211610199578063c04b5f65116100e0578063e3161ddd11610089578063f40f0f5211610063578063f40f0f52146108d0578063f8fd9795146108ef578063ff18bf0b146109035761034d565b8063e3161ddd14610888578063f1fa0e5a1461089c578063f2fde38b146108b15761034d565b8063d578ceab116100ba578063d578ceab14610840578063db2e21bc14610855578063e2bbb158146108695761034d565b8063c04b5f65146107f4578063ca23bba814610809578063ccd34cd5146108285761034d565b806390682b8911610142578063a9f8d1811161011c578063a9f8d181146107a1578063aa78e4b1146107b6578063bb872b4a146107d55761034d565b806390682b891461075557806392e8990e14610769578063a0b40905146107825761034d565b80638ae39cac116101735780638ae39cac1461070f5780638da5cb5b146107245780638f662915146107405761034d565b8063817b1cd2146106d257806384b76824146106e7578063894e22db146106fb5761034d565b80634dda55181161025d578063605fba6711610206578063715018a6116101e0578063715018a614610680578063745400c91461069457806378d76037146106b35761034d565b8063605fba671461063757806366fe9f8a14610656578063682266011461066b5761034d565b80635ee6efd0116102375780635ee6efd0146105c25780635f07332d146105e15780635fcbd285146105f85761034d565b80634dda5518146105395780635664b199146105805780635c975abb1461059f5761034d565b80633f138d4b116102bf57806348b151661161029957806348b15166146104fa57806348cd4cb11461050f5780634ac4b6e0146105245761034d565b80633f138d4b146104a7578063423975f3146104c65780634623635e146104db5761034d565b80632498e780116102f05780632498e780146104605780633279beab14610474578063372500ab146104935761034d565b8063096abd33146103835780631959a002146103ac5761034d565b3661034d57341561034b576040513481527fe42dde25409a3e8c7c119c1c722610d9e9bd96e73e3cead774863c9ffdd870d6906020015b60405180910390a15b005b341561034b576040513481527fe42dde25409a3e8c7c119c1c722610d9e9bd96e73e3cead774863c9ffdd870d690602001610342565b34801561038e575f80fd5b506103996201518081565b6040519081526020015b60405180910390f35b3480156103b7575f80fd5b506104166103c6366004612f9d565b6014602052805f5260405f205f91509050805f015490806001015490806002015490806003015490806004015490806005015490806006015490806007015490806008015490806009015490508a565b604080519a8b5260208b0199909952978901969096526060880194909452608087019290925260a086015260c085015260e0840152610100830152610120820152610140016103a3565b34801561046b575f80fd5b5061034b61090b565b34801561047f575f80fd5b5061034b61048e366004612fb6565b610b01565b34801561049e575f80fd5b5061034b610b70565b3480156104b2575f80fd5b5061034b6104c1366004612fcd565b610b95565b3480156104d1575f80fd5b50610399600e5481565b3480156104e6575f80fd5b5061034b6104f5366004612ff5565b610c5e565b348015610505575f80fd5b5061039960125481565b34801561051a575f80fd5b5061039960085481565b34801561052f575f80fd5b5061039960105481565b348015610544575f80fd5b5061056b610553366004612fb6565b60136020525f90815260409020805460019091015482565b604080519283526020830191909152016103a3565b34801561058b575f80fd5b5061034b61059a366004612fb6565b610d08565b3480156105aa575f80fd5b5060025460ff165b60405190151581526020016103a3565b3480156105cd575f80fd5b5061034b6105dc366004612fb6565b610daa565b3480156105ec575f80fd5b5060155460ff166105b2565b348015610603575f80fd5b5060045461061f9064010000000090046001600160a01b031681565b6040516001600160a01b0390911681526020016103a3565b348015610642575f80fd5b50610399610651366004612f9d565b610f30565b348015610661575f80fd5b50610399600b5481565b348015610676575f80fd5b50610399600f5481565b34801561068b575f80fd5b5061034b611006565b34801561069f575f80fd5b5061034b6106ae366004612fb6565b611017565b3480156106be575f80fd5b5061034b6106cd366004612fb6565b61137b565b3480156106dd575f80fd5b50610399600d5481565b3480156106f2575f80fd5b5061034b61142e565b348015610706575f80fd5b5061034b611577565b34801561071a575f80fd5b5061039960075481565b34801561072f575f80fd5b505f546001600160a01b031661061f565b34801561074b575f80fd5b50610399600c5481565b348015610760575f80fd5b5061034b6115be565b348015610774575f80fd5b50600a546105b29060ff1681565b34801561078d575f80fd5b5061034b61079c366004613015565b611663565b3480156107ac575f80fd5b5061039960095481565b3480156107c1575f80fd5b5061034b6107d0366004612fb6565b611729565b3480156107e0575f80fd5b5061034b6107ef366004612fb6565b61174c565b3480156107ff575f80fd5b5061039960065481565b348015610814575f80fd5b50610399610823366004612f9d565b6117c5565b348015610833575f80fd5b5061039964e8d4a5100081565b34801561084b575f80fd5b5061039960115481565b348015610860575f80fd5b5061034b61187a565b348015610874575f80fd5b5061034b610883366004612ff5565b611a20565b348015610893575f80fd5b5061034b611d11565b3480156108a7575f80fd5b5061039960055481565b3480156108bc575f80fd5b5061034b6108cb366004612f9d565b611d19565b3480156108db575f80fd5b506103996108ea366004612f9d565b611d6c565b3480156108fa575f80fd5b5061034b611de4565b61034b611fef565b61091361207c565b7f26c3053a9ab1625d44b90708e16d52b35ab3cfb0d872f84b29e76c8f0cee851b5f81905260136020908152604080518082019091527f466c318fe7a714b2c3b85a91c97da1f5878945e467140f6ebab7599eb1e108955481527f466c318fe7a714b2c3b85a91c97da1f5878945e467140f6ebab7599eb1e1089654918101829052906109e75760405162461bcd60e51b815260206004820152601160248201527f4e6f2070656e64696e67206368616e676500000000000000000000000000000060448201526064015b60405180910390fd5b8060200151421015610a3b5760405162461bcd60e51b815260206004820152601460248201527f54696d656c6f636b206e6f74206578706972656400000000000000000000000060448201526064016109de565b610a436120c1565b80516007555f828152601360205260408120818155600101819055600e5415610a7f57610a7a60075464e8d4a51000600e5461228b565b610a81565b5f5b9050610a9043600c548361233c565b81516040519081527f0c4d677eef92893ac7ec52faf8140fc6c851ab4736302b4f3a89dfb20696a0df9060200160405180910390a1815160405190815283907f31564d9c3e497cbcaea3bfc6814d1c86ebf66b3fe325b5f5b327434f5885436e9060200160405180910390a2505050565b610b0961207c565b610b116120c1565b4780821115610b625760405162461bcd60e51b815260206004820152601960248201527f43616e6e6f74207769746864726177207072696e636970616c0000000000000060448201526064016109de565b610b6c3383612420565b5050565b610b786124c4565b610b80612507565b610b8a335f612544565b610b9360018055565b565b610b9d61207c565b6004546001600160a01b03640100000000909104811690831603610c035760405162461bcd60e51b815260206004820152601160248201527f43616e6e6f74207265636f766572204c5000000000000000000000000000000060448201526064016109de565b610c176001600160a01b038316338361276b565b604080516001600160a01b0384168152602081018390527f74545154aac348a3eac92596bd1971957ca94795f4e954ec5f613b55fab7812991015b60405180910390a15050565b610c6661207c565b610c6e6120c1565b5f82118015610c7c57505f81115b610cc85760405162461bcd60e51b815260206004820152600f60248201527f496e76616c696420706572696f6473000000000000000000000000000000000060448201526064016109de565b6005829055600681905560408051838152602081018390527f8e7237c327b2c040e122ee8871f17435fda2eae7d8e36798de13714b60f2b6ee9101610c52565b610d1061207c565b5f81118015610d215750610e108111155b610d6d5760405162461bcd60e51b815260206004820152601160248201527f496e76616c696420626c6f636b54696d6500000000000000000000000000000060448201526064016109de565b601280549082905560408051828152602081018490527e24be6dc070e4a35f5e69c2c31342ac959334f49c5b4b62cc1033d86e8351979101610c52565b610db261207c565b610dba6120c1565b620f4240811115610e0d5760405162461bcd60e51b815260206004820152600c60248201527f41505920746f6f2068696768000000000000000000000000000000000000000060448201526064016109de565b5f610e166127df565b90505f6012546301e13380610e2b919061305d565b9050815f03610ea25760405162461bcd60e51b815260206004820152602b60248201527f4e6f20616374697665207072696e636970616c202d207573652073657452657760448201527f617264506572426c6f636b00000000000000000000000000000000000000000060648201526084016109de565b610eb88284610eb384612710613070565b61228b565b600755600e545f9015610ede57610ed960075464e8d4a51000600e5461228b565b610ee0565b5f5b9050610eef43600c548361233c565b7f0c4d677eef92893ac7ec52faf8140fc6c851ab4736302b4f3a89dfb20696a0df600754604051610f2291815260200190565b60405180910390a150505050565b6001600160a01b0381165f9081526014602052604081206009810154829015801590610f60575081600901544310155b15610f77576008820154610f74908261308d565b90505b60018201545f819003610f8c57509392505050565b5f601254600554610f9d919061305d565b90505f814311610fad575f610fb7565b610fb782436130a0565b90505f610fc3826127f5565b600387015490915080821115610ff957610fec85610fe183856130a0565b64e8d4a5100061228b565b610ff6908761308d565b95505b5093979650505050505050565b61100e61207c565b610b935f61290b565b61101f6124c4565b611027612507565b335f9081526014602052604090208115801590611045575080548211155b6110915760405162461bcd60e51b815260206004820152600a60248201527f42616420616d6f756e740000000000000000000000000000000000000000000060448201526064016109de565b5f8160040154116110e45760405162461bcd60e51b815260206004820152600f60248201527f4e6f20616374697665207374616b65000000000000000000000000000000000060448201526064016109de565b6006810154156111365760405162461bcd60e51b815260206004820152601160248201527f416c72656164792072657175657374656400000000000000000000000000000060448201526064016109de565b8060050154816004015461114a919061308d565b4210156111995760405162461bcd60e51b815260206004820152600c60248201527f5374616b65206c6f636b6564000000000000000000000000000000000000000060448201526064016109de565b6111a16120c1565b6111ab335f612544565b5f6012546005546111bc919061305d565b90505f8143116111cc575f6111d6565b6111d682436130a0565b90505f6111e2826127f5565b90505f81600c546111f391906130a0565b9050801561125b575f61121b8761120d8860050154612972565b670de0b6b3a764000061228b565b90505f61122e828464e8d4a5100061228b565b905080876008015f828254611243919061308d565b909155506112539050864361308d565b600988015550505b5f61126d8761120d8860050154612972565b905080866001015f82825461128291906130a0565b9250508190555080600e5f82825461129a91906130a0565b909155505042600687015560078601879055600f80548891905f906112c090849061308d565b925050819055506112dd8660010154600c5464e8d4a5100061228b565b6002870155600e545f90156113055761130060075464e8d4a51000600e5461228b565b611307565b5f5b905061131643600c548361233c565b336001600160a01b03167fd72eb5d043f24a0168ae744d5c44f9596fd673a26bf74d9646bff4b844882d148960065442611350919061308d565b6040805192835260208301919091520160405180910390a25050505050505061137860018055565b50565b61138361207c565b604080518082019091528181527f26c3053a9ab1625d44b90708e16d52b35ab3cfb0d872f84b29e76c8f0cee851b90602081016113c3620151804261308d565b90525f82815260136020908152604090912082518155910151600190910155807f4107c16102ca593afea4ac800deb7d36407d3f25e61cccd6628094793f668ffe83611412620151804261308d565b6040805192835260208301919091520160405180910390a25050565b6114366124c4565b61143e612507565b335f908152601460205260409020600681015461148a5760405162461bcd60e51b815260206004820152600a602482015269139bc81c995c5d595cdd60b21b60448201526064016109de565b6114926120c1565b61149c335f612544565b5f6114b2826007015461120d8460050154612972565b905080826001015f8282546114c7919061308d565b9250508190555080600e5f8282546114df919061308d565b90915550506007820154600f80545f906114fa9084906130a0565b90915550505f60068301819055600783018190556008830181905560098301556001820154600c54611532919064e8d4a5100061228b565b6002830155600e545f901561155a5761155560075464e8d4a51000600e5461228b565b61155c565b5f5b905061156b43600c548361233c565b505050610b9360018055565b61157f61207c565b6115876129eb565b6015805460ff191660011790556040517f8590c6b2a21f1d879a2ff65d0c42e5309debe25afcf918d1e18439434827cd01905f90a1565b6115c661207c565b7f26c3053a9ab1625d44b90708e16d52b35ab3cfb0d872f84b29e76c8f0cee851b5f81815260136020527f466c318fe7a714b2c3b85a91c97da1f5878945e467140f6ebab7599eb1e108958190557f466c318fe7a714b2c3b85a91c97da1f5878945e467140f6ebab7599eb1e1089681905560405182917ffbe037eef108662db90b0a679b0dde447f266ad1254d34073a5ad826453dbe7c91a250565b61166b61207c565b81156116e757600a5460ff1615806116845750600b5481115b6116d05760405162461bcd60e51b815260206004820152600d60248201527f4d75737420696e6372656173650000000000000000000000000000000000000060448201526064016109de565b600a805460ff19166001179055600b8190556116f6565b600a805460ff191690555f600b555b7f241f67ee5f41b7a5cabf911367329be7215900f602ebfc47f89dce2a6bcd847c600b54604051610c5291815260200190565b6117316124c4565b611739612507565b6117433382612544565b61137860018055565b61175461207c565b61175c6120c1565b6007819055600e545f90156117845761177f60075464e8d4a51000600e5461228b565b611786565b5f5b905061179543600c548361233c565b6040518281527f0c4d677eef92893ac7ec52faf8140fc6c851ab4736302b4f3a89dfb20696a0df90602001610c52565b6001600160a01b0381165f90815260146020526040812060098101548290158015906117f45750816009015443105b1561180b576008820154611808908261308d565b90505b60018201545f81900361182057509392505050565b5f611829612a40565b90505f60125460055461183c919061305d565b90505f81431161184c575f611856565b61185682436130a0565b90505f611862826127f5565b905080841115610ff957610fec85610fe183876130a0565b6118826124c4565b61188a612b99565b335f908152601460205260408120600781015481549192916118ac919061308d565b90505f81116118fd5760405162461bcd60e51b815260206004820152600860248201527f4e6f2066756e647300000000000000000000000000000000000000000000000060448201526064016109de565b8154600d80545f906119109084906130a0565b90915550506001820154600e80545f9061192b9084906130a0565b90915550506007820154600f80545f906119469084906130a0565b90915550505f808355600183018190556002830181905560038301819055600483018190556005830181905560068301819055600783018190556008830181905560098301819055600e54156119af576119aa60075464e8d4a51000600e5461228b565b6119b1565b5f5b90506119c043600c548361233c565b6004546119df9064010000000090046001600160a01b0316338461276b565b60405182815233907f7b2a72f0889ae9bb89e8ee7ec3e7c465552d1b76d51df9b0426d0e4e7f39528f9060200160405180910390a2505050610b9360018055565b611a286124c4565b611a30612507565b5f8211611a7f5760405162461bcd60e51b815260206004820152600c60248201527f5a65726f206465706f736974000000000000000000000000000000000000000060448201526064016109de565b335f908152601460205260409020600681015415611adf5760405162461bcd60e51b815260206004820152600e60248201527f496e206578697420706572696f6400000000000000000000000000000000000060448201526064016109de565b5f611ae983612972565b825490915015611b465781600501548314611b465760405162461bcd60e51b815260206004820152601160248201527f4475726174696f6e206d69736d6174636800000000000000000000000000000060448201526064016109de565b600a5460ff1615611bae57600b548254611b60908661308d565b1115611bae5760405162461bcd60e51b815260206004820152600b60248201527f41626f7665206c696d697400000000000000000000000000000000000000000060448201526064016109de565b611bb66120c1565b815415611bcc57611bc7335f612544565b611bdc565b600c546003830155600582018390555b600454611bfc9064010000000090046001600160a01b0316333087612bd5565b83825f015f828254611c0e919061308d565b9250508190555083600d5f828254611c26919061308d565b909155505f9050611c408583670de0b6b3a764000061228b565b905080836001015f828254611c55919061308d565b9250508190555080600e5f828254611c6d919061308d565b90915550504260048401556001830154600c54611c90919064e8d4a5100061228b565b6002840155600e545f9015611cb857611cb360075464e8d4a51000600e5461228b565b611cba565b5f5b9050611cc943600c548361233c565b604080518781526020810187905233917f90890809c654f11d6e72a28fa60149770a0d11ec6c92319d6ceb2bb0a4ea1a15910160405180910390a250505050610b6c60018055565b610b936120c1565b611d2161207c565b6001600160a01b038116611d63576040517f1e4fbdf70000000000000000000000000000000000000000000000000000000081525f60048201526024016109de565b6113788161290b565b6001600160a01b0381165f908152601460205260408120600681015415611d9557505f92915050565b5f611d9e612a40565b90505f611db583600101548364e8d4a5100061228b565b905082600201548110611dda576002830154611dd190826130a0565b95945050505050565b505f949350505050565b611dec6124c4565b611df4612507565b611dfe335f612544565b335f9081526014602052604090206006810154611e4a5760405162461bcd60e51b815260206004820152600a602482015269139bc81c995c5d595cdd60b21b60448201526064016109de565b6006548160060154611e5c919061308d565b421015611eab5760405162461bcd60e51b815260206004820152601160248201527f45786974206e6f742066696e697368656400000000000000000000000000000060448201526064016109de565b600781015480611efd5760405162461bcd60e51b815260206004820152600960248201527f4e6f20616d6f756e74000000000000000000000000000000000000000000000060448201526064016109de565b80600f5f828254611f0e91906130a0565b9250508190555080600d5f828254611f2691906130a0565b90915550505f6006830181905560078301558154819003611f5d575f80835560048301819055600583018190556003830155611f75565b80825f015f828254611f6f91906130a0565b90915550505b611f8b8260010154600c5464e8d4a5100061228b565b6002830155600454611faf9064010000000090046001600160a01b0316338361276b565b60405181815233907f7b2a72f0889ae9bb89e8ee7ec3e7c465552d1b76d51df9b0426d0e4e7f39528f9060200160405180910390a25050610b9360018055565b611ff761207c565b5f34116120465760405162461bcd60e51b815260206004820152600860248201527f4e6f2076616c756500000000000000000000000000000000000000000000000060448201526064016109de565b6040513481527fe42dde25409a3e8c7c119c1c722610d9e9bd96e73e3cead774863c9ffdd870d6906020015b60405180910390a1565b5f546001600160a01b03163314610b93576040517f118cdaa70000000000000000000000000000000000000000000000000000000081523360048201526024016109de565b60095443116120cc57565b600e545f81900361211c574360095560045462010000900461ffff16158061210a575060045461ffff165f9081526003602052604090206002015415155b156113785761137843600c545f61233c565b5f6009544361212b91906130a0565b90505f5b5f8211801561213f57505f600754115b156121b3575f6007545f19612154919061305d565b8311612160578261216e565b60075461216e905f1961305d565b90506007548161217e9190613070565b612188908361308d565b915061219481846130a0565b92508060095f8282546121a7919061308d565b9091555061212f915050565b5f601154601054116121c5575f6121d5565b6011546010546121d591906130a0565b9050475f8282116121e6575f6121f0565b6121f083836130a0565b9050808411156121fe578093505b831561227f5764e8d4a510005b5f8511801561221957505f81115b801561222e575061222b815f1961305d565b85115b156122455761223e600a8261305d565b905061220b565b61225085828961228b565b600c5f828254612260919061308d565b925050819055508460105f828254612278919061308d565b9091555050505b50504360095550505050565b5f805f6122988686612c0e565b91509150815f036122bc578381816122b2576122b2613035565b0492505050612335565b8184116122d3576122d36003851502601118612c2a565b5f848688095f868103871696879004966002600389028118808a02820302808a02820302808a02820302808a02820302808a02820302808a02909103029181900381900460010185841190960395909502919093039390930492909217029150505b9392505050565b6004545f906123509061ffff1660016130b3565b905061010061ffff82161061236257505f5b6040805160608101825267ffffffffffffffff8681168252602080830187815283850187815261ffff8781165f8181526003909552969093209451855467ffffffffffffffff1916941693909317845551600184015590516002909201919091556004805461ffff1916909217918290556101006201000090920416101561241a576004805462010000900461ffff169060026123fe836130d5565b91906101000a81548161ffff021916908361ffff160217905550505b50505050565b5f826001600160a01b0316826040515f6040518083038185875af1925050503d805f8114612469576040519150601f19603f3d011682016040523d82523d5f602084013e61246e565b606091505b50509050806124bf5760405162461bcd60e51b815260206004820152601660248201527f4e6174697665207472616e73666572206661696c65640000000000000000000060448201526064016109de565b505050565b600260015403612500576040517f3ee5aeb500000000000000000000000000000000000000000000000000000000815260040160405180910390fd5b6002600155565b60025460ff1615610b93576040517fd93c066500000000000000000000000000000000000000000000000000000000815260040160405180910390fd5b6001600160a01b0382165f90815260146020526040812060125460055491929161256e919061305d565b90505f81431161257e575f612588565b61258882436130a0565b90505f612594826127f5565b90505f846003015490505f8086600101541180156125b157508183115b156125cc5760018601546125c990610fe184866130a0565b90505b6125d46120c1565b60098601548190158015906125ed575086600901544310155b15612611576008870154612601908261308d565b5f60088901819055600989015590505b475f818311156126215781612623565b825b9050898110156126755760405162461bcd60e51b815260206004820152601860248201527f536c6970706167653a2072657761726420746f6f206c6f77000000000000000060448201526064016109de565b80156126da576126858b82612420565b8060115f828254612696919061308d565b90915550506040518181526001600160a01b038c16907f106f923f993c2149d49b4255ff723acafa1f2d94393f561d3eda32ae348f72419060200160405180910390a25b8215612738578281106126f35760038901869055612740565b5f858711612701575f61270b565b61270b86886130a0565b90508015612732575f61271f83838761228b565b905061272b818861308d565b60038c0155505b50612740565b600389018690555b6127568960010154600c5464e8d4a5100061228b565b89600201819055505050505050505050505050565b6040516001600160a01b038381166024830152604482018390526124bf91859182169063a9059cbb906064015b604051602081830303815290604052915060e01b6020820180517bffffffffffffffffffffffffffffffffffffffffffffffffffffffff8381831617835250505050612c3b565b5f600f54600d546127f091906130a0565b905090565b6004545f9062010000900461ffff168103612812575050600c5490565b5f8061281d84612cc0565b915091508161282f57505f9392505050565b602081015181515b5f8061284283612df7565b915091505f8280156128615750815167ffffffffffffffff808b169116105b61286b578861286e565b81515b90508367ffffffffffffffff168167ffffffffffffffff1611801561289657505f8660400151115b156128cb5760408601516128aa85836130f5565b67ffffffffffffffff166128be9190613070565b6128c8908661308d565b94505b8215806128e65750815167ffffffffffffffff808b16911610155b156128f357505050612902565b50805190945091506128379050565b50949350505050565b5f80546001600160a01b038381167fffffffffffffffffffffffff0000000000000000000000000000000000000000831681178455604051919092169283917f8be0079c531659141344cd1fd0a4f28419497f9722a3daafe3b4186f6b6457e09190a35050565b5f816102580361298b5750670de0b6b3a7640000919050565b816104b0036129a357506714d1120d7b160000919050565b60405162461bcd60e51b815260206004820152601060248201527f496e76616c6964206475726174696f6e0000000000000000000000000000000060448201526064016109de565b6129f3612507565b6002805460ff191660011790557f62e78cea01bee320cd4e420270b5ea74000d11b0c9f74754ebdbfc544b05a258612a283390565b6040516001600160a01b039091168152602001612072565b6004545f9062010000900461ffff168103612a5c5750600c5490565b5f612a6643612cc0565b50905080612a76575050600c5490565b600e545f819003612a8b57600c549250505090565b6009544311612a9e57600c549250505090565b5f60095443612aad91906130a0565b9050805f03612ac157600c54935050505090565b5f81600754612ad09190613070565b90505f60115460105411612ae4575f612af4565b601154601054612af491906130a0565b9050475f828211612b05575f612b0f565b612b0f83836130a0565b905080841115612b1d578093505b835f03612b3357600c5497505050505050505090565b64e8d4a510005b5f85118015612b4857505f81115b8015612b5d5750612b5a815f1961305d565b85115b15612b7457612b6d600a8261305d565b9050612b3a565b612b7f85828961228b565b600c54612b8c919061308d565b9850505050505050505090565b60025460ff16610b93576040517f8dfc202b00000000000000000000000000000000000000000000000000000000815260040160405180910390fd5b6040516001600160a01b03848116602483015283811660448301526064820183905261241a9186918216906323b872dd90608401612798565b5f805f1983850993909202808410938190039390930393915050565b634e487b715f52806020526024601cfd5b5f8060205f8451602086015f885af180612c5a576040513d5f823e3d81fd5b50505f513d91508115612c71578060011415612c7e565b6001600160a01b0384163b155b1561241a576040517f5274afe70000000000000000000000000000000000000000000000000000000081526001600160a01b03851660048201526024016109de565b604080516060810182525f80825260208201819052918101829052600454604080516060810182525f8082526020820181905291810182905261ffff909216915f5b60045461ffff6201000090910481169084161015612dec5761ffff84165f908152600360209081526040918290208251606081018452815467ffffffffffffffff168082526001830154938201939093526002909101549281019290925215801590612d7c5750805167ffffffffffffffff808a16911611155b8015612d9f5750811580612d9f57508251815167ffffffffffffffff9182169116115b15612dac57809250600191505b8461ffff165f03612dcb57612dc46001610100613116565b9450612dd9565b84612dd581613131565b9550505b83612de3816130d5565b94505050612d02565b969095509350505050565b604080516060810182525f8082526020820181905291810182905260045462010000900461ffff165f03612e49575050604080516060810182525f808252602082018190529181018290529092909150565b6004545f9081906101009061ffff620100008204811691612e6c918491166130b3565b612e779060016130b3565b612e819190613116565b612e8b919061314d565b9050805b61ffff81165f908152600360209081526040918290208251606081018452815467ffffffffffffffff9081168083526001840154948301949094526002909201549381019390935288161015612eed57600197909650945050505050565b60045461ffff90811690831603612f045750612f50565b610100612f128360016130b3565b612f1c919061314d565b915083612f28816130d5565b60045490955061ffff620100009091048116908616109050612f4a5750612f50565b50612e8f565b5f60405180606001604052805f67ffffffffffffffff1681526020015f81526020015f81525094509450505050915091565b80356001600160a01b0381168114612f98575f80fd5b919050565b5f60208284031215612fad575f80fd5b61233582612f82565b5f60208284031215612fc6575f80fd5b5035919050565b5f8060408385031215612fde575f80fd5b612fe783612f82565b946020939093013593505050565b5f8060408385031215613006575f80fd5b50508035926020909101359150565b5f8060408385031215613026575f80fd5b82358015158114612fe7575f80fd5b634e487b7160e01b5f52601260045260245ffd5b634e487b7160e01b5f52601160045260245ffd5b5f8261306b5761306b613035565b500490565b808202811582820484141761308757613087613049565b92915050565b8082018082111561308757613087613049565b8181038181111561308757613087613049565b61ffff8181168382160190808211156130ce576130ce613049565b5092915050565b5f61ffff8083168181036130eb576130eb613049565b6001019392505050565b67ffffffffffffffff8281168282160390808211156130ce576130ce613049565b61ffff8281168282160390808211156130ce576130ce613049565b5f61ffff82168061314457613144613049565b5f190192915050565b5f61ffff8084168061316157613161613035565b9216919091069291505056fea2646970667358221220f168c7242ffce795286dca68efa8c19c12a5ac0a68fc0c15c02d13e7ac8977d664736f6c63430008190033",
  "linkReferences": {},
  "deployedLinkReferences": {}
}