{
  "_format": "hh-sol-artifact-1",
  "contractName": "SmartChefNative",
  "sourceName": "contracts/SmartChefNative.sol",
  "abi": [
    {
      "inputs": [
        {
          "internalType": "uint256",
          "name": "_poolLimitPerUser",
          "type": "uint256"
        },
        {
          "internalType": "uint256",
          "name": "_rewardDelayPeriod",
          "type": "uint256"
        },
        {
          "internalType": "uint256",
          "name": "_exitPeriod",
          "type": "uint256"
        },
        {
          "internalType": "uint256",
          "name": "_rewardPerBlock",
          "type": "uint256"
        },
        {
          "internalType": "uint256",
          "name": "_startBlock",
          "type": "uint256"
        }
      ],
      "stateMutability": "nonpayable",
      "type": "constructor"
    },
    {
      "inputs": [
        {
          "internalType": "address",
          "name": "owner",
          "type": "address"
        }
      ],
      "name": "OwnableInvalidOwner",
      "type": "error"
    },
    {
      "inputs": [
        {
          "internalType": "address",
          "name": "account",
          "type": "address"
        }
      ],
      "name": "OwnableUnauthorizedAccount",
      "type": "error"
    },
    {
      "inputs": [],
      "name": "ReentrancyGuardReentrantCall",
      "type": "error"
    },
    {
      "anonymous": false,
      "inputs": [
        {
          "indexed": false,
          "internalType": "address",
          "name": "tokenRecovered",
          "type": "address"
        },
        {
          "indexed": false,
          "internalType": "uint256",
          "name": "amount",
          "type": "uint256"
        }
      ],
      "name": "AdminTokenRecovery",
      "type": "event"
    },
    {
      "anonymous": false,
      "inputs": [
        {
          "indexed": false,
          "internalType": "uint256",
          "name": "oldBlockTime",
          "type": "uint256"
        },
        {
          "indexed": false,
          "internalType": "uint256",
          "name": "newBlockTime",
          "type": "uint256"
        }
      ],
      "name": "BlockTimeUpdated",
      "type": "event"
    },
    {
      "anonymous": false,
      "inputs": [
        {
          "indexed": true,
          "internalType": "address",
          "name": "user",
          "type": "address"
        },
        {
          "indexed": false,
          "internalType": "uint256",
          "name": "amount",
          "type": "uint256"
        },
        {
          "indexed": false,
          "internalType": "uint256",
          "name": "duration",
          "type": "uint256"
        }
      ],
      "name": "Deposit",
      "type": "event"
    },
    {
      "anonymous": false,
      "inputs": [
        {
          "indexed": false,
          "internalType": "uint256",
          "name": "poolLimitPerUser",
          "type": "uint256"
        }
      ],
      "name": "NewPoolLimit",
      "type": "event"
    },
    {
      "anonymous": false,
      "inputs": [
        {
          "indexed": false,
          "internalType": "uint256",
          "name": "newRate",
          "type": "uint256"
        }
      ],
      "name": "NewRewardPerBlock",
      "type": "event"
    },
    {
      "anonymous": false,
      "inputs": [
        {
          "indexed": true,
          "internalType": "address",
          "name": "previousOwner",
          "type": "address"
        },
        {
          "indexed": true,
          "internalType": "address",
          "name": "newOwner",
          "type": "address"
        }
      ],
      "name": "OwnershipTransferred",
      "type": "event"
    },
    {
      "anonymous": false,
      "inputs": [
        {
          "indexed": true,
          "internalType": "bytes32",
          "name": "paramHash",
          "type": "bytes32"
        }
      ],
      "name": "ParameterChangeCancelled",
      "type": "event"
    },
    {
      "anonymous": false,
      "inputs": [
        {
          "indexed": true,
          "internalType": "bytes32",
          "name": "paramHash",
          "type": "bytes32"
        },
        {
          "indexed": false,
          "internalType": "uint256",
          "name": "value",
          "type": "uint256"
        }
      ],
      "name": "ParameterChangeExecuted",
      "type": "event"
    },
    {
      "anonymous": false,
      "inputs": [
        {
          "indexed": true,
          "internalType": "bytes32",
          "name": "paramHash",
          "type": "bytes32"
        },
        {
          "indexed": false,
          "internalType": "uint256",
          "name": "value",
          "type": "uint256"
        },
        {
          "indexed": false,
          "internalType": "uint256",
          "name": "executeAfter",
          "type": "uint256"
        }
      ],
      "name": "ParameterChangeScheduled",
      "type": "event"
    },
    {
      "anonymous": false,
      "inputs": [
        {
          "indexed": false,
          "internalType": "uint256",
          "name": "rewardDelayPeriod",
          "type": "uint256"
        },
        {
          "indexed": false,
          "internalType": "uint256",
          "name": "exitPeriod",
          "type": "uint256"
        }
      ],
      "name": "PeriodsUpdated",
      "type": "event"
    },
    {
      "anonymous": false,
      "inputs": [
        {
          "indexed": true,
          "internalType": "address",
          "name": "user",
          "type": "address"
        },
        {
          "indexed": false,
          "internalType": "uint256",
          "name": "amount",
          "type": "uint256"
        }
      ],
      "name": "RewardClaimed",
      "type": "event"
    },
    {
      "anonymous": false,
      "inputs": [
        {
          "indexed": false,
          "internalType": "uint256",
          "name": "amount",
          "type": "uint256"
        }
      ],
      "name": "RewardsFunded",
      "type": "event"
    },
    {
      "anonymous": false,
      "inputs": [
        {
          "indexed": true,
          "internalType": "address",
          "name": "user",
          "type": "address"
        },
        {
          "indexed": false,
          "internalType": "uint256",
          "name": "amount",
          "type": "uint256"
        }
      ],
      "name": "WithdrawExecuted",
      "type": "event"
    },
    {
      "anonymous": false,
      "inputs": [
        {
          "indexed": true,
          "internalType": "address",
          "name": "user",
          "type": "address"
        },
        {
          "indexed": false,
          "internalType": "uint256",
          "name": "amount",
          "type": "uint256"
        },
        {
          "indexed": false,
          "internalType": "uint256",
          "name": "availableTime",
          "type": "uint256"
        }
      ],
      "name": "WithdrawRequested",
      "type": "event"
    },
    {
      "stateMutability": "payable",
      "type": "fallback"
    },
    {
      "inputs": [],
      "name": "EXIT_PERIOD",
      "outputs": [
        {
          "internalType": "uint256",
          "name": "",
          "type": "uint256"
        }
      ],
      "stateMutability": "view",
      "type": "function"
    },
    {
      "inputs": [],
      "name": "PARAM_CHANGE_DELAY",
      "outputs": [
        {
          "internalType": "uint256",
          "name": "",
          "type": "uint256"
        }
      ],
      "stateMutability": "view",
      "type": "function"
    },
    {
      "inputs": [],
      "name": "PRECISION_FACTOR",
      "outputs": [
        {
          "internalType": "uint256",
          "name": "",
          "type": "uint256"
        }
      ],
      "stateMutability": "view",
      "type": "function"
    },
    {
      "inputs": [],
      "name": "REWARD_DELAY_PERIOD",
      "outputs": [
        {
          "internalType": "uint256",
          "name": "",
          "type": "uint256"
        }
      ],
      "stateMutability": "view",
      "type": "function"
    },
    {
      "inputs": [],
      "name": "accTokenPerShare",
      "outputs": [
        {
          "internalType": "uint256",
          "name": "",
          "type": "uint256"
        }
      ],
      "stateMutability": "view",
      "type": "function"
    },
    {
      "inputs": [],
      "name": "blockTime",
      "outputs": [
        {
          "internalType": "uint256",
          "name": "",
          "type": "uint256"
        }
      ],
      "stateMutability": "view",
      "type": "function"
    },
    {
      "inputs": [],
      "name": "cancelRewardPerBlockChange",
      "outputs": [],
      "stateMutability": "nonpayable",
      "type": "function"
    },
    {
      "inputs": [],
      "name": "cancelWithdraw",
      "outputs": [],
      "stateMutability": "nonpayable",
      "type": "function"
    },
    {
      "inputs": [],
      "name": "checkpointInterval",
      "outputs": [
        {
          "internalType": "uint64",
          "name": "",
          "type": "uint64"
        }
      ],
      "stateMutability": "view",
      "type": "function"
    },
    {
      "inputs": [],
      "name": "claimRewards",
      "outputs": [],
      "stateMutability": "nonpayable",
      "type": "function"
    },
    {
      "inputs": [
        {
          "internalType": "uint256",
          "name": "minReward",
          "type": "uint256"
        }
      ],
      "name": "claimRewardsWithSlippage",
      "outputs": [],
      "stateMutability": "nonpayable",
      "type": "function"
    },
    {
      "inputs": [
        {
          "internalType": "address",
          "name": "_user",
          "type": "address"
        }
      ],
      "name": "claimableView",
      "outputs": [
        {
          "internalType": "uint256",
          "name": "",
          "type": "uint256"
        }
      ],
      "stateMutability": "view",
      "type": "function"
    },
    {
      "inputs": [
        {
          "internalType": "uint256",
          "name": "_duration",
          "type": "uint256"
        }
      ],
      "name": "deposit",
      "outputs": [],
      "stateMutability": "payable",
      "type": "function"
    },
    {
      "inputs": [
        {
          "internalType": "uint256",
          "name": "_amount",
          "type": "uint256"
        }
      ],
      "name": "emergencyRewardWithdraw",
      "outputs": [],
      "stateMutability": "nonpayable",
      "type": "function"
    },
    {
      "inputs": [],
      "name": "executeRewardPerBlockChange",
      "outputs": [],
      "stateMutability": "nonpayable",
      "type": "function"
    },
    {
      "inputs": [],
      "name": "executeWithdraw",
      "outputs": [],
      "stateMutability": "nonpayable",
      "type": "function"
    },
    {
      "inputs": [],
      "name": "fundRewards",
      "outputs": [],
      "stateMutability": "payable",
      "type": "function"
    },
    {
      "inputs": [],
      "name": "getBaseAPY",
      "outputs": [
        {
          "internalType": "uint256",
          "name": "",
          "type": "uint256"
        }
      ],
      "stateMutability": "view",
      "type": "function"
    },
    {
      "inputs": [
        {
          "internalType": "uint256",
          "name": "_duration",
          "type": "uint256"
        }
      ],
      "name": "getEstimatedAPY",
      "outputs": [
        {
          "internalType": "uint256",
          "name": "",
          "type": "uint256"
        }
      ],
      "stateMutability": "view",
      "type": "function"
    },
    {
      "inputs": [],
      "name": "getRewardBalance",
      "outputs": [
        {
          "internalType": "uint256",
          "name": "",
          "type": "uint256"
        }
      ],
      "stateMutability": "view",
      "type": "function"
    },
    {
      "inputs": [
        {
          "internalType": "address",
          "name": "_user",
          "type": "address"
        }
      ],
      "name": "getUserInfo",
      "outputs": [
        {
          "internalType": "uint256",
          "name": "stakedAmount",
          "type": "uint256"
        },
        {
          "internalType": "uint256",
          "name": "lockStartTime",
          "type": "uint256"
        },
        {
          "internalType": "uint256",
          "name": "lockEndTime",
          "type": "uint256"
        },
        {
          "internalType": "uint256",
          "name": "lockDuration",
          "type": "uint256"
        },
        {
          "internalType": "uint256",
          "name": "withdrawRequestTime",
          "type": "uint256"
        },
        {
          "internalType": "uint256",
          "name": "withdrawalAmount",
          "type": "uint256"
        },
        {
          "internalType": "uint256",
          "name": "withdrawalAvailableTime",
          "type": "uint256"
        },
        {
          "internalType": "bool",
          "name": "isLocked_",
          "type": "bool"
        },
        {
          "internalType": "bool",
          "name": "inExitPeriod",
          "type": "bool"
        },
        {
          "internalType": "bool",
          "name": "canRequestWithdraw",
          "type": "bool"
        },
        {
          "internalType": "bool",
          "name": "canExecuteWithdraw",
          "type": "bool"
        }
      ],
      "stateMutability": "view",
      "type": "function"
    },
    {
      "inputs": [
        {
          "internalType": "address",
          "name": "_user",
          "type": "address"
        }
      ],
      "name": "getUserStatus",
      "outputs": [
        {
          "internalType": "string",
          "name": "",
          "type": "string"
        }
      ],
      "stateMutability": "view",
      "type": "function"
    },
    {
      "inputs": [],
      "name": "hasUserLimit",
      "outputs": [
        {
          "internalType": "bool",
          "name": "",
          "type": "bool"
        }
      ],
      "stateMutability": "view",
      "type": "function"
    },
    {
      "inputs": [
        {
          "internalType": "address",
          "name": "_user",
          "type": "address"
        }
      ],
      "name": "isInExitPeriod",
      "outputs": [
        {
          "internalType": "bool",
          "name": "",
          "type": "bool"
        }
      ],
      "stateMutability": "view",
      "type": "function"
    },
    {
      "inputs": [
        {
          "internalType": "address",
          "name": "_user",
          "type": "address"
        }
      ],
      "name": "isLocked",
      "outputs": [
        {
          "internalType": "bool",
          "name": "",
          "type": "bool"
        }
      ],
      "stateMutability": "view",
      "type": "function"
    },
    {
      "inputs": [],
      "name": "lastRewardBlock",
      "outputs": [
        {
          "internalType": "uint256",
          "name": "",
          "type": "uint256"
        }
      ],
      "stateMutability": "view",
      "type": "function"
    },
    {
      "inputs": [
        {
          "internalType": "address",
          "name": "_user",
          "type": "address"
        }
      ],
      "name": "lockedView",
      "outputs": [
        {
          "internalType": "uint256",
          "name": "",
          "type": "uint256"
        }
      ],
      "stateMutability": "view",
      "type": "function"
    },
    {
      "inputs": [],
      "name": "owner",
      "outputs": [
        {
          "internalType": "address",
          "name": "",
          "type": "address"
        }
      ],
      "stateMutability": "view",
      "type": "function"
    },
    {
      "inputs": [
        {
          "internalType": "bytes32",
          "name": "",
          "type": "bytes32"
        }
      ],
      "name": "pendingChanges",
      "outputs": [
        {
          "internalType": "uint256",
          "name": "value",
          "type": "uint256"
        },
        {
          "internalType": "uint256",
          "name": "executeAfter",
          "type": "uint256"
        }
      ],
      "stateMutability": "view",
      "type": "function"
    },
    {
      "inputs": [
        {
          "internalType": "address",
          "name": "_user",
          "type": "address"
        }
      ],
      "name": "pendingReward",
      "outputs": [
        {
          "internalType": "uint256",
          "name": "",
          "type": "uint256"
        }
      ],
      "stateMutability": "view",
      "type": "function"
    },
    {
      "inputs": [],
      "name": "poolLimitPerUser",
      "outputs": [
        {
          "internalType": "uint256",
          "name": "",
          "type": "uint256"
        }
      ],
      "stateMutability": "view",
      "type": "function"
    },
    {
      "inputs": [
        {
          "internalType": "address",
          "name": "_tokenAddress",
          "type": "address"
        },
        {
          "internalType": "uint256",
          "name": "_tokenAmount",
          "type": "uint256"
        }
      ],
      "name": "recoverWrongTokens",
      "outputs": [],
      "stateMutability": "nonpayable",
      "type": "function"
    },
    {
      "inputs": [],
      "name": "renounceOwnership",
      "outputs": [],
      "stateMutability": "nonpayable",
      "type": "function"
    },
    {
      "inputs": [
        {
          "internalType": "uint256",
          "name": "_amount",
          "type": "uint256"
        }
      ],
      "name": "requestWithdraw",
      "outputs": [],
      "stateMutability": "nonpayable",
      "type": "function"
    },
    {
      "inputs": [],
      "name": "rewardPerBlock",
      "outputs": [
        {
          "internalType": "uint256",
          "name": "",
          "type": "uint256"
        }
      ],
      "stateMutability": "view",
      "type": "function"
    },
    {
      "inputs": [
        {
          "internalType": "uint256",
          "name": "_newRate",
          "type": "uint256"
        }
      ],
      "name": "scheduleRewardPerBlockChange",
      "outputs": [],
      "stateMutability": "nonpayable",
      "type": "function"
    },
    {
      "inputs": [
        {
          "internalType": "uint256",
          "name": "_apyBps",
          "type": "uint256"
        }
      ],
      "name": "setBaseAPY",
      "outputs": [],
      "stateMutability": "nonpayable",
      "type": "function"
    },
    {
      "inputs": [
        {
          "internalType": "uint256",
          "name": "_rewardPerBlock",
          "type": "uint256"
        }
      ],
      "name": "setRewardPerBlock",
      "outputs": [],
      "stateMutability": "nonpayable",
      "type": "function"
    },
    {
      "inputs": [],
      "name": "startBlock",
      "outputs": [
        {
          "internalType": "uint256",
          "name": "",
          "type": "uint256"
        }
      ],
      "stateMutability": "view",
      "type": "function"
    },
    {
      "inputs": [
        {
          "internalType": "address",
          "name": "_user",
          "type": "address"
        }
      ],
      "name": "timeUntilUnlock",
      "outputs": [
        {
          "internalType": "uint256",
          "name": "",
          "type": "uint256"
        }
      ],
      "stateMutability": "view",
      "type": "function"
    },
    {
      "inputs": [
        {
          "internalType": "address",
          "name": "_user",
          "type": "address"
        }
      ],
      "name": "timeUntilWithdrawalAvailable",
      "outputs": [
        {
          "internalType": "uint256",
          "name": "",
          "type": "uint256"
        }
      ],
      "stateMutability": "view",
      "type": "function"
    },
    {
      "inputs": [],
      "name": "totalAccruedRewards",
      "outputs": [
        {
          "internalType": "uint256",
          "name": "",
          "type": "uint256"
        }
      ],
      "stateMutability": "view",
      "type": "function"
    },
    {
      "inputs": [],
      "name": "totalActiveEffective",
      "outputs": [
        {
          "internalType": "uint256",
          "name": "",
          "type": "uint256"
        }
      ],
      "stateMutability": "view",
      "type": "function"
    },
    {
      "inputs": [],
      "name": "totalClaimedRewards",
      "outputs": [
        {
          "internalType": "uint256",
          "name": "",
          "type": "uint256"
        }
      ],
      "stateMutability": "view",
      "type": "function"
    },
    {
      "inputs": [],
      "name": "totalInExitPeriod",
      "outputs": [
        {
          "internalType": "uint256",
          "name": "",
          "type": "uint256"
        }
      ],
      "stateMutability": "view",
      "type": "function"
    },
    {
      "inputs": [],
      "name": "totalStaked",
      "outputs": [
        {
          "internalType": "uint256",
          "name": "",
          "type": "uint256"
        }
      ],
      "stateMutability": "view",
      "type": "function"
    },
    {
      "inputs": [
        {
          "internalType": "address",
          "name": "newOwner",
          "type": "address"
        }
      ],
      "name": "transferOwnership",
      "outputs": [],
      "stateMutability": "nonpayable",
      "type": "function"
    },
    {
      "inputs": [
        {
          "internalType": "uint256",
          "name": "_newBlockTime",
          "type": "uint256"
        }
      ],
      "name": "updateBlockTime",
      "outputs": [],
      "stateMutability": "nonpayable",
      "type": "function"
    },
    {
      "inputs": [
        {
          "internalType": "uint64",
          "name": "_newInterval",
          "type": "uint64"
        }
      ],
      "name": "updateCheckpointInterval",
      "outputs": [],
      "stateMutability": "nonpayable",
      "type": "function"
    },
    {
      "inputs": [
        {
          "internalType": "uint256",
          "name": "_rewardDelayPeriod",
          "type": "uint256"
        },
        {
          "internalType": "uint256",
          "name": "_exitPeriod",
          "type": "uint256"
        }
      ],
      "name": "updatePeriods",
      "outputs": [],
      "stateMutability": "nonpayable",
      "type": "function"
    },
    {
      "inputs": [],
      "name": "updatePool",
      "outputs": [],
      "stateMutability": "nonpayable",
      "type": "function"
    },
    {
      "inputs": [
        {
          "internalType": "bool",
          "name": "_hasUserLimit",
          "type": "bool"
        },
        {
          "internalType": "uint256",
          "name": "_poolLimitPerUser",
          "type": "uint256"
        }
      ],
      "name": "updatePoolLimitPerUser",
      "outputs": [],
      "stateMutability": "nonpayable",
      "type": "function"
    },
    {
      "inputs": [
        {
          "internalType": "address",
          "name": "",
          "type": "address"
        }
      ],
      "name": "userInfo",
      "outputs": [
        {
          "internalType": "uint256",
          "name": "amount",
          "type": "uint256"
        },
        {
          "internalType": "uint256",
          "name": "effectiveAmount",
          "type": "uint256"
        },
        {
          "internalType": "uint256",
          "name": "rewardDebt",
          "type": "uint256"
        },
        {
          "internalType": "uint256",
          "name": "debtClaimablePS",
          "type": "uint256"
        },
        {
          "internalType": "uint256",
          "name": "lockStartBlock",
          "type": "uint256"
        },
        {
          "internalType": "uint256",
          "name": "lockDuration",
          "type": "uint256"
        },
        {
          "internalType": "uint256",
          "name": "lockDurationBlocks",
          "type": "uint256"
        },
        {
          "internalType": "uint256",
          "name": "withdrawRequestBlock",
          "type": "uint256"
        },
        {
          "internalType": "uint256",
          "name": "withdrawalAmount",
          "type": "uint256"
        },
        {
          "internalType": "uint256",
          "name": "delayedReward",
          "type": "uint256"
        },
        {
          "internalType": "uint256",
          "name": "delayedUnlockBlock",
          "type": "uint256"
        }
      ],
      "stateMutability": "view",
      "type": "function"
    },
    {
      "stateMutability": "payable",
      "type": "receive"
    }
  ],
  "bytecode": "0x60806040526102586002819055600355600560075560148054600160201b600160601b031916643c00000000179055348015610039575f80fd5b506040516139e13803806139e18339810160408190526100589161024e565b338061007d57604051631e4fbdf760e01b81525f600482015260240160405180910390fd5b6100868161011d565b506001805584156100a4576008805460ff1916600117905560098590555b6002849055600383905564e8d4a51000600a5560048290554381116100c957436100cb565b805b6005819055600655601480546001600160401b03439081166c0100000000000000000000000002600160601b600160a01b031990921691909117909155610113905f8061016c565b50505050506102e0565b5f80546001600160a01b038381166001600160a01b0319831681178455604051919092169283917f8be0079c531659141344cd1fd0a4f28419497f9722a3daafe3b4186f6b6457e09190a35050565b6014545f906101809061ffff16600161029e565b905061010061ffff82161061019257505f5b604080516060810182526001600160401b038681168252602080830187815283850187815261ffff8781165f818152601390955296909320945185546001600160401b031916941693909317845551600184015590516002909201919091556014805461ffff19169092179182905561010062010000909204161015610248576014805462010000900461ffff1690600261022c836102c0565b91906101000a81548161ffff021916908361ffff160217905550505b50505050565b5f805f805f60a08688031215610262575f80fd5b5050835160208501516040860151606087015160809097015192989197509594509092509050565b634e487b7160e01b5f52601160045260245ffd5b61ffff8181168382160190808211156102b9576102b961028a565b5092915050565b5f61ffff8083168181036102d6576102d661028a565b6001019392505050565b6136f4806102ed5f395ff3fe60806040526004361061031d575f3560e01c806378d76037116101a2578063b6b55f25116100ea578063e3161ddd1161008e578063f2fde38b1161006b578063f2fde38b146109b0578063f40f0f52146109cf578063f8fd9795146109ee578063ff18bf0b14610a0257005b8063e3161ddd1461095b578063ea0d5dcd1461096f578063f1fa0e5a1461099b57005b8063ca23bba8116100c7578063ca23bba8146108f3578063ccd34cd514610912578063d0228e8f14610927578063d578ceab1461094657005b8063b6b55f25146108ac578063bb872b4a146108bf578063c04b5f65146108de57005b80638f66291511610151578063977d58fe1161012e578063977d58fe14610820578063a0b4090514610859578063a9f8d18114610878578063aa78e4b11461088d57005b80638f662915146107de57806390682b89146107f357806392e8990e1461080757005b806386f36e821161017f57806386f36e82146107845780638ae39cac146107a35780638da5cb5b146107b857005b806378d760371461073c578063817b1cd21461075b57806384b768241461077057005b806348cd4cb1116102655780635ee6efd01161021457806366fe9f8a116101f157806366fe9f8a146106df57806368226601146106f4578063715018a614610709578063745400c91461071d57005b80635ee6efd014610627578063605fba67146106465780636386c1c71461066557005b80634dda5518116102425780634dda5518146105ad5780635664b199146105f45780635e42b4551461061357005b806348cd4cb1146105545780634a4fbeec146105695780634ac4b6e01461059857005b8063372500ab116102cc5780633f138d4b116102a95780633f138d4b146104ec578063423975f31461050b5780634623635e1461052057806348b151661461053f57005b8063372500ab146104785780633a18d8c01461048c5780633a58afd4146104cd57005b80632498e780116102fa5780632498e7801461043157806326d160c7146104455780633279beab1461045957005b80630245534614610326578063096abd33146103585780631959a0021461036e57005b3661032457005b005b348015610331575f80fd5b50610345610340366004613461565b610a0a565b6040519081526020015b60405180910390f35b348015610363575f80fd5b506103456201518081565b348015610379575f80fd5b506103de610388366004613493565b6012602052805f5260405f205f91509050805f01549080600101549080600201549080600301549080600401549080600501549080600601549080600701549080600801549080600901549080600a015490508b565b604080519b8c5260208c019a909a52988a01979097526060890195909552608088019390935260a087019190915260c086015260e08501526101008401526101208301526101408201526101600161034f565b34801561043c575f80fd5b50610324610aa5565b348015610450575f80fd5b50610345610c6a565b348015610464575f80fd5b50610324610473366004613461565b610cbf565b348015610483575f80fd5b50610324610d38565b348015610497575f80fd5b506014546104b490640100000000900467ffffffffffffffff1681565b60405167ffffffffffffffff909116815260200161034f565b3480156104d8575f80fd5b506103456104e7366004613493565b610d55565b3480156104f7575f80fd5b506103246105063660046134ac565b610de6565b348015610516575f80fd5b50610345600e5481565b34801561052b575f80fd5b5061032461053a3660046134d4565b610f9e565b34801561054a575f80fd5b5061034560075481565b34801561055f575f80fd5b5061034560055481565b348015610574575f80fd5b50610588610583366004613493565b611050565b604051901515815260200161034f565b3480156105a3575f80fd5b5061034560105481565b3480156105b8575f80fd5b506105df6105c7366004613461565b600b6020525f90815260409020805460019091015482565b6040805192835260208301919091520161034f565b3480156105ff575f80fd5b5061032461060e366004613461565b611097565b34801561061e575f80fd5b50610345611138565b348015610632575f80fd5b50610324610641366004613461565b611146565b348015610651575f80fd5b50610345610660366004613493565b61128e565b348015610670575f80fd5b5061068461067f366004613493565b611361565b604080519b8c5260208c019a909a52988a01979097526060890195909552608088019390935260a087019190915260c0860152151560e08501521515610100840152151561012083015215156101408201526101600161034f565b3480156106ea575f80fd5b5061034560095481565b3480156106ff575f80fd5b50610345600f5481565b348015610714575f80fd5b506103246114a3565b348015610728575f80fd5b50610324610737366004613461565b6114b4565b348015610747575f80fd5b50610324610756366004613461565b6117a7565b348015610766575f80fd5b50610345600d5481565b34801561077b575f80fd5b50610324611853565b34801561078f575f80fd5b5061032461079e3660046134f4565b611962565b3480156107ae575f80fd5b5061034560045481565b3480156107c3575f80fd5b505f546040516001600160a01b03909116815260200161034f565b3480156107e9575f80fd5b50610345600c5481565b3480156107fe575f80fd5b50610324611a0d565b348015610812575f80fd5b506008546105889060ff1681565b34801561082b575f80fd5b5061058861083a366004613493565b6001600160a01b03165f90815260126020526040902060070154151590565b348015610864575f80fd5b5061032461087336600461351b565b611ab2565b348015610883575f80fd5b5061034560065481565b348015610898575f80fd5b506103246108a7366004613461565b611b80565b6103246108ba366004613461565b611b9b565b3480156108ca575f80fd5b506103246108d9366004613461565b611e94565b3480156108e9575f80fd5b5061034560035481565b3480156108fe575f80fd5b5061034561090d366004613493565b611edf565b34801561091d575f80fd5b50610345600a5481565b348015610932575f80fd5b50610345610941366004613493565b611f94565b348015610951575f80fd5b5061034560115481565b348015610966575f80fd5b50610324612018565b34801561097a575f80fd5b5061098e610989366004613493565b612020565b60405161034f919061353b565b3480156109a6575f80fd5b5061034560025481565b3480156109bb575f80fd5b506103246109ca366004613493565b6121a3565b3480156109da575f80fd5b506103456109e9366004613493565b6121f6565b3480156109f9575f80fd5b5061032461236a565b610324612584565b5f8161025814158015610a1f5750816104b014155b15610a2b57505f919050565b5f610a34612610565b9050805f03610a4557505f92915050565b5f610a4f84612621565b90505f6007546301e13380610a649190613598565b90505f81600454610a7591906135ab565b90505f610a85826127108761269a565b9050610a9a8185670de0b6b3a764000061269a565b979650505050505050565b610aad61274b565b7f26c3053a9ab1625d44b90708e16d52b35ab3cfb0d872f84b29e76c8f0cee851b5f819052600b6020908152604080518082019091527f7dd48b7c66694aa214cb5144594198d018e75c5f0ac58384a5359e1c793dddc55481527f7dd48b7c66694aa214cb5144594198d018e75c5f0ac58384a5359e1c793dddc65491810182905290610b815760405162461bcd60e51b815260206004820152601160248201527f4e6f2070656e64696e67206368616e676500000000000000000000000000000060448201526064015b60405180910390fd5b8060200151421015610bd55760405162461bcd60e51b815260206004820152601460248201527f54696d656c6f636b206e6f7420657870697265640000000000000000000000006044820152606401610b78565b610bdd612790565b80516004555f828152600b6020908152604080832083815560010192909255825191519182527f0c4d677eef92893ac7ec52faf8140fc6c851ab4736302b4f3a89dfb20696a0df910160405180910390a1805160405190815282907f31564d9c3e497cbcaea3bfc6814d1c86ebf66b3fe325b5f5b327434f5885436e906020015b60405180910390a25050565b5f80610c74612610565b9050805f03610c84575f91505090565b5f6007546301e13380610c979190613598565b90505f81600454610ca891906135ab565b9050610cb7816127108561269a565b935050505090565b610cc761274b565b610ccf612790565b5f610cd86129a6565b905080821115610d2a5760405162461bcd60e51b815260206004820152601960248201527f43616e6e6f74207769746864726177207072696e636970616c000000000000006044820152606401610b78565b610d3433836129cc565b5050565b610d40612a70565b610d4a335f612ab3565b610d5360018055565b565b6001600160a01b0381165f90815260126020526040812060078101548203610d7f57505f92915050565b5f600754600354610d909190613598565b9050808260070154610da291906135c8565b4310610db157505f9392505050565b5f43828460070154610dc391906135c8565b610dcd91906135db565b905060075481610ddd91906135ab565b95945050505050565b610dee61274b565b6001600160a01b038216610e445760405162461bcd60e51b815260206004820152601660248201527f6e6174697665206e6f74207265636f76657261626c65000000000000000000006044820152606401610b78565b604051336024820152604481018290525f906001600160a01b0384169060640160408051601f198184030181529181526020820180517bffffffffffffffffffffffffffffffffffffffffffffffffffffffff167fa9059cbb0000000000000000000000000000000000000000000000000000000017905251610ec791906135ee565b5f604051808303815f865af19150503d805f8114610f00576040519150601f19603f3d011682016040523d82523d5f602084013e610f05565b606091505b5050905080610f565760405162461bcd60e51b815260206004820152601560248201527f546f6b656e207472616e73666572206661696c656400000000000000000000006044820152606401610b78565b604080516001600160a01b0385168152602081018490527f74545154aac348a3eac92596bd1971957ca94795f4e954ec5f613b55fab7812991015b60405180910390a1505050565b610fa661274b565b610fae612790565b5f82118015610fbc57505f81115b6110085760405162461bcd60e51b815260206004820152600f60248201527f496e76616c696420706572696f647300000000000000000000000000000000006044820152606401610b78565b6002829055600381905560408051838152602081018390527f8e7237c327b2c040e122ee8871f17435fda2eae7d8e36798de13714b60f2b6ee91015b60405180910390a15050565b6001600160a01b0381165f9081526012602052604081206004810154820361107a57505f92915050565b8060060154816004015461108e91906135c8565b43109392505050565b61109f61274b565b5f811180156110af5750603c8111155b6110fb5760405162461bcd60e51b815260206004820152600d60248201527f42616420626c6f636b54696d65000000000000000000000000000000000000006044820152606401610b78565b600780549082905560408051828152602081018490527e24be6dc070e4a35f5e69c2c31342ac959334f49c5b4b62cc1033d86e8351979101611044565b5f6111416129a6565b905090565b61114e61274b565b611156612790565b620f42408111156111a95760405162461bcd60e51b815260206004820152600c60248201527f41505920746f6f206869676800000000000000000000000000000000000000006044820152606401610b78565b5f6111b2612610565b90505f6007546301e133806111c79190613598565b905081156111ed576111e582846111e0846127106135ab565b61269a565b60045561125b565b60405162461bcd60e51b815260206004820152603360248201527f4e6f20616374697665207072696e636970616c202d207573652073657452657760448201527f617264506572426c6f636b20696e7374656164000000000000000000000000006064820152608401610b78565b7f0c4d677eef92893ac7ec52faf8140fc6c851ab4736302b4f3a89dfb20696a0df600454604051610f9191815260200190565b6001600160a01b0381165f908152601260205260408120600a8101548290158015906112be575081600a01544310155b156112d55760098201546112d290826135c8565b90505b60018201545f8190036112ea57509392505050565b5f6007546002546112fb9190613598565b90505f81431161130b575f611315565b61131582436135db565b90505f61132182612cdf565b600387015490915080821115611354576113478561133f83856135db565b600a5461269a565b61135190876135c8565b95505b5093979650505050505050565b6001600160a01b0381165f9081526012602052604081208054600582015460088301546004840154929493849384929183918291829182918291156113cb5760075460048201546113b290436135db565b6113bc91906135ab565b6113c690426135db565b6113cd565b5f5b9a5080600701545f14611406576007548160070154436113ed91906135db565b6113f791906135ab565b61140190426135db565b611408565b5f5b60048201549098501561144b5761141f898c6135c8565b99508060060154816004015461143591906135c8565b4310945084158561144857506007810154155b92505b60078101541561149357600193505f60075460035461146a9190613598565b90506003548961147a91906135c8565b965080826007015461148c91906135c8565b4310159250505b5091939597999b90929496989a50565b6114ab61274b565b610d535f612edd565b6114bc612a70565b335f90815260126020526040902081158015906114da575080548211155b6115265760405162461bcd60e51b815260206004820152600a60248201527f42616420616d6f756e74000000000000000000000000000000000000000000006044820152606401610b78565b5f8160040154116115645760405162461bcd60e51b81526020600482015260086024820152674e6f207374616b6560c01b6044820152606401610b78565b6007810154156115b65760405162461bcd60e51b815260206004820152601160248201527f416c7265616479207265717565737465640000000000000000000000000000006044820152606401610b78565b806006015481600401546115ca91906135c8565b4310156116195760405162461bcd60e51b815260206004820152600c60248201527f5374616b65206c6f636b656400000000000000000000000000000000000000006044820152606401610b78565b611621612790565b61162b335f612ab3565b5f61164b8361163d8460050154612621565b670de0b6b3a764000061269a565b90505f60075460025461165e9190613598565b90505f81431161166e575f611678565b61167882436135db565b90505f61168482612cdf565b90505f81600c5461169591906135db565b905080156116d7575f6116ab8683600a5461269a565b905080876009015f8282546116c091906135c8565b909155506116d0905085436135c8565b600a880155505b84866001015f8282546116ea91906135db565b9250508190555084600e5f82825461170291906135db565b909155505043600787015560088601879055600f80548891905f906117289084906135c8565b925050819055506117428660010154600c54600a5461269a565b60028701556003545f9061175690426135c8565b604080518a81526020810183905291925033917fd72eb5d043f24a0168ae744d5c44f9596fd673a26bf74d9646bff4b844882d14910160405180910390a2505050505050506117a460018055565b50565b6117af61274b565b604080518082019091528181527f26c3053a9ab1625d44b90708e16d52b35ab3cfb0d872f84b29e76c8f0cee851b90602081016117ef62015180426135c8565b90525f828152600b6020908152604090912082518155910151600190910155807f4107c16102ca593afea4ac800deb7d36407d3f25e61cccd6628094793f668ffe8361183e62015180426135c8565b60408051928352602083019190915201610c5e565b61185b612a70565b335f90815260126020526040902060078101546118a75760405162461bcd60e51b815260206004820152600a602482015269139bc81c995c5d595cdd60b21b6044820152606401610b78565b6118af612790565b6118b9335f612ab3565b5f6118cf826008015461163d8460050154612621565b905080826001015f8282546118e491906135c8565b9250508190555080600e5f8282546118fc91906135c8565b90915550506008820154600f80545f906119179084906135db565b90915550505f600783018190556008830181905560098301819055600a808401919091556001830154600c54915461194f929061269a565b82600201819055505050610d5360018055565b61196a61274b565b60068167ffffffffffffffff161015801561199157506103e88167ffffffffffffffff1611155b6119dd5760405162461bcd60e51b815260206004820152601060248201527f496e76616c696420696e74657276616c000000000000000000000000000000006044820152606401610b78565b6014805467ffffffffffffffff909216640100000000026bffffffffffffffff0000000019909216919091179055565b611a1561274b565b7f26c3053a9ab1625d44b90708e16d52b35ab3cfb0d872f84b29e76c8f0cee851b5f818152600b6020527f7dd48b7c66694aa214cb5144594198d018e75c5f0ac58384a5359e1c793dddc58190557f7dd48b7c66694aa214cb5144594198d018e75c5f0ac58384a5359e1c793dddc681905560405182917ffbe037eef108662db90b0a679b0dde447f266ad1254d34073a5ad826453dbe7c91a250565b611aba61274b565b611ac2612790565b8115611b3e5760085460ff161580611adb575060095481115b611b275760405162461bcd60e51b815260206004820152601360248201527f4c696d6974206d75737420696e637265617365000000000000000000000000006044820152606401610b78565b6008805460ff191660011790556009819055611b4d565b6008805460ff191690555f6009555b7f241f67ee5f41b7a5cabf911367329be7215900f602ebfc47f89dce2a6bcd847c60095460405161104491815260200190565b611b88612a70565b611b923382612ab3565b6117a460018055565b611ba3612a70565b806102581480611bb45750806104b0145b611c005760405162461bcd60e51b815260206004820152601060248201527f496e76616c6964206475726174696f6e000000000000000000000000000000006044820152606401610b78565b335f9081526012602052604090203480611c5c5760405162461bcd60e51b815260206004820152600c60248201527f5a65726f206465706f73697400000000000000000000000000000000000000006044820152606401610b78565b600782015415611cae5760405162461bcd60e51b815260206004820152600e60248201527f496e206578697420706572696f640000000000000000000000000000000000006044820152606401610b78565b60085460ff1615611d16576009548254611cc890836135c8565b1115611d165760405162461bcd60e51b815260206004820152600b60248201527f41626f7665206c696d69740000000000000000000000000000000000000000006044820152606401610b78565b611d1e612790565b815415611d8757611d2f335f612ab3565b81600501548314611d825760405162461bcd60e51b815260206004820152601160248201527f4475726174696f6e206d69736d617463680000000000000000000000000000006044820152606401610b78565b611d97565b60058201839055600c5460038301555b5f611da184612621565b90505f611db78383670de0b6b3a764000061269a565b905080846001015f828254611dcc91906135c8565b9250508190555080600e5f828254611de491906135c8565b90915550508354839085905f90611dfc9084906135c8565b9250508190555082600d5f828254611e1491906135c8565b9091555050436004850155600754611e2c9086613598565b8460060181905550611e478460010154600c54600a5461269a565b6002850155604080518481526020810187905233917f90890809c654f11d6e72a28fa60149770a0d11ec6c92319d6ceb2bb0a4ea1a15910160405180910390a2505050506117a460018055565b611e9c61274b565b611ea4612790565b60048190556040518181527f0c4d677eef92893ac7ec52faf8140fc6c851ab4736302b4f3a89dfb20696a0df9060200160405180910390a150565b6001600160a01b0381165f908152601260205260408120600a810154829015801590611f0e575081600a015443105b15611f25576009820154611f2290826135c8565b90505b60018201545f819003611f3a57509392505050565b5f611f43612f44565b90505f600754600254611f569190613598565b90505f814311611f66575f611f70565b611f7082436135db565b90505f611f7c82612cdf565b905080841115611354576113478561133f83876135db565b6001600160a01b0381165f90815260126020526040812060048101548203611fbe57505f92915050565b80600601548160040154611fd291906135c8565b4310611fe057505f92915050565b5f4382600601548360040154611ff691906135c8565b61200091906135db565b90506007548161201091906135ab565b949350505050565b610d53612790565b6001600160a01b0381165f9081526012602052604081208054606092036120675750506040805180820190915260088152674e6f207374616b6560c01b6020820152919050565b600781015415612112575f6007546003546120829190613598565b905080826007015461209491906135c8565b43106120d657505060408051808201909152601081527f5769746864726177616c20726561647900000000000000000000000000000000602082015292915050565b505060408051808201909152600e81527f496e206578697420706572696f64000000000000000000000000000000000000602082015292915050565b8060060154816004015461212691906135c8565b43101561216857505060408051808201909152600681527f4c6f636b656400000000000000000000000000000000000000000000000000006020820152919050565b505060408051808201909152600881527f556e6c6f636b65640000000000000000000000000000000000000000000000006020820152919050565b6121ab61274b565b6001600160a01b0381166121ed576040517f1e4fbdf70000000000000000000000000000000000000000000000000000000081525f6004820152602401610b78565b6117a481612edd565b6001600160a01b0381165f90815260126020526040812060078101541561221f57505f92915050565b5f612229600e5490565b9050805f0361223b57505f9392505050565b600c54600654431115612327575f6006544361225791906135db565b90505b5f6004541180156122775750600454612274905f19613598565b81115b156122a0575f6004545f1961228c9190613598565b905061229881836135db565b91505061225a565b5f600454826122af91906135ab565b90505f6011546010546122c291906135db565b90505f6122cd6129a6565b90505f8282116122dd575f6122e7565b6122e783836135db565b9050808411156122f5578093505b83156123215786600a548561230a91906135ab565b6123149190613598565b61231e90876135c8565b95505b50505050505b5f612339846001015483600a5461269a565b90508360020154811061235f57600284015461235590826135db565b9695505050505050565b505f95945050505050565b612372612a70565b61237a612790565b612384335f612ab3565b335f90815260126020526040902060078101546123d05760405162461bcd60e51b815260206004820152600a602482015269139bc81c995c5d595cdd60b21b6044820152606401610b78565b5f6007546003546123e19190613598565b90508082600701546123f391906135c8565b4310156124425760405162461bcd60e51b815260206004820152601160248201527f45786974206e6f742066696e69736865640000000000000000000000000000006044820152606401610b78565b6008820154806124945760405162461bcd60e51b815260206004820152600960248201527f4e6f20616d6f756e7400000000000000000000000000000000000000000000006044820152606401610b78565b80835f015f8282546124a691906135db565b9250508190555080600d5f8282546124be91906135db565b9250508190555080600f5f8282546124d691906135db565b90915550505f600784018190556008840181905583549003612520575f60048401819055600684018190556005840181905560018401819055600284018190556003840155612539565b6125338360010154600c54600a5461269a565b60028401555b61254333826129cc565b60405181815233907f7b2a72f0889ae9bb89e8ee7ec3e7c465552d1b76d51df9b0426d0e4e7f39528f9060200160405180910390a2505050610d5360018055565b61258c61274b565b5f34116125db5760405162461bcd60e51b815260206004820152600860248201527f4e6f2076616c75650000000000000000000000000000000000000000000000006044820152606401610b78565b6040513481527fe42dde25409a3e8c7c119c1c722610d9e9bd96e73e3cead774863c9ffdd870d69060200160405180910390a1565b5f600f54600d5461114191906135db565b5f816102580361263a5750670de0b6b3a7640000919050565b816104b00361265257506714d1120d7b160000919050565b60405162461bcd60e51b815260206004820152601060248201527f496e76616c6964206475726174696f6e000000000000000000000000000000006044820152606401610b78565b5f805f6126a78686613074565b91509150815f036126cb578381816126c1576126c1613570565b0492505050612744565b8184116126e2576126e26003851502601118613090565b5f848688095f868103871696879004966002600389028118808a02820302808a02820302808a02820302808a02820302808a02820302808a02909103029181900381900460010185841190960395909502919093039390930492909217029150505b9392505050565b5f546001600160a01b03163314610d53576040517f118cdaa7000000000000000000000000000000000000000000000000000000008152336004820152602401610b78565b600654431161279b57565b5f6127a5600e5490565b9050805f036127b5575043600655565b5f600654436127c491906135db565b90505b5f6004541180156127e457506004546127e1905f19613598565b81115b15612824575f6004545f196127f99190613598565b90508060065f82825461280c91906135c8565b9091555061281c905081836135db565b9150506127c7565b5f6004548261283391906135ab565b600a549091505b5f8211801561284857505f81115b801561285d575061285a815f19613598565b82115b156128745761286d600a82613598565b905061283a565b5f60115460105461288591906135db565b90505f6128906129a6565b90505f8282116128a0575f6128aa565b6128aa83836135db565b9050808511156128b8578094505b841561290157866128c985876135ab565b6128d39190613598565b600c5f8282546128e391906135c8565b925050819055508460105f8282546128fb91906135c8565b90915550505b43600681905560145467ffffffffffffffff640100000000820481169261293b926c01000000000000000000000000900490911690613604565b67ffffffffffffffff161061299d5761295943600c54600e546130a1565b601480547fffffffffffffffffffffffff0000000000000000ffffffffffffffffffffffff166c010000000000000000000000004367ffffffffffffffff16021790555b50505050505050565b600d545f90479081116129b9575f6129c6565b600d546129c690826135db565b91505090565b5f826001600160a01b0316826040515f6040518083038185875af1925050503d805f8114612a15576040519150601f19603f3d011682016040523d82523d5f602084013e612a1a565b606091505b5050905080612a6b5760405162461bcd60e51b815260206004820152601660248201527f4e6174697665207472616e73666572206661696c6564000000000000000000006044820152606401610b78565b505050565b600260015403612aac576040517f3ee5aeb500000000000000000000000000000000000000000000000000000000815260040160405180910390fd5b6002600155565b6001600160a01b0382165f908152601260205260408120600754600254919291612add9190613598565b90505f814311612aed575f612af7565b612af782436135db565b90505f612b0382612cdf565b60038501549091505f8183118015612b1e57505f8660010154115b15612b39576001860154612b369061133f84866135db565b90505b612b41612790565b600a860154819015801590612b5a575086600a01544310155b15612b7e576009870154612b6e90826135c8565b5f60098901819055600a89015590505b5f612b876129a6565b90505f81831115612b985781612b9a565b825b905089811015612bec5760405162461bcd60e51b815260206004820152601860248201527f536c6970706167653a2072657761726420746f6f206c6f7700000000000000006044820152606401610b78565b8015612c5157612bfc8b826129cc565b8060115f828254612c0d91906135c8565b90915550506040518181526001600160a01b038c16907f106f923f993c2149d49b4255ff723acafa1f2d94393f561d3eda32ae348f72419060200160405180910390a25b8215612caf57828110612c6a5760038901869055612cb7565b5f858711612c78575f612c82565b612c8286886135db565b90508015612ca9575f612c9683838761269a565b9050612ca281886135c8565b60038c0155505b50612cb7565b600389018690555b612cca8960010154600c54600a5461269a565b89600201819055505050505050505050505050565b6014545f9062010000900461ffff168103612cfb57505f919050565b5f80612d0684613185565b915091505f80612d18835f01516132bd565b9150915083612d2c57505f95945050505050565b82604001515f03612d44575050602001519392505050565b811580612d685750805f015167ffffffffffffffff168667ffffffffffffffff1610155b15612e4457825f015167ffffffffffffffff168667ffffffffffffffff161115612e37575f612d95612f44565b90505f846020015182612da891906135db565b85519091505f90612dc39067ffffffffffffffff16436135db565b9050805f03612dde5750505060209092015195945050505050565b5f865f015167ffffffffffffffff168a67ffffffffffffffff16612e0291906135db565b905081811115612e0f5750805b612e1a83828461269a565b8760200151612e2991906135c8565b9a9950505050505050505050565b5050602001519392505050565b8251815167ffffffffffffffff918216911603612e68575050602001519392505050565b825181515f91612e7791613604565b67ffffffffffffffff1690505f845f015188612e939190613604565b67ffffffffffffffff1690505f85602001518460200151612eb491906135db565b9050612ec181838561269a565b8660200151612ed091906135c8565b9998505050505050505050565b5f80546001600160a01b038381167fffffffffffffffffffffffff0000000000000000000000000000000000000000831681178455604051919092169283917f8be0079c531659141344cd1fd0a4f28419497f9722a3daafe3b4186f6b6457e09190a35050565b5f80612f4f600e5490565b9050805f03612f60575050600c5490565b6006544311612f71575050600c5490565b5f60065443612f8091906135db565b9050805f03612f9357600c549250505090565b5f600454118015612fb05750600454612fad905f19613598565b81115b15612fd9575f6004545f19612fc59190613598565b9050612fd181836135db565b915050612f93565b5f60045482612fe891906135ab565b90505f601154601054612ffb91906135db565b90505f6130066129a6565b90505f828211613016575f613020565b61302083836135db565b90508084111561302e578093505b835f0361304357600c54965050505050505090565b85600a548561305291906135ab565b61305c9190613598565b600c5461306991906135c8565b965050505050505090565b5f805f1983850993909202808410938190039390930393915050565b634e487b715f52806020526024601cfd5b6014545f906130b59061ffff16600161362c565b905061010061ffff8216106130c757505f5b6040805160608101825267ffffffffffffffff8681168252602080830187815283850187815261ffff8781165f8181526013909552969093209451855467ffffffffffffffff1916941693909317845551600184015590516002909201919091556014805461ffff1916909217918290556101006201000090920416101561317f576014805462010000900461ffff1690600261316383613647565b91906101000a81548161ffff021916908361ffff160217905550505b50505050565b604080516060810182525f80825260208201819052918101829052601454604080516060810182525f8082526020820181905291810182905261ffff909216915f5b60145461ffff62010000909104811690841610156132b25761ffff84165f908152601360209081526040918290208251606081018452815467ffffffffffffffff1680825260018301549382019390935260029091015492810192909252158015906132415750805167ffffffffffffffff808a16911611155b8015613265575081158061326557508251815167ffffffffffffffff918216911610155b1561327257809250600191505b8461ffff165f036132915761328a6001610100613667565b945061329f565b8461329b81613682565b9550505b836132a981613647565b945050506131c7565b969095509350505050565b604080516060810182525f808252602082018190529181018290526014545f9081906132ee9061ffff16600161362c565b60145461ffff918216620100009091049091161061334b576014546101009061ffff6201000082048116916133259184911661362c565b61333090600161362c565b61333a9190613667565b613344919061369e565b9050613373565b60145461ffff6201000082048116916133669116600161362c565b6133709190613667565b90505b805b60145461ffff620100009091048116908416101561342f5761ffff81165f908152601360209081526040918290208251606081018452815467ffffffffffffffff90811680835260018401549483019490945260029092015493810193909352881610156133eb57600197909650945050505050565b60145461ffff90811690831603613402575061342f565b61010061341083600161362c565b61341a919061369e565b91508361342681613647565b94505050613375565b5f60405180606001604052805f67ffffffffffffffff1681526020015f81526020015f81525094509450505050915091565b5f60208284031215613471575f80fd5b5035919050565b80356001600160a01b038116811461348e575f80fd5b919050565b5f602082840312156134a3575f80fd5b61274482613478565b5f80604083850312156134bd575f80fd5b6134c683613478565b946020939093013593505050565b5f80604083850312156134e5575f80fd5b50508035926020909101359150565b5f60208284031215613504575f80fd5b813567ffffffffffffffff81168114612744575f80fd5b5f806040838503121561352c575f80fd5b823580151581146134c6575f80fd5b602081525f82518060208401528060208501604085015e5f604082850101526040601f19601f83011684010191505092915050565b634e487b7160e01b5f52601260045260245ffd5b634e487b7160e01b5f52601160045260245ffd5b5f826135a6576135a6613570565b500490565b80820281158282048414176135c2576135c2613584565b92915050565b808201808211156135c2576135c2613584565b818103818111156135c2576135c2613584565b5f82518060208501845e5f920191825250919050565b67ffffffffffffffff82811682821603908082111561362557613625613584565b5092915050565b61ffff81811683821601908082111561362557613625613584565b5f61ffff80831681810361365d5761365d613584565b6001019392505050565b61ffff82811682821603908082111561362557613625613584565b5f61ffff82168061369557613695613584565b5f190192915050565b5f61ffff808416806136b2576136b2613570565b9216919091069291505056fea264697066735822122056dc91991c61dd11806af467d494c5b902e975e70f15881deff2b0e0212bbd5b64736f6c63430008190033",
  "linkReferences": {},
  "deployedLinkReferences": {}
}