{
  "_format": "hh-sol-artifact-1",
  "contractName": "SmartChefNative",
  "sourceName": "contracts/SmartChefNative.sol",
  "abi": [
    {
      "inputs": [
        {
          "internalType": "uint256",
          "name": "_poolLimitPerUser",
          "type": "uint256"
        },
        {
          "internalType": "uint256",
          "name": "_rewardDelayPeriod",
          "type": "uint256"
        },
        {
          "internalType": "uint256",
          "name": "_exitPeriod",
          "type": "uint256"
        },
        {
          "internalType": "uint256",
          "name": "_rewardPerBlock",
          "type": "uint256"
        },
        {
          "internalType": "uint256",
          "name": "_startBlock",
          "type": "uint256"
        }
      ],
      "stateMutability": "nonpayable",
      "type": "constructor"
    },
    {
      "inputs": [
        {
          "internalType": "address",
          "name": "owner",
          "type": "address"
        }
      ],
      "name": "OwnableInvalidOwner",
      "type": "error"
    },
    {
      "inputs": [
        {
          "internalType": "address",
          "name": "account",
          "type": "address"
        }
      ],
      "name": "OwnableUnauthorizedAccount",
      "type": "error"
    },
    {
      "inputs": [],
      "name": "ReentrancyGuardReentrantCall",
      "type": "error"
    },
    {
      "anonymous": false,
      "inputs": [
        {
          "indexed": false,
          "internalType": "address",
          "name": "tokenRecovered",
          "type": "address"
        },
        {
          "indexed": false,
          "internalType": "uint256",
          "name": "amount",
          "type": "uint256"
        }
      ],
      "name": "AdminTokenRecovery",
      "type": "event"
    },
    {
      "anonymous": false,
      "inputs": [
        {
          "indexed": false,
          "internalType": "uint256",
          "name": "oldBlockTime",
          "type": "uint256"
        },
        {
          "indexed": false,
          "internalType": "uint256",
          "name": "newBlockTime",
          "type": "uint256"
        }
      ],
      "name": "BlockTimeUpdated",
      "type": "event"
    },
    {
      "anonymous": false,
      "inputs": [
        {
          "indexed": true,
          "internalType": "address",
          "name": "user",
          "type": "address"
        },
        {
          "indexed": false,
          "internalType": "uint256",
          "name": "amount",
          "type": "uint256"
        },
        {
          "indexed": false,
          "internalType": "uint256",
          "name": "duration",
          "type": "uint256"
        }
      ],
      "name": "Deposit",
      "type": "event"
    },
    {
      "anonymous": false,
      "inputs": [
        {
          "indexed": false,
          "internalType": "uint256",
          "name": "poolLimitPerUser",
          "type": "uint256"
        }
      ],
      "name": "NewPoolLimit",
      "type": "event"
    },
    {
      "anonymous": false,
      "inputs": [
        {
          "indexed": false,
          "internalType": "uint256",
          "name": "newRate",
          "type": "uint256"
        }
      ],
      "name": "NewRewardPerBlock",
      "type": "event"
    },
    {
      "anonymous": false,
      "inputs": [
        {
          "indexed": true,
          "internalType": "address",
          "name": "previousOwner",
          "type": "address"
        },
        {
          "indexed": true,
          "internalType": "address",
          "name": "newOwner",
          "type": "address"
        }
      ],
      "name": "OwnershipTransferred",
      "type": "event"
    },
    {
      "anonymous": false,
      "inputs": [
        {
          "indexed": true,
          "internalType": "bytes32",
          "name": "paramHash",
          "type": "bytes32"
        }
      ],
      "name": "ParameterChangeCancelled",
      "type": "event"
    },
    {
      "anonymous": false,
      "inputs": [
        {
          "indexed": true,
          "internalType": "bytes32",
          "name": "paramHash",
          "type": "bytes32"
        },
        {
          "indexed": false,
          "internalType": "uint256",
          "name": "value",
          "type": "uint256"
        }
      ],
      "name": "ParameterChangeExecuted",
      "type": "event"
    },
    {
      "anonymous": false,
      "inputs": [
        {
          "indexed": true,
          "internalType": "bytes32",
          "name": "paramHash",
          "type": "bytes32"
        },
        {
          "indexed": false,
          "internalType": "uint256",
          "name": "value",
          "type": "uint256"
        },
        {
          "indexed": false,
          "internalType": "uint256",
          "name": "executeAfter",
          "type": "uint256"
        }
      ],
      "name": "ParameterChangeScheduled",
      "type": "event"
    },
    {
      "anonymous": false,
      "inputs": [
        {
          "indexed": false,
          "internalType": "uint256",
          "name": "rewardDelayPeriod",
          "type": "uint256"
        },
        {
          "indexed": false,
          "internalType": "uint256",
          "name": "exitPeriod",
          "type": "uint256"
        }
      ],
      "name": "PeriodsUpdated",
      "type": "event"
    },
    {
      "anonymous": false,
      "inputs": [
        {
          "indexed": true,
          "internalType": "address",
          "name": "user",
          "type": "address"
        },
        {
          "indexed": false,
          "internalType": "uint256",
          "name": "amount",
          "type": "uint256"
        }
      ],
      "name": "RewardClaimed",
      "type": "event"
    },
    {
      "anonymous": false,
      "inputs": [
        {
          "indexed": false,
          "internalType": "uint256",
          "name": "amount",
          "type": "uint256"
        }
      ],
      "name": "RewardsFunded",
      "type": "event"
    },
    {
      "anonymous": false,
      "inputs": [
        {
          "indexed": true,
          "internalType": "address",
          "name": "user",
          "type": "address"
        },
        {
          "indexed": false,
          "internalType": "uint256",
          "name": "amount",
          "type": "uint256"
        }
      ],
      "name": "WithdrawExecuted",
      "type": "event"
    },
    {
      "anonymous": false,
      "inputs": [
        {
          "indexed": true,
          "internalType": "address",
          "name": "user",
          "type": "address"
        },
        {
          "indexed": false,
          "internalType": "uint256",
          "name": "amount",
          "type": "uint256"
        },
        {
          "indexed": false,
          "internalType": "uint256",
          "name": "availableTime",
          "type": "uint256"
        }
      ],
      "name": "WithdrawRequested",
      "type": "event"
    },
    {
      "stateMutability": "payable",
      "type": "fallback"
    },
    {
      "inputs": [],
      "name": "EXIT_PERIOD",
      "outputs": [
        {
          "internalType": "uint256",
          "name": "",
          "type": "uint256"
        }
      ],
      "stateMutability": "view",
      "type": "function"
    },
    {
      "inputs": [],
      "name": "PARAM_CHANGE_DELAY",
      "outputs": [
        {
          "internalType": "uint256",
          "name": "",
          "type": "uint256"
        }
      ],
      "stateMutability": "view",
      "type": "function"
    },
    {
      "inputs": [],
      "name": "PRECISION_FACTOR",
      "outputs": [
        {
          "internalType": "uint256",
          "name": "",
          "type": "uint256"
        }
      ],
      "stateMutability": "view",
      "type": "function"
    },
    {
      "inputs": [],
      "name": "REWARD_DELAY_PERIOD",
      "outputs": [
        {
          "internalType": "uint256",
          "name": "",
          "type": "uint256"
        }
      ],
      "stateMutability": "view",
      "type": "function"
    },
    {
      "inputs": [],
      "name": "accTokenPerShare",
      "outputs": [
        {
          "internalType": "uint256",
          "name": "",
          "type": "uint256"
        }
      ],
      "stateMutability": "view",
      "type": "function"
    },
    {
      "inputs": [],
      "name": "blockTime",
      "outputs": [
        {
          "internalType": "uint256",
          "name": "",
          "type": "uint256"
        }
      ],
      "stateMutability": "view",
      "type": "function"
    },
    {
      "inputs": [],
      "name": "cancelRewardPerBlockChange",
      "outputs": [],
      "stateMutability": "nonpayable",
      "type": "function"
    },
    {
      "inputs": [],
      "name": "cancelWithdraw",
      "outputs": [],
      "stateMutability": "nonpayable",
      "type": "function"
    },
    {
      "inputs": [],
      "name": "checkpointInterval",
      "outputs": [
        {
          "internalType": "uint64",
          "name": "",
          "type": "uint64"
        }
      ],
      "stateMutability": "view",
      "type": "function"
    },
    {
      "inputs": [],
      "name": "claimRewards",
      "outputs": [],
      "stateMutability": "nonpayable",
      "type": "function"
    },
    {
      "inputs": [
        {
          "internalType": "uint256",
          "name": "minReward",
          "type": "uint256"
        }
      ],
      "name": "claimRewardsWithSlippage",
      "outputs": [],
      "stateMutability": "nonpayable",
      "type": "function"
    },
    {
      "inputs": [
        {
          "internalType": "address",
          "name": "_user",
          "type": "address"
        }
      ],
      "name": "claimableView",
      "outputs": [
        {
          "internalType": "uint256",
          "name": "",
          "type": "uint256"
        }
      ],
      "stateMutability": "view",
      "type": "function"
    },
    {
      "inputs": [
        {
          "internalType": "uint256",
          "name": "_duration",
          "type": "uint256"
        }
      ],
      "name": "deposit",
      "outputs": [],
      "stateMutability": "payable",
      "type": "function"
    },
    {
      "inputs": [
        {
          "internalType": "uint256",
          "name": "_amount",
          "type": "uint256"
        }
      ],
      "name": "emergencyRewardWithdraw",
      "outputs": [],
      "stateMutability": "nonpayable",
      "type": "function"
    },
    {
      "inputs": [],
      "name": "executeRewardPerBlockChange",
      "outputs": [],
      "stateMutability": "nonpayable",
      "type": "function"
    },
    {
      "inputs": [],
      "name": "executeWithdraw",
      "outputs": [],
      "stateMutability": "nonpayable",
      "type": "function"
    },
    {
      "inputs": [],
      "name": "fundRewards",
      "outputs": [],
      "stateMutability": "payable",
      "type": "function"
    },
    {
      "inputs": [],
      "name": "getBaseAPY",
      "outputs": [
        {
          "internalType": "uint256",
          "name": "",
          "type": "uint256"
        }
      ],
      "stateMutability": "view",
      "type": "function"
    },
    {
      "inputs": [
        {
          "internalType": "uint256",
          "name": "_duration",
          "type": "uint256"
        }
      ],
      "name": "getEstimatedAPY",
      "outputs": [
        {
          "internalType": "uint256",
          "name": "",
          "type": "uint256"
        }
      ],
      "stateMutability": "view",
      "type": "function"
    },
    {
      "inputs": [],
      "name": "getRewardBalance",
      "outputs": [
        {
          "internalType": "uint256",
          "name": "",
          "type": "uint256"
        }
      ],
      "stateMutability": "view",
      "type": "function"
    },
    {
      "inputs": [
        {
          "internalType": "address",
          "name": "_user",
          "type": "address"
        }
      ],
      "name": "getUserInfo",
      "outputs": [
        {
          "internalType": "uint256",
          "name": "stakedAmount",
          "type": "uint256"
        },
        {
          "internalType": "uint256",
          "name": "lockStartTime",
          "type": "uint256"
        },
        {
          "internalType": "uint256",
          "name": "lockEndTime",
          "type": "uint256"
        },
        {
          "internalType": "uint256",
          "name": "lockDuration",
          "type": "uint256"
        },
        {
          "internalType": "uint256",
          "name": "withdrawRequestTime",
          "type": "uint256"
        },
        {
          "internalType": "uint256",
          "name": "withdrawalAmount",
          "type": "uint256"
        },
        {
          "internalType": "uint256",
          "name": "withdrawalAvailableTime",
          "type": "uint256"
        },
        {
          "internalType": "bool",
          "name": "isLocked_",
          "type": "bool"
        },
        {
          "internalType": "bool",
          "name": "inExitPeriod",
          "type": "bool"
        },
        {
          "internalType": "bool",
          "name": "canRequestWithdraw",
          "type": "bool"
        },
        {
          "internalType": "bool",
          "name": "canExecuteWithdraw",
          "type": "bool"
        }
      ],
      "stateMutability": "view",
      "type": "function"
    },
    {
      "inputs": [
        {
          "internalType": "address",
          "name": "_user",
          "type": "address"
        }
      ],
      "name": "getUserStatus",
      "outputs": [
        {
          "internalType": "string",
          "name": "",
          "type": "string"
        }
      ],
      "stateMutability": "view",
      "type": "function"
    },
    {
      "inputs": [],
      "name": "hasUserLimit",
      "outputs": [
        {
          "internalType": "bool",
          "name": "",
          "type": "bool"
        }
      ],
      "stateMutability": "view",
      "type": "function"
    },
    {
      "inputs": [
        {
          "internalType": "address",
          "name": "_user",
          "type": "address"
        }
      ],
      "name": "isInExitPeriod",
      "outputs": [
        {
          "internalType": "bool",
          "name": "",
          "type": "bool"
        }
      ],
      "stateMutability": "view",
      "type": "function"
    },
    {
      "inputs": [
        {
          "internalType": "address",
          "name": "_user",
          "type": "address"
        }
      ],
      "name": "isLocked",
      "outputs": [
        {
          "internalType": "bool",
          "name": "",
          "type": "bool"
        }
      ],
      "stateMutability": "view",
      "type": "function"
    },
    {
      "inputs": [],
      "name": "lastRewardBlock",
      "outputs": [
        {
          "internalType": "uint256",
          "name": "",
          "type": "uint256"
        }
      ],
      "stateMutability": "view",
      "type": "function"
    },
    {
      "inputs": [
        {
          "internalType": "address",
          "name": "_user",
          "type": "address"
        }
      ],
      "name": "lockedView",
      "outputs": [
        {
          "internalType": "uint256",
          "name": "",
          "type": "uint256"
        }
      ],
      "stateMutability": "view",
      "type": "function"
    },
    {
      "inputs": [],
      "name": "owner",
      "outputs": [
        {
          "internalType": "address",
          "name": "",
          "type": "address"
        }
      ],
      "stateMutability": "view",
      "type": "function"
    },
    {
      "inputs": [
        {
          "internalType": "bytes32",
          "name": "",
          "type": "bytes32"
        }
      ],
      "name": "pendingChanges",
      "outputs": [
        {
          "internalType": "uint256",
          "name": "value",
          "type": "uint256"
        },
        {
          "internalType": "uint256",
          "name": "executeAfter",
          "type": "uint256"
        }
      ],
      "stateMutability": "view",
      "type": "function"
    },
    {
      "inputs": [
        {
          "internalType": "address",
          "name": "_user",
          "type": "address"
        }
      ],
      "name": "pendingReward",
      "outputs": [
        {
          "internalType": "uint256",
          "name": "",
          "type": "uint256"
        }
      ],
      "stateMutability": "view",
      "type": "function"
    },
    {
      "inputs": [],
      "name": "poolLimitPerUser",
      "outputs": [
        {
          "internalType": "uint256",
          "name": "",
          "type": "uint256"
        }
      ],
      "stateMutability": "view",
      "type": "function"
    },
    {
      "inputs": [
        {
          "internalType": "address",
          "name": "_tokenAddress",
          "type": "address"
        },
        {
          "internalType": "uint256",
          "name": "_tokenAmount",
          "type": "uint256"
        }
      ],
      "name": "recoverWrongTokens",
      "outputs": [],
      "stateMutability": "nonpayable",
      "type": "function"
    },
    {
      "inputs": [],
      "name": "renounceOwnership",
      "outputs": [],
      "stateMutability": "nonpayable",
      "type": "function"
    },
    {
      "inputs": [
        {
          "internalType": "uint256",
          "name": "_amount",
          "type": "uint256"
        }
      ],
      "name": "requestWithdraw",
      "outputs": [],
      "stateMutability": "nonpayable",
      "type": "function"
    },
    {
      "inputs": [],
      "name": "rewardPerBlock",
      "outputs": [
        {
          "internalType": "uint256",
          "name": "",
          "type": "uint256"
        }
      ],
      "stateMutability": "view",
      "type": "function"
    },
    {
      "inputs": [
        {
          "internalType": "uint256",
          "name": "_newRate",
          "type": "uint256"
        }
      ],
      "name": "scheduleRewardPerBlockChange",
      "outputs": [],
      "stateMutability": "nonpayable",
      "type": "function"
    },
    {
      "inputs": [
        {
          "internalType": "uint256",
          "name": "_apyBps",
          "type": "uint256"
        }
      ],
      "name": "setBaseAPY",
      "outputs": [],
      "stateMutability": "nonpayable",
      "type": "function"
    },
    {
      "inputs": [
        {
          "internalType": "uint256",
          "name": "_rewardPerBlock",
          "type": "uint256"
        }
      ],
      "name": "setRewardPerBlock",
      "outputs": [],
      "stateMutability": "nonpayable",
      "type": "function"
    },
    {
      "inputs": [],
      "name": "startBlock",
      "outputs": [
        {
          "internalType": "uint256",
          "name": "",
          "type": "uint256"
        }
      ],
      "stateMutability": "view",
      "type": "function"
    },
    {
      "inputs": [
        {
          "internalType": "address",
          "name": "_user",
          "type": "address"
        }
      ],
      "name": "timeUntilUnlock",
      "outputs": [
        {
          "internalType": "uint256",
          "name": "",
          "type": "uint256"
        }
      ],
      "stateMutability": "view",
      "type": "function"
    },
    {
      "inputs": [
        {
          "internalType": "address",
          "name": "_user",
          "type": "address"
        }
      ],
      "name": "timeUntilWithdrawalAvailable",
      "outputs": [
        {
          "internalType": "uint256",
          "name": "",
          "type": "uint256"
        }
      ],
      "stateMutability": "view",
      "type": "function"
    },
    {
      "inputs": [],
      "name": "totalAccruedRewards",
      "outputs": [
        {
          "internalType": "uint256",
          "name": "",
          "type": "uint256"
        }
      ],
      "stateMutability": "view",
      "type": "function"
    },
    {
      "inputs": [],
      "name": "totalActiveEffective",
      "outputs": [
        {
          "internalType": "uint256",
          "name": "",
          "type": "uint256"
        }
      ],
      "stateMutability": "view",
      "type": "function"
    },
    {
      "inputs": [],
      "name": "totalClaimedRewards",
      "outputs": [
        {
          "internalType": "uint256",
          "name": "",
          "type": "uint256"
        }
      ],
      "stateMutability": "view",
      "type": "function"
    },
    {
      "inputs": [],
      "name": "totalInExitPeriod",
      "outputs": [
        {
          "internalType": "uint256",
          "name": "",
          "type": "uint256"
        }
      ],
      "stateMutability": "view",
      "type": "function"
    },
    {
      "inputs": [],
      "name": "totalStaked",
      "outputs": [
        {
          "internalType": "uint256",
          "name": "",
          "type": "uint256"
        }
      ],
      "stateMutability": "view",
      "type": "function"
    },
    {
      "inputs": [
        {
          "internalType": "address",
          "name": "newOwner",
          "type": "address"
        }
      ],
      "name": "transferOwnership",
      "outputs": [],
      "stateMutability": "nonpayable",
      "type": "function"
    },
    {
      "inputs": [
        {
          "internalType": "uint256",
          "name": "_newBlockTime",
          "type": "uint256"
        }
      ],
      "name": "updateBlockTime",
      "outputs": [],
      "stateMutability": "nonpayable",
      "type": "function"
    },
    {
      "inputs": [
        {
          "internalType": "uint64",
          "name": "_newInterval",
          "type": "uint64"
        }
      ],
      "name": "updateCheckpointInterval",
      "outputs": [],
      "stateMutability": "nonpayable",
      "type": "function"
    },
    {
      "inputs": [
        {
          "internalType": "uint256",
          "name": "_rewardDelayPeriod",
          "type": "uint256"
        },
        {
          "internalType": "uint256",
          "name": "_exitPeriod",
          "type": "uint256"
        }
      ],
      "name": "updatePeriods",
      "outputs": [],
      "stateMutability": "nonpayable",
      "type": "function"
    },
    {
      "inputs": [],
      "name": "updatePool",
      "outputs": [],
      "stateMutability": "nonpayable",
      "type": "function"
    },
    {
      "inputs": [
        {
          "internalType": "bool",
          "name": "_hasUserLimit",
          "type": "bool"
        },
        {
          "internalType": "uint256",
          "name": "_poolLimitPerUser",
          "type": "uint256"
        }
      ],
      "name": "updatePoolLimitPerUser",
      "outputs": [],
      "stateMutability": "nonpayable",
      "type": "function"
    },
    {
      "inputs": [
        {
          "internalType": "address",
          "name": "",
          "type": "address"
        }
      ],
      "name": "userInfo",
      "outputs": [
        {
          "internalType": "uint256",
          "name": "amount",
          "type": "uint256"
        },
        {
          "internalType": "uint256",
          "name": "effectiveAmount",
          "type": "uint256"
        },
        {
          "internalType": "uint256",
          "name": "rewardDebt",
          "type": "uint256"
        },
        {
          "internalType": "uint256",
          "name": "debtClaimablePS",
          "type": "uint256"
        },
        {
          "internalType": "uint256",
          "name": "lockStartBlock",
          "type": "uint256"
        },
        {
          "internalType": "uint256",
          "name": "lockDuration",
          "type": "uint256"
        },
        {
          "internalType": "uint256",
          "name": "lockDurationBlocks",
          "type": "uint256"
        },
        {
          "internalType": "uint256",
          "name": "withdrawRequestBlock",
          "type": "uint256"
        },
        {
          "internalType": "uint256",
          "name": "withdrawalAmount",
          "type": "uint256"
        },
        {
          "internalType": "uint256",
          "name": "delayedReward",
          "type": "uint256"
        },
        {
          "internalType": "uint256",
          "name": "delayedUnlockBlock",
          "type": "uint256"
        }
      ],
      "stateMutability": "view",
      "type": "function"
    },
    {
      "stateMutability": "payable",
      "type": "receive"
    }
  ],
  "bytecode": "0x60806040526102586002819055600355600560075560148054600160201b600160601b031916643c00000000179055348015610039575f80fd5b506040516138f13803806138f18339810160408190526100589161024e565b338061007d57604051631e4fbdf760e01b81525f600482015260240160405180910390fd5b6100868161011d565b506001805584156100a4576008805460ff1916600117905560098590555b6002849055600383905564e8d4a51000600a5560048290554381116100c957436100cb565b805b6005819055600655601480546001600160401b03439081166c0100000000000000000000000002600160601b600160a01b031990921691909117909155610113905f8061016c565b50505050506102e0565b5f80546001600160a01b038381166001600160a01b0319831681178455604051919092169283917f8be0079c531659141344cd1fd0a4f28419497f9722a3daafe3b4186f6b6457e09190a35050565b6014545f906101809061ffff16600161029e565b905061010061ffff82161061019257505f5b604080516060810182526001600160401b038681168252602080830187815283850187815261ffff8781165f818152601390955296909320945185546001600160401b031916941693909317845551600184015590516002909201919091556014805461ffff19169092179182905561010062010000909204161015610248576014805462010000900461ffff1690600261022c836102c0565b91906101000a81548161ffff021916908361ffff160217905550505b50505050565b5f805f805f60a08688031215610262575f80fd5b5050835160208501516040860151606087015160809097015192989197509594509092509050565b634e487b7160e01b5f52601160045260245ffd5b61ffff8181168382160190808211156102b9576102b961028a565b5092915050565b5f61ffff8083168181036102d6576102d661028a565b6001019392505050565b613604806102ed5f395ff3fe60806040526004361061031d575f3560e01c806378d76037116101a2578063b6b55f25116100ea578063e3161ddd1161008e578063f2fde38b1161006b578063f2fde38b146109b0578063f40f0f52146109cf578063f8fd9795146109ee578063ff18bf0b14610a0257005b8063e3161ddd1461095b578063ea0d5dcd1461096f578063f1fa0e5a1461099b57005b8063ca23bba8116100c7578063ca23bba8146108f3578063ccd34cd514610912578063d0228e8f14610927578063d578ceab1461094657005b8063b6b55f25146108ac578063bb872b4a146108bf578063c04b5f65146108de57005b80638f66291511610151578063977d58fe1161012e578063977d58fe14610820578063a0b4090514610859578063a9f8d18114610878578063aa78e4b11461088d57005b80638f662915146107de57806390682b89146107f357806392e8990e1461080757005b806386f36e821161017f57806386f36e82146107845780638ae39cac146107a35780638da5cb5b146107b857005b806378d760371461073c578063817b1cd21461075b57806384b768241461077057005b806348cd4cb1116102655780635ee6efd01161021457806366fe9f8a116101f157806366fe9f8a146106df57806368226601146106f4578063715018a614610709578063745400c91461071d57005b80635ee6efd014610627578063605fba67146106465780636386c1c71461066557005b80634dda5518116102425780634dda5518146105ad5780635664b199146105f45780635e42b4551461061357005b806348cd4cb1146105545780634a4fbeec146105695780634ac4b6e01461059857005b8063372500ab116102cc5780633f138d4b116102a95780633f138d4b146104ec578063423975f31461050b5780634623635e1461052057806348b151661461053f57005b8063372500ab146104785780633a18d8c01461048c5780633a58afd4146104cd57005b80632498e780116102fa5780632498e7801461043157806326d160c7146104455780633279beab1461045957005b80630245534614610326578063096abd33146103585780631959a0021461036e57005b3661032457005b005b348015610331575f80fd5b5061034561034036600461336a565b610a0a565b6040519081526020015b60405180910390f35b348015610363575f80fd5b506103456201518081565b348015610379575f80fd5b506103de61038836600461339c565b6012602052805f5260405f205f91509050805f01549080600101549080600201549080600301549080600401549080600501549080600601549080600701549080600801549080600901549080600a015490508b565b604080519b8c5260208c019a909a52988a01979097526060890195909552608088019390935260a087019190915260c086015260e08501526101008401526101208301526101408201526101600161034f565b34801561043c575f80fd5b50610324610ab9565b348015610450575f80fd5b50610345610c7e565b348015610464575f80fd5b5061032461047336600461336a565b610cdd565b348015610483575f80fd5b50610324610d56565b348015610497575f80fd5b506014546104b490640100000000900467ffffffffffffffff1681565b60405167ffffffffffffffff909116815260200161034f565b3480156104d8575f80fd5b506103456104e736600461339c565b610d73565b3480156104f7575f80fd5b506103246105063660046133bc565b610e04565b348015610516575f80fd5b50610345600e5481565b34801561052b575f80fd5b5061032461053a3660046133e4565b610fbc565b34801561054a575f80fd5b5061034560075481565b34801561055f575f80fd5b5061034560055481565b348015610574575f80fd5b5061058861058336600461339c565b61106e565b604051901515815260200161034f565b3480156105a3575f80fd5b5061034560105481565b3480156105b8575f80fd5b506105df6105c736600461336a565b600b6020525f90815260409020805460019091015482565b6040805192835260208301919091520161034f565b3480156105ff575f80fd5b5061032461060e36600461336a565b6110b5565b34801561061e575f80fd5b50610345611156565b348015610632575f80fd5b5061032461064136600461336a565b611164565b348015610651575f80fd5b5061034561066036600461339c565b6112b6565b348015610670575f80fd5b5061068461067f36600461339c565b611394565b604080519b8c5260208c019a909a52988a01979097526060890195909552608088019390935260a087019190915260c0860152151560e08501521515610100840152151561012083015215156101408201526101600161034f565b3480156106ea575f80fd5b5061034560095481565b3480156106ff575f80fd5b50610345600f5481565b348015610714575f80fd5b506103246114d6565b348015610728575f80fd5b5061032461073736600461336a565b6114e7565b348015610747575f80fd5b5061032461075636600461336a565b6117fa565b348015610766575f80fd5b50610345600d5481565b34801561077b575f80fd5b506103246118a6565b34801561078f575f80fd5b5061032461079e366004613404565b6119d8565b3480156107ae575f80fd5b5061034560045481565b3480156107c3575f80fd5b505f546040516001600160a01b03909116815260200161034f565b3480156107e9575f80fd5b50610345600c5481565b3480156107fe575f80fd5b50610324611a83565b348015610812575f80fd5b506008546105889060ff1681565b34801561082b575f80fd5b5061058861083a36600461339c565b6001600160a01b03165f90815260126020526040902060070154151590565b348015610864575f80fd5b5061032461087336600461342b565b611b28565b348015610883575f80fd5b5061034560065481565b348015610898575f80fd5b506103246108a736600461336a565b611bf6565b6103246108ba36600461336a565b611c11565b3480156108ca575f80fd5b506103246108d936600461336a565b611f1d565b3480156108e9575f80fd5b5061034560035481565b3480156108fe575f80fd5b5061034561090d36600461339c565b611f68565b34801561091d575f80fd5b50610345600a5481565b348015610932575f80fd5b5061034561094136600461339c565b61201c565b348015610951575f80fd5b5061034560115481565b348015610966575f80fd5b506103246120a0565b34801561097a575f80fd5b5061098e61098936600461339c565b6120a8565b60405161034f919061344b565b3480156109a6575f80fd5b5061034560025481565b3480156109bb575f80fd5b506103246109ca36600461339c565b61222b565b3480156109da575f80fd5b506103456109e936600461339c565b61227e565b3480156109f9575f80fd5b50610324612394565b6103246125ba565b5f8161025814158015610a1f5750816104b014155b15610a2b57505f919050565b5f610a34612646565b9050805f03610a4557505f92915050565b5f610a4f84612657565b90505f6007546301e13380610a6491906134a8565b90505f81600454610a7591906134bb565b90505f84610a85836127106134bb565b610a8f91906134a8565b9050670de0b6b3a7640000610aa485836134bb565b610aae91906134a8565b979650505050505050565b610ac16126d0565b7f26c3053a9ab1625d44b90708e16d52b35ab3cfb0d872f84b29e76c8f0cee851b5f819052600b6020908152604080518082019091527f7dd48b7c66694aa214cb5144594198d018e75c5f0ac58384a5359e1c793dddc55481527f7dd48b7c66694aa214cb5144594198d018e75c5f0ac58384a5359e1c793dddc65491810182905290610b955760405162461bcd60e51b815260206004820152601160248201527f4e6f2070656e64696e67206368616e676500000000000000000000000000000060448201526064015b60405180910390fd5b8060200151421015610be95760405162461bcd60e51b815260206004820152601460248201527f54696d656c6f636b206e6f7420657870697265640000000000000000000000006044820152606401610b8c565b610bf1612715565b80516004555f828152600b6020908152604080832083815560010192909255825191519182527f0c4d677eef92893ac7ec52faf8140fc6c851ab4736302b4f3a89dfb20696a0df910160405180910390a1805160405190815282907f31564d9c3e497cbcaea3bfc6814d1c86ebf66b3fe325b5f5b327434f5885436e906020015b60405180910390a25050565b5f80610c88612646565b9050805f03610c98575f91505090565b5f6007546301e13380610cab91906134a8565b90505f81600454610cbc91906134bb565b905082610ccb826127106134bb565b610cd591906134a8565b935050505090565b610ce56126d0565b610ced612715565b5f610cf6612891565b905080821115610d485760405162461bcd60e51b815260206004820152601960248201527f43616e6e6f74207769746864726177207072696e636970616c000000000000006044820152606401610b8c565b610d5233836128b7565b5050565b610d5e61295b565b610d68335f61299e565b610d7160018055565b565b6001600160a01b0381165f90815260126020526040812060078101548203610d9d57505f92915050565b5f600754600354610dae91906134a8565b9050808260070154610dc091906134d8565b4310610dcf57505f9392505050565b5f43828460070154610de191906134d8565b610deb91906134eb565b905060075481610dfb91906134bb565b95945050505050565b610e0c6126d0565b6001600160a01b038216610e625760405162461bcd60e51b815260206004820152601660248201527f6e6174697665206e6f74207265636f76657261626c65000000000000000000006044820152606401610b8c565b604051336024820152604481018290525f906001600160a01b0384169060640160408051601f198184030181529181526020820180517bffffffffffffffffffffffffffffffffffffffffffffffffffffffff167fa9059cbb0000000000000000000000000000000000000000000000000000000017905251610ee591906134fe565b5f604051808303815f865af19150503d805f8114610f1e576040519150601f19603f3d011682016040523d82523d5f602084013e610f23565b606091505b5050905080610f745760405162461bcd60e51b815260206004820152601560248201527f546f6b656e207472616e73666572206661696c656400000000000000000000006044820152606401610b8c565b604080516001600160a01b0385168152602081018490527f74545154aac348a3eac92596bd1971957ca94795f4e954ec5f613b55fab7812991015b60405180910390a1505050565b610fc46126d0565b610fcc612715565b5f82118015610fda57505f81115b6110265760405162461bcd60e51b815260206004820152600f60248201527f496e76616c696420706572696f647300000000000000000000000000000000006044820152606401610b8c565b6002829055600381905560408051838152602081018390527f8e7237c327b2c040e122ee8871f17435fda2eae7d8e36798de13714b60f2b6ee91015b60405180910390a15050565b6001600160a01b0381165f9081526012602052604081206004810154820361109857505f92915050565b806006015481600401546110ac91906134d8565b43109392505050565b6110bd6126d0565b5f811180156110cd5750603c8111155b6111195760405162461bcd60e51b815260206004820152600d60248201527f42616420626c6f636b54696d65000000000000000000000000000000000000006044820152606401610b8c565b600780549082905560408051828152602081018490527e24be6dc070e4a35f5e69c2c31342ac959334f49c5b4b62cc1033d86e8351979101611062565b5f61115f612891565b905090565b61116c6126d0565b611174612715565b620f42408111156111c75760405162461bcd60e51b815260206004820152600c60248201527f41505920746f6f206869676800000000000000000000000000000000000000006044820152606401610b8c565b5f6111d0612646565b90505f6007546301e133806111e591906134a8565b90508115611215576111f9816127106134bb565b61120384846134bb565b61120d91906134a8565b600455611283565b60405162461bcd60e51b815260206004820152603360248201527f4e6f20616374697665207072696e636970616c202d207573652073657452657760448201527f617264506572426c6f636b20696e7374656164000000000000000000000000006064820152608401610b8c565b7f0c4d677eef92893ac7ec52faf8140fc6c851ab4736302b4f3a89dfb20696a0df600454604051610faf91815260200190565b6001600160a01b0381165f908152601260205260408120600a8101548290158015906112e6575081600a01544310155b156112fd5760098201546112fa90826134d8565b90505b60018201545f81900361131257509392505050565b5f60075460025461132391906134a8565b90505f814311611333575f61133d565b61133d82436134eb565b90505f61134982612bf3565b60038701549091508082111561138757600a5461136682846134eb565b61137090876134bb565b61137a91906134a8565b61138490876134d8565b95505b5093979650505050505050565b6001600160a01b0381165f9081526012602052604081208054600582015460088301546004840154929493849384929183918291829182918291156113fe5760075460048201546113e590436134eb565b6113ef91906134bb565b6113f990426134eb565b611400565b5f5b9a5080600701545f146114395760075481600701544361142091906134eb565b61142a91906134bb565b61143490426134eb565b61143b565b5f5b60048201549098501561147e57611452898c6134d8565b99508060060154816004015461146891906134d8565b4310945084158561147b57506007810154155b92505b6007810154156114c657600193505f60075460035461149d91906134a8565b9050600354896114ad91906134d8565b96508082600701546114bf91906134d8565b4310159250505b5091939597999b90929496989a50565b6114de6126d0565b610d715f612e59565b6114ef61295b565b335f908152601260205260409020811580159061150d575080548211155b6115595760405162461bcd60e51b815260206004820152600a60248201527f42616420616d6f756e74000000000000000000000000000000000000000000006044820152606401610b8c565b5f8160040154116115975760405162461bcd60e51b81526020600482015260086024820152674e6f207374616b6560c01b6044820152606401610b8c565b6007810154156115e95760405162461bcd60e51b815260206004820152601160248201527f416c7265616479207265717565737465640000000000000000000000000000006044820152606401610b8c565b806006015481600401546115fd91906134d8565b43101561164c5760405162461bcd60e51b815260206004820152600c60248201527f5374616b65206c6f636b656400000000000000000000000000000000000000006044820152606401610b8c565b611654612715565b61165e335f61299e565b5f670de0b6b3a76400006116758360050154612657565b61167f90856134bb565b61168991906134a8565b90505f60075460025461169c91906134a8565b90505f8143116116ac575f6116b6565b6116b682436134eb565b90505f6116c282612bf3565b90505f81600c546116d391906134eb565b9050801561172057600a545f906116ea83886134bb565b6116f491906134a8565b905080876009015f82825461170991906134d8565b90915550611719905085436134d8565b600a880155505b84866001015f82825461173391906134eb565b9250508190555084600e5f82825461174b91906134eb565b909155505043600787015560088601879055600f80548891905f906117719084906134d8565b9091555050600a54600c54600188015461178b91906134bb565b61179591906134a8565b60028701556003545f906117a990426134d8565b604080518a81526020810183905291925033917fd72eb5d043f24a0168ae744d5c44f9596fd673a26bf74d9646bff4b844882d14910160405180910390a2505050505050506117f760018055565b50565b6118026126d0565b604080518082019091528181527f26c3053a9ab1625d44b90708e16d52b35ab3cfb0d872f84b29e76c8f0cee851b906020810161184262015180426134d8565b90525f828152600b6020908152604090912082518155910151600190910155807f4107c16102ca593afea4ac800deb7d36407d3f25e61cccd6628094793f668ffe8361189162015180426134d8565b60408051928352602083019190915201610c72565b6118ae61295b565b335f90815260126020526040902060078101546118fa5760405162461bcd60e51b815260206004820152600a602482015269139bc81c995c5d595cdd60b21b6044820152606401610b8c565b611902612715565b61190c335f61299e565b5f670de0b6b3a76400006119238360050154612657565b836008015461193291906134bb565b61193c91906134a8565b905080826001015f82825461195191906134d8565b9250508190555080600e5f82825461196991906134d8565b90915550506008820154600f80545f906119849084906134eb565b90915550505f600783018190556008830181905560098301819055600a8084019190915554600c5460018401546119bb91906134bb565b6119c591906134a8565b82600201819055505050610d7160018055565b6119e06126d0565b60068167ffffffffffffffff1610158015611a0757506103e88167ffffffffffffffff1611155b611a535760405162461bcd60e51b815260206004820152601060248201527f496e76616c696420696e74657276616c000000000000000000000000000000006044820152606401610b8c565b6014805467ffffffffffffffff909216640100000000026bffffffffffffffff0000000019909216919091179055565b611a8b6126d0565b7f26c3053a9ab1625d44b90708e16d52b35ab3cfb0d872f84b29e76c8f0cee851b5f818152600b6020527f7dd48b7c66694aa214cb5144594198d018e75c5f0ac58384a5359e1c793dddc58190557f7dd48b7c66694aa214cb5144594198d018e75c5f0ac58384a5359e1c793dddc681905560405182917ffbe037eef108662db90b0a679b0dde447f266ad1254d34073a5ad826453dbe7c91a250565b611b306126d0565b611b38612715565b8115611bb45760085460ff161580611b51575060095481115b611b9d5760405162461bcd60e51b815260206004820152601360248201527f4c696d6974206d75737420696e637265617365000000000000000000000000006044820152606401610b8c565b6008805460ff191660011790556009819055611bc3565b6008805460ff191690555f6009555b7f241f67ee5f41b7a5cabf911367329be7215900f602ebfc47f89dce2a6bcd847c60095460405161106291815260200190565b611bfe61295b565b611c08338261299e565b6117f760018055565b611c1961295b565b806102581480611c2a5750806104b0145b611c765760405162461bcd60e51b815260206004820152601060248201527f496e76616c6964206475726174696f6e000000000000000000000000000000006044820152606401610b8c565b335f9081526012602052604090203480611cd25760405162461bcd60e51b815260206004820152600c60248201527f5a65726f206465706f73697400000000000000000000000000000000000000006044820152606401610b8c565b600782015415611d245760405162461bcd60e51b815260206004820152600e60248201527f496e206578697420706572696f640000000000000000000000000000000000006044820152606401610b8c565b60085460ff1615611d8c576009548254611d3e90836134d8565b1115611d8c5760405162461bcd60e51b815260206004820152600b60248201527f41626f7665206c696d69740000000000000000000000000000000000000000006044820152606401610b8c565b611d94612715565b815415611dfd57611da5335f61299e565b81600501548314611df85760405162461bcd60e51b815260206004820152601160248201527f4475726174696f6e206d69736d617463680000000000000000000000000000006044820152606401610b8c565b611e0d565b60058201839055600c5460038301555b5f611e1784612657565b90505f670de0b6b3a7640000611e2d83856134bb565b611e3791906134a8565b905080846001015f828254611e4c91906134d8565b9250508190555080600e5f828254611e6491906134d8565b90915550508354839085905f90611e7c9084906134d8565b9250508190555082600d5f828254611e9491906134d8565b9091555050436004850155600754611eac90866134a8565b6006850155600a54600c546001860154611ec691906134bb565b611ed091906134a8565b6002850155604080518481526020810187905233917f90890809c654f11d6e72a28fa60149770a0d11ec6c92319d6ceb2bb0a4ea1a15910160405180910390a2505050506117f760018055565b611f256126d0565b611f2d612715565b60048190556040518181527f0c4d677eef92893ac7ec52faf8140fc6c851ab4736302b4f3a89dfb20696a0df9060200160405180910390a150565b6001600160a01b0381165f908152601260205260408120600a810154829015801590611f97575081600a015443105b15611fae576009820154611fab90826134d8565b90505b60018201545f819003611fc357509392505050565b5f611fcc612ec0565b90505f600754600254611fdf91906134a8565b90505f814311611fef575f611ff9565b611ff982436134eb565b90505f61200582612bf3565b90508084111561138757600a5461136682866134eb565b6001600160a01b0381165f9081526012602052604081206004810154820361204657505f92915050565b8060060154816004015461205a91906134d8565b431061206857505f92915050565b5f438260060154836004015461207e91906134d8565b61208891906134eb565b90506007548161209891906134bb565b949350505050565b610d71612715565b6001600160a01b0381165f9081526012602052604081208054606092036120ef5750506040805180820190915260088152674e6f207374616b6560c01b6020820152919050565b60078101541561219a575f60075460035461210a91906134a8565b905080826007015461211c91906134d8565b431061215e57505060408051808201909152601081527f5769746864726177616c20726561647900000000000000000000000000000000602082015292915050565b505060408051808201909152600e81527f496e206578697420706572696f64000000000000000000000000000000000000602082015292915050565b806006015481600401546121ae91906134d8565b4310156121f057505060408051808201909152600681527f4c6f636b656400000000000000000000000000000000000000000000000000006020820152919050565b505060408051808201909152600881527f556e6c6f636b65640000000000000000000000000000000000000000000000006020820152919050565b6122336126d0565b6001600160a01b038116612275576040517f1e4fbdf70000000000000000000000000000000000000000000000000000000081525f6004820152602401610b8c565b6117f781612e59565b6001600160a01b0381165f9081526012602052604081206007810154156122a757505f92915050565b5f6122b1600e5490565b9050805f036122c357505f9392505050565b600c54600654431115612368575f600654436122df91906134eb565b90505f600454826122f091906134bb565b90505f60115460105461230391906134eb565b90505f61230e612891565b90505f82821161231e575f612328565b61232883836134eb565b905080841115612336578093505b83156123625786600a548561234b91906134bb565b61235591906134a8565b61235f90876134d8565b95505b50505050505b8260020154600a5482856001015461238091906134bb565b61238a91906134a8565b610dfb91906134eb565b61239c61295b565b6123a4612715565b6123ae335f61299e565b335f90815260126020526040902060078101546123fa5760405162461bcd60e51b815260206004820152600a602482015269139bc81c995c5d595cdd60b21b6044820152606401610b8c565b5f60075460035461240b91906134a8565b905080826007015461241d91906134d8565b43101561246c5760405162461bcd60e51b815260206004820152601160248201527f45786974206e6f742066696e69736865640000000000000000000000000000006044820152606401610b8c565b6008820154806124be5760405162461bcd60e51b815260206004820152600960248201527f4e6f20616d6f756e7400000000000000000000000000000000000000000000006044820152606401610b8c565b80835f015f8282546124d091906134eb565b9250508190555080600d5f8282546124e891906134eb565b9250508190555080600f5f82825461250091906134eb565b90915550505f60078401819055600884018190558354900361254a575f6004840181905560068401819055600584018190556001840181905560028401819055600384015561256f565b600a54600c54846001015461255f91906134bb565b61256991906134a8565b60028401555b61257933826128b7565b60405181815233907f7b2a72f0889ae9bb89e8ee7ec3e7c465552d1b76d51df9b0426d0e4e7f39528f9060200160405180910390a2505050610d7160018055565b6125c26126d0565b5f34116126115760405162461bcd60e51b815260206004820152600860248201527f4e6f2076616c75650000000000000000000000000000000000000000000000006044820152606401610b8c565b6040513481527fe42dde25409a3e8c7c119c1c722610d9e9bd96e73e3cead774863c9ffdd870d69060200160405180910390a1565b5f600f54600d5461115f91906134eb565b5f81610258036126705750670de0b6b3a7640000919050565b816104b00361268857506714d1120d7b160000919050565b60405162461bcd60e51b815260206004820152601060248201527f496e76616c6964206475726174696f6e000000000000000000000000000000006044820152606401610b8c565b5f546001600160a01b03163314610d71576040517f118cdaa7000000000000000000000000000000000000000000000000000000008152336004820152602401610b8c565b600654431161272057565b5f61272a600e5490565b9050805f0361273a575043600655565b5f6006544361274991906134eb565b90505f6004548261275a91906134bb565b90505f60115460105461276d91906134eb565b90505f612778612891565b90505f828211612788575f612792565b61279283836134eb565b9050808411156127a0578093505b83156127ed5785600a54856127b591906134bb565b6127bf91906134a8565b600c5f8282546127cf91906134d8565b925050819055508360105f8282546127e791906134d8565b90915550505b43600681905560145467ffffffffffffffff6401000000008204811692612827926c01000000000000000000000000900490911690613514565b67ffffffffffffffff16106128895761284543600c54600e54612faa565b601480547fffffffffffffffffffffffff0000000000000000ffffffffffffffffffffffff166c010000000000000000000000004367ffffffffffffffff16021790555b505050505050565b600d545f90479081116128a4575f6128b1565b600d546128b190826134eb565b91505090565b5f826001600160a01b0316826040515f6040518083038185875af1925050503d805f8114612900576040519150601f19603f3d011682016040523d82523d5f602084013e612905565b606091505b50509050806129565760405162461bcd60e51b815260206004820152601660248201527f4e6174697665207472616e73666572206661696c6564000000000000000000006044820152606401610b8c565b505050565b600260015403612997576040517f3ee5aeb500000000000000000000000000000000000000000000000000000000815260040160405180910390fd5b6002600155565b6001600160a01b0382165f9081526012602052604081206007546002549192916129c891906134a8565b90505f8143116129d8575f6129e2565b6129e282436134eb565b90505f6129ee82612bf3565b60038501549091505f8183118015612a0957505f8660010154115b15612a3757600a54612a1b83856134eb565b8760010154612a2a91906134bb565b612a3491906134a8565b90505b612a3f612715565b600a860154819015801590612a58575086600a01544310155b15612a7c576009870154612a6c90826134d8565b5f60098901819055600a89015590505b5f612a85612891565b90505f81831115612a965781612a98565b825b905089811015612aea5760405162461bcd60e51b815260206004820152601860248201527f536c6970706167653a2072657761726420746f6f206c6f7700000000000000006044820152606401610b8c565b8015612b4f57612afa8b826128b7565b8060115f828254612b0b91906134d8565b90915550506040518181526001600160a01b038c16907f106f923f993c2149d49b4255ff723acafa1f2d94393f561d3eda32ae348f72419060200160405180910390a25b8215612bb757828110612b685760038901869055612bbf565b5f858711612b76575f612b80565b612b8086886134eb565b90508015612bb1575f84612b9483856134bb565b612b9e91906134a8565b9050612baa81886134d8565b60038c0155505b50612bbf565b600389018690555b600a54600c548a60010154612bd491906134bb565b612bde91906134a8565b89600201819055505050505050505050505050565b6014545f9062010000900461ffff168103612c0f57505f919050565b5f80612c1a8461308e565b915091505f80612c2c835f01516131c6565b9150915083612c4057505f95945050505050565b811580612c645750805f015167ffffffffffffffff168667ffffffffffffffff1610155b15612d9e576006548667ffffffffffffffff161115612d91575f612c87600e5490565b9050805f03612c9e57505050602001519392505050565b5f60065443612cad91906134eb565b9050805f03612cc55750505050602001519392505050565b5f6006548967ffffffffffffffff16612cde91906134eb565b905081811115612ceb5750805b5f601154601054612cfc91906134eb565b90505f612d07612891565b90505f828211612d17575f612d21565b612d2183836134eb565b90505f85600454612d3291906134bb565b905081811115612d3f5750805b5f86612d4b87846134bb565b612d5591906134a8565b905087600a5482612d6691906134bb565b612d7091906134a8565b8b60200151612d7f91906134d8565b9e9d5050505050505050505050505050565b5050602001519392505050565b82604001515f03612db6575050602001519392505050565b8251815167ffffffffffffffff918216911603612dda575050602001519392505050565b825181515f91612de991613514565b67ffffffffffffffff1690505f845f015188612e059190613514565b67ffffffffffffffff1690505f85602001518460200151612e2691906134eb565b905082612e3383836134bb565b612e3d91906134a8565b8660200151612e4c91906134d8565b9998505050505050505050565b5f80546001600160a01b038381167fffffffffffffffffffffffff0000000000000000000000000000000000000000831681178455604051919092169283917f8be0079c531659141344cd1fd0a4f28419497f9722a3daafe3b4186f6b6457e09190a35050565b5f80612ecb600e5490565b9050805f03612edc575050600c5490565b6006544311612eed575050600c5490565b5f60065443612efc91906134eb565b9050805f03612f0f57600c549250505090565b5f60045482612f1e91906134bb565b90505f601154601054612f3191906134eb565b90505f612f3c612891565b90505f828211612f4c575f612f56565b612f5683836134eb565b905080841115612f64578093505b835f03612f7957600c54965050505050505090565b85600a5485612f8891906134bb565b612f9291906134a8565b600c54612f9f91906134d8565b965050505050505090565b6014545f90612fbe9061ffff16600161353c565b905061010061ffff821610612fd057505f5b6040805160608101825267ffffffffffffffff8681168252602080830187815283850187815261ffff8781165f8181526013909552969093209451855467ffffffffffffffff1916941693909317845551600184015590516002909201919091556014805461ffff19169092179182905561010062010000909204161015613088576014805462010000900461ffff1690600261306c83613557565b91906101000a81548161ffff021916908361ffff160217905550505b50505050565b604080516060810182525f80825260208201819052918101829052601454604080516060810182525f8082526020820181905291810182905261ffff909216915f5b60145461ffff62010000909104811690841610156131bb5761ffff84165f908152601360209081526040918290208251606081018452815467ffffffffffffffff16808252600183015493820193909352600290910154928101929092521580159061314a5750805167ffffffffffffffff808a16911611155b801561316e575081158061316e57508251815167ffffffffffffffff918216911610155b1561317b57809250600191505b8461ffff165f0361319a576131936001610100613577565b94506131a8565b846131a481613592565b9550505b836131b281613557565b945050506130d0565b969095509350505050565b604080516060810182525f808252602082018190529181018290526014545f9081906131f79061ffff16600161353c565b60145461ffff9182166201000090910490911610613254576014546101009061ffff62010000820481169161322e9184911661353c565b61323990600161353c565b6132439190613577565b61324d91906135ae565b905061327c565b60145461ffff62010000820481169161326f9116600161353c565b6132799190613577565b90505b805b60145461ffff62010000909104811690841610156133385761ffff81165f908152601360209081526040918290208251606081018452815467ffffffffffffffff90811680835260018401549483019490945260029092015493810193909352881610156132f457600197909650945050505050565b60145461ffff9081169083160361330b5750613338565b61010061331983600161353c565b61332391906135ae565b91508361332f81613557565b9450505061327e565b5f60405180606001604052805f67ffffffffffffffff1681526020015f81526020015f81525094509450505050915091565b5f6020828403121561337a575f80fd5b5035919050565b80356001600160a01b0381168114613397575f80fd5b919050565b5f602082840312156133ac575f80fd5b6133b582613381565b9392505050565b5f80604083850312156133cd575f80fd5b6133d683613381565b946020939093013593505050565b5f80604083850312156133f5575f80fd5b50508035926020909101359150565b5f60208284031215613414575f80fd5b813567ffffffffffffffff811681146133b5575f80fd5b5f806040838503121561343c575f80fd5b823580151581146133d6575f80fd5b602081525f82518060208401528060208501604085015e5f604082850101526040601f19601f83011684010191505092915050565b634e487b7160e01b5f52601260045260245ffd5b634e487b7160e01b5f52601160045260245ffd5b5f826134b6576134b6613480565b500490565b80820281158282048414176134d2576134d2613494565b92915050565b808201808211156134d2576134d2613494565b818103818111156134d2576134d2613494565b5f82518060208501845e5f920191825250919050565b67ffffffffffffffff82811682821603908082111561353557613535613494565b5092915050565b61ffff81811683821601908082111561353557613535613494565b5f61ffff80831681810361356d5761356d613494565b6001019392505050565b61ffff82811682821603908082111561353557613535613494565b5f61ffff8216806135a5576135a5613494565b5f190192915050565b5f61ffff808416806135c2576135c2613480565b9216919091069291505056fea2646970667358221220daead94b22bc1bb772d4fc327aee17d1ae45c9b11b384f7b0d618c5f500a2b5e64736f6c63430008190033",
  "linkReferences": {},
  "deployedLinkReferences": {}
}