{
  "_format": "hh-sol-artifact-1",
  "contractName": "SmartChefNative",
  "sourceName": "contracts/SmartChefNative.sol",
  "abi": [
    {
      "inputs": [
        {
          "internalType": "address",
          "name": "_user",
          "type": "address"
        }
      ],
      "name": "claimableView",
      "outputs": [
        {
          "internalType": "uint256",
          "name": "",
          "type": "uint256"
        }
      ],
      "stateMutability": "view",
      "type": "function"
    },
    {
      "inputs": [
        {
          "internalType": "address",
          "name": "_user",
          "type": "address"
        }
      ],
      "name": "lockedView",
      "outputs": [
        {
          "internalType": "uint256",
          "name": "",
          "type": "uint256"
        }
      ],
      "stateMutability": "view",
      "type": "function"
    },
    {
      "inputs": [],
      "name": "emissionRate",
      "outputs": [
        {
          "internalType": "uint256",
          "name": "",
          "type": "uint256"
        }
      ],
      "stateMutability": "view",
      "type": "function"
    },
    {
      "inputs": [
        {
          "internalType": "uint256",
          "name": "_poolLimitPerUser",
          "type": "uint256"
        },
        {
          "internalType": "uint256",
          "name": "_rewardDelayPeriod",
          "type": "uint256"
        },
        {
          "internalType": "uint256",
          "name": "_exitPeriod",
          "type": "uint256"
        }
      ],
      "stateMutability": "nonpayable",
      "type": "constructor"
    },
    {
      "inputs": [
        {
          "internalType": "address",
          "name": "owner",
          "type": "address"
        }
      ],
      "name": "OwnableInvalidOwner",
      "type": "error"
    },
    {
      "inputs": [
        {
          "internalType": "address",
          "name": "account",
          "type": "address"
        }
      ],
      "name": "OwnableUnauthorizedAccount",
      "type": "error"
    },
    {
      "inputs": [],
      "name": "ReentrancyGuardReentrantCall",
      "type": "error"
    },
    {
      "anonymous": false,
      "inputs": [
        {
          "indexed": false,
          "internalType": "address",
          "name": "tokenRecovered",
          "type": "address"
        },
        {
          "indexed": false,
          "internalType": "uint256",
          "name": "amount",
          "type": "uint256"
        }
      ],
      "name": "AdminTokenRecovery",
      "type": "event"
    },
    {
      "anonymous": false,
      "inputs": [
        {
          "indexed": false,
          "internalType": "uint256",
          "name": "oldBlockTime",
          "type": "uint256"
        },
        {
          "indexed": false,
          "internalType": "uint256",
          "name": "newBlockTime",
          "type": "uint256"
        }
      ],
      "name": "BlockTimeUpdated",
      "type": "event"
    },
    {
      "anonymous": false,
      "inputs": [
        {
          "indexed": true,
          "internalType": "address",
          "name": "user",
          "type": "address"
        },
        {
          "indexed": false,
          "internalType": "uint256",
          "name": "amount",
          "type": "uint256"
        }
      ],
      "name": "Deposit",
      "type": "event"
    },
    {
      "anonymous": false,
      "inputs": [
        {
          "indexed": false,
          "internalType": "uint256",
          "name": "poolLimitPerUser",
          "type": "uint256"
        }
      ],
      "name": "NewPoolLimit",
      "type": "event"
    },
    {
      "anonymous": false,
      "inputs": [
        {
          "indexed": false,
          "internalType": "uint256",
          "name": "rewardPerBlock",
          "type": "uint256"
        }
      ],
      "name": "NewRewardPerBlock",
      "type": "event"
    },
    {
      "anonymous": false,
      "inputs": [
        {
          "indexed": true,
          "internalType": "address",
          "name": "previousOwner",
          "type": "address"
        },
        {
          "indexed": true,
          "internalType": "address",
          "name": "newOwner",
          "type": "address"
        }
      ],
      "name": "OwnershipTransferred",
      "type": "event"
    },
    {
      "anonymous": false,
      "inputs": [
        {
          "indexed": false,
          "internalType": "uint256",
          "name": "lockPeriod",
          "type": "uint256"
        },
        {
          "indexed": false,
          "internalType": "uint256",
          "name": "rewardDelayPeriod",
          "type": "uint256"
        },
        {
          "indexed": false,
          "internalType": "uint256",
          "name": "exitPeriod",
          "type": "uint256"
        }
      ],
      "name": "PeriodsUpdated",
      "type": "event"
    },
    {
      "anonymous": false,
      "inputs": [
        {
          "indexed": true,
          "internalType": "address",
          "name": "user",
          "type": "address"
        },
        {
          "indexed": false,
          "internalType": "uint256",
          "name": "amount",
          "type": "uint256"
        }
      ],
      "name": "RewardClaimed",
      "type": "event"
    },
    {
      "anonymous": false,
      "inputs": [
        {
          "indexed": true,
          "internalType": "address",
          "name": "user",
          "type": "address"
        },
        {
          "indexed": false,
          "internalType": "uint256",
          "name": "amount",
          "type": "uint256"
        },
        {
          "indexed": false,
          "internalType": "uint256",
          "name": "unlockTime",
          "type": "uint256"
        }
      ],
      "name": "RewardDelayed",
      "type": "event"
    },
    {
      "anonymous": false,
      "inputs": [
        {
          "indexed": false,
          "internalType": "uint256",
          "name": "amount",
          "type": "uint256"
        }
      ],
      "name": "RewardsFunded",
      "type": "event"
    },
    {
      "anonymous": false,
      "inputs": [
        {
          "indexed": true,
          "internalType": "address",
          "name": "user",
          "type": "address"
        },
        {
          "indexed": false,
          "internalType": "uint256",
          "name": "amount",
          "type": "uint256"
        }
      ],
      "name": "WithdrawExecuted",
      "type": "event"
    },
    {
      "anonymous": false,
      "inputs": [
        {
          "indexed": true,
          "internalType": "address",
          "name": "user",
          "type": "address"
        },
        {
          "indexed": false,
          "internalType": "uint256",
          "name": "amount",
          "type": "uint256"
        },
        {
          "indexed": false,
          "internalType": "uint256",
          "name": "availableTime",
          "type": "uint256"
        }
      ],
      "name": "WithdrawRequested",
      "type": "event"
    },
    {
      "stateMutability": "payable",
      "type": "fallback"
    },
    {
      "inputs": [],
      "name": "EXIT_PERIOD",
      "outputs": [
        {
          "internalType": "uint256",
          "name": "",
          "type": "uint256"
        }
      ],
      "stateMutability": "view",
      "type": "function"
    },
    {
      "inputs": [],
      "name": "LOCK_PERIOD",
      "outputs": [
        {
          "internalType": "uint256",
          "name": "",
          "type": "uint256"
        }
      ],
      "stateMutability": "view",
      "type": "function"
    },
    {
      "inputs": [],
      "name": "PRECISION_FACTOR",
      "outputs": [
        {
          "internalType": "uint256",
          "name": "",
          "type": "uint256"
        }
      ],
      "stateMutability": "view",
      "type": "function"
    },
    {
      "inputs": [],
      "name": "REWARD_DELAY_PERIOD",
      "outputs": [
        {
          "internalType": "uint256",
          "name": "",
          "type": "uint256"
        }
      ],
      "stateMutability": "view",
      "type": "function"
    },
    {
      "inputs": [],
      "name": "accTokenPerShare",
      "outputs": [
        {
          "internalType": "uint256",
          "name": "",
          "type": "uint256"
        }
      ],
      "stateMutability": "view",
      "type": "function"
    },
    {
      "inputs": [],
      "name": "blockTime",
      "outputs": [
        {
          "internalType": "uint256",
          "name": "",
          "type": "uint256"
        }
      ],
      "stateMutability": "view",
      "type": "function"
    },
    {
      "inputs": [],
      "name": "cancelWithdraw",
      "outputs": [],
      "stateMutability": "nonpayable",
      "type": "function"
    },
    {
      "inputs": [],
      "name": "claimRewards",
      "outputs": [],
      "stateMutability": "nonpayable",
      "type": "function"
    },
    {
      "inputs": [
        {
          "internalType": "address",
          "name": "_user",
          "type": "address"
        }
      ],
      "name": "claimableRewards",
      "outputs": [
        {
          "internalType": "uint256",
          "name": "",
          "type": "uint256"
        }
      ],
      "stateMutability": "view",
      "type": "function"
    },
    {
      "inputs": [
        {
          "internalType": "uint256",
          "name": "_duration",
          "type": "uint256"
        }
      ],
      "name": "deposit",
      "outputs": [],
      "stateMutability": "payable",
      "type": "function"
    },
    {
      "inputs": [
        {
          "internalType": "uint256",
          "name": "_amount",
          "type": "uint256"
        }
      ],
      "name": "emergencyRewardWithdraw",
      "outputs": [],
      "stateMutability": "nonpayable",
      "type": "function"
    },
    {
      "inputs": [],
      "name": "executeWithdraw",
      "outputs": [],
      "stateMutability": "nonpayable",
      "type": "function"
    },
    {
      "inputs": [],
      "name": "fundRewards",
      "outputs": [],
      "stateMutability": "payable",
      "type": "function"
    },
    {
      "inputs": [
        {
          "internalType": "address",
          "name": "_user",
          "type": "address"
        }
      ],
      "name": "getDelayedRewards",
      "outputs": [
        {
          "components": [
            {
              "internalType": "uint256",
              "name": "amount",
              "type": "uint256"
            },
            {
              "internalType": "uint256",
              "name": "unlockTime",
              "type": "uint256"
            }
          ],
          "internalType": "struct SmartChefNative.RewardEntry[]",
          "name": "",
          "type": "tuple[]"
        }
      ],
      "stateMutability": "view",
      "type": "function"
    },
    {
      "inputs": [],
      "name": "getRewardBalance",
      "outputs": [
        {
          "internalType": "uint256",
          "name": "",
          "type": "uint256"
        }
      ],
      "stateMutability": "view",
      "type": "function"
    },
    {
      "inputs": [
        {
          "internalType": "uint256",
          "name": "_duration",
          "type": "uint256"
        }
      ],
      "name": "getEstimatedAPY",
      "outputs": [
        {
          "internalType": "uint256",
          "name": "",
          "type": "uint256"
        }
      ],
      "stateMutability": "view",
      "type": "function"
    },
    {
      "inputs": [
        {
          "internalType": "address",
          "name": "_user",
          "type": "address"
        }
      ],
      "name": "getUserInfo",
      "outputs": [
        {
          "internalType": "uint256",
          "name": "stakedAmount",
          "type": "uint256"
        },
        {
          "internalType": "uint256",
          "name": "lockStartTime",
          "type": "uint256"
        },
        {
          "internalType": "uint256",
          "name": "lockEndTime",
          "type": "uint256"
        },
        {
          "internalType": "uint256",
          "name": "lockDuration",
          "type": "uint256"
        },
        {
          "internalType": "uint256",
          "name": "withdrawRequestTime",
          "type": "uint256"
        },
        {
          "internalType": "uint256",
          "name": "withdrawalAmount",
          "type": "uint256"
        },
        {
          "internalType": "uint256",
          "name": "withdrawalAvailableTime",
          "type": "uint256"
        },
        {
          "internalType": "bool",
          "name": "isLocked_",
          "type": "bool"
        },
        {
          "internalType": "bool",
          "name": "inExitPeriod",
          "type": "bool"
        },
        {
          "internalType": "bool",
          "name": "canRequestWithdraw",
          "type": "bool"
        },
        {
          "internalType": "bool",
          "name": "canExecuteWithdraw",
          "type": "bool"
        }
      ],
      "stateMutability": "view",
      "type": "function"
    },
    {
      "inputs": [
        {
          "internalType": "address",
          "name": "_user",
          "type": "address"
        }
      ],
      "name": "getUserStatus",
      "outputs": [
        {
          "internalType": "string",
          "name": "",
          "type": "string"
        }
      ],
      "stateMutability": "view",
      "type": "function"
    },
    {
      "inputs": [],
      "name": "hasUserLimit",
      "outputs": [
        {
          "internalType": "bool",
          "name": "",
          "type": "bool"
        }
      ],
      "stateMutability": "view",
      "type": "function"
    },
    {
      "inputs": [
        {
          "internalType": "address",
          "name": "_user",
          "type": "address"
        }
      ],
      "name": "isInExitPeriod",
      "outputs": [
        {
          "internalType": "bool",
          "name": "",
          "type": "bool"
        }
      ],
      "stateMutability": "view",
      "type": "function"
    },
    {
      "inputs": [
        {
          "internalType": "address",
          "name": "_user",
          "type": "address"
        }
      ],
      "name": "isLocked",
      "outputs": [
        {
          "internalType": "bool",
          "name": "",
          "type": "bool"
        }
      ],
      "stateMutability": "view",
      "type": "function"
    },
    {
      "inputs": [],
      "name": "lastRewardBlock",
      "outputs": [
        {
          "internalType": "uint256",
          "name": "",
          "type": "uint256"
        }
      ],
      "stateMutability": "view",
      "type": "function"
    },
    {
      "inputs": [],
      "name": "owner",
      "outputs": [
        {
          "internalType": "address",
          "name": "",
          "type": "address"
        }
      ],
      "stateMutability": "view",
      "type": "function"
    },
    {
      "inputs": [
        {
          "internalType": "address",
          "name": "_user",
          "type": "address"
        }
      ],
      "name": "pendingReward",
      "outputs": [
        {
          "internalType": "uint256",
          "name": "",
          "type": "uint256"
        }
      ],
      "stateMutability": "view",
      "type": "function"
    },
    {
      "inputs": [],
      "name": "poolLimitPerUser",
      "outputs": [
        {
          "internalType": "uint256",
          "name": "",
          "type": "uint256"
        }
      ],
      "stateMutability": "view",
      "type": "function"
    },
    {
      "inputs": [
        {
          "internalType": "address",
          "name": "_tokenAddress",
          "type": "address"
        },
        {
          "internalType": "uint256",
          "name": "_tokenAmount",
          "type": "uint256"
        }
      ],
      "name": "recoverWrongTokens",
      "outputs": [],
      "stateMutability": "nonpayable",
      "type": "function"
    },
    {
      "inputs": [],
      "name": "renounceOwnership",
      "outputs": [],
      "stateMutability": "nonpayable",
      "type": "function"
    },
    {
      "inputs": [
        {
          "internalType": "uint256",
          "name": "_amount",
          "type": "uint256"
        }
      ],
      "name": "requestWithdraw",
      "outputs": [],
      "stateMutability": "nonpayable",
      "type": "function"
    },
    {
      "inputs": [],
      "name": "rewardPerBlock",
      "outputs": [
        {
          "internalType": "uint256",
          "name": "",
          "type": "uint256"
        }
      ],
      "stateMutability": "view",
      "type": "function"
    },
    {
      "inputs": [
        {
          "internalType": "uint256",
          "name": "_rewardPerBlock",
          "type": "uint256"
        }
      ],
      "name": "setRewardPerBlock",
      "outputs": [],
      "stateMutability": "nonpayable",
      "type": "function"
    },
    {
      "inputs": [],
      "name": "startBlock",
      "outputs": [
        {
          "internalType": "uint256",
          "name": "",
          "type": "uint256"
        }
      ],
      "stateMutability": "view",
      "type": "function"
    },
    {
      "inputs": [
        {
          "internalType": "address",
          "name": "_user",
          "type": "address"
        }
      ],
      "name": "timeUntilUnlock",
      "outputs": [
        {
          "internalType": "uint256",
          "name": "",
          "type": "uint256"
        }
      ],
      "stateMutability": "view",
      "type": "function"
    },
    {
      "inputs": [
        {
          "internalType": "address",
          "name": "_user",
          "type": "address"
        }
      ],
      "name": "timeUntilWithdrawalAvailable",
      "outputs": [
        {
          "internalType": "uint256",
          "name": "",
          "type": "uint256"
        }
      ],
      "stateMutability": "view",
      "type": "function"
    },
    {
      "inputs": [
        {
          "internalType": "address",
          "name": "_user",
          "type": "address"
        }
      ],
      "name": "totalDelayedRewards",
      "outputs": [
        {
          "internalType": "uint256",
          "name": "",
          "type": "uint256"
        }
      ],
      "stateMutability": "view",
      "type": "function"
    },
    {
      "inputs": [],
      "name": "totalInExitPeriod",
      "outputs": [
        {
          "internalType": "uint256",
          "name": "",
          "type": "uint256"
        }
      ],
      "stateMutability": "view",
      "type": "function"
    },
    {
      "inputs": [],
      "name": "totalStaked",
      "outputs": [
        {
          "internalType": "uint256",
          "name": "",
          "type": "uint256"
        }
      ],
      "stateMutability": "view",
      "type": "function"
    },
    {
      "inputs": [
        {
          "internalType": "address",
          "name": "newOwner",
          "type": "address"
        }
      ],
      "name": "transferOwnership",
      "outputs": [],
      "stateMutability": "nonpayable",
      "type": "function"
    },
    {
      "inputs": [
        {
          "internalType": "uint256",
          "name": "_newBlockTime",
          "type": "uint256"
        }
      ],
      "name": "updateBlockTime",
      "outputs": [],
      "stateMutability": "nonpayable",
      "type": "function"
    },
    {
      "inputs": [
        {
          "internalType": "uint256",
          "name": "_lockPeriod",
          "type": "uint256"
        },
        {
          "internalType": "uint256",
          "name": "_rewardDelayPeriod",
          "type": "uint256"
        },
        {
          "internalType": "uint256",
          "name": "_exitPeriod",
          "type": "uint256"
        }
      ],
      "name": "updatePeriods",
      "outputs": [],
      "stateMutability": "nonpayable",
      "type": "function"
    },
    {
      "inputs": [
        {
          "internalType": "bool",
          "name": "_hasUserLimit",
          "type": "bool"
        },
        {
          "internalType": "uint256",
          "name": "_poolLimitPerUser",
          "type": "uint256"
        }
      ],
      "name": "updatePoolLimitPerUser",
      "outputs": [],
      "stateMutability": "nonpayable",
      "type": "function"
    },
    {
      "inputs": [
        {
          "internalType": "uint256",
          "name": "_newAPYBasisPoints",
          "type": "uint256"
        }
      ],
      "name": "updateRewardPerBlock",
      "outputs": [],
      "stateMutability": "nonpayable",
      "type": "function"
    },
    {
      "inputs": [
        {
          "internalType": "address",
          "name": "",
          "type": "address"
        },
        {
          "internalType": "uint256",
          "name": "",
          "type": "uint256"
        }
      ],
      "name": "userDelayedRewards",
      "outputs": [
        {
          "internalType": "uint256",
          "name": "amount",
          "type": "uint256"
        },
        {
          "internalType": "uint256",
          "name": "unlockTime",
          "type": "uint256"
        }
      ],
      "stateMutability": "view",
      "type": "function"
    },
    {
      "inputs": [
        {
          "internalType": "address",
          "name": "",
          "type": "address"
        }
      ],
      "name": "userInfo",
      "outputs": [
        {
          "internalType": "uint256",
          "name": "amount",
          "type": "uint256"
        },
        {
          "internalType": "uint256",
          "name": "rewardDebt",
          "type": "uint256"
        },
        {
          "internalType": "uint256",
          "name": "lockStartTime",
          "type": "uint256"
        },
        {
          "internalType": "uint256",
          "name": "withdrawRequestTime",
          "type": "uint256"
        },
        {
          "internalType": "uint256",
          "name": "withdrawalAmount",
          "type": "uint256"
        }
      ],
      "stateMutability": "view",
      "type": "function"
    },
    {
      "stateMutability": "payable",
      "type": "receive"
    }
  ],
  "bytecode": "0x608060405262278d0060025562278d0060035562278d006004556005600d55348015610029575f80fd5b506040516126003803806126008339810160408190526100489161011c565b338061006d57604051631e4fbdf760e01b81525f600482015260240160405180910390fd5b610076816100cd565b5060018055600a86905543851161008d574361008f565b845b600781905560085583156100b0576005805460ff1916600117905560098490555b600292909255600355600455505064e8d4a51000600b5550610162565b5f80546001600160a01b038381166001600160a01b0319831681178455604051919092169283917f8be0079c531659141344cd1fd0a4f28419497f9722a3daafe3b4186f6b6457e09190a35050565b5f805f805f8060c08789031215610131575f80fd5b865195506020870151945060408701519350606087015192506080870151915060a087015190509295509295509295565b6124918061016f5f395ff3fe6080604052600436106102a4575f3560e01c80638da5cb5b11610160578063ccd34cd5116100c9578063f1fa0e5a11610083578063f8fd979511610060578063f8fd9795146107a6578063fc42b94d146107ba578063ff18bf0b146107ee57005b8063f1fa0e5a14610753578063f2fde38b14610768578063f40f0f521461078757005b8063d0e30db0116100b1578063d0e30db014610700578063dc01f60d14610708578063ea0d5dcd1461072757005b8063ccd34cd5146106cc578063d0228e8f146106e157005b8063a0b409051161011a578063b9bca95f11610102578063b9bca95f1461066c578063bb872b4a14610698578063c04b5f65146106b757005b8063a0b4090514610638578063a9f8d1811461065757005b806392e8990e1161014857806392e8990e146105c7578063977d58fe146105e05780639ba650321461061957005b80638da5cb5b1461058c5780638f662915146105b257005b80634a4fbeec1161020d57806368226601116101c7578063817b1cd2116101a4578063817b1cd21461054e57806384b76824146105635780638ae39cac1461057757005b80636822660114610506578063715018a61461051b578063745400c91461052f57005b80635e42b455116101f55780635e42b4551461046c5780636386c1c71461048057806366fe9f8a146104f157005b80634a4fbeec1461041e5780635664b1991461044d57005b8063372500ab1161025e5780633f138d4b116102465780633f138d4b146103d557806348b15166146103f457806348cd4cb11461040957005b8063372500ab146103a25780633a58afd4146103b657005b80631959a0021161028c5780631959a002146102f45780631cc93849146103645780633279beab1461038357005b806301f8a976146102ad5780631820cabb146102cc57005b366102ab57005b005b3480156102b8575f80fd5b506102ab6102c7366004612256565b6107f6565b3480156102d7575f80fd5b506102e160025481565b6040519081526020015b60405180910390f35b3480156102ff575f80fd5b5061033c61030e366004612288565b600e6020525f9081526040902080546001820154600283015460038401546004909401549293919290919085565b604080519586526020860194909452928401919091526060830152608082015260a0016102eb565b34801561036f575f80fd5b506102ab61037e3660046122a1565b610917565b34801561038e575f80fd5b506102ab61039d366004612256565b610a7e565b3480156103ad575f80fd5b506102ab610b15565b3480156103c1575f80fd5b506102e16103d0366004612288565b610d8a565b3480156103e0575f80fd5b506102ab6103ef3660046122ca565b610deb565b3480156103ff575f80fd5b506102e1600d5481565b348015610414575f80fd5b506102e160075481565b348015610429575f80fd5b5061043d610438366004612288565b610f9a565b60405190151581526020016102eb565b348015610458575f80fd5b506102ab610467366004612256565b610fdf565b348015610477575f80fd5b506102e16110cd565b34801561048b575f80fd5b5061049f61049a366004612288565b6110db565b604080519a8b5260208b0199909952978901969096526060880194909452608087019290925260a0860152151560c0850152151560e084015215156101008301521515610120820152610140016102eb565b3480156104fc575f80fd5b506102e160095481565b348015610511575f80fd5b506102e160105481565b348015610526575f80fd5b506102ab61116c565b34801561053a575f80fd5b506102ab610549366004612256565b61117d565b348015610559575f80fd5b506102e1600c5481565b34801561056e575f80fd5b506102ab6113f4565b348015610582575f80fd5b506102e1600a5481565b348015610597575f80fd5b505f546040516001600160a01b0390911681526020016102eb565b3480156105bd575f80fd5b506102e160065481565b3480156105d2575f80fd5b5060055461043d9060ff1681565b3480156105eb575f80fd5b5061043d6105fa366004612288565b6001600160a01b03165f908152600e6020526040902060030154151590565b348015610624575f80fd5b506102e1610633366004612288565b6114a6565b348015610643575f80fd5b506102ab6106523660046122f2565b611507565b348015610662575f80fd5b506102e160085481565b348015610677575f80fd5b5061068b610686366004612288565b6115cd565b6040516102eb9190612312565b3480156106a3575f80fd5b506102ab6106b2366004612256565b611652565b3480156106c2575f80fd5b506102e160045481565b3480156106d7575f80fd5b506102e1600b5481565b3480156106ec575f80fd5b506102e16106fb366004612288565b61169d565b6102ab6116da565b348015610713575f80fd5b506102e1610722366004612288565b611931565b348015610732575f80fd5b50610746610741366004612288565b6119b3565b6040516102eb9190612360565b34801561075e575f80fd5b506102e160035481565b348015610773575f80fd5b506102ab610782366004612288565b611b36565b348015610792575f80fd5b506102e16107a1366004612288565b611b89565b3480156107b1575f80fd5b506102ab611c50565b3480156107c5575f80fd5b506107d96107d43660046122ca565b611e0b565b604080519283526020830191909152016102eb565b6102ab611e43565b6107fe611ecf565b6127108111156108555760405162461bcd60e51b815260206004820152600c60248201527f41505920746f6f2068696768000000000000000000000000000000000000000060448201526064015b60405180910390fd5b61085d611f14565b5f600d546301e1338061087091906123a9565b90505f61087b611f8a565b905080156108ab5761088f826127106123c8565b61089984836123c8565b6108a391906123a9565b600a556108d7565b6108b7826127106123c8565b6108c984670de0b6b3a76400006123c8565b6108d391906123a9565b600a555b7f0c4d677eef92893ac7ec52faf8140fc6c851ab4736302b4f3a89dfb20696a0df600a5460405161090a91815260200190565b60405180910390a1505050565b61091f611ecf565b5f831161096e5760405162461bcd60e51b815260206004820152601c60248201527f4c6f636b20706572696f64206d75737420626520706f73697469766500000000604482015260640161084c565b5f82116109e25760405162461bcd60e51b8152602060048201526024808201527f5265776172642064656c617920706572696f64206d75737420626520706f736960448201527f7469766500000000000000000000000000000000000000000000000000000000606482015260840161084c565b5f8111610a315760405162461bcd60e51b815260206004820152601c60248201527f4578697420706572696f64206d75737420626520706f73697469766500000000604482015260640161084c565b60028390556003829055600481905560408051848152602081018490529081018290527f2455ebc2efa7e1ff0d09beab5eeb3512a8277cfeb6fb2f2d076c6270651d612a9060600161090a565b610a86611ecf565b5f610a8f611f9b565b905080821115610b075760405162461bcd60e51b815260206004820152602d60248201527f43616e6e6f742077697468647261772075736572207374616b6573206f72206560448201527f786974206c697175696469747900000000000000000000000000000000000000606482015260840161084c565b610b113383611fce565b5050565b610b1d612072565b335f908152600e602052604081206003810154909103610bb657610b3f611f14565b5f8160010154600b54600654845f0154610b5991906123c8565b610b6391906123a9565b610b6d91906123df565b90508015610bb4575f60035442610b8491906123f2565b9050610b913383836120b5565b600b546006548454610ba391906123c8565b610bad91906123a9565b6001840155505b505b335f908152600f6020526040812090610bcd611f9b565b90505f805b835481108015610be157505f83115b15610d345742848281548110610bf957610bf9612405565b905f5260205f2090600202016001015411610d22575f848281548110610c2157610c21612405565b905f5260205f2090600202015f0154905083811115610c7b57610c4484826123df565b858381548110610c5657610c56612405565b5f918252602090912060029091020155610c7084846123f2565b92505f935050610d34565b610c8581846123f2565b9250610c9181856123df565b85549094508590610ca4906001906123df565b81548110610cb457610cb4612405565b905f5260205f209060020201858381548110610cd257610cd2612405565b5f918252602090912082546002909202019081556001918201549101558454859080610d0057610d00612419565b5f8281526020812060025f199093019283020181815560010155905550610bd2565b80610d2c8161242d565b915050610bd2565b508015610d7b57610d453382611fce565b60405181815233907f106f923f993c2149d49b4255ff723acafa1f2d94393f561d3eda32ae348f72419060200160405180910390a25b50505050610d8860018055565b565b6001600160a01b0381165f908152600e6020526040812060038101548203610db457505f92915050565b5f6004548260030154610dc791906123f2565b9050804210610dd957505f9392505050565b610de342826123df565b949350505050565b610df3611ecf565b6001600160a01b038216610e495760405162461bcd60e51b815260206004820152601c60248201527f43616e6e6f74207265636f766572206e617469766520746f6b656e7300000000604482015260640161084c565b604051336024820152604481018290525f906001600160a01b0384169060640160408051601f198184030181529181526020820180517bffffffffffffffffffffffffffffffffffffffffffffffffffffffff167fa9059cbb0000000000000000000000000000000000000000000000000000000017905251610ecc9190612445565b5f604051808303815f865af19150503d805f8114610f05576040519150601f19603f3d011682016040523d82523d5f602084013e610f0a565b606091505b5050905080610f5b5760405162461bcd60e51b815260206004820152601560248201527f546f6b656e207472616e73666572206661696c65640000000000000000000000604482015260640161084c565b604080516001600160a01b0385168152602081018490527f74545154aac348a3eac92596bd1971957ca94795f4e954ec5f613b55fab78129910161090a565b6001600160a01b0381165f908152600e6020526040812060028101548203610fc457505f92915050565b6002548160020154610fd691906123f2565b42109392505050565b610fe7611ecf565b5f81116110365760405162461bcd60e51b815260206004820152601b60248201527f426c6f636b2074696d65206d75737420626520706f7369746976650000000000604482015260640161084c565b610e108111156110885760405162461bcd60e51b815260206004820152601460248201527f426c6f636b2074696d6520746f6f206c61726765000000000000000000000000604482015260640161084c565b600d80549082905560408051828152602081018490527e24be6dc070e4a35f5e69c2c31342ac959334f49c5b4b62cc1033d86e83519791015b60405180910390a15050565b5f6110d6611f9b565b905090565b6001600160a01b0381165f908152600e602052604081208054600282015460038301546004840154929491939192909183908190819081908190891561113e57600254611128908b6123f2565b985088421094508415801561113b575087155b92505b871561115e576004546001945061115590896123f2565b95508542101591505b509193959799509193959799565b611174611ecf565b610d885f6121db565b611185612072565b335f908152600e6020526040902080548211156111e45760405162461bcd60e51b815260206004820152601b60248201527f416d6f756e7420746f20776974686472617720746f6f20686967680000000000604482015260640161084c565b5f8160020154116112375760405162461bcd60e51b815260206004820152600f60248201527f4e6f20616374697665207374616b650000000000000000000000000000000000604482015260640161084c565b6003810154156112895760405162461bcd60e51b815260206004820152601c60248201527f5769746864726177616c20616c72656164792072657175657374656400000000604482015260640161084c565b5f82116112d85760405162461bcd60e51b815260206004820152601d60248201527f416d6f756e74206d7573742062652067726561746572207468616e2030000000604482015260640161084c565b6112e0611f14565b5f60025482600201546112f391906123f2565b421090505f8260010154600b54600654855f015461131191906123c8565b61131b91906123a9565b61132591906123df565b905081611350578015611350575f6003544261134191906123f2565b905061134e3383836120b5565b505b42600384015560048301849055601080548591905f906113719084906123f2565b9091555050600b54600654845461138891906123c8565b61139291906123a9565b60018401556004545f906113a690426123f2565b604080518781526020810183905291925033917fd72eb5d043f24a0168ae744d5c44f9596fd673a26bf74d9646bff4b844882d14910160405180910390a2505050506113f160018055565b50565b335f908152600e6020526040902060038101546114535760405162461bcd60e51b815260206004820152601760248201527f4e6f207769746864726177616c20726571756573746564000000000000000000604482015260640161084c565b61145b611f14565b806004015460105f82825461147091906123df565b90915550505f600382018190556004820155600b54600654825461149491906123c8565b61149e91906123a9565b600190910155565b6001600160a01b0381165f908152600f6020526040812081805b82548110156114ff578281815481106114db576114db612405565b905f5260205f2090600202015f0154826114f591906123f2565b91506001016114c0565b509392505050565b61150f611ecf565b811561158b5760055460ff161580611528575060095481115b6115745760405162461bcd60e51b815260206004820152601860248201527f4e6577206c696d6974206d757374206265206869676865720000000000000000604482015260640161084c565b6005805460ff19166001179055600981905561159a565b6005805460ff191690555f6009555b7f241f67ee5f41b7a5cabf911367329be7215900f602ebfc47f89dce2a6bcd847c6009546040516110c191815260200190565b6001600160a01b0381165f908152600f60209081526040808320805482518185028101850190935280835260609492939192909184015b82821015611647578382905f5260205f2090600202016040518060400160405290815f820154815260200160018201548152505081526020019060010190611604565b505050509050919050565b61165a611ecf565b611662611f14565b600a8190556040518181527f0c4d677eef92893ac7ec52faf8140fc6c851ab4736302b4f3a89dfb20696a0df9060200160405180910390a150565b6001600160a01b0381165f908152600e60205260408120600281015482036116c757505f92915050565b5f6002548260020154610dc791906123f2565b6116e2612072565b335f908152600e6020526040902034806117645760405162461bcd60e51b815260206004820152602560248201527f4465706f73697420616d6f756e74206d7573742062652067726561746572207460448201527f68616e2030000000000000000000000000000000000000000000000000000000606482015260840161084c565b6003820154156117dc5760405162461bcd60e51b815260206004820152602160248201527f43616e6e6f74206465706f73697420647572696e67206578697420706572696f60448201527f6400000000000000000000000000000000000000000000000000000000000000606482015260840161084c565b60055460ff16156118445760095482546117f690836123f2565b11156118445760405162461bcd60e51b815260206004820152601760248201527f5573657220616d6f756e742061626f7665206c696d6974000000000000000000604482015260640161084c565b61184c611f14565b8154156118a9575f8260010154600b54600654855f015461186d91906123c8565b61187791906123a9565b61188191906123df565b905080156118a7575f6003544261189891906123f2565b90506118a53383836120b5565b505b505b81546118b69082906123f2565b8255600c546118c69082906123f2565b600c55426002830155600b5460065483546118e191906123c8565b6118eb91906123a9565b600183015560405181815233907fe1fffcc4923d04b559f4d29a8bfc6cda04eb5b0d3c460751c2402c5c5cc9109c906020015b60405180910390a25050610d8860018055565b6001600160a01b0381165f908152600f6020526040812081805b82548110156114ff574283828154811061196757611967612405565b905f5260205f20906002020160010154116119ab5782818154811061198e5761198e612405565b905f5260205f2090600202015f0154826119a891906123f2565b91505b60010161194b565b6001600160a01b0381165f908152600e60205260408120805460609203611a0f57505060408051808201909152600881527f4e6f207374616b650000000000000000000000000000000000000000000000006020820152919050565b600381015415611aa7576004548160030154611a2b91906123f2565b4210611a6c57505060408051808201909152601081527f5769746864726177616c207265616479000000000000000000000000000000006020820152919050565b505060408051808201909152600e81527f496e206578697420706572696f640000000000000000000000000000000000006020820152919050565b6002548160020154611ab991906123f2565b421015611afb57505060408051808201909152600681527f4c6f636b656400000000000000000000000000000000000000000000000000006020820152919050565b505060408051808201909152600881527f556e6c6f636b65640000000000000000000000000000000000000000000000006020820152919050565b611b3e611ecf565b6001600160a01b038116611b80576040517f1e4fbdf70000000000000000000000000000000000000000000000000000000081525f600482015260240161084c565b6113f1816121db565b6001600160a01b0381165f908152600e60205260408120600381015482908103611c49576006545f611bb9611f8a565b905060085443118015611bcb57508015155b15611c1b575f611bdd60085443612242565b90505f600a5482611bee91906123c8565b905082600b5482611bff91906123c8565b611c0991906123a9565b600654611c1691906123f2565b935050505b6001840154600b548554611c309085906123c8565b611c3a91906123a9565b611c4491906123df565b925050505b9392505050565b611c58612072565b335f908152600e602052604090206003810154611cb75760405162461bcd60e51b815260206004820152601760248201527f4e6f207769746864726177616c20726571756573746564000000000000000000604482015260640161084c565b6004548160030154611cc991906123f2565b421015611d185760405162461bcd60e51b815260206004820152601860248201527f4578697420706572696f64206e6f742066696e69736865640000000000000000604482015260640161084c565b600481015480611d6a5760405162461bcd60e51b815260206004820152601560248201527f4e6f20616d6f756e7420746f2077697468647261770000000000000000000000604482015260640161084c565b80825f015f828254611d7c91906123df565b9250508190555080600c5f828254611d9491906123df565b925050819055508060105f828254611dac91906123df565b90915550505f600383018190556004830181905582549003611dcf575f60028301555b611dd93382611fce565b60405181815233907f7b2a72f0889ae9bb89e8ee7ec3e7c465552d1b76d51df9b0426d0e4e7f39528f9060200161191e565b600f602052815f5260405f208181548110611e24575f80fd5b5f91825260209091206002909102018054600190910154909250905082565b611e4b611ecf565b5f3411611e9a5760405162461bcd60e51b815260206004820152601060248201527f4d7573742073656e6420746f6b656e7300000000000000000000000000000000604482015260640161084c565b6040513481527fe42dde25409a3e8c7c119c1c722610d9e9bd96e73e3cead774863c9ffdd870d69060200160405180910390a1565b5f546001600160a01b03163314610d88576040517f118cdaa700000000000000000000000000000000000000000000000000000000815233600482015260240161084c565b6008544311611f1f57565b5f611f28611f8a565b9050805f03611f38575043600855565b5f611f4560085443612242565b90505f600a5482611f5691906123c8565b905082600b5482611f6791906123c8565b611f7191906123a9565b600654611f7e91906123f2565b60065550504360085550565b5f601054600c546110d691906123df565b5f80601054600c54611fad91906123f2565b905047818111611fbd575f611fc7565b611fc782826123df565b9250505090565b5f826001600160a01b0316826040515f6040518083038185875af1925050503d805f8114612017576040519150601f19603f3d011682016040523d82523d5f602084013e61201c565b606091505b505090508061206d5760405162461bcd60e51b815260206004820152601c60248201527f4e617469766520746f6b656e207472616e73666572206661696c656400000000604482015260640161084c565b505050565b6002600154036120ae576040517f3ee5aeb500000000000000000000000000000000000000000000000000000000815260040160405180910390fd5b6002600155565b6001600160a01b0383165f908152600f6020526040902080541580159061210b57508054829082906120e9906001906123df565b815481106120f9576120f9612405565b905f5260205f20906002020160010154145b1561215957805483908290612122906001906123df565b8154811061213257612132612405565b905f5260205f2090600202015f015f82825461214e91906123f2565b909155506121919050565b6040805180820190915283815260208082018481528354600181810186555f8681529390932093516002909102909301928355519101555b60408051848152602081018490526001600160a01b038616917f89a7aee88e33ba27147d5aa73f2ce916042a5a68e8c749d130e34e2e322d0eff910160405180910390a250505050565b5f80546001600160a01b038381167fffffffffffffffffffffffff0000000000000000000000000000000000000000831681178455604051919092169283917f8be0079c531659141344cd1fd0a4f28419497f9722a3daafe3b4186f6b6457e09190a35050565b5f61224d83836123df565b90505b92915050565b5f60208284031215612266575f80fd5b5035919050565b80356001600160a01b0381168114612283575f80fd5b919050565b5f60208284031215612298575f80fd5b61224d8261226d565b5f805f606084860312156122b3575f80fd5b505081359360208301359350604090920135919050565b5f80604083850312156122db575f80fd5b6122e48361226d565b946020939093013593505050565b5f8060408385031215612303575f80fd5b823580151581146122e4575f80fd5b602080825282518282018190525f919060409081850190868401855b828110156123535781518051855286015186850152928401929085019060010161232e565b5091979650505050505050565b602081525f82518060208401528060208501604085015e5f604082850101526040601f19601f83011684010191505092915050565b634e487b7160e01b5f52601160045260245ffd5b5f826123c357634e487b7160e01b5f52601260045260245ffd5b500490565b808202811582820484141761225057612250612395565b8181038181111561225057612250612395565b8082018082111561225057612250612395565b634e487b7160e01b5f52603260045260245ffd5b634e487b7160e01b5f52603160045260245ffd5b5f6001820161243e5761243e612395565b5060010190565b5f82518060208501845e5f92019182525091905056fea264697066735822122007b88245ecadf9f0dece28e920427bb399274e43feb1aa4a12ce2705ee81f8e664736f6c63430008190033",
  "linkReferences": {},
  "deployedLinkReferences": {}
}