{
  "_format": "hh-sol-artifact-1",
  "contractName": "SmartChefLP",
  "sourceName": "contracts/SmartChefLP.sol",
  "abi": [
    {
      "inputs": [
        {
          "internalType": "contract IERC20",
          "name": "_lpToken",
          "type": "address"
        },
        {
          "internalType": "uint256",
          "name": "_rewardPerBlock",
          "type": "uint256"
        },
        {
          "internalType": "uint256",
          "name": "_startBlock",
          "type": "uint256"
        },
        {
          "internalType": "uint256",
          "name": "_poolLimitPerUser",
          "type": "uint256"
        },
        {
          "internalType": "uint256",
          "name": "_rewardDelayPeriod",
          "type": "uint256"
        },
        {
          "internalType": "uint256",
          "name": "_exitPeriod",
          "type": "uint256"
        }
      ],
      "stateMutability": "nonpayable",
      "type": "constructor"
    },
    {
      "inputs": [],
      "name": "EnforcedPause",
      "type": "error"
    },
    {
      "inputs": [],
      "name": "ExpectedPause",
      "type": "error"
    },
    {
      "inputs": [
        {
          "internalType": "address",
          "name": "owner",
          "type": "address"
        }
      ],
      "name": "OwnableInvalidOwner",
      "type": "error"
    },
    {
      "inputs": [
        {
          "internalType": "address",
          "name": "account",
          "type": "address"
        }
      ],
      "name": "OwnableUnauthorizedAccount",
      "type": "error"
    },
    {
      "inputs": [],
      "name": "ReentrancyGuardReentrantCall",
      "type": "error"
    },
    {
      "inputs": [
        {
          "internalType": "address",
          "name": "token",
          "type": "address"
        }
      ],
      "name": "SafeERC20FailedOperation",
      "type": "error"
    },
    {
      "anonymous": false,
      "inputs": [
        {
          "indexed": false,
          "internalType": "address",
          "name": "tokenRecovered",
          "type": "address"
        },
        {
          "indexed": false,
          "internalType": "uint256",
          "name": "amount",
          "type": "uint256"
        }
      ],
      "name": "AdminTokenRecovery",
      "type": "event"
    },
    {
      "anonymous": false,
      "inputs": [
        {
          "indexed": false,
          "internalType": "uint256",
          "name": "oldBlockTime",
          "type": "uint256"
        },
        {
          "indexed": false,
          "internalType": "uint256",
          "name": "newBlockTime",
          "type": "uint256"
        }
      ],
      "name": "BlockTimeUpdated",
      "type": "event"
    },
    {
      "anonymous": false,
      "inputs": [
        {
          "indexed": true,
          "internalType": "address",
          "name": "user",
          "type": "address"
        },
        {
          "indexed": false,
          "internalType": "uint256",
          "name": "amount",
          "type": "uint256"
        },
        {
          "indexed": false,
          "internalType": "uint256",
          "name": "duration",
          "type": "uint256"
        }
      ],
      "name": "Deposit",
      "type": "event"
    },
    {
      "anonymous": false,
      "inputs": [],
      "name": "FrozenPermanently",
      "type": "event"
    },
    {
      "anonymous": false,
      "inputs": [
        {
          "indexed": false,
          "internalType": "uint256",
          "name": "poolLimitPerUser",
          "type": "uint256"
        }
      ],
      "name": "NewPoolLimit",
      "type": "event"
    },
    {
      "anonymous": false,
      "inputs": [
        {
          "indexed": false,
          "internalType": "uint256",
          "name": "rewardPerBlock",
          "type": "uint256"
        }
      ],
      "name": "NewRewardPerBlock",
      "type": "event"
    },
    {
      "anonymous": false,
      "inputs": [
        {
          "indexed": true,
          "internalType": "address",
          "name": "previousOwner",
          "type": "address"
        },
        {
          "indexed": true,
          "internalType": "address",
          "name": "newOwner",
          "type": "address"
        }
      ],
      "name": "OwnershipTransferred",
      "type": "event"
    },
    {
      "anonymous": false,
      "inputs": [
        {
          "indexed": true,
          "internalType": "bytes32",
          "name": "paramHash",
          "type": "bytes32"
        }
      ],
      "name": "ParameterChangeCancelled",
      "type": "event"
    },
    {
      "anonymous": false,
      "inputs": [
        {
          "indexed": true,
          "internalType": "bytes32",
          "name": "paramHash",
          "type": "bytes32"
        },
        {
          "indexed": false,
          "internalType": "uint256",
          "name": "value",
          "type": "uint256"
        }
      ],
      "name": "ParameterChangeExecuted",
      "type": "event"
    },
    {
      "anonymous": false,
      "inputs": [
        {
          "indexed": true,
          "internalType": "bytes32",
          "name": "paramHash",
          "type": "bytes32"
        },
        {
          "indexed": false,
          "internalType": "uint256",
          "name": "value",
          "type": "uint256"
        },
        {
          "indexed": false,
          "internalType": "uint256",
          "name": "executeAfter",
          "type": "uint256"
        }
      ],
      "name": "ParameterChangeScheduled",
      "type": "event"
    },
    {
      "anonymous": false,
      "inputs": [
        {
          "indexed": false,
          "internalType": "address",
          "name": "account",
          "type": "address"
        }
      ],
      "name": "Paused",
      "type": "event"
    },
    {
      "anonymous": false,
      "inputs": [
        {
          "indexed": false,
          "internalType": "uint256",
          "name": "rewardDelayPeriod",
          "type": "uint256"
        },
        {
          "indexed": false,
          "internalType": "uint256",
          "name": "exitPeriod",
          "type": "uint256"
        }
      ],
      "name": "PeriodsUpdated",
      "type": "event"
    },
    {
      "anonymous": false,
      "inputs": [
        {
          "indexed": true,
          "internalType": "address",
          "name": "user",
          "type": "address"
        },
        {
          "indexed": false,
          "internalType": "uint256",
          "name": "amount",
          "type": "uint256"
        }
      ],
      "name": "RewardClaimed",
      "type": "event"
    },
    {
      "anonymous": false,
      "inputs": [
        {
          "indexed": false,
          "internalType": "uint256",
          "name": "amount",
          "type": "uint256"
        }
      ],
      "name": "RewardsFunded",
      "type": "event"
    },
    {
      "anonymous": false,
      "inputs": [
        {
          "indexed": false,
          "internalType": "address",
          "name": "account",
          "type": "address"
        }
      ],
      "name": "Unpaused",
      "type": "event"
    },
    {
      "anonymous": false,
      "inputs": [
        {
          "indexed": true,
          "internalType": "address",
          "name": "user",
          "type": "address"
        },
        {
          "indexed": false,
          "internalType": "uint256",
          "name": "amount",
          "type": "uint256"
        }
      ],
      "name": "WithdrawExecuted",
      "type": "event"
    },
    {
      "anonymous": false,
      "inputs": [
        {
          "indexed": true,
          "internalType": "address",
          "name": "user",
          "type": "address"
        },
        {
          "indexed": false,
          "internalType": "uint256",
          "name": "amount",
          "type": "uint256"
        },
        {
          "indexed": false,
          "internalType": "uint256",
          "name": "availableTime",
          "type": "uint256"
        }
      ],
      "name": "WithdrawRequested",
      "type": "event"
    },
    {
      "stateMutability": "payable",
      "type": "fallback"
    },
    {
      "inputs": [],
      "name": "EXIT_PERIOD",
      "outputs": [
        {
          "internalType": "uint256",
          "name": "",
          "type": "uint256"
        }
      ],
      "stateMutability": "view",
      "type": "function"
    },
    {
      "inputs": [],
      "name": "PARAM_CHANGE_DELAY",
      "outputs": [
        {
          "internalType": "uint256",
          "name": "",
          "type": "uint256"
        }
      ],
      "stateMutability": "view",
      "type": "function"
    },
    {
      "inputs": [],
      "name": "PRECISION_FACTOR",
      "outputs": [
        {
          "internalType": "uint256",
          "name": "",
          "type": "uint256"
        }
      ],
      "stateMutability": "view",
      "type": "function"
    },
    {
      "inputs": [],
      "name": "REWARD_DELAY_PERIOD",
      "outputs": [
        {
          "internalType": "uint256",
          "name": "",
          "type": "uint256"
        }
      ],
      "stateMutability": "view",
      "type": "function"
    },
    {
      "inputs": [],
      "name": "accTokenPerShare",
      "outputs": [
        {
          "internalType": "uint256",
          "name": "",
          "type": "uint256"
        }
      ],
      "stateMutability": "view",
      "type": "function"
    },
    {
      "inputs": [],
      "name": "blockTime",
      "outputs": [
        {
          "internalType": "uint256",
          "name": "",
          "type": "uint256"
        }
      ],
      "stateMutability": "view",
      "type": "function"
    },
    {
      "inputs": [],
      "name": "cancelRewardPerBlockChange",
      "outputs": [],
      "stateMutability": "nonpayable",
      "type": "function"
    },
    {
      "inputs": [],
      "name": "cancelWithdraw",
      "outputs": [],
      "stateMutability": "nonpayable",
      "type": "function"
    },
    {
      "inputs": [],
      "name": "checkpointInterval",
      "outputs": [
        {
          "internalType": "uint64",
          "name": "",
          "type": "uint64"
        }
      ],
      "stateMutability": "view",
      "type": "function"
    },
    {
      "inputs": [],
      "name": "claimRewards",
      "outputs": [],
      "stateMutability": "nonpayable",
      "type": "function"
    },
    {
      "inputs": [
        {
          "internalType": "uint256",
          "name": "minReward",
          "type": "uint256"
        }
      ],
      "name": "claimRewardsWithSlippage",
      "outputs": [],
      "stateMutability": "nonpayable",
      "type": "function"
    },
    {
      "inputs": [
        {
          "internalType": "address",
          "name": "_user",
          "type": "address"
        }
      ],
      "name": "claimableView",
      "outputs": [
        {
          "internalType": "uint256",
          "name": "",
          "type": "uint256"
        }
      ],
      "stateMutability": "view",
      "type": "function"
    },
    {
      "inputs": [
        {
          "internalType": "uint256",
          "name": "_amount",
          "type": "uint256"
        },
        {
          "internalType": "uint256",
          "name": "_duration",
          "type": "uint256"
        }
      ],
      "name": "deposit",
      "outputs": [],
      "stateMutability": "nonpayable",
      "type": "function"
    },
    {
      "inputs": [
        {
          "internalType": "uint256",
          "name": "_amount",
          "type": "uint256"
        }
      ],
      "name": "emergencyRewardWithdraw",
      "outputs": [],
      "stateMutability": "nonpayable",
      "type": "function"
    },
    {
      "inputs": [],
      "name": "emergencyWithdraw",
      "outputs": [],
      "stateMutability": "nonpayable",
      "type": "function"
    },
    {
      "inputs": [],
      "name": "executeRewardPerBlockChange",
      "outputs": [],
      "stateMutability": "nonpayable",
      "type": "function"
    },
    {
      "inputs": [],
      "name": "executeWithdraw",
      "outputs": [],
      "stateMutability": "nonpayable",
      "type": "function"
    },
    {
      "inputs": [],
      "name": "freezePermanently",
      "outputs": [],
      "stateMutability": "nonpayable",
      "type": "function"
    },
    {
      "inputs": [],
      "name": "fundRewards",
      "outputs": [],
      "stateMutability": "payable",
      "type": "function"
    },
    {
      "inputs": [
        {
          "internalType": "address",
          "name": "_user",
          "type": "address"
        }
      ],
      "name": "getUserInfo",
      "outputs": [
        {
          "internalType": "uint256",
          "name": "stakedAmount",
          "type": "uint256"
        },
        {
          "internalType": "uint256",
          "name": "effectiveAmount",
          "type": "uint256"
        },
        {
          "internalType": "uint256",
          "name": "lockStartTime",
          "type": "uint256"
        },
        {
          "internalType": "uint256",
          "name": "lockDuration",
          "type": "uint256"
        },
        {
          "internalType": "uint256",
          "name": "withdrawRequestTime",
          "type": "uint256"
        },
        {
          "internalType": "uint256",
          "name": "withdrawalAmount",
          "type": "uint256"
        },
        {
          "internalType": "uint256",
          "name": "withdrawalAvailableTime",
          "type": "uint256"
        },
        {
          "internalType": "bool",
          "name": "inExitPeriod",
          "type": "bool"
        },
        {
          "internalType": "bool",
          "name": "canRequestWithdraw",
          "type": "bool"
        },
        {
          "internalType": "bool",
          "name": "canExecuteWithdraw",
          "type": "bool"
        }
      ],
      "stateMutability": "view",
      "type": "function"
    },
    {
      "inputs": [],
      "name": "hasUserLimit",
      "outputs": [
        {
          "internalType": "bool",
          "name": "",
          "type": "bool"
        }
      ],
      "stateMutability": "view",
      "type": "function"
    },
    {
      "inputs": [
        {
          "internalType": "address",
          "name": "_user",
          "type": "address"
        }
      ],
      "name": "isInExitPeriod",
      "outputs": [
        {
          "internalType": "bool",
          "name": "",
          "type": "bool"
        }
      ],
      "stateMutability": "view",
      "type": "function"
    },
    {
      "inputs": [],
      "name": "isPermanentlyFrozen",
      "outputs": [
        {
          "internalType": "bool",
          "name": "",
          "type": "bool"
        }
      ],
      "stateMutability": "view",
      "type": "function"
    },
    {
      "inputs": [],
      "name": "lastRewardBlock",
      "outputs": [
        {
          "internalType": "uint256",
          "name": "",
          "type": "uint256"
        }
      ],
      "stateMutability": "view",
      "type": "function"
    },
    {
      "inputs": [
        {
          "internalType": "address",
          "name": "_user",
          "type": "address"
        }
      ],
      "name": "lockedView",
      "outputs": [
        {
          "internalType": "uint256",
          "name": "",
          "type": "uint256"
        }
      ],
      "stateMutability": "view",
      "type": "function"
    },
    {
      "inputs": [],
      "name": "lpToken",
      "outputs": [
        {
          "internalType": "contract IERC20",
          "name": "",
          "type": "address"
        }
      ],
      "stateMutability": "view",
      "type": "function"
    },
    {
      "inputs": [],
      "name": "owner",
      "outputs": [
        {
          "internalType": "address",
          "name": "",
          "type": "address"
        }
      ],
      "stateMutability": "view",
      "type": "function"
    },
    {
      "inputs": [],
      "name": "paused",
      "outputs": [
        {
          "internalType": "bool",
          "name": "",
          "type": "bool"
        }
      ],
      "stateMutability": "view",
      "type": "function"
    },
    {
      "inputs": [
        {
          "internalType": "bytes32",
          "name": "",
          "type": "bytes32"
        }
      ],
      "name": "pendingChanges",
      "outputs": [
        {
          "internalType": "uint256",
          "name": "value",
          "type": "uint256"
        },
        {
          "internalType": "uint256",
          "name": "executeAfter",
          "type": "uint256"
        }
      ],
      "stateMutability": "view",
      "type": "function"
    },
    {
      "inputs": [
        {
          "internalType": "address",
          "name": "_user",
          "type": "address"
        }
      ],
      "name": "pendingReward",
      "outputs": [
        {
          "internalType": "uint256",
          "name": "",
          "type": "uint256"
        }
      ],
      "stateMutability": "view",
      "type": "function"
    },
    {
      "inputs": [],
      "name": "poolLimitPerUser",
      "outputs": [
        {
          "internalType": "uint256",
          "name": "",
          "type": "uint256"
        }
      ],
      "stateMutability": "view",
      "type": "function"
    },
    {
      "inputs": [
        {
          "internalType": "address",
          "name": "_tokenAddress",
          "type": "address"
        },
        {
          "internalType": "uint256",
          "name": "_tokenAmount",
          "type": "uint256"
        }
      ],
      "name": "recoverWrongTokens",
      "outputs": [],
      "stateMutability": "nonpayable",
      "type": "function"
    },
    {
      "inputs": [],
      "name": "renounceOwnership",
      "outputs": [],
      "stateMutability": "nonpayable",
      "type": "function"
    },
    {
      "inputs": [
        {
          "internalType": "uint256",
          "name": "_amount",
          "type": "uint256"
        }
      ],
      "name": "requestWithdraw",
      "outputs": [],
      "stateMutability": "nonpayable",
      "type": "function"
    },
    {
      "inputs": [],
      "name": "rewardPerBlock",
      "outputs": [
        {
          "internalType": "uint256",
          "name": "",
          "type": "uint256"
        }
      ],
      "stateMutability": "view",
      "type": "function"
    },
    {
      "inputs": [
        {
          "internalType": "uint256",
          "name": "_newRate",
          "type": "uint256"
        }
      ],
      "name": "scheduleRewardPerBlockChange",
      "outputs": [],
      "stateMutability": "nonpayable",
      "type": "function"
    },
    {
      "inputs": [
        {
          "internalType": "uint256",
          "name": "_rewardPerBlock",
          "type": "uint256"
        }
      ],
      "name": "setRewardPerBlock",
      "outputs": [],
      "stateMutability": "nonpayable",
      "type": "function"
    },
    {
      "inputs": [],
      "name": "startBlock",
      "outputs": [
        {
          "internalType": "uint256",
          "name": "",
          "type": "uint256"
        }
      ],
      "stateMutability": "view",
      "type": "function"
    },
    {
      "inputs": [
        {
          "internalType": "address",
          "name": "_user",
          "type": "address"
        }
      ],
      "name": "timeUntilUnlock",
      "outputs": [
        {
          "internalType": "uint256",
          "name": "",
          "type": "uint256"
        }
      ],
      "stateMutability": "view",
      "type": "function"
    },
    {
      "inputs": [
        {
          "internalType": "address",
          "name": "_user",
          "type": "address"
        }
      ],
      "name": "timeUntilWithdrawalAvailable",
      "outputs": [
        {
          "internalType": "uint256",
          "name": "",
          "type": "uint256"
        }
      ],
      "stateMutability": "view",
      "type": "function"
    },
    {
      "inputs": [],
      "name": "totalAccruedRewards",
      "outputs": [
        {
          "internalType": "uint256",
          "name": "",
          "type": "uint256"
        }
      ],
      "stateMutability": "view",
      "type": "function"
    },
    {
      "inputs": [],
      "name": "totalActiveEffective",
      "outputs": [
        {
          "internalType": "uint256",
          "name": "",
          "type": "uint256"
        }
      ],
      "stateMutability": "view",
      "type": "function"
    },
    {
      "inputs": [],
      "name": "totalClaimedRewards",
      "outputs": [
        {
          "internalType": "uint256",
          "name": "",
          "type": "uint256"
        }
      ],
      "stateMutability": "view",
      "type": "function"
    },
    {
      "inputs": [],
      "name": "totalInExitPeriod",
      "outputs": [
        {
          "internalType": "uint256",
          "name": "",
          "type": "uint256"
        }
      ],
      "stateMutability": "view",
      "type": "function"
    },
    {
      "inputs": [],
      "name": "totalStaked",
      "outputs": [
        {
          "internalType": "uint256",
          "name": "",
          "type": "uint256"
        }
      ],
      "stateMutability": "view",
      "type": "function"
    },
    {
      "inputs": [
        {
          "internalType": "address",
          "name": "newOwner",
          "type": "address"
        }
      ],
      "name": "transferOwnership",
      "outputs": [],
      "stateMutability": "nonpayable",
      "type": "function"
    },
    {
      "inputs": [
        {
          "internalType": "uint256",
          "name": "_newBlockTime",
          "type": "uint256"
        }
      ],
      "name": "updateBlockTime",
      "outputs": [],
      "stateMutability": "nonpayable",
      "type": "function"
    },
    {
      "inputs": [
        {
          "internalType": "uint64",
          "name": "_newInterval",
          "type": "uint64"
        }
      ],
      "name": "updateCheckpointInterval",
      "outputs": [],
      "stateMutability": "nonpayable",
      "type": "function"
    },
    {
      "inputs": [
        {
          "internalType": "uint256",
          "name": "_rewardDelayPeriod",
          "type": "uint256"
        },
        {
          "internalType": "uint256",
          "name": "_exitPeriod",
          "type": "uint256"
        }
      ],
      "name": "updatePeriods",
      "outputs": [],
      "stateMutability": "nonpayable",
      "type": "function"
    },
    {
      "inputs": [],
      "name": "updatePool",
      "outputs": [],
      "stateMutability": "nonpayable",
      "type": "function"
    },
    {
      "inputs": [
        {
          "internalType": "bool",
          "name": "_hasUserLimit",
          "type": "bool"
        },
        {
          "internalType": "uint256",
          "name": "_poolLimitPerUser",
          "type": "uint256"
        }
      ],
      "name": "updatePoolLimitPerUser",
      "outputs": [],
      "stateMutability": "nonpayable",
      "type": "function"
    },
    {
      "inputs": [
        {
          "internalType": "uint256",
          "name": "_newAPYBasisPoints",
          "type": "uint256"
        }
      ],
      "name": "updateRewardPerBlock",
      "outputs": [],
      "stateMutability": "nonpayable",
      "type": "function"
    },
    {
      "inputs": [
        {
          "internalType": "address",
          "name": "",
          "type": "address"
        }
      ],
      "name": "userInfo",
      "outputs": [
        {
          "internalType": "uint256",
          "name": "amount",
          "type": "uint256"
        },
        {
          "internalType": "uint256",
          "name": "effectiveAmount",
          "type": "uint256"
        },
        {
          "internalType": "uint256",
          "name": "rewardDebt",
          "type": "uint256"
        },
        {
          "internalType": "uint256",
          "name": "debtClaimablePS",
          "type": "uint256"
        },
        {
          "internalType": "uint256",
          "name": "lockStartTime",
          "type": "uint256"
        },
        {
          "internalType": "uint256",
          "name": "lockDuration",
          "type": "uint256"
        },
        {
          "internalType": "uint256",
          "name": "withdrawRequestTime",
          "type": "uint256"
        },
        {
          "internalType": "uint256",
          "name": "withdrawalAmount",
          "type": "uint256"
        },
        {
          "internalType": "uint256",
          "name": "delayedReward",
          "type": "uint256"
        },
        {
          "internalType": "uint256",
          "name": "delayedUnlockBlock",
          "type": "uint256"
        }
      ],
      "stateMutability": "view",
      "type": "function"
    },
    {
      "stateMutability": "payable",
      "type": "receive"
    }
  ],
  "bytecode": "0x6080604052610258600381905560045564e8d4a51000600b55600560125560168054600160201b600160601b031916643c00000000179055348015610042575f80fd5b506040516138c33803806138c38339810160408190526100619161026a565b338061008657604051631e4fbdf760e01b81525f600482015260240160405180910390fd5b61008f81610139565b5060018055600580546001600160a01b0319166001600160a01b03881617905560068590554384116100c157436100c3565b835b600781905560085582156100e4576009805460ff19166001179055600a8390555b60038290556004819055601680546001600160401b03439081166c0100000000000000000000000002600160601b600160a01b03199092169190911790915561012e905f80610188565b50505050505061031a565b5f80546001600160a01b038381166001600160a01b0319831681178455604051919092169283917f8be0079c531659141344cd1fd0a4f28419497f9722a3daafe3b4186f6b6457e09190a35050565b6016545f9061019c9061ffff1660016102d8565b905061010061ffff8216106101ae57505f5b604080516060810182526001600160401b038681168252602080830187815283850187815261ffff8781165f818152601590955296909320945185546001600160401b031916941693909317845551600184015590516002909201919091556016805461ffff19169092179182905561010062010000909204161015610264576016805462010000900461ffff16906002610248836102fa565b91906101000a81548161ffff021916908361ffff160217905550505b50505050565b5f805f805f8060c0878903121561027f575f80fd5b86516001600160a01b0381168114610295575f80fd5b6020880151604089015160608a015160808b015160a0909b0151939c929b509099909850965090945092505050565b634e487b7160e01b5f52601160045260245ffd5b61ffff8181168382160190808211156102f3576102f36102c4565b5092915050565b5f61ffff808316818103610310576103106102c4565b6001019392505050565b61359c806103275f395ff3fe60806040526004361061031d575f3560e01c8063817b1cd2116101a2578063bb872b4a116100ea578063e2bbb1581161008e578063f2fde38b1161006b578063f2fde38b14610996578063f40f0f52146109b5578063f8fd9795146109d4578063ff18bf0b146109e857005b8063e2bbb1581461094e578063e3161ddd1461096d578063f1fa0e5a1461098157005b8063ccd34cd5116100c7578063ccd34cd5146108f1578063d0228e8f14610906578063d578ceab14610925578063db2e21bc1461093a57005b8063bb872b4a1461089e578063c04b5f65146108bd578063ca23bba8146108d257005b80638f66291511610151578063977d58fe1161012e578063977d58fe14610812578063a0b409051461084b578063a9f8d1811461086a578063aa78e4b11461087f57005b80638f662915146107d057806390682b89146107e557806392e8990e146107f957005b8063894e22db1161017f578063894e22db1461078b5780638ae39cac1461079f5780638da5cb5b146107b457005b8063817b1cd21461074357806384b768241461075857806386f36e821461076c57005b80634ac4b6e011610265578063605fba671161021457806368226601116101f157806368226601146106dc578063715018a6146106f1578063745400c91461070557806378d760371461072457005b8063605fba67146106395780636386c1c71461065857806366fe9f8a146106c757005b80635c975abb116102425780635c975abb146105c15780635f07332d146105e45780635fcbd2851461060257005b80634ac4b6e0146105465780634dda55181461055b5780635664b199146105a257005b80633a18d8c0116102cc578063423975f3116102a9578063423975f3146104e85780634623635e146104fd57806348b151661461051c57806348cd4cb11461053157005b80633a18d8c0146104695780633a58afd4146104aa5780633f138d4b146104c957005b80632498e780116102fa5780632498e780146104225780633279beab14610436578063372500ab1461045557005b806301f8a97614610326578063096abd33146103455780631959a0021461036e57005b3661032457005b005b348015610331575f80fd5b50610324610340366004613354565b6109f0565b348015610350575f80fd5b5061035b6201518081565b6040519081526020015b60405180910390f35b348015610379575f80fd5b506103d8610388366004613386565b6014602052805f5260405f205f91509050805f015490806001015490806002015490806003015490806004015490806005015490806006015490806007015490806008015490806009015490508a565b604080519a8b5260208b0199909952978901969096526060880194909452608087019290925260a086015260c085015260e084015261010083015261012082015261014001610365565b34801561042d575f80fd5b50610324610b43565b348015610441575f80fd5b50610324610450366004613354565b610d03565b348015610460575f80fd5b50610324610d68565b348015610474575f80fd5b5060165461049190640100000000900467ffffffffffffffff1681565b60405167ffffffffffffffff9091168152602001610365565b3480156104b5575f80fd5b5061035b6104c4366004613386565b610d8d565b3480156104d4575f80fd5b506103246104e336600461339f565b610dee565b3480156104f3575f80fd5b5061035b600e5481565b348015610508575f80fd5b506103246105173660046133c7565b610eaf565b348015610527575f80fd5b5061035b60125481565b34801561053c575f80fd5b5061035b60075481565b348015610551575f80fd5b5061035b60105481565b348015610566575f80fd5b5061058d610575366004613354565b60136020525f90815260409020805460019091015482565b60408051928352602083019190915201610365565b3480156105ad575f80fd5b506103246105bc366004613354565b610f59565b3480156105cc575f80fd5b5060025460ff165b6040519015158152602001610365565b3480156105ef575f80fd5b50601654600160a01b900460ff166105d4565b34801561060d575f80fd5b50600554610621906001600160a01b031681565b6040516001600160a01b039091168152602001610365565b348015610644575f80fd5b5061035b610653366004613386565b610ffb565b348015610663575f80fd5b50610677610672366004613386565b6110ce565b604080519a8b5260208b0199909952978901969096526060880194909452608087019290925260a086015260c0850152151560e08401521515610100830152151561012082015261014001610365565b3480156106d2575f80fd5b5061035b600a5481565b3480156106e7575f80fd5b5061035b600f5481565b3480156106fc575f80fd5b50610324611167565b348015610710575f80fd5b5061032461071f366004613354565b611178565b34801561072f575f80fd5b5061032461073e366004613354565b61149a565b34801561074e575f80fd5b5061035b600d5481565b348015610763575f80fd5b50610324611546565b348015610777575f80fd5b506103246107863660046133e7565b61166e565b348015610796575f80fd5b50610324611719565b3480156107aa575f80fd5b5061035b60065481565b3480156107bf575f80fd5b505f546001600160a01b0316610621565b3480156107db575f80fd5b5061035b600c5481565b3480156107f0575f80fd5b50610324611781565b348015610804575f80fd5b506009546105d49060ff1681565b34801561081d575f80fd5b506105d461082c366004613386565b6001600160a01b03165f90815260146020526040902060060154151590565b348015610856575f80fd5b5061032461086536600461340e565b611826565b348015610875575f80fd5b5061035b60085481565b34801561088a575f80fd5b50610324610899366004613354565b6118ec565b3480156108a9575f80fd5b506103246108b8366004613354565b61190f565b3480156108c8575f80fd5b5061035b60045481565b3480156108dd575f80fd5b5061035b6108ec366004613386565b61195a565b3480156108fc575f80fd5b5061035b600b5481565b348015610911575f80fd5b5061035b610920366004613386565b611a0f565b348015610930575f80fd5b5061035b60115481565b348015610945575f80fd5b50610324611a4e565b348015610959575f80fd5b506103246109683660046133c7565b611ba3565b348015610978575f80fd5b50610324611e57565b34801561098c575f80fd5b5061035b60035481565b3480156109a1575f80fd5b506103246109b0366004613386565b611e5f565b3480156109c0575f80fd5b5061035b6109cf366004613386565b611eb2565b3480156109df575f80fd5b5061032461205a565b61032461226d565b6109f86122fa565b620f4240811115610a505760405162461bcd60e51b815260206004820152600c60248201527f41505920746f6f2068696768000000000000000000000000000000000000000060448201526064015b60405180910390fd5b610a5861233f565b5f6012546301e13380610a6b9190613456565b600e549091508015610a9557610a8d8184610a8885612710613469565b612560565b600655610b03565b60405162461bcd60e51b815260206004820152603360248201527f4e6f2061637469766520656666656374697665202d207573652073657452657760448201527f617264506572426c6f636b20696e7374656164000000000000000000000000006064820152608401610a47565b7f0c4d677eef92893ac7ec52faf8140fc6c851ab4736302b4f3a89dfb20696a0df600654604051610b3691815260200190565b60405180910390a1505050565b610b4b6122fa565b7f26c3053a9ab1625d44b90708e16d52b35ab3cfb0d872f84b29e76c8f0cee851b5f81905260136020908152604080518082019091527f466c318fe7a714b2c3b85a91c97da1f5878945e467140f6ebab7599eb1e108955481527f466c318fe7a714b2c3b85a91c97da1f5878945e467140f6ebab7599eb1e108965491810182905290610c1a5760405162461bcd60e51b815260206004820152601160248201527f4e6f2070656e64696e67206368616e67650000000000000000000000000000006044820152606401610a47565b8060200151421015610c6e5760405162461bcd60e51b815260206004820152601460248201527f54696d656c6f636b206e6f7420657870697265640000000000000000000000006044820152606401610a47565b610c7661233f565b80516006555f82815260136020908152604080832083815560010192909255825191519182527f0c4d677eef92893ac7ec52faf8140fc6c851ab4736302b4f3a89dfb20696a0df910160405180910390a1805160405190815282907f31564d9c3e497cbcaea3bfc6814d1c86ebf66b3fe325b5f5b327434f5885436e906020015b60405180910390a25050565b610d0b6122fa565b80471015610d5b5760405162461bcd60e51b815260206004820152601b60248201527f496e73756666696369656e74207265776172642062616c616e636500000000006044820152606401610a47565b610d653382612611565b50565b610d706126ba565b610d786126fd565b610d82335f61273a565b610d8b60018055565b565b6001600160a01b0381165f90815260146020526040812060068101548203610db757505f92915050565b5f6004548260060154610dca9190613486565b9050804210610ddc57505f9392505050565b610de64282613499565b949350505050565b610df66122fa565b6005546001600160a01b0390811690831603610e545760405162461bcd60e51b815260206004820152601160248201527f43616e6e6f74207265636f766572204c500000000000000000000000000000006044820152606401610a47565b610e686001600160a01b0383163383612949565b604080516001600160a01b0384168152602081018390527f74545154aac348a3eac92596bd1971957ca94795f4e954ec5f613b55fab7812991015b60405180910390a15050565b610eb76122fa565b5f82118015610ec557505f81115b610f115760405162461bcd60e51b815260206004820152600f60248201527f496e76616c696420706572696f647300000000000000000000000000000000006044820152606401610a47565b610f1961233f565b6003829055600481905560408051838152602081018390527f8e7237c327b2c040e122ee8871f17435fda2eae7d8e36798de13714b60f2b6ee9101610ea3565b610f616122fa565b5f81118015610f725750610e108111155b610fbe5760405162461bcd60e51b815260206004820152601160248201527f496e76616c696420626c6f636b54696d650000000000000000000000000000006044820152606401610a47565b601280549082905560408051828152602081018490527e24be6dc070e4a35f5e69c2c31342ac959334f49c5b4b62cc1033d86e8351979101610ea3565b6001600160a01b0381165f908152601460205260408120600981015482901580159061102b575081600901544310155b1561104257600882015461103f9082613486565b90505b60018201545f81900361105757509392505050565b5f6012546003546110689190613456565b90505f814311611078575f611082565b6110828243613499565b90505f61108e826129bd565b6003870154909150808211156110c1576110b4856110ac8385613499565b600b54612560565b6110be9087613486565b95505b5093979650505050505050565b6001600160a01b0381165f908152601460205260408120805460018201546004830154600584015460068501546007860154949693959294919390928190819081908189158015906111295750611125898b613486565b4210155b9050808015611136575087155b93508715611158576004546001955061114f9089613486565b95508542101592505b50509193959799509193959799565b61116f6122fa565b610d8b5f612bbb565b6111806126ba565b6111886126fd565b335f90815260146020526040902081158015906111a6575080548211155b6111f25760405162461bcd60e51b815260206004820152600a60248201527f42616420616d6f756e74000000000000000000000000000000000000000000006044820152606401610a47565b5f8160040154116112455760405162461bcd60e51b815260206004820152600f60248201527f4e6f20616374697665207374616b6500000000000000000000000000000000006044820152606401610a47565b6006810154156112975760405162461bcd60e51b815260206004820152601160248201527f416c7265616479207265717565737465640000000000000000000000000000006044820152606401610a47565b806005015481600401546112ab9190613486565b4210156112fa5760405162461bcd60e51b815260206004820152600c60248201527f5374616b65206c6f636b656400000000000000000000000000000000000000006044820152606401610a47565b61130261233f565b61130c335f61273a565b5f60125460035461131d9190613456565b90505f81431161132d575f611337565b6113378243613499565b90505f611343826129bd565b90505f81600c546113549190613499565b905080156113b9575f61137c8761136e8860050154612c22565b670de0b6b3a7640000612560565b90505f61138c8284600b54612560565b905080876008015f8282546113a19190613486565b909155506113b190508643613486565b600988015550505b5f6113cb8761136e8860050154612c22565b905080866001015f8282546113e09190613499565b9250508190555080600e5f8282546113f89190613499565b909155505042600687015560078601879055600f80548891905f9061141e908490613486565b925050819055506114388660010154600c54600b54612560565b60028701556004545f9061144c9042613486565b604080518a81526020810183905291925033917fd72eb5d043f24a0168ae744d5c44f9596fd673a26bf74d9646bff4b844882d14910160405180910390a250505050505050610d6560018055565b6114a26122fa565b604080518082019091528181527f26c3053a9ab1625d44b90708e16d52b35ab3cfb0d872f84b29e76c8f0cee851b90602081016114e26201518042613486565b90525f82815260136020908152604090912082518155910151600190910155807f4107c16102ca593afea4ac800deb7d36407d3f25e61cccd6628094793f668ffe836115316201518042613486565b60408051928352602083019190915201610cf7565b61154e6126ba565b6115566126fd565b335f90815260146020526040902060068101546115b55760405162461bcd60e51b815260206004820152601760248201527f4e6f207769746864726177616c207265717565737465640000000000000000006044820152606401610a47565b6115bd61233f565b6115c7335f61273a565b5f6115dd826007015461136e8460050154612c22565b905080826001015f8282546115f29190613486565b9250508190555080600e5f82825461160a9190613486565b90915550506007820154600f80545f90611625908490613499565b90915550505f60068301819055600783018190556008830181905560098301556001820154600c54600b5461165b929190612560565b82600201819055505050610d8b60018055565b6116766122fa565b60068167ffffffffffffffff161015801561169d57506103e88167ffffffffffffffff1611155b6116e95760405162461bcd60e51b815260206004820152601060248201527f496e76616c696420696e74657276616c000000000000000000000000000000006044820152606401610a47565b6016805467ffffffffffffffff909216640100000000026bffffffffffffffff0000000019909216919091179055565b6117216122fa565b611729612c9b565b601680547fffffffffffffffffffffff00ffffffffffffffffffffffffffffffffffffffff16600160a01b1790556040517f8590c6b2a21f1d879a2ff65d0c42e5309debe25afcf918d1e18439434827cd01905f90a1565b6117896122fa565b7f26c3053a9ab1625d44b90708e16d52b35ab3cfb0d872f84b29e76c8f0cee851b5f81815260136020527f466c318fe7a714b2c3b85a91c97da1f5878945e467140f6ebab7599eb1e108958190557f466c318fe7a714b2c3b85a91c97da1f5878945e467140f6ebab7599eb1e1089681905560405182917ffbe037eef108662db90b0a679b0dde447f266ad1254d34073a5ad826453dbe7c91a250565b61182e6122fa565b81156118aa5760095460ff1615806118475750600a5481115b6118935760405162461bcd60e51b815260206004820152600d60248201527f4d75737420696e637265617365000000000000000000000000000000000000006044820152606401610a47565b6009805460ff19166001179055600a8190556118b9565b6009805460ff191690555f600a555b7f241f67ee5f41b7a5cabf911367329be7215900f602ebfc47f89dce2a6bcd847c600a54604051610ea391815260200190565b6118f46126ba565b6118fc6126fd565b611906338261273a565b610d6560018055565b6119176122fa565b61191f61233f565b60068190556040518181527f0c4d677eef92893ac7ec52faf8140fc6c851ab4736302b4f3a89dfb20696a0df9060200160405180910390a150565b6001600160a01b0381165f90815260146020526040812060098101548290158015906119895750816009015443105b156119a057600882015461199d9082613486565b90505b60018201545f8190036119b557509392505050565b5f6119be612cf0565b90505f6012546003546119d19190613456565b90505f8143116119e1575f6119eb565b6119eb8243613499565b90505f6119f7826129bd565b9050808411156110c1576110b4856110ac8387613499565b6001600160a01b0381165f90815260146020526040812060048101548203611a3957505f92915050565b5f81600501548260040154610dca9190613486565b611a56612e68565b335f90815260146020526040812060078101548154919291611a789190613486565b90505f8111611ac95760405162461bcd60e51b815260206004820152601460248201527f4e6f2066756e647320746f2077697468647261770000000000000000000000006044820152606401610a47565b8154600d80545f90611adc908490613499565b90915550506001820154600e80545f90611af7908490613499565b90915550506007820154600f80545f90611b12908490613499565b90915550505f808355600183018190556002830181905560038301819055600483018190556005808401829055600684018290556007840182905560088401829055600984019190915554611b71906001600160a01b03163383612949565b60405181815233907f7b2a72f0889ae9bb89e8ee7ec3e7c465552d1b76d51df9b0426d0e4e7f39528f90602001610cf7565b611bab6126ba565b611bb36126fd565b335f90815260146020526040902082611c0e5760405162461bcd60e51b815260206004820152600c60248201527f5a65726f206465706f73697400000000000000000000000000000000000000006044820152606401610a47565b600681015415611c605760405162461bcd60e51b815260206004820152600e60248201527f496e206578697420706572696f640000000000000000000000000000000000006044820152606401610a47565b5f611c6a83612c22565b825490915015611cc75781600501548314611cc75760405162461bcd60e51b815260206004820152601160248201527f4475726174696f6e206d69736d617463680000000000000000000000000000006044820152606401610a47565b60095460ff1615611d2f57600a548254611ce19086613486565b1115611d2f5760405162461bcd60e51b815260206004820152600b60248201527f41626f7665206c696d69740000000000000000000000000000000000000000006044820152606401610a47565b611d3761233f565b815415611d4d57611d48335f61273a565b611d5d565b600c546003830155600582018390555b83825f015f828254611d6f9190613486565b9250508190555083600d5f828254611d879190613486565b909155505f9050611da18583670de0b6b3a7640000612560565b905080836001015f828254611db69190613486565b9250508190555080600e5f828254611dce9190613486565b90915550504260048401556001830154600c54600b54611def929190612560565b6002840155600554611e0c906001600160a01b0316333088612ea4565b604080518681526020810186905233917f90890809c654f11d6e72a28fa60149770a0d11ec6c92319d6ceb2bb0a4ea1a15910160405180910390a2505050611e5360018055565b5050565b610d8b61233f565b611e676122fa565b6001600160a01b038116611ea9576040517f1e4fbdf70000000000000000000000000000000000000000000000000000000081525f6004820152602401610a47565b610d6581612bbb565b6001600160a01b0381165f908152601460205260408120600e54808303611edc57505f9392505050565b600c54600854431115612017575f60085443611ef89190613499565b90505f5b5f82118015611f0c57505f600654115b15611f69575f6006545f19611f219190613456565b8311611f2d5782611f3b565b600654611f3b905f19613456565b905060065481611f4b9190613469565b611f559083613486565b9150611f618184613499565b925050611efc565b5f60115460105411611f7b575f611f8b565b601154601054611f8b9190613499565b9050475f828211611f9c575f611fa6565b611fa68383613499565b905080841115611fb4578093505b831561201157600b545b5f85118015611fcc57505f81115b8015611fe15750611fde815f19613456565b85115b15611ff857611ff1600a82613456565b9050611fbe565b61200385828a612560565b61200d9088613486565b9650505b50505050505b5f612029846001015483600b54612560565b90508360020154811061204f5760028401546120459082613499565b9695505050505050565b505f95945050505050565b6120626126ba565b61206a6126fd565b612074335f61273a565b335f90815260146020526040902060068101546120d35760405162461bcd60e51b815260206004820152601760248201527f4e6f207769746864726177616c207265717565737465640000000000000000006044820152606401610a47565b60045481600601546120e59190613486565b4210156121345760405162461bcd60e51b815260206004820152601160248201527f45786974206e6f742066696e69736865640000000000000000000000000000006044820152606401610a47565b6007810154806121865760405162461bcd60e51b815260206004820152600960248201527f4e6f20616d6f756e7400000000000000000000000000000000000000000000006044820152606401610a47565b80600f5f8282546121979190613499565b9250508190555080600d5f8282546121af9190613499565b90915550505f60068301819055600783015581548190036121e6575f808355600483018190556005830181905560038301556121fe565b80825f015f8282546121f89190613499565b90915550505b6122118260010154600c54600b54612560565b600283015560055461222d906001600160a01b03163383612949565b60405181815233907f7b2a72f0889ae9bb89e8ee7ec3e7c465552d1b76d51df9b0426d0e4e7f39528f9060200160405180910390a25050610d8b60018055565b6122756122fa565b5f34116122c45760405162461bcd60e51b815260206004820152601060248201527f4d7573742073656e6420746f6b656e73000000000000000000000000000000006044820152606401610a47565b6040513481527fe42dde25409a3e8c7c119c1c722610d9e9bd96e73e3cead774863c9ffdd870d6906020015b60405180910390a1565b5f546001600160a01b03163314610d8b576040517f118cdaa7000000000000000000000000000000000000000000000000000000008152336004820152602401610a47565b600854431161234a57565b600e545f81900361235c575043600855565b5f6008544361236b9190613499565b90505f5b5f8211801561237f57505f600654115b156123f3575f6006545f196123949190613456565b83116123a057826123ae565b6006546123ae905f19613456565b9050600654816123be9190613469565b6123c89083613486565b91506123d48184613499565b92508060085f8282546123e79190613486565b9091555061236f915050565b5f60115460105411612405575f612415565b6011546010546124159190613499565b9050475f828211612426575f612430565b6124308383613499565b90508084111561243e578093505b83156124bc57600b545b5f8511801561245657505f81115b801561246b5750612468815f19613456565b85115b156124825761247b600a82613456565b9050612448565b61248d858289612560565b600c5f82825461249d9190613486565b925050819055508460105f8282546124b59190613486565b9091555050505b43600881905560165467ffffffffffffffff64010000000082048116926124f6926c010000000000000000000000009004909116906134ac565b67ffffffffffffffff16106125585761251443600c54600e54612ee3565b601680547fffffffffffffffffffffffff0000000000000000ffffffffffffffffffffffff166c010000000000000000000000004367ffffffffffffffff16021790555b505050505050565b5f805f61256d8686612fc6565b91509150815f03612591578381816125875761258761342e565b049250505061260a565b8184116125a8576125a86003851502601118612fe2565b5f848688095f868103871696879004966002600389028118808a02820302808a02820302808a02820302808a02820302808a02820302808a02909103029181900381900460010185841190960395909502919093039390930492909217029150505b9392505050565b5f826001600160a01b0316826108fc906040515f60405180830381858888f193505050503d805f811461265f576040519150601f19603f3d011682016040523d82523d5f602084013e612664565b606091505b50509050806126b55760405162461bcd60e51b815260206004820152601660248201527f4e6174697665207472616e73666572206661696c6564000000000000000000006044820152606401610a47565b505050565b6002600154036126f6576040517f3ee5aeb500000000000000000000000000000000000000000000000000000000815260040160405180910390fd5b6002600155565b60025460ff1615610d8b576040517fd93c066500000000000000000000000000000000000000000000000000000000815260040160405180910390fd5b6001600160a01b0382165f9081526014602052604081206012546003549192916127649190613456565b90505f814311612774575f61277e565b61277e8243613499565b90505f61278a826129bd565b60038501549091505f81831180156127a557505f8660010154115b156127c05760018601546127bd906110ac8486613499565b90505b6127c861233f565b60098601548190158015906127e1575086600901544310155b156128055760088701546127f59082613486565b5f60088901819055600989015590505b475f818311156128155781612817565b825b9050898110156128695760405162461bcd60e51b815260206004820152601860248201527f536c6970706167653a2072657761726420746f6f206c6f7700000000000000006044820152606401610a47565b80156128ce576128798b82612611565b8060115f82825461288a9190613486565b90915550506040518181526001600160a01b038c16907f106f923f993c2149d49b4255ff723acafa1f2d94393f561d3eda32ae348f72419060200160405180910390a25b8215612919578281106128e75760038901869055612921565b5f6128f28688613499565b90505f612900838387612560565b905061290c8188613486565b60038c0155506129219050565b600389018690555b6129348960010154600c54600b54612560565b89600201819055505050505050505050505050565b6040516001600160a01b038381166024830152604482018390526126b591859182169063a9059cbb906064015b604051602081830303815290604052915060e01b6020820180517bffffffffffffffffffffffffffffffffffffffffffffffffffffffff8381831617835250505050612ff3565b6016545f9062010000900461ffff1681036129d957505f919050565b5f806129e484613078565b915091505f806129f6835f01516131b0565b9150915083612a0a57505f95945050505050565b82604001515f03612a22575050602001519392505050565b811580612a465750805f015167ffffffffffffffff168667ffffffffffffffff1610155b15612b2257825f015167ffffffffffffffff168667ffffffffffffffff161115612b15575f612a73612cf0565b90505f846020015182612a869190613499565b85519091505f90612aa19067ffffffffffffffff1643613499565b9050805f03612abc5750505060209092015195945050505050565b5f865f015167ffffffffffffffff168a67ffffffffffffffff16612ae09190613499565b905081811115612aed5750805b612af8838284612560565b8760200151612b079190613486565b9a9950505050505050505050565b5050602001519392505050565b8251815167ffffffffffffffff918216911603612b46575050602001519392505050565b825181515f91612b55916134ac565b67ffffffffffffffff1690505f845f015188612b7191906134ac565b67ffffffffffffffff1690505f85602001518460200151612b929190613499565b9050612b9f818385612560565b8660200151612bae9190613486565b9998505050505050505050565b5f80546001600160a01b038381167fffffffffffffffffffffffff0000000000000000000000000000000000000000831681178455604051919092169283917f8be0079c531659141344cd1fd0a4f28419497f9722a3daafe3b4186f6b6457e09190a35050565b5f8161025803612c3b5750670de0b6b3a7640000919050565b816104b003612c5357506714d1120d7b160000919050565b60405162461bcd60e51b815260206004820152601060248201527f496e76616c6964206475726174696f6e000000000000000000000000000000006044820152606401610a47565b612ca36126fd565b6002805460ff191660011790557f62e78cea01bee320cd4e420270b5ea74000d11b0c9f74754ebdbfc544b05a258612cd83390565b6040516001600160a01b0390911681526020016122f0565b600e545f90808203612d04575050600c5490565b6008544311612d15575050600c5490565b5f60085443612d249190613499565b9050805f03612d3757600c549250505090565b5f5b5f82118015612d4957505f600654115b15612da6575f6006545f19612d5e9190613456565b8311612d6a5782612d78565b600654612d78905f19613456565b905060065481612d889190613469565b612d929083613486565b9150612d9e8184613499565b925050612d39565b5f60115460105411612db8575f612dc8565b601154601054612dc89190613499565b9050475f828211612dd9575f612de3565b612de38383613499565b905080841115612df1578093505b835f03612e0657600c54965050505050505090565b600b545b5f85118015612e1857505f81115b8015612e2d5750612e2a815f19613456565b85115b15612e4457612e3d600a82613456565b9050612e0a565b612e4f858289612560565b600c54612e5c9190613486565b97505050505050505090565b60025460ff16610d8b576040517f8dfc202b00000000000000000000000000000000000000000000000000000000815260040160405180910390fd5b6040516001600160a01b038481166024830152838116604483015260648201839052612edd9186918216906323b872dd90608401612976565b50505050565b6016545f90612ef79061ffff1660016134d4565b905061010061ffff821610612f0957505f5b6040805160608101825267ffffffffffffffff8681168252602080830187815283850187815261ffff8781165f8181526015909552969093209451855467ffffffffffffffff1916941693909317845551600184015590516002909201919091556016805461ffff19169092179182905561010062010000909204161015612edd576016805462010000900461ffff16906002612fa5836134ef565b91906101000a81548161ffff021916908361ffff1602179055505050505050565b5f805f1983850993909202808410938190039390930393915050565b634e487b715f52806020526024601cfd5b5f8060205f8451602086015f885af180613012576040513d5f823e3d81fd5b50505f513d91508115613029578060011415613036565b6001600160a01b0384163b155b15612edd576040517f5274afe70000000000000000000000000000000000000000000000000000000081526001600160a01b0385166004820152602401610a47565b604080516060810182525f80825260208201819052918101829052601654604080516060810182525f8082526020820181905291810182905261ffff909216915f5b60165461ffff62010000909104811690841610156131a55761ffff84165f908152601560209081526040918290208251606081018452815467ffffffffffffffff1680825260018301549382019390935260029091015492810192909252158015906131345750805167ffffffffffffffff808a16911611155b8015613158575081158061315857508251815167ffffffffffffffff918216911610155b1561316557809250600191505b8461ffff165f036131845761317d600161010061350f565b9450613192565b8461318e8161352a565b9550505b8361319c816134ef565b945050506130ba565b969095509350505050565b604080516060810182525f808252602082018190529181018290526016545f9081906131e19061ffff1660016134d4565b60165461ffff918216620100009091049091161061323e576016546101009061ffff620100008204811691613218918491166134d4565b6132239060016134d4565b61322d919061350f565b6132379190613546565b9050613266565b60165461ffff620100008204811691613259911660016134d4565b613263919061350f565b90505b805b60165461ffff62010000909104811690841610156133225761ffff81165f908152601560209081526040918290208251606081018452815467ffffffffffffffff90811680835260018401549483019490945260029092015493810193909352881610156132de57600197909650945050505050565b60165461ffff908116908316036132f55750613322565b6101006133038360016134d4565b61330d9190613546565b915083613319816134ef565b94505050613268565b5f60405180606001604052805f67ffffffffffffffff1681526020015f81526020015f81525094509450505050915091565b5f60208284031215613364575f80fd5b5035919050565b80356001600160a01b0381168114613381575f80fd5b919050565b5f60208284031215613396575f80fd5b61260a8261336b565b5f80604083850312156133b0575f80fd5b6133b98361336b565b946020939093013593505050565b5f80604083850312156133d8575f80fd5b50508035926020909101359150565b5f602082840312156133f7575f80fd5b813567ffffffffffffffff8116811461260a575f80fd5b5f806040838503121561341f575f80fd5b823580151581146133b9575f80fd5b634e487b7160e01b5f52601260045260245ffd5b634e487b7160e01b5f52601160045260245ffd5b5f826134645761346461342e565b500490565b808202811582820484141761348057613480613442565b92915050565b8082018082111561348057613480613442565b8181038181111561348057613480613442565b67ffffffffffffffff8281168282160390808211156134cd576134cd613442565b5092915050565b61ffff8181168382160190808211156134cd576134cd613442565b5f61ffff80831681810361350557613505613442565b6001019392505050565b61ffff8281168282160390808211156134cd576134cd613442565b5f61ffff82168061353d5761353d613442565b5f190192915050565b5f61ffff8084168061355a5761355a61342e565b9216919091069291505056fea2646970667358221220e3e3c549715d46ae3c402f8b6db8175e325935983d7dd6fc657768a8f44b207f64736f6c63430008190033",
  "linkReferences": {},
  "deployedLinkReferences": {}
}