{
  "_format": "hh-sol-artifact-1",
  "contractName": "SmartChefLP",
  "sourceName": "contracts/SmartChefLP.sol",
  "abi": [
    {
      "inputs": [
        {
          "internalType": "contract IERC20",
          "name": "_lpToken",
          "type": "address"
        },
        {
          "internalType": "uint256",
          "name": "_rewardPerBlock",
          "type": "uint256"
        },
        {
          "internalType": "uint256",
          "name": "_startBlock",
          "type": "uint256"
        },
        {
          "internalType": "uint256",
          "name": "_poolLimitPerUser",
          "type": "uint256"
        },
        {
          "internalType": "uint256",
          "name": "_rewardDelayPeriod",
          "type": "uint256"
        },
        {
          "internalType": "uint256",
          "name": "_exitPeriod",
          "type": "uint256"
        }
      ],
      "stateMutability": "nonpayable",
      "type": "constructor"
    },
    {
      "inputs": [],
      "name": "EnforcedPause",
      "type": "error"
    },
    {
      "inputs": [],
      "name": "ExpectedPause",
      "type": "error"
    },
    {
      "inputs": [
        {
          "internalType": "address",
          "name": "owner",
          "type": "address"
        }
      ],
      "name": "OwnableInvalidOwner",
      "type": "error"
    },
    {
      "inputs": [
        {
          "internalType": "address",
          "name": "account",
          "type": "address"
        }
      ],
      "name": "OwnableUnauthorizedAccount",
      "type": "error"
    },
    {
      "inputs": [],
      "name": "ReentrancyGuardReentrantCall",
      "type": "error"
    },
    {
      "inputs": [
        {
          "internalType": "address",
          "name": "token",
          "type": "address"
        }
      ],
      "name": "SafeERC20FailedOperation",
      "type": "error"
    },
    {
      "anonymous": false,
      "inputs": [
        {
          "indexed": false,
          "internalType": "address",
          "name": "tokenRecovered",
          "type": "address"
        },
        {
          "indexed": false,
          "internalType": "uint256",
          "name": "amount",
          "type": "uint256"
        }
      ],
      "name": "AdminTokenRecovery",
      "type": "event"
    },
    {
      "anonymous": false,
      "inputs": [
        {
          "indexed": false,
          "internalType": "uint256",
          "name": "oldBlockTime",
          "type": "uint256"
        },
        {
          "indexed": false,
          "internalType": "uint256",
          "name": "newBlockTime",
          "type": "uint256"
        }
      ],
      "name": "BlockTimeUpdated",
      "type": "event"
    },
    {
      "anonymous": false,
      "inputs": [
        {
          "indexed": true,
          "internalType": "address",
          "name": "user",
          "type": "address"
        },
        {
          "indexed": false,
          "internalType": "uint256",
          "name": "amount",
          "type": "uint256"
        },
        {
          "indexed": false,
          "internalType": "uint256",
          "name": "duration",
          "type": "uint256"
        }
      ],
      "name": "Deposit",
      "type": "event"
    },
    {
      "anonymous": false,
      "inputs": [],
      "name": "FrozenPermanently",
      "type": "event"
    },
    {
      "anonymous": false,
      "inputs": [
        {
          "indexed": false,
          "internalType": "uint256",
          "name": "poolLimitPerUser",
          "type": "uint256"
        }
      ],
      "name": "NewPoolLimit",
      "type": "event"
    },
    {
      "anonymous": false,
      "inputs": [
        {
          "indexed": false,
          "internalType": "uint256",
          "name": "rewardPerBlock",
          "type": "uint256"
        }
      ],
      "name": "NewRewardPerBlock",
      "type": "event"
    },
    {
      "anonymous": false,
      "inputs": [
        {
          "indexed": true,
          "internalType": "address",
          "name": "previousOwner",
          "type": "address"
        },
        {
          "indexed": true,
          "internalType": "address",
          "name": "newOwner",
          "type": "address"
        }
      ],
      "name": "OwnershipTransferred",
      "type": "event"
    },
    {
      "anonymous": false,
      "inputs": [
        {
          "indexed": true,
          "internalType": "bytes32",
          "name": "paramHash",
          "type": "bytes32"
        }
      ],
      "name": "ParameterChangeCancelled",
      "type": "event"
    },
    {
      "anonymous": false,
      "inputs": [
        {
          "indexed": true,
          "internalType": "bytes32",
          "name": "paramHash",
          "type": "bytes32"
        },
        {
          "indexed": false,
          "internalType": "uint256",
          "name": "value",
          "type": "uint256"
        }
      ],
      "name": "ParameterChangeExecuted",
      "type": "event"
    },
    {
      "anonymous": false,
      "inputs": [
        {
          "indexed": true,
          "internalType": "bytes32",
          "name": "paramHash",
          "type": "bytes32"
        },
        {
          "indexed": false,
          "internalType": "uint256",
          "name": "value",
          "type": "uint256"
        },
        {
          "indexed": false,
          "internalType": "uint256",
          "name": "executeAfter",
          "type": "uint256"
        }
      ],
      "name": "ParameterChangeScheduled",
      "type": "event"
    },
    {
      "anonymous": false,
      "inputs": [
        {
          "indexed": false,
          "internalType": "address",
          "name": "account",
          "type": "address"
        }
      ],
      "name": "Paused",
      "type": "event"
    },
    {
      "anonymous": false,
      "inputs": [
        {
          "indexed": false,
          "internalType": "uint256",
          "name": "rewardDelayPeriod",
          "type": "uint256"
        },
        {
          "indexed": false,
          "internalType": "uint256",
          "name": "exitPeriod",
          "type": "uint256"
        }
      ],
      "name": "PeriodsUpdated",
      "type": "event"
    },
    {
      "anonymous": false,
      "inputs": [
        {
          "indexed": true,
          "internalType": "address",
          "name": "user",
          "type": "address"
        },
        {
          "indexed": false,
          "internalType": "uint256",
          "name": "amount",
          "type": "uint256"
        }
      ],
      "name": "RewardClaimed",
      "type": "event"
    },
    {
      "anonymous": false,
      "inputs": [
        {
          "indexed": false,
          "internalType": "uint256",
          "name": "amount",
          "type": "uint256"
        }
      ],
      "name": "RewardsFunded",
      "type": "event"
    },
    {
      "anonymous": false,
      "inputs": [
        {
          "indexed": false,
          "internalType": "address",
          "name": "account",
          "type": "address"
        }
      ],
      "name": "Unpaused",
      "type": "event"
    },
    {
      "anonymous": false,
      "inputs": [
        {
          "indexed": true,
          "internalType": "address",
          "name": "user",
          "type": "address"
        },
        {
          "indexed": false,
          "internalType": "uint256",
          "name": "amount",
          "type": "uint256"
        }
      ],
      "name": "WithdrawExecuted",
      "type": "event"
    },
    {
      "anonymous": false,
      "inputs": [
        {
          "indexed": true,
          "internalType": "address",
          "name": "user",
          "type": "address"
        },
        {
          "indexed": false,
          "internalType": "uint256",
          "name": "amount",
          "type": "uint256"
        },
        {
          "indexed": false,
          "internalType": "uint256",
          "name": "availableTime",
          "type": "uint256"
        }
      ],
      "name": "WithdrawRequested",
      "type": "event"
    },
    {
      "stateMutability": "payable",
      "type": "fallback"
    },
    {
      "inputs": [],
      "name": "EXIT_PERIOD",
      "outputs": [
        {
          "internalType": "uint256",
          "name": "",
          "type": "uint256"
        }
      ],
      "stateMutability": "view",
      "type": "function"
    },
    {
      "inputs": [],
      "name": "PARAM_CHANGE_DELAY",
      "outputs": [
        {
          "internalType": "uint256",
          "name": "",
          "type": "uint256"
        }
      ],
      "stateMutability": "view",
      "type": "function"
    },
    {
      "inputs": [],
      "name": "PRECISION_FACTOR",
      "outputs": [
        {
          "internalType": "uint256",
          "name": "",
          "type": "uint256"
        }
      ],
      "stateMutability": "view",
      "type": "function"
    },
    {
      "inputs": [],
      "name": "REWARD_DELAY_PERIOD",
      "outputs": [
        {
          "internalType": "uint256",
          "name": "",
          "type": "uint256"
        }
      ],
      "stateMutability": "view",
      "type": "function"
    },
    {
      "inputs": [],
      "name": "accTokenPerShare",
      "outputs": [
        {
          "internalType": "uint256",
          "name": "",
          "type": "uint256"
        }
      ],
      "stateMutability": "view",
      "type": "function"
    },
    {
      "inputs": [],
      "name": "blockTime",
      "outputs": [
        {
          "internalType": "uint256",
          "name": "",
          "type": "uint256"
        }
      ],
      "stateMutability": "view",
      "type": "function"
    },
    {
      "inputs": [],
      "name": "cancelRewardPerBlockChange",
      "outputs": [],
      "stateMutability": "nonpayable",
      "type": "function"
    },
    {
      "inputs": [],
      "name": "cancelWithdraw",
      "outputs": [],
      "stateMutability": "nonpayable",
      "type": "function"
    },
    {
      "inputs": [],
      "name": "checkpointInterval",
      "outputs": [
        {
          "internalType": "uint64",
          "name": "",
          "type": "uint64"
        }
      ],
      "stateMutability": "view",
      "type": "function"
    },
    {
      "inputs": [],
      "name": "claimRewards",
      "outputs": [],
      "stateMutability": "nonpayable",
      "type": "function"
    },
    {
      "inputs": [
        {
          "internalType": "uint256",
          "name": "minReward",
          "type": "uint256"
        }
      ],
      "name": "claimRewardsWithSlippage",
      "outputs": [],
      "stateMutability": "nonpayable",
      "type": "function"
    },
    {
      "inputs": [
        {
          "internalType": "address",
          "name": "_user",
          "type": "address"
        }
      ],
      "name": "claimableView",
      "outputs": [
        {
          "internalType": "uint256",
          "name": "",
          "type": "uint256"
        }
      ],
      "stateMutability": "view",
      "type": "function"
    },
    {
      "inputs": [
        {
          "internalType": "uint256",
          "name": "_amount",
          "type": "uint256"
        },
        {
          "internalType": "uint256",
          "name": "_duration",
          "type": "uint256"
        }
      ],
      "name": "deposit",
      "outputs": [],
      "stateMutability": "nonpayable",
      "type": "function"
    },
    {
      "inputs": [
        {
          "internalType": "uint256",
          "name": "_amount",
          "type": "uint256"
        }
      ],
      "name": "emergencyRewardWithdraw",
      "outputs": [],
      "stateMutability": "nonpayable",
      "type": "function"
    },
    {
      "inputs": [],
      "name": "emergencyWithdraw",
      "outputs": [],
      "stateMutability": "nonpayable",
      "type": "function"
    },
    {
      "inputs": [],
      "name": "executeRewardPerBlockChange",
      "outputs": [],
      "stateMutability": "nonpayable",
      "type": "function"
    },
    {
      "inputs": [],
      "name": "executeWithdraw",
      "outputs": [],
      "stateMutability": "nonpayable",
      "type": "function"
    },
    {
      "inputs": [],
      "name": "freezePermanently",
      "outputs": [],
      "stateMutability": "nonpayable",
      "type": "function"
    },
    {
      "inputs": [],
      "name": "fundRewards",
      "outputs": [],
      "stateMutability": "payable",
      "type": "function"
    },
    {
      "inputs": [
        {
          "internalType": "address",
          "name": "_user",
          "type": "address"
        }
      ],
      "name": "getUserInfo",
      "outputs": [
        {
          "internalType": "uint256",
          "name": "stakedAmount",
          "type": "uint256"
        },
        {
          "internalType": "uint256",
          "name": "effectiveAmount",
          "type": "uint256"
        },
        {
          "internalType": "uint256",
          "name": "lockStartTime",
          "type": "uint256"
        },
        {
          "internalType": "uint256",
          "name": "lockDuration",
          "type": "uint256"
        },
        {
          "internalType": "uint256",
          "name": "withdrawRequestTime",
          "type": "uint256"
        },
        {
          "internalType": "uint256",
          "name": "withdrawalAmount",
          "type": "uint256"
        },
        {
          "internalType": "uint256",
          "name": "withdrawalAvailableTime",
          "type": "uint256"
        },
        {
          "internalType": "bool",
          "name": "inExitPeriod",
          "type": "bool"
        },
        {
          "internalType": "bool",
          "name": "canRequestWithdraw",
          "type": "bool"
        },
        {
          "internalType": "bool",
          "name": "canExecuteWithdraw",
          "type": "bool"
        }
      ],
      "stateMutability": "view",
      "type": "function"
    },
    {
      "inputs": [],
      "name": "hasUserLimit",
      "outputs": [
        {
          "internalType": "bool",
          "name": "",
          "type": "bool"
        }
      ],
      "stateMutability": "view",
      "type": "function"
    },
    {
      "inputs": [
        {
          "internalType": "address",
          "name": "_user",
          "type": "address"
        }
      ],
      "name": "isInExitPeriod",
      "outputs": [
        {
          "internalType": "bool",
          "name": "",
          "type": "bool"
        }
      ],
      "stateMutability": "view",
      "type": "function"
    },
    {
      "inputs": [],
      "name": "isPermanentlyFrozen",
      "outputs": [
        {
          "internalType": "bool",
          "name": "",
          "type": "bool"
        }
      ],
      "stateMutability": "view",
      "type": "function"
    },
    {
      "inputs": [],
      "name": "lastRewardBlock",
      "outputs": [
        {
          "internalType": "uint256",
          "name": "",
          "type": "uint256"
        }
      ],
      "stateMutability": "view",
      "type": "function"
    },
    {
      "inputs": [
        {
          "internalType": "address",
          "name": "_user",
          "type": "address"
        }
      ],
      "name": "lockedView",
      "outputs": [
        {
          "internalType": "uint256",
          "name": "",
          "type": "uint256"
        }
      ],
      "stateMutability": "view",
      "type": "function"
    },
    {
      "inputs": [],
      "name": "lpToken",
      "outputs": [
        {
          "internalType": "contract IERC20",
          "name": "",
          "type": "address"
        }
      ],
      "stateMutability": "view",
      "type": "function"
    },
    {
      "inputs": [],
      "name": "owner",
      "outputs": [
        {
          "internalType": "address",
          "name": "",
          "type": "address"
        }
      ],
      "stateMutability": "view",
      "type": "function"
    },
    {
      "inputs": [],
      "name": "paused",
      "outputs": [
        {
          "internalType": "bool",
          "name": "",
          "type": "bool"
        }
      ],
      "stateMutability": "view",
      "type": "function"
    },
    {
      "inputs": [
        {
          "internalType": "bytes32",
          "name": "",
          "type": "bytes32"
        }
      ],
      "name": "pendingChanges",
      "outputs": [
        {
          "internalType": "uint256",
          "name": "value",
          "type": "uint256"
        },
        {
          "internalType": "uint256",
          "name": "executeAfter",
          "type": "uint256"
        }
      ],
      "stateMutability": "view",
      "type": "function"
    },
    {
      "inputs": [
        {
          "internalType": "address",
          "name": "_user",
          "type": "address"
        }
      ],
      "name": "pendingReward",
      "outputs": [
        {
          "internalType": "uint256",
          "name": "",
          "type": "uint256"
        }
      ],
      "stateMutability": "view",
      "type": "function"
    },
    {
      "inputs": [],
      "name": "poolLimitPerUser",
      "outputs": [
        {
          "internalType": "uint256",
          "name": "",
          "type": "uint256"
        }
      ],
      "stateMutability": "view",
      "type": "function"
    },
    {
      "inputs": [
        {
          "internalType": "address",
          "name": "_tokenAddress",
          "type": "address"
        },
        {
          "internalType": "uint256",
          "name": "_tokenAmount",
          "type": "uint256"
        }
      ],
      "name": "recoverWrongTokens",
      "outputs": [],
      "stateMutability": "nonpayable",
      "type": "function"
    },
    {
      "inputs": [],
      "name": "renounceOwnership",
      "outputs": [],
      "stateMutability": "nonpayable",
      "type": "function"
    },
    {
      "inputs": [
        {
          "internalType": "uint256",
          "name": "_amount",
          "type": "uint256"
        }
      ],
      "name": "requestWithdraw",
      "outputs": [],
      "stateMutability": "nonpayable",
      "type": "function"
    },
    {
      "inputs": [],
      "name": "rewardPerBlock",
      "outputs": [
        {
          "internalType": "uint256",
          "name": "",
          "type": "uint256"
        }
      ],
      "stateMutability": "view",
      "type": "function"
    },
    {
      "inputs": [
        {
          "internalType": "uint256",
          "name": "_newRate",
          "type": "uint256"
        }
      ],
      "name": "scheduleRewardPerBlockChange",
      "outputs": [],
      "stateMutability": "nonpayable",
      "type": "function"
    },
    {
      "inputs": [
        {
          "internalType": "uint256",
          "name": "_rewardPerBlock",
          "type": "uint256"
        }
      ],
      "name": "setRewardPerBlock",
      "outputs": [],
      "stateMutability": "nonpayable",
      "type": "function"
    },
    {
      "inputs": [],
      "name": "startBlock",
      "outputs": [
        {
          "internalType": "uint256",
          "name": "",
          "type": "uint256"
        }
      ],
      "stateMutability": "view",
      "type": "function"
    },
    {
      "inputs": [
        {
          "internalType": "address",
          "name": "_user",
          "type": "address"
        }
      ],
      "name": "timeUntilUnlock",
      "outputs": [
        {
          "internalType": "uint256",
          "name": "",
          "type": "uint256"
        }
      ],
      "stateMutability": "view",
      "type": "function"
    },
    {
      "inputs": [
        {
          "internalType": "address",
          "name": "_user",
          "type": "address"
        }
      ],
      "name": "timeUntilWithdrawalAvailable",
      "outputs": [
        {
          "internalType": "uint256",
          "name": "",
          "type": "uint256"
        }
      ],
      "stateMutability": "view",
      "type": "function"
    },
    {
      "inputs": [],
      "name": "totalAccruedRewards",
      "outputs": [
        {
          "internalType": "uint256",
          "name": "",
          "type": "uint256"
        }
      ],
      "stateMutability": "view",
      "type": "function"
    },
    {
      "inputs": [],
      "name": "totalActiveEffective",
      "outputs": [
        {
          "internalType": "uint256",
          "name": "",
          "type": "uint256"
        }
      ],
      "stateMutability": "view",
      "type": "function"
    },
    {
      "inputs": [],
      "name": "totalClaimedRewards",
      "outputs": [
        {
          "internalType": "uint256",
          "name": "",
          "type": "uint256"
        }
      ],
      "stateMutability": "view",
      "type": "function"
    },
    {
      "inputs": [],
      "name": "totalInExitPeriod",
      "outputs": [
        {
          "internalType": "uint256",
          "name": "",
          "type": "uint256"
        }
      ],
      "stateMutability": "view",
      "type": "function"
    },
    {
      "inputs": [],
      "name": "totalStaked",
      "outputs": [
        {
          "internalType": "uint256",
          "name": "",
          "type": "uint256"
        }
      ],
      "stateMutability": "view",
      "type": "function"
    },
    {
      "inputs": [
        {
          "internalType": "address",
          "name": "newOwner",
          "type": "address"
        }
      ],
      "name": "transferOwnership",
      "outputs": [],
      "stateMutability": "nonpayable",
      "type": "function"
    },
    {
      "inputs": [
        {
          "internalType": "uint256",
          "name": "_newBlockTime",
          "type": "uint256"
        }
      ],
      "name": "updateBlockTime",
      "outputs": [],
      "stateMutability": "nonpayable",
      "type": "function"
    },
    {
      "inputs": [
        {
          "internalType": "uint64",
          "name": "_newInterval",
          "type": "uint64"
        }
      ],
      "name": "updateCheckpointInterval",
      "outputs": [],
      "stateMutability": "nonpayable",
      "type": "function"
    },
    {
      "inputs": [
        {
          "internalType": "uint256",
          "name": "_rewardDelayPeriod",
          "type": "uint256"
        },
        {
          "internalType": "uint256",
          "name": "_exitPeriod",
          "type": "uint256"
        }
      ],
      "name": "updatePeriods",
      "outputs": [],
      "stateMutability": "nonpayable",
      "type": "function"
    },
    {
      "inputs": [],
      "name": "updatePool",
      "outputs": [],
      "stateMutability": "nonpayable",
      "type": "function"
    },
    {
      "inputs": [
        {
          "internalType": "bool",
          "name": "_hasUserLimit",
          "type": "bool"
        },
        {
          "internalType": "uint256",
          "name": "_poolLimitPerUser",
          "type": "uint256"
        }
      ],
      "name": "updatePoolLimitPerUser",
      "outputs": [],
      "stateMutability": "nonpayable",
      "type": "function"
    },
    {
      "inputs": [
        {
          "internalType": "uint256",
          "name": "_newAPYBasisPoints",
          "type": "uint256"
        }
      ],
      "name": "updateRewardPerBlock",
      "outputs": [],
      "stateMutability": "nonpayable",
      "type": "function"
    },
    {
      "inputs": [
        {
          "internalType": "address",
          "name": "",
          "type": "address"
        }
      ],
      "name": "userInfo",
      "outputs": [
        {
          "internalType": "uint256",
          "name": "amount",
          "type": "uint256"
        },
        {
          "internalType": "uint256",
          "name": "effectiveAmount",
          "type": "uint256"
        },
        {
          "internalType": "uint256",
          "name": "rewardDebt",
          "type": "uint256"
        },
        {
          "internalType": "uint256",
          "name": "debtClaimablePS",
          "type": "uint256"
        },
        {
          "internalType": "uint256",
          "name": "lockStartTime",
          "type": "uint256"
        },
        {
          "internalType": "uint256",
          "name": "lockDuration",
          "type": "uint256"
        },
        {
          "internalType": "uint256",
          "name": "withdrawRequestTime",
          "type": "uint256"
        },
        {
          "internalType": "uint256",
          "name": "withdrawalAmount",
          "type": "uint256"
        },
        {
          "internalType": "uint256",
          "name": "delayedReward",
          "type": "uint256"
        },
        {
          "internalType": "uint256",
          "name": "delayedUnlockBlock",
          "type": "uint256"
        }
      ],
      "stateMutability": "view",
      "type": "function"
    },
    {
      "stateMutability": "payable",
      "type": "receive"
    }
  ],
  "bytecode": "0x6080604052610258600381905560045564e8d4a51000600b55600560125560168054600160201b600160601b031916643c00000000179055348015610042575f80fd5b506040516138943803806138948339810160408190526100619161026a565b338061008657604051631e4fbdf760e01b81525f600482015260240160405180910390fd5b61008f81610139565b5060018055600580546001600160a01b0319166001600160a01b03881617905560068590554384116100c157436100c3565b835b600781905560085582156100e4576009805460ff19166001179055600a8390555b60038290556004819055601680546001600160401b03439081166c0100000000000000000000000002600160601b600160a01b03199092169190911790915561012e905f80610188565b50505050505061031a565b5f80546001600160a01b038381166001600160a01b0319831681178455604051919092169283917f8be0079c531659141344cd1fd0a4f28419497f9722a3daafe3b4186f6b6457e09190a35050565b6016545f9061019c9061ffff1660016102d8565b905061010061ffff8216106101ae57505f5b604080516060810182526001600160401b038681168252602080830187815283850187815261ffff8781165f818152601590955296909320945185546001600160401b031916941693909317845551600184015590516002909201919091556016805461ffff19169092179182905561010062010000909204161015610264576016805462010000900461ffff16906002610248836102fa565b91906101000a81548161ffff021916908361ffff160217905550505b50505050565b5f805f805f8060c0878903121561027f575f80fd5b86516001600160a01b0381168114610295575f80fd5b6020880151604089015160608a015160808b015160a0909b0151939c929b509099909850965090945092505050565b634e487b7160e01b5f52601160045260245ffd5b61ffff8181168382160190808211156102f3576102f36102c4565b5092915050565b5f61ffff808316818103610310576103106102c4565b6001019392505050565b61356d806103275f395ff3fe60806040526004361061031d575f3560e01c8063817b1cd2116101a2578063bb872b4a116100ea578063e2bbb1581161008e578063f2fde38b1161006b578063f2fde38b14610996578063f40f0f52146109b5578063f8fd9795146109d4578063ff18bf0b146109e857005b8063e2bbb1581461094e578063e3161ddd1461096d578063f1fa0e5a1461098157005b8063ccd34cd5116100c7578063ccd34cd5146108f1578063d0228e8f14610906578063d578ceab14610925578063db2e21bc1461093a57005b8063bb872b4a1461089e578063c04b5f65146108bd578063ca23bba8146108d257005b80638f66291511610151578063977d58fe1161012e578063977d58fe14610812578063a0b409051461084b578063a9f8d1811461086a578063aa78e4b11461087f57005b80638f662915146107d057806390682b89146107e557806392e8990e146107f957005b8063894e22db1161017f578063894e22db1461078b5780638ae39cac1461079f5780638da5cb5b146107b457005b8063817b1cd21461074357806384b768241461075857806386f36e821461076c57005b80634ac4b6e011610265578063605fba671161021457806368226601116101f157806368226601146106dc578063715018a6146106f1578063745400c91461070557806378d760371461072457005b8063605fba67146106395780636386c1c71461065857806366fe9f8a146106c757005b80635c975abb116102425780635c975abb146105c15780635f07332d146105e45780635fcbd2851461060257005b80634ac4b6e0146105465780634dda55181461055b5780635664b199146105a257005b80633a18d8c0116102cc578063423975f3116102a9578063423975f3146104e85780634623635e146104fd57806348b151661461051c57806348cd4cb11461053157005b80633a18d8c0146104695780633a58afd4146104aa5780633f138d4b146104c957005b80632498e780116102fa5780632498e780146104225780633279beab14610436578063372500ab1461045557005b806301f8a97614610326578063096abd33146103455780631959a0021461036e57005b3661032457005b005b348015610331575f80fd5b50610324610340366004613325565b6109f0565b348015610350575f80fd5b5061035b6201518081565b6040519081526020015b60405180910390f35b348015610379575f80fd5b506103d8610388366004613357565b6014602052805f5260405f205f91509050805f015490806001015490806002015490806003015490806004015490806005015490806006015490806007015490806008015490806009015490508a565b604080519a8b5260208b0199909952978901969096526060880194909452608087019290925260a086015260c085015260e084015261010083015261012082015261014001610365565b34801561042d575f80fd5b50610324610b43565b348015610441575f80fd5b50610324610450366004613325565b610d03565b348015610460575f80fd5b50610324610d68565b348015610474575f80fd5b5060165461049190640100000000900467ffffffffffffffff1681565b60405167ffffffffffffffff9091168152602001610365565b3480156104b5575f80fd5b5061035b6104c4366004613357565b610d8d565b3480156104d4575f80fd5b506103246104e3366004613370565b610dee565b3480156104f3575f80fd5b5061035b600e5481565b348015610508575f80fd5b50610324610517366004613398565b610eaf565b348015610527575f80fd5b5061035b60125481565b34801561053c575f80fd5b5061035b60075481565b348015610551575f80fd5b5061035b60105481565b348015610566575f80fd5b5061058d610575366004613325565b60136020525f90815260409020805460019091015482565b60408051928352602083019190915201610365565b3480156105ad575f80fd5b506103246105bc366004613325565b610f59565b3480156105cc575f80fd5b5060025460ff165b6040519015158152602001610365565b3480156105ef575f80fd5b50601654600160a01b900460ff166105d4565b34801561060d575f80fd5b50600554610621906001600160a01b031681565b6040516001600160a01b039091168152602001610365565b348015610644575f80fd5b5061035b610653366004613357565b610ffb565b348015610663575f80fd5b50610677610672366004613357565b6110ce565b604080519a8b5260208b0199909952978901969096526060880194909452608087019290925260a086015260c0850152151560e08401521515610100830152151561012082015261014001610365565b3480156106d2575f80fd5b5061035b600a5481565b3480156106e7575f80fd5b5061035b600f5481565b3480156106fc575f80fd5b50610324611167565b348015610710575f80fd5b5061032461071f366004613325565b611178565b34801561072f575f80fd5b5061032461073e366004613325565b61149a565b34801561074e575f80fd5b5061035b600d5481565b348015610763575f80fd5b50610324611546565b348015610777575f80fd5b506103246107863660046133b8565b61166e565b348015610796575f80fd5b50610324611719565b3480156107aa575f80fd5b5061035b60065481565b3480156107bf575f80fd5b505f546001600160a01b0316610621565b3480156107db575f80fd5b5061035b600c5481565b3480156107f0575f80fd5b50610324611781565b348015610804575f80fd5b506009546105d49060ff1681565b34801561081d575f80fd5b506105d461082c366004613357565b6001600160a01b03165f90815260146020526040902060060154151590565b348015610856575f80fd5b506103246108653660046133df565b611826565b348015610875575f80fd5b5061035b60085481565b34801561088a575f80fd5b50610324610899366004613325565b6118ec565b3480156108a9575f80fd5b506103246108b8366004613325565b61190f565b3480156108c8575f80fd5b5061035b60045481565b3480156108dd575f80fd5b5061035b6108ec366004613357565b61195a565b3480156108fc575f80fd5b5061035b600b5481565b348015610911575f80fd5b5061035b610920366004613357565b611a0f565b348015610930575f80fd5b5061035b60115481565b348015610945575f80fd5b50610324611a4e565b348015610959575f80fd5b50610324610968366004613398565b611bb9565b348015610978575f80fd5b50610324611e6d565b34801561098c575f80fd5b5061035b60035481565b3480156109a1575f80fd5b506103246109b0366004613357565b611e75565b3480156109c0575f80fd5b5061035b6109cf366004613357565b611ec8565b3480156109df575f80fd5b50610324612070565b610324612243565b6109f86122d0565b620f4240811115610a505760405162461bcd60e51b815260206004820152600c60248201527f41505920746f6f2068696768000000000000000000000000000000000000000060448201526064015b60405180910390fd5b610a58612315565b5f6012546301e13380610a6b9190613427565b600e549091508015610a9557610a8d8184610a888561271061343a565b612536565b600655610b03565b60405162461bcd60e51b815260206004820152603360248201527f4e6f2061637469766520656666656374697665202d207573652073657452657760448201527f617264506572426c6f636b20696e7374656164000000000000000000000000006064820152608401610a47565b7f0c4d677eef92893ac7ec52faf8140fc6c851ab4736302b4f3a89dfb20696a0df600654604051610b3691815260200190565b60405180910390a1505050565b610b4b6122d0565b7f26c3053a9ab1625d44b90708e16d52b35ab3cfb0d872f84b29e76c8f0cee851b5f81905260136020908152604080518082019091527f466c318fe7a714b2c3b85a91c97da1f5878945e467140f6ebab7599eb1e108955481527f466c318fe7a714b2c3b85a91c97da1f5878945e467140f6ebab7599eb1e108965491810182905290610c1a5760405162461bcd60e51b815260206004820152601160248201527f4e6f2070656e64696e67206368616e67650000000000000000000000000000006044820152606401610a47565b8060200151421015610c6e5760405162461bcd60e51b815260206004820152601460248201527f54696d656c6f636b206e6f7420657870697265640000000000000000000000006044820152606401610a47565b610c76612315565b80516006555f82815260136020908152604080832083815560010192909255825191519182527f0c4d677eef92893ac7ec52faf8140fc6c851ab4736302b4f3a89dfb20696a0df910160405180910390a1805160405190815282907f31564d9c3e497cbcaea3bfc6814d1c86ebf66b3fe325b5f5b327434f5885436e906020015b60405180910390a25050565b610d0b6122d0565b80471015610d5b5760405162461bcd60e51b815260206004820152601b60248201527f496e73756666696369656e74207265776172642062616c616e636500000000006044820152606401610a47565b610d6533826125e7565b50565b610d7061268b565b610d786126ce565b610d82335f61270b565b610d8b60018055565b565b6001600160a01b0381165f90815260146020526040812060068101548203610db757505f92915050565b5f6004548260060154610dca9190613457565b9050804210610ddc57505f9392505050565b610de6428261346a565b949350505050565b610df66122d0565b6005546001600160a01b0390811690831603610e545760405162461bcd60e51b815260206004820152601160248201527f43616e6e6f74207265636f766572204c500000000000000000000000000000006044820152606401610a47565b610e686001600160a01b038316338361291a565b604080516001600160a01b0384168152602081018390527f74545154aac348a3eac92596bd1971957ca94795f4e954ec5f613b55fab7812991015b60405180910390a15050565b610eb76122d0565b5f82118015610ec557505f81115b610f115760405162461bcd60e51b815260206004820152600f60248201527f496e76616c696420706572696f647300000000000000000000000000000000006044820152606401610a47565b610f19612315565b6003829055600481905560408051838152602081018390527f8e7237c327b2c040e122ee8871f17435fda2eae7d8e36798de13714b60f2b6ee9101610ea3565b610f616122d0565b5f81118015610f725750610e108111155b610fbe5760405162461bcd60e51b815260206004820152601160248201527f496e76616c696420626c6f636b54696d650000000000000000000000000000006044820152606401610a47565b601280549082905560408051828152602081018490527e24be6dc070e4a35f5e69c2c31342ac959334f49c5b4b62cc1033d86e8351979101610ea3565b6001600160a01b0381165f908152601460205260408120600981015482901580159061102b575081600901544310155b1561104257600882015461103f9082613457565b90505b60018201545f81900361105757509392505050565b5f6012546003546110689190613427565b90505f814311611078575f611082565b611082824361346a565b90505f61108e8261298e565b6003870154909150808211156110c1576110b4856110ac838561346a565b600b54612536565b6110be9087613457565b95505b5093979650505050505050565b6001600160a01b0381165f908152601460205260408120805460018201546004830154600584015460068501546007860154949693959294919390928190819081908189158015906111295750611125898b613457565b4210155b9050808015611136575087155b93508715611158576004546001955061114f9089613457565b95508542101592505b50509193959799509193959799565b61116f6122d0565b610d8b5f612b8c565b61118061268b565b6111886126ce565b335f90815260146020526040902081158015906111a6575080548211155b6111f25760405162461bcd60e51b815260206004820152600a60248201527f42616420616d6f756e74000000000000000000000000000000000000000000006044820152606401610a47565b5f8160040154116112455760405162461bcd60e51b815260206004820152600f60248201527f4e6f20616374697665207374616b6500000000000000000000000000000000006044820152606401610a47565b6006810154156112975760405162461bcd60e51b815260206004820152601160248201527f416c7265616479207265717565737465640000000000000000000000000000006044820152606401610a47565b806005015481600401546112ab9190613457565b4210156112fa5760405162461bcd60e51b815260206004820152600c60248201527f5374616b65206c6f636b656400000000000000000000000000000000000000006044820152606401610a47565b611302612315565b61130c335f61270b565b5f60125460035461131d9190613427565b90505f81431161132d575f611337565b611337824361346a565b90505f6113438261298e565b90505f81600c54611354919061346a565b905080156113b9575f61137c8761136e8860050154612bf3565b670de0b6b3a7640000612536565b90505f61138c8284600b54612536565b905080876008015f8282546113a19190613457565b909155506113b190508643613457565b600988015550505b5f6113cb8761136e8860050154612bf3565b905080866001015f8282546113e0919061346a565b9250508190555080600e5f8282546113f8919061346a565b909155505042600687015560078601879055600f80548891905f9061141e908490613457565b925050819055506114388660010154600c54600b54612536565b60028701556004545f9061144c9042613457565b604080518a81526020810183905291925033917fd72eb5d043f24a0168ae744d5c44f9596fd673a26bf74d9646bff4b844882d14910160405180910390a250505050505050610d6560018055565b6114a26122d0565b604080518082019091528181527f26c3053a9ab1625d44b90708e16d52b35ab3cfb0d872f84b29e76c8f0cee851b90602081016114e26201518042613457565b90525f82815260136020908152604090912082518155910151600190910155807f4107c16102ca593afea4ac800deb7d36407d3f25e61cccd6628094793f668ffe836115316201518042613457565b60408051928352602083019190915201610cf7565b61154e61268b565b6115566126ce565b335f90815260146020526040902060068101546115b55760405162461bcd60e51b815260206004820152601760248201527f4e6f207769746864726177616c207265717565737465640000000000000000006044820152606401610a47565b6115bd612315565b6115c7335f61270b565b5f6115dd826007015461136e8460050154612bf3565b905080826001015f8282546115f29190613457565b9250508190555080600e5f82825461160a9190613457565b90915550506007820154600f80545f9061162590849061346a565b90915550505f60068301819055600783018190556008830181905560098301556001820154600c54600b5461165b929190612536565b82600201819055505050610d8b60018055565b6116766122d0565b60068167ffffffffffffffff161015801561169d57506103e88167ffffffffffffffff1611155b6116e95760405162461bcd60e51b815260206004820152601060248201527f496e76616c696420696e74657276616c000000000000000000000000000000006044820152606401610a47565b6016805467ffffffffffffffff909216640100000000026bffffffffffffffff0000000019909216919091179055565b6117216122d0565b611729612c6c565b601680547fffffffffffffffffffffff00ffffffffffffffffffffffffffffffffffffffff16600160a01b1790556040517f8590c6b2a21f1d879a2ff65d0c42e5309debe25afcf918d1e18439434827cd01905f90a1565b6117896122d0565b7f26c3053a9ab1625d44b90708e16d52b35ab3cfb0d872f84b29e76c8f0cee851b5f81815260136020527f466c318fe7a714b2c3b85a91c97da1f5878945e467140f6ebab7599eb1e108958190557f466c318fe7a714b2c3b85a91c97da1f5878945e467140f6ebab7599eb1e1089681905560405182917ffbe037eef108662db90b0a679b0dde447f266ad1254d34073a5ad826453dbe7c91a250565b61182e6122d0565b81156118aa5760095460ff1615806118475750600a5481115b6118935760405162461bcd60e51b815260206004820152600d60248201527f4d75737420696e637265617365000000000000000000000000000000000000006044820152606401610a47565b6009805460ff19166001179055600a8190556118b9565b6009805460ff191690555f600a555b7f241f67ee5f41b7a5cabf911367329be7215900f602ebfc47f89dce2a6bcd847c600a54604051610ea391815260200190565b6118f461268b565b6118fc6126ce565b611906338261270b565b610d6560018055565b6119176122d0565b61191f612315565b60068190556040518181527f0c4d677eef92893ac7ec52faf8140fc6c851ab4736302b4f3a89dfb20696a0df9060200160405180910390a150565b6001600160a01b0381165f90815260146020526040812060098101548290158015906119895750816009015443105b156119a057600882015461199d9082613457565b90505b60018201545f8190036119b557509392505050565b5f6119be612cc1565b90505f6012546003546119d19190613427565b90505f8143116119e1575f6119eb565b6119eb824361346a565b90505f6119f78261298e565b9050808411156110c1576110b4856110ac838761346a565b6001600160a01b0381165f90815260146020526040812060048101548203611a3957505f92915050565b5f81600501548260040154610dca9190613457565b611a5661268b565b611a5e612e39565b335f90815260146020526040812060078101548154919291611a809190613457565b90505f8111611ad15760405162461bcd60e51b815260206004820152601460248201527f4e6f2066756e647320746f2077697468647261770000000000000000000000006044820152606401610a47565b8154600d80545f90611ae490849061346a565b90915550506001820154600e80545f90611aff90849061346a565b90915550506007820154600f80545f90611b1a90849061346a565b90915550505f808355600183018190556002830181905560038301819055600483018190556005808401829055600684018290556007840182905560088401829055600984019190915554611b79906001600160a01b0316338361291a565b60405181815233907f7b2a72f0889ae9bb89e8ee7ec3e7c465552d1b76d51df9b0426d0e4e7f39528f9060200160405180910390a25050610d8b60018055565b611bc161268b565b611bc96126ce565b335f90815260146020526040902082611c245760405162461bcd60e51b815260206004820152600c60248201527f5a65726f206465706f73697400000000000000000000000000000000000000006044820152606401610a47565b600681015415611c765760405162461bcd60e51b815260206004820152600e60248201527f496e206578697420706572696f640000000000000000000000000000000000006044820152606401610a47565b5f611c8083612bf3565b825490915015611cdd5781600501548314611cdd5760405162461bcd60e51b815260206004820152601160248201527f4475726174696f6e206d69736d617463680000000000000000000000000000006044820152606401610a47565b60095460ff1615611d4557600a548254611cf79086613457565b1115611d455760405162461bcd60e51b815260206004820152600b60248201527f41626f7665206c696d69740000000000000000000000000000000000000000006044820152606401610a47565b611d4d612315565b815415611d6357611d5e335f61270b565b611d73565b600c546003830155600582018390555b83825f015f828254611d859190613457565b9250508190555083600d5f828254611d9d9190613457565b909155505f9050611db78583670de0b6b3a7640000612536565b905080836001015f828254611dcc9190613457565b9250508190555080600e5f828254611de49190613457565b90915550504260048401556001830154600c54600b54611e05929190612536565b6002840155600554611e22906001600160a01b0316333088612e75565b604080518681526020810186905233917f90890809c654f11d6e72a28fa60149770a0d11ec6c92319d6ceb2bb0a4ea1a15910160405180910390a2505050611e6960018055565b5050565b610d8b612315565b611e7d6122d0565b6001600160a01b038116611ebf576040517f1e4fbdf70000000000000000000000000000000000000000000000000000000081525f6004820152602401610a47565b610d6581612b8c565b6001600160a01b0381165f908152601460205260408120600e54808303611ef257505f9392505050565b600c5460085443111561202d575f60085443611f0e919061346a565b90505f5b5f82118015611f2257505f600654115b15611f7f575f6006545f19611f379190613427565b8311611f435782611f51565b600654611f51905f19613427565b905060065481611f61919061343a565b611f6b9083613457565b9150611f77818461346a565b925050611f12565b5f60115460105411611f91575f611fa1565b601154601054611fa1919061346a565b9050475f828211611fb2575f611fbc565b611fbc838361346a565b905080841115611fca578093505b831561202757600b545b5f85118015611fe257505f81115b8015611ff75750611ff4815f19613427565b85115b1561200e57612007600a82613427565b9050611fd4565b61201985828a612536565b6120239088613457565b9650505b50505050505b5f61203f846001015483600b54612536565b90508360020154811061206557600284015461205b908261346a565b9695505050505050565b505f95945050505050565b61207861268b565b6120806126ce565b61208a335f61270b565b335f90815260146020526040902060068101546120e95760405162461bcd60e51b815260206004820152601760248201527f4e6f207769746864726177616c207265717565737465640000000000000000006044820152606401610a47565b60045481600601546120fb9190613457565b42101561214a5760405162461bcd60e51b815260206004820152601160248201527f45786974206e6f742066696e69736865640000000000000000000000000000006044820152606401610a47565b60078101548061219c5760405162461bcd60e51b815260206004820152600960248201527f4e6f20616d6f756e7400000000000000000000000000000000000000000000006044820152606401610a47565b80600f5f8282546121ad919061346a565b9250508190555080600d5f8282546121c5919061346a565b90915550505f60068301819055600783015581548190036121fc575f80835560048301819055600583018190556003830155612214565b80825f015f82825461220e919061346a565b90915550505b6122278260010154600c54600b54612536565b6002830155600554611b79906001600160a01b0316338361291a565b61224b6122d0565b5f341161229a5760405162461bcd60e51b815260206004820152601060248201527f4d7573742073656e6420746f6b656e73000000000000000000000000000000006044820152606401610a47565b6040513481527fe42dde25409a3e8c7c119c1c722610d9e9bd96e73e3cead774863c9ffdd870d6906020015b60405180910390a1565b5f546001600160a01b03163314610d8b576040517f118cdaa7000000000000000000000000000000000000000000000000000000008152336004820152602401610a47565b600854431161232057565b600e545f819003612332575043600855565b5f60085443612341919061346a565b90505f5b5f8211801561235557505f600654115b156123c9575f6006545f1961236a9190613427565b83116123765782612384565b600654612384905f19613427565b905060065481612394919061343a565b61239e9083613457565b91506123aa818461346a565b92508060085f8282546123bd9190613457565b90915550612345915050565b5f601154601054116123db575f6123eb565b6011546010546123eb919061346a565b9050475f8282116123fc575f612406565b612406838361346a565b905080841115612414578093505b831561249257600b545b5f8511801561242c57505f81115b8015612441575061243e815f19613427565b85115b1561245857612451600a82613427565b905061241e565b612463858289612536565b600c5f8282546124739190613457565b925050819055508460105f82825461248b9190613457565b9091555050505b43600881905560165467ffffffffffffffff64010000000082048116926124cc926c0100000000000000000000000090049091169061347d565b67ffffffffffffffff161061252e576124ea43600c54600e54612eb4565b601680547fffffffffffffffffffffffff0000000000000000ffffffffffffffffffffffff166c010000000000000000000000004367ffffffffffffffff16021790555b505050505050565b5f805f6125438686612f97565b91509150815f036125675783818161255d5761255d6133ff565b04925050506125e0565b81841161257e5761257e6003851502601118612fb3565b5f848688095f868103871696879004966002600389028118808a02820302808a02820302808a02820302808a02820302808a02820302808a02909103029181900381900460010185841190960395909502919093039390930492909217029150505b9392505050565b5f826001600160a01b0316826040515f6040518083038185875af1925050503d805f8114612630576040519150601f19603f3d011682016040523d82523d5f602084013e612635565b606091505b50509050806126865760405162461bcd60e51b815260206004820152601660248201527f4e6174697665207472616e73666572206661696c6564000000000000000000006044820152606401610a47565b505050565b6002600154036126c7576040517f3ee5aeb500000000000000000000000000000000000000000000000000000000815260040160405180910390fd5b6002600155565b60025460ff1615610d8b576040517fd93c066500000000000000000000000000000000000000000000000000000000815260040160405180910390fd5b6001600160a01b0382165f9081526014602052604081206012546003549192916127359190613427565b90505f814311612745575f61274f565b61274f824361346a565b90505f61275b8261298e565b60038501549091505f818311801561277657505f8660010154115b1561279157600186015461278e906110ac848661346a565b90505b612799612315565b60098601548190158015906127b2575086600901544310155b156127d65760088701546127c69082613457565b5f60088901819055600989015590505b475f818311156127e657816127e8565b825b90508981101561283a5760405162461bcd60e51b815260206004820152601860248201527f536c6970706167653a2072657761726420746f6f206c6f7700000000000000006044820152606401610a47565b801561289f5761284a8b826125e7565b8060115f82825461285b9190613457565b90915550506040518181526001600160a01b038c16907f106f923f993c2149d49b4255ff723acafa1f2d94393f561d3eda32ae348f72419060200160405180910390a25b82156128ea578281106128b857600389018690556128f2565b5f6128c3868861346a565b90505f6128d1838387612536565b90506128dd8188613457565b60038c0155506128f29050565b600389018690555b6129058960010154600c54600b54612536565b89600201819055505050505050505050505050565b6040516001600160a01b0383811660248301526044820183905261268691859182169063a9059cbb906064015b604051602081830303815290604052915060e01b6020820180517bffffffffffffffffffffffffffffffffffffffffffffffffffffffff8381831617835250505050612fc4565b6016545f9062010000900461ffff1681036129aa57505f919050565b5f806129b584613049565b915091505f806129c7835f0151613181565b91509150836129db57505f95945050505050565b82604001515f036129f3575050602001519392505050565b811580612a175750805f015167ffffffffffffffff168667ffffffffffffffff1610155b15612af357825f015167ffffffffffffffff168667ffffffffffffffff161115612ae6575f612a44612cc1565b90505f846020015182612a57919061346a565b85519091505f90612a729067ffffffffffffffff164361346a565b9050805f03612a8d5750505060209092015195945050505050565b5f865f015167ffffffffffffffff168a67ffffffffffffffff16612ab1919061346a565b905081811115612abe5750805b612ac9838284612536565b8760200151612ad89190613457565b9a9950505050505050505050565b5050602001519392505050565b8251815167ffffffffffffffff918216911603612b17575050602001519392505050565b825181515f91612b269161347d565b67ffffffffffffffff1690505f845f015188612b42919061347d565b67ffffffffffffffff1690505f85602001518460200151612b63919061346a565b9050612b70818385612536565b8660200151612b7f9190613457565b9998505050505050505050565b5f80546001600160a01b038381167fffffffffffffffffffffffff0000000000000000000000000000000000000000831681178455604051919092169283917f8be0079c531659141344cd1fd0a4f28419497f9722a3daafe3b4186f6b6457e09190a35050565b5f8161025803612c0c5750670de0b6b3a7640000919050565b816104b003612c2457506714d1120d7b160000919050565b60405162461bcd60e51b815260206004820152601060248201527f496e76616c6964206475726174696f6e000000000000000000000000000000006044820152606401610a47565b612c746126ce565b6002805460ff191660011790557f62e78cea01bee320cd4e420270b5ea74000d11b0c9f74754ebdbfc544b05a258612ca93390565b6040516001600160a01b0390911681526020016122c6565b600e545f90808203612cd5575050600c5490565b6008544311612ce6575050600c5490565b5f60085443612cf5919061346a565b9050805f03612d0857600c549250505090565b5f5b5f82118015612d1a57505f600654115b15612d77575f6006545f19612d2f9190613427565b8311612d3b5782612d49565b600654612d49905f19613427565b905060065481612d59919061343a565b612d639083613457565b9150612d6f818461346a565b925050612d0a565b5f60115460105411612d89575f612d99565b601154601054612d99919061346a565b9050475f828211612daa575f612db4565b612db4838361346a565b905080841115612dc2578093505b835f03612dd757600c54965050505050505090565b600b545b5f85118015612de957505f81115b8015612dfe5750612dfb815f19613427565b85115b15612e1557612e0e600a82613427565b9050612ddb565b612e20858289612536565b600c54612e2d9190613457565b97505050505050505090565b60025460ff16610d8b576040517f8dfc202b00000000000000000000000000000000000000000000000000000000815260040160405180910390fd5b6040516001600160a01b038481166024830152838116604483015260648201839052612eae9186918216906323b872dd90608401612947565b50505050565b6016545f90612ec89061ffff1660016134a5565b905061010061ffff821610612eda57505f5b6040805160608101825267ffffffffffffffff8681168252602080830187815283850187815261ffff8781165f8181526015909552969093209451855467ffffffffffffffff1916941693909317845551600184015590516002909201919091556016805461ffff19169092179182905561010062010000909204161015612eae576016805462010000900461ffff16906002612f76836134c0565b91906101000a81548161ffff021916908361ffff1602179055505050505050565b5f805f1983850993909202808410938190039390930393915050565b634e487b715f52806020526024601cfd5b5f8060205f8451602086015f885af180612fe3576040513d5f823e3d81fd5b50505f513d91508115612ffa578060011415613007565b6001600160a01b0384163b155b15612eae576040517f5274afe70000000000000000000000000000000000000000000000000000000081526001600160a01b0385166004820152602401610a47565b604080516060810182525f80825260208201819052918101829052601654604080516060810182525f8082526020820181905291810182905261ffff909216915f5b60165461ffff62010000909104811690841610156131765761ffff84165f908152601560209081526040918290208251606081018452815467ffffffffffffffff1680825260018301549382019390935260029091015492810192909252158015906131055750805167ffffffffffffffff808a16911611155b8015613129575081158061312957508251815167ffffffffffffffff918216911610155b1561313657809250600191505b8461ffff165f036131555761314e60016101006134e0565b9450613163565b8461315f816134fb565b9550505b8361316d816134c0565b9450505061308b565b969095509350505050565b604080516060810182525f808252602082018190529181018290526016545f9081906131b29061ffff1660016134a5565b60165461ffff918216620100009091049091161061320f576016546101009061ffff6201000082048116916131e9918491166134a5565b6131f49060016134a5565b6131fe91906134e0565b6132089190613517565b9050613237565b60165461ffff62010000820481169161322a911660016134a5565b61323491906134e0565b90505b805b60165461ffff62010000909104811690841610156132f35761ffff81165f908152601560209081526040918290208251606081018452815467ffffffffffffffff90811680835260018401549483019490945260029092015493810193909352881610156132af57600197909650945050505050565b60165461ffff908116908316036132c657506132f3565b6101006132d48360016134a5565b6132de9190613517565b9150836132ea816134c0565b94505050613239565b5f60405180606001604052805f67ffffffffffffffff1681526020015f81526020015f81525094509450505050915091565b5f60208284031215613335575f80fd5b5035919050565b80356001600160a01b0381168114613352575f80fd5b919050565b5f60208284031215613367575f80fd5b6125e08261333c565b5f8060408385031215613381575f80fd5b61338a8361333c565b946020939093013593505050565b5f80604083850312156133a9575f80fd5b50508035926020909101359150565b5f602082840312156133c8575f80fd5b813567ffffffffffffffff811681146125e0575f80fd5b5f80604083850312156133f0575f80fd5b8235801515811461338a575f80fd5b634e487b7160e01b5f52601260045260245ffd5b634e487b7160e01b5f52601160045260245ffd5b5f82613435576134356133ff565b500490565b808202811582820484141761345157613451613413565b92915050565b8082018082111561345157613451613413565b8181038181111561345157613451613413565b67ffffffffffffffff82811682821603908082111561349e5761349e613413565b5092915050565b61ffff81811683821601908082111561349e5761349e613413565b5f61ffff8083168181036134d6576134d6613413565b6001019392505050565b61ffff82811682821603908082111561349e5761349e613413565b5f61ffff82168061350e5761350e613413565b5f190192915050565b5f61ffff8084168061352b5761352b6133ff565b9216919091069291505056fea26469706673582212201046915ff6d4b9b2d58d2c73bed0e72f7a66a26e776b69d918b8b77c7a645af264736f6c63430008190033",
  "linkReferences": {},
  "deployedLinkReferences": {}
}