{
  "_format": "hh-sol-artifact-1",
  "contractName": "MultiBeneficiaryVesting",
  "sourceName": "contracts/LockupContract.sol",
  "abi": [
    {
      "inputs": [],
      "stateMutability": "nonpayable",
      "type": "constructor"
    },
    {
      "anonymous": false,
      "inputs": [
        {
          "indexed": true,
          "internalType": "address",
          "name": "beneficiary",
          "type": "address"
        },
        {
          "indexed": false,
          "internalType": "uint256",
          "name": "amount",
          "type": "uint256"
        }
      ],
      "name": "TokensReleased",
      "type": "event"
    },
    {
      "anonymous": false,
      "inputs": [
        {
          "indexed": true,
          "internalType": "address",
          "name": "beneficiary",
          "type": "address"
        },
        {
          "indexed": false,
          "internalType": "uint256",
          "name": "totalAmount",
          "type": "uint256"
        },
        {
          "indexed": false,
          "internalType": "uint64",
          "name": "startBlock",
          "type": "uint64"
        },
        {
          "indexed": false,
          "internalType": "uint64",
          "name": "durationInBlocks",
          "type": "uint64"
        }
      ],
      "name": "VestingScheduleAdded",
      "type": "event"
    },
    {
      "inputs": [
        {
          "components": [
            {
              "internalType": "address",
              "name": "beneficiary",
              "type": "address"
            },
            {
              "internalType": "uint256",
              "name": "totalAmount",
              "type": "uint256"
            },
            {
              "internalType": "uint64",
              "name": "startBlock",
              "type": "uint64"
            },
            {
              "internalType": "uint64",
              "name": "durationInBlocks",
              "type": "uint64"
            }
          ],
          "internalType": "struct MultiBeneficiaryVesting.VestingScheduleInput[]",
          "name": "schedules",
          "type": "tuple[]"
        }
      ],
      "name": "addBeneficiaries",
      "outputs": [],
      "stateMutability": "nonpayable",
      "type": "function"
    },
    {
      "inputs": [
        {
          "internalType": "address",
          "name": "",
          "type": "address"
        }
      ],
      "name": "beneficiaries",
      "outputs": [
        {
          "internalType": "uint256",
          "name": "totalAmount",
          "type": "uint256"
        },
        {
          "internalType": "uint256",
          "name": "releasedAmount",
          "type": "uint256"
        },
        {
          "internalType": "uint64",
          "name": "startBlock",
          "type": "uint64"
        },
        {
          "internalType": "uint64",
          "name": "durationInBlocks",
          "type": "uint64"
        }
      ],
      "stateMutability": "view",
      "type": "function"
    },
    {
      "inputs": [],
      "name": "getBalance",
      "outputs": [
        {
          "internalType": "uint256",
          "name": "",
          "type": "uint256"
        }
      ],
      "stateMutability": "view",
      "type": "function"
    },
    {
      "inputs": [
        {
          "internalType": "address",
          "name": "beneficiary",
          "type": "address"
        }
      ],
      "name": "getClaimableAmount",
      "outputs": [
        {
          "internalType": "uint256",
          "name": "",
          "type": "uint256"
        }
      ],
      "stateMutability": "view",
      "type": "function"
    },
    {
      "inputs": [],
      "name": "owner",
      "outputs": [
        {
          "internalType": "address",
          "name": "",
          "type": "address"
        }
      ],
      "stateMutability": "view",
      "type": "function"
    },
    {
      "inputs": [],
      "name": "release",
      "outputs": [],
      "stateMutability": "nonpayable",
      "type": "function"
    },
    {
      "inputs": [],
      "name": "revokeOwnership",
      "outputs": [],
      "stateMutability": "nonpayable",
      "type": "function"
    },
    {
      "stateMutability": "payable",
      "type": "receive"
    }
  ],
  "bytecode": "0x608060405234801561001057600080fd5b50600080546001600160a01b03191633179055610b11806100326000396000f3fe6080604052600436106100745760003560e01c80637691276a1161004e5780637691276a1461013e57806386d1a69f1461015e5780638da5cb5b14610173578063e12f3a61146101ab57600080fd5b8063015677391461008057806312065fe01461010a5780632b9689581461012757600080fd5b3661007b57005b600080fd5b34801561008c57600080fd5b506100d561009b366004610953565b600160208190526000918252604090912080549181015460029091015467ffffffffffffffff808216916801000000000000000090041684565b60408051948552602085019390935267ffffffffffffffff918216928401929092521660608201526080015b60405180910390f35b34801561011657600080fd5b50475b604051908152602001610101565b34801561013357600080fd5b5061013c6101cb565b005b34801561014a57600080fd5b5061013c610159366004610983565b610254565b34801561016a57600080fd5b5061013c6106a4565b34801561017f57600080fd5b50600054610193906001600160a01b031681565b6040516001600160a01b039091168152602001610101565b3480156101b757600080fd5b506101196101c6366004610953565b610850565b6000546001600160a01b0316331461022a5760405162461bcd60e51b815260206004820152601f60248201527f4f6e6c79206f776e65722063616e207265766f6b65206f776e6572736869700060448201526064015b60405180910390fd5b600080547fffffffffffffffffffffffff0000000000000000000000000000000000000000169055565b6000546001600160a01b031633146102ae5760405162461bcd60e51b815260206004820181905260248201527f4f6e6c79206f776e65722063616e206164642062656e656669636961726965736044820152606401610221565b60005b8181101561069f5760008383838181106102cd576102cd6109f8565b6102e39260206080909202019081019150610953565b90506001600160a01b03811661033b5760405162461bcd60e51b815260206004820152600f60248201527f496e76616c6964206164647265737300000000000000000000000000000000006044820152606401610221565b6001600160a01b038116600090815260016020526040902054156103a15760405162461bcd60e51b815260206004820152601a60248201527f42656e656669636961727920616c7265616479206578697374730000000000006044820152606401610221565b60008484848181106103b5576103b56109f8565b905060800201602001351161040c5760405162461bcd60e51b815260206004820181905260248201527f416d6f756e74206d7573742062652067726561746572207468616e207a65726f6044820152606401610221565b6000848484818110610420576104206109f8565b90506080020160600160208101906104389190610a0e565b67ffffffffffffffff16116104b55760405162461bcd60e51b815260206004820152602260248201527f4475726174696f6e206d7573742062652067726561746572207468616e207a6560448201527f726f0000000000000000000000000000000000000000000000000000000000006064820152608401610221565b60405180608001604052808585858181106104d2576104d26109f8565b905060800201602001358152602001600081526020018585858181106104fa576104fa6109f8565b90506080020160400160208101906105129190610a0e565b67ffffffffffffffff168152602001858585818110610533576105336109f8565b905060800201606001602081019061054b9190610a0e565b67ffffffffffffffff9081169091526001600160a01b0383166000818152600160208181526040928390208651815590860151918101919091559084015160029091018054606090950151841668010000000000000000027fffffffffffffffffffffffffffffffff0000000000000000000000000000000090951691909316179290921790557f253bf6e5fad789e5dbc1a5974ef5ebd0123023ba920c98ed7ca75dbc94eda9c3858585818110610605576106056109f8565b90506080020160200135868686818110610621576106216109f8565b90506080020160400160208101906106399190610a0e565b87878781811061064b5761064b6109f8565b90506080020160600160208101906106639190610a0e565b6040805193845267ffffffffffffffff928316602085015291169082015260600160405180910390a2508061069781610a4e565b9150506102b1565b505050565b33600090815260016020526040902080546107015760405162461bcd60e51b815260206004820152601e60248201527f4e6f2076657374696e67207363686564756c6520666f722073656e64657200006044820152606401610221565b600061070c826108b2565b9050816001015481116107615760405162461bcd60e51b815260206004820152601f60248201527f4e6f20746f6b656e7320617661696c61626c6520666f722072656c65617365006044820152606401610221565b60008260010154826107739190610a67565b60018401839055604051909150600090339083908381818185875af1925050503d80600081146107bf576040519150601f19603f3d011682016040523d82523d6000602084013e6107c4565b606091505b50509050806108155760405162461bcd60e51b815260206004820152600f60248201527f5472616e73666572206661696c656400000000000000000000000000000000006044820152606401610221565b60405182815233907fc7798891864187665ac6dd119286e44ec13f014527aeeb2b8eb3fd413df931799060200160405180910390a250505050565b6001600160a01b0381166000908152600160205260408120805482036108795750600092915050565b6000610884826108b2565b90508160010154811161089b575060009392505050565b60018201546108aa9082610a67565b949350505050565b600281015460009067ffffffffffffffff164310156108d357506000919050565b60028201546108fa9067ffffffffffffffff68010000000000000000820481169116610a7a565b67ffffffffffffffff16431061090f57505490565b600282015467ffffffffffffffff680100000000000000008204811691610937911643610a67565b83546109439190610aa2565b61094d9190610ab9565b92915050565b60006020828403121561096557600080fd5b81356001600160a01b038116811461097c57600080fd5b9392505050565b6000806020838503121561099657600080fd5b823567ffffffffffffffff808211156109ae57600080fd5b818501915085601f8301126109c257600080fd5b8135818111156109d157600080fd5b8660208260071b85010111156109e657600080fd5b60209290920196919550909350505050565b634e487b7160e01b600052603260045260246000fd5b600060208284031215610a2057600080fd5b813567ffffffffffffffff8116811461097c57600080fd5b634e487b7160e01b600052601160045260246000fd5b600060018201610a6057610a60610a38565b5060010190565b8181038181111561094d5761094d610a38565b67ffffffffffffffff818116838216019080821115610a9b57610a9b610a38565b5092915050565b808202811582820484141761094d5761094d610a38565b600082610ad657634e487b7160e01b600052601260045260246000fd5b50049056fea26469706673582212205fe603f3183e81554049138da647bb14e177322e5ca081090593e432bd15c34e64736f6c63430008140033",
  "linkReferences": {},
  "deployedLinkReferences": {}
}