{
  "_format": "hh-sol-artifact-1",
  "contractName": "MultiBeneficiaryVesting",
  "sourceName": "contracts/LockupContract.sol",
  "abi": [
    {
      "inputs": [
        {
          "internalType": "address",
          "name": "_withdrawAddress",
          "type": "address"
        }
      ],
      "stateMutability": "nonpayable",
      "type": "constructor"
    },
    {
      "anonymous": false,
      "inputs": [
        {
          "indexed": true,
          "internalType": "address",
          "name": "recipient",
          "type": "address"
        },
        {
          "indexed": false,
          "internalType": "uint256",
          "name": "amount",
          "type": "uint256"
        }
      ],
      "name": "OwnerWithdrawal",
      "type": "event"
    },
    {
      "anonymous": false,
      "inputs": [
        {
          "indexed": true,
          "internalType": "address",
          "name": "previousOwner",
          "type": "address"
        },
        {
          "indexed": true,
          "internalType": "address",
          "name": "newOwner",
          "type": "address"
        }
      ],
      "name": "OwnershipTransferred",
      "type": "event"
    },
    {
      "anonymous": false,
      "inputs": [
        {
          "indexed": true,
          "internalType": "address",
          "name": "beneficiary",
          "type": "address"
        },
        {
          "indexed": false,
          "internalType": "uint256",
          "name": "amount",
          "type": "uint256"
        }
      ],
      "name": "TokensReleased",
      "type": "event"
    },
    {
      "anonymous": false,
      "inputs": [
        {
          "indexed": true,
          "internalType": "address",
          "name": "beneficiary",
          "type": "address"
        },
        {
          "indexed": false,
          "internalType": "uint256",
          "name": "totalAmount",
          "type": "uint256"
        },
        {
          "indexed": false,
          "internalType": "uint64",
          "name": "startBlock",
          "type": "uint64"
        },
        {
          "indexed": false,
          "internalType": "uint64",
          "name": "durationInBlocks",
          "type": "uint64"
        },
        {
          "indexed": false,
          "internalType": "uint64",
          "name": "cliffBlock",
          "type": "uint64"
        }
      ],
      "name": "VestingScheduleAdded",
      "type": "event"
    },
    {
      "inputs": [],
      "name": "MIN_CLIFF_PERIOD",
      "outputs": [
        {
          "internalType": "uint256",
          "name": "",
          "type": "uint256"
        }
      ],
      "stateMutability": "view",
      "type": "function"
    },
    {
      "inputs": [],
      "name": "MIN_VESTING_DURATION",
      "outputs": [
        {
          "internalType": "uint256",
          "name": "",
          "type": "uint256"
        }
      ],
      "stateMutability": "view",
      "type": "function"
    },
    {
      "inputs": [],
      "name": "OWNERSHIP_TRANSFER_WAIT_PERIOD",
      "outputs": [
        {
          "internalType": "uint256",
          "name": "",
          "type": "uint256"
        }
      ],
      "stateMutability": "view",
      "type": "function"
    },
    {
      "inputs": [],
      "name": "acceptOwnership",
      "outputs": [],
      "stateMutability": "nonpayable",
      "type": "function"
    },
    {
      "inputs": [
        {
          "components": [
            {
              "internalType": "address",
              "name": "beneficiary",
              "type": "address"
            },
            {
              "internalType": "uint256",
              "name": "totalAmount",
              "type": "uint256"
            },
            {
              "internalType": "uint64",
              "name": "startBlock",
              "type": "uint64"
            },
            {
              "internalType": "uint64",
              "name": "durationInBlocks",
              "type": "uint64"
            },
            {
              "internalType": "uint64",
              "name": "cliffBlock",
              "type": "uint64"
            }
          ],
          "internalType": "struct MultiBeneficiaryVesting.VestingScheduleInput[]",
          "name": "schedules",
          "type": "tuple[]"
        }
      ],
      "name": "addBeneficiaries",
      "outputs": [],
      "stateMutability": "nonpayable",
      "type": "function"
    },
    {
      "inputs": [
        {
          "internalType": "address",
          "name": "",
          "type": "address"
        }
      ],
      "name": "beneficiaries",
      "outputs": [
        {
          "internalType": "uint256",
          "name": "totalAmount",
          "type": "uint256"
        },
        {
          "internalType": "uint256",
          "name": "releasedAmount",
          "type": "uint256"
        },
        {
          "internalType": "uint64",
          "name": "startBlock",
          "type": "uint64"
        },
        {
          "internalType": "uint64",
          "name": "durationInBlocks",
          "type": "uint64"
        },
        {
          "internalType": "uint64",
          "name": "cliffBlock",
          "type": "uint64"
        }
      ],
      "stateMutability": "view",
      "type": "function"
    },
    {
      "inputs": [],
      "name": "getBalance",
      "outputs": [
        {
          "internalType": "uint256",
          "name": "",
          "type": "uint256"
        }
      ],
      "stateMutability": "view",
      "type": "function"
    },
    {
      "inputs": [
        {
          "internalType": "address",
          "name": "beneficiary",
          "type": "address"
        }
      ],
      "name": "getClaimableAmount",
      "outputs": [
        {
          "internalType": "uint256",
          "name": "",
          "type": "uint256"
        }
      ],
      "stateMutability": "view",
      "type": "function"
    },
    {
      "inputs": [
        {
          "internalType": "address",
          "name": "beneficiary",
          "type": "address"
        }
      ],
      "name": "getVestedAmount",
      "outputs": [
        {
          "internalType": "uint256",
          "name": "",
          "type": "uint256"
        }
      ],
      "stateMutability": "view",
      "type": "function"
    },
    {
      "inputs": [
        {
          "internalType": "address",
          "name": "beneficiary",
          "type": "address"
        }
      ],
      "name": "hasReachedCliff",
      "outputs": [
        {
          "internalType": "bool",
          "name": "",
          "type": "bool"
        }
      ],
      "stateMutability": "view",
      "type": "function"
    },
    {
      "inputs": [],
      "name": "owner",
      "outputs": [
        {
          "internalType": "address",
          "name": "",
          "type": "address"
        }
      ],
      "stateMutability": "view",
      "type": "function"
    },
    {
      "inputs": [],
      "name": "ownershipTransferStartBlock",
      "outputs": [
        {
          "internalType": "uint256",
          "name": "",
          "type": "uint256"
        }
      ],
      "stateMutability": "view",
      "type": "function"
    },
    {
      "inputs": [],
      "name": "pendingOwner",
      "outputs": [
        {
          "internalType": "address",
          "name": "",
          "type": "address"
        }
      ],
      "stateMutability": "view",
      "type": "function"
    },
    {
      "inputs": [],
      "name": "release",
      "outputs": [],
      "stateMutability": "nonpayable",
      "type": "function"
    },
    {
      "inputs": [],
      "name": "renounceOwnership",
      "outputs": [],
      "stateMutability": "nonpayable",
      "type": "function"
    },
    {
      "inputs": [
        {
          "internalType": "address",
          "name": "newOwner",
          "type": "address"
        }
      ],
      "name": "transferOwnership",
      "outputs": [],
      "stateMutability": "nonpayable",
      "type": "function"
    },
    {
      "inputs": [],
      "name": "withdrawAddress",
      "outputs": [
        {
          "internalType": "address",
          "name": "",
          "type": "address"
        }
      ],
      "stateMutability": "view",
      "type": "function"
    },
    {
      "inputs": [],
      "name": "withdrawFunds",
      "outputs": [],
      "stateMutability": "nonpayable",
      "type": "function"
    },
    {
      "stateMutability": "payable",
      "type": "receive"
    }
  ],
  "bytecode": "0x60a060405234801561001057600080fd5b5060405161162f38038061162f83398101604081905261002f916100e5565b6001600160a01b0381166100895760405162461bcd60e51b815260206004820152601f60248201527f576974686472617720616464726573732063616e6e6f74206265207a65726f00604482015260640160405180910390fd5b600080546001600160a01b0383166080526001600160a81b03191633610100810260ff19169190911782556040519091907f8be0079c531659141344cd1fd0a4f28419497f9722a3daafe3b4186f6b6457e0908290a350610115565b6000602082840312156100f757600080fd5b81516001600160a01b038116811461010e57600080fd5b9392505050565b6080516114f161013e60003960008181610205015281816104e001526105a101526114f16000f3fe60806040526004361061012d5760003560e01c806386d1a69f116100a5578063b2423bfb11610074578063e12f3a6111610059578063e12f3a611461036a578063e30c39781461038a578063f2fde38b146103aa57600080fd5b8063b2423bfb14610334578063d5a73fdd1461034a57600080fd5b806386d1a69f146102aa5780638da5cb5b146102bf578063a1d3eab5146102e4578063a30603c91461030457600080fd5b80633011071e116100fc578063715018a6116100e1578063715018a61461028057806376307d2e1461025657806379ba50971461029557600080fd5b80633011071e1461025657806334733dd41461026b57600080fd5b8063015677391461013957806312065fe0146101d65780631581b600146101f357806324600fc31461023f57600080fd5b3661013457005b600080fd5b34801561014557600080fd5b5061019a610154366004611327565b60036020526000908152604090208054600182015460029092015490919067ffffffffffffffff80821691680100000000000000008104821691600160801b9091041685565b60408051958652602086019490945267ffffffffffffffff928316938501939093528116606084015216608082015260a0015b60405180910390f35b3480156101e257600080fd5b50475b6040519081526020016101cd565b3480156101ff57600080fd5b506102277f000000000000000000000000000000000000000000000000000000000000000081565b6040516001600160a01b0390911681526020016101cd565b34801561024b57600080fd5b506102546103ca565b005b34801561026257600080fd5b506101e5606481565b34801561027757600080fd5b506101e5601981565b34801561028c57600080fd5b50610254610610565b3480156102a157600080fd5b506102546106cb565b3480156102b657600080fd5b50610254610818565b3480156102cb57600080fd5b506000546102279061010090046001600160a01b031681565b3480156102f057600080fd5b506102546102ff366004611350565b610ab6565b34801561031057600080fd5b5061032461031f366004611327565b611096565b60405190151581526020016101cd565b34801561034057600080fd5b506101e560025481565b34801561035657600080fd5b506101e5610365366004611327565b6110dd565b34801561037657600080fd5b506101e5610385366004611327565b611116565b34801561039657600080fd5b50600154610227906001600160a01b031681565b3480156103b657600080fd5b506102546103c5366004611327565b61119e565b60005461010090046001600160a01b0316331461042e5760405162461bcd60e51b815260206004820152601760248201527f43616c6c6572206973206e6f7420746865206f776e657200000000000000000060448201526064015b60405180910390fd5b60005460ff16156104815760405162461bcd60e51b815260206004820152601f60248201527f5265656e7472616e637947756172643a207265656e7472616e742063616c6c006044820152606401610425565b6000805460ff1916600117905547806104dc5760405162461bcd60e51b815260206004820152601760248201527f436f6e747261637420686173206e6f2062616c616e63650000000000000000006044820152606401610425565b60007f00000000000000000000000000000000000000000000000000000000000000006001600160a01b03168260405160006040518083038185875af1925050503d8060008114610549576040519150601f19603f3d011682016040523d82523d6000602084013e61054e565b606091505b505090508061059f5760405162461bcd60e51b815260206004820152600f60248201527f5472616e73666572206661696c656400000000000000000000000000000000006044820152606401610425565b7f00000000000000000000000000000000000000000000000000000000000000006001600160a01b03167fa919fadcfa556a012bab31b15f596ea7ccd397adbf10e15f176db9055ab361c4836040516105fa91815260200190565b60405180910390a250506000805460ff19169055565b60005461010090046001600160a01b0316331461066f5760405162461bcd60e51b815260206004820152601760248201527f43616c6c6572206973206e6f7420746865206f776e65720000000000000000006044820152606401610425565b600080546040516101009091046001600160a01b0316907f8be0079c531659141344cd1fd0a4f28419497f9722a3daafe3b4186f6b6457e0908390a36000805474ffffffffffffffffffffffffffffffffffffffff0019169055565b6001546001600160a01b031633146107255760405162461bcd60e51b815260206004820152601f60248201527f43616c6c6572206973206e6f74207468652070656e64696e67206f776e6572006044820152606401610425565b606460025461073491906113db565b4310156107835760405162461bcd60e51b815260206004820152601c60248201527f57616974696e6720706572696f64206e6f7420636f6d706c65746564000000006044820152606401610425565b600154600080546040516001600160a01b0393841693610100909204909116917f8be0079c531659141344cd1fd0a4f28419497f9722a3daafe3b4186f6b6457e091a3600180546000805474ffffffffffffffffffffffffffffffffffffffff0019166101006001600160a01b0384160217815573ffffffffffffffffffffffffffffffffffffffff19909116909155600255565b60005460ff161561086b5760405162461bcd60e51b815260206004820152601f60248201527f5265656e7472616e637947756172643a207265656e7472616e742063616c6c006044820152606401610425565b6000805460ff1916600117815533815260036020526040902080546108d25760405162461bcd60e51b815260206004820152601e60248201527f4e6f2076657374696e67207363686564756c6520666f722073656e64657200006044820152606401610425565b6002810154600160801b900467ffffffffffffffff1643101561095d5760405162461bcd60e51b815260206004820152602160248201527f436c69666620706572696f6420686173206e6f74206265656e2072656163686560448201527f64000000000000000000000000000000000000000000000000000000000000006064820152608401610425565b600061096882611286565b9050816001015481116109bd5760405162461bcd60e51b815260206004820152601f60248201527f4e6f20746f6b656e7320617661696c61626c6520666f722072656c65617365006044820152606401610425565b60008260010154826109cf91906113ee565b60018401839055604051909150600090339083908381818185875af1925050503d8060008114610a1b576040519150601f19603f3d011682016040523d82523d6000602084013e610a20565b606091505b5050905080610a715760405162461bcd60e51b815260206004820152600f60248201527f5472616e73666572206661696c656400000000000000000000000000000000006044820152606401610425565b60405182815233907fc7798891864187665ac6dd119286e44ec13f014527aeeb2b8eb3fd413df931799060200160405180910390a250506000805460ff191690555050565b60005461010090046001600160a01b03163314610b155760405162461bcd60e51b815260206004820152601760248201527f43616c6c6572206973206e6f7420746865206f776e65720000000000000000006044820152606401610425565b60005b81811015611091576000838383818110610b3457610b34611401565b610b4a92602060a0909202019081019150611327565b90506001600160a01b038116610ba25760405162461bcd60e51b815260206004820152600f60248201527f496e76616c6964206164647265737300000000000000000000000000000000006044820152606401610425565b6001600160a01b03811660009081526003602052604090205415610c085760405162461bcd60e51b815260206004820152601a60248201527f42656e656669636961727920616c7265616479206578697374730000000000006044820152606401610425565b6000848484818110610c1c57610c1c611401565b905060a002016020013511610c735760405162461bcd60e51b815260206004820181905260248201527f416d6f756e74206d7573742062652067726561746572207468616e207a65726f6044820152606401610425565b6064848484818110610c8757610c87611401565b905060a002016060016020810190610c9f9190611417565b67ffffffffffffffff161015610d1d5760405162461bcd60e51b815260206004820152603060248201527f4475726174696f6e206d757374206265206174206c656173742033302064617960448201527f732028313732383020626c6f636b7329000000000000000000000000000000006064820152608401610425565b6019848484818110610d3157610d31611401565b905060a002016040016020810190610d499190611417565b67ffffffffffffffff16610d5d91906113db565b848484818110610d6f57610d6f611401565b905060a002016080016020810190610d879190611417565b67ffffffffffffffff161015610e055760405162461bcd60e51b815260206004820152602960248201527f436c696666206d757374206265206174206c656173742037206461797320616660448201527f74657220737461727400000000000000000000000000000000000000000000006064820152608401610425565b6040518060a00160405280858585818110610e2257610e22611401565b905060a0020160200135815260200160008152602001858585818110610e4a57610e4a611401565b905060a002016040016020810190610e629190611417565b67ffffffffffffffff168152602001858585818110610e8357610e83611401565b905060a002016060016020810190610e9b9190611417565b67ffffffffffffffff168152602001858585818110610ebc57610ebc611401565b905060a002016080016020810190610ed49190611417565b67ffffffffffffffff9081169091526001600160a01b03831660008181526003602090815260409182902085518155908501516001820155908401516002909101805460608601516080909601519285167fffffffffffffffffffffffffffffffff00000000000000000000000000000000909116176801000000000000000095851695909502949094177fffffffffffffffff0000000000000000ffffffffffffffffffffffffffffffff16600160801b9190931602919091179091557f6b674936d9fec34f3098fe71bda34145f3ba2cfac0a5abd3b0ef6e8e48765a0b858585818110610fc557610fc5611401565b905060a0020160200135868686818110610fe157610fe1611401565b905060a002016040016020810190610ff99190611417565b87878781811061100b5761100b611401565b905060a0020160600160208101906110239190611417565b88888881811061103557611035611401565b905060a00201608001602081019061104d9190611417565b6040805194855267ffffffffffffffff9384166020860152918316848301529091166060830152519081900360800190a2508061108981611441565b915050610b18565b505050565b6001600160a01b0381166000908152600360205260408120805482036110bf5750600092915050565b60020154600160801b900467ffffffffffffffff1643101592915050565b6001600160a01b0381166000908152600360205260408120805482036111065750600092915050565b61110f81611286565b9392505050565b6001600160a01b03811660009081526003602052604081208054820361113f5750600092915050565b6002810154600160801b900467ffffffffffffffff164310156111655750600092915050565b600061117082611286565b905081600101548111611187575060009392505050565b600182015461119690826113ee565b949350505050565b60005461010090046001600160a01b031633146111fd5760405162461bcd60e51b815260206004820152601760248201527f43616c6c6572206973206e6f7420746865206f776e65720000000000000000006044820152606401610425565b6001600160a01b0381166112535760405162461bcd60e51b815260206004820152601d60248201527f4e6577206f776e657220697320746865207a65726f20616464726573730000006044820152606401610425565b6001805473ffffffffffffffffffffffffffffffffffffffff19166001600160a01b039290921691909117905543600255565b600281015460009067ffffffffffffffff164310156112a757506000919050565b60028201546112ce9067ffffffffffffffff6801000000000000000082048116911661145a565b67ffffffffffffffff1643106112e357505490565b600282015467ffffffffffffffff68010000000000000000820481169161130b9116436113ee565b83546113179190611482565b6113219190611499565b92915050565b60006020828403121561133957600080fd5b81356001600160a01b038116811461110f57600080fd5b6000806020838503121561136357600080fd5b823567ffffffffffffffff8082111561137b57600080fd5b818501915085601f83011261138f57600080fd5b81358181111561139e57600080fd5b86602060a0830285010111156113b357600080fd5b60209290920196919550909350505050565b634e487b7160e01b600052601160045260246000fd5b80820180821115611321576113216113c5565b81810381811115611321576113216113c5565b634e487b7160e01b600052603260045260246000fd5b60006020828403121561142957600080fd5b813567ffffffffffffffff8116811461110f57600080fd5b600060018201611453576114536113c5565b5060010190565b67ffffffffffffffff81811683821601908082111561147b5761147b6113c5565b5092915050565b8082028115828204841417611321576113216113c5565b6000826114b657634e487b7160e01b600052601260045260246000fd5b50049056fea26469706673582212203e2f30897626b2b5e731e6c86cb9818f6d73db8e39f3d2dc1158cb1e8ce15a1a64736f6c63430008140033",
  "linkReferences": {},
  "deployedLinkReferences": {}
}